{
	"AaveFlashswap.sol": {
		"AaveFlashswap": {
			"abi": [
				{
					"inputs": [
						{
							"internalType": "contract IPoolAddressesProvider",
							"name": "_provider",
							"type": "address"
						}
					],
					"stateMutability": "nonpayable",
					"type": "constructor"
				},
				{
					"anonymous": false,
					"inputs": [
						{
							"indexed": true,
							"internalType": "bytes",
							"name": "data",
							"type": "bytes"
						}
					],
					"name": "CatchDataError",
					"type": "event"
				},
				{
					"anonymous": false,
					"inputs": [
						{
							"indexed": true,
							"internalType": "string",
							"name": "message",
							"type": "string"
						}
					],
					"name": "CatchStringError",
					"type": "event"
				},
				{
					"anonymous": false,
					"inputs": [
						{
							"indexed": true,
							"internalType": "string",
							"name": "message",
							"type": "string"
						}
					],
					"name": "SuccessEvent",
					"type": "event"
				},
				{
					"inputs": [],
					"name": "ADDRESSES_PROVIDER",
					"outputs": [
						{
							"internalType": "contract IPoolAddressesProvider",
							"name": "",
							"type": "address"
						}
					],
					"stateMutability": "view",
					"type": "function"
				},
				{
					"inputs": [],
					"name": "POOL",
					"outputs": [
						{
							"internalType": "contract IPool",
							"name": "",
							"type": "address"
						}
					],
					"stateMutability": "view",
					"type": "function"
				},
				{
					"inputs": [
						{
							"internalType": "address",
							"name": "_asset",
							"type": "address"
						},
						{
							"internalType": "uint256",
							"name": "_amount",
							"type": "uint256"
						},
						{
							"internalType": "uint256",
							"name": "_fees",
							"type": "uint256"
						},
						{
							"internalType": "address",
							"name": "_sender",
							"type": "address"
						},
						{
							"internalType": "bytes",
							"name": "_params",
							"type": "bytes"
						}
					],
					"name": "executeOperation",
					"outputs": [
						{
							"internalType": "bool",
							"name": "",
							"type": "bool"
						}
					],
					"stateMutability": "nonpayable",
					"type": "function"
				},
				{
					"inputs": [
						{
							"internalType": "address",
							"name": "_asset",
							"type": "address"
						},
						{
							"internalType": "uint256",
							"name": "_amount",
							"type": "uint256"
						}
					],
					"name": "flashSwapCall",
					"outputs": [],
					"stateMutability": "nonpayable",
					"type": "function"
				}
			],
			"devdoc": {
				"kind": "dev",
				"methods": {},
				"version": 1
			},
			"evm": {
				"assembly": "    /* \"AaveFlashswap.sol\":637:3791  contract AaveFlashswap is FlashLoanSimpleReceiverBase {... */\n  mstore(0x40, 0xc0)\n    /* \"AaveFlashswap.sol\":1436:1530  constructor(IPoolAddressesProvider _provider) FlashLoanSimpleReceiverBase(_provider) public {} */\n  callvalue\n  dup1\n  iszero\n  tag_1\n  jumpi\n  0x00\n  dup1\n  revert\ntag_1:\n  pop\n  mload(0x40)\n  sub(codesize, bytecodeSize)\n  dup1\n  bytecodeSize\n  dup4\n  codecopy\n  dup2\n  dup2\n  add\n  0x40\n  mstore\n  dup2\n  add\n  swap1\n  tag_2\n  swap2\n  swap1\n  tag_3\n  jump\t// in\ntag_2:\n    /* \"AaveFlashswap.sol\":1510:1519  _provider */\n  dup1\n    /* \"aave-v3-core/contracts/flashloan/base/FlashLoanSimpleReceiverBase.sol\":690:698  provider */\n  dup1\n    /* \"aave-v3-core/contracts/flashloan/base/FlashLoanSimpleReceiverBase.sol\":669:698  ADDRESSES_PROVIDER = provider */\n  0xffffffffffffffffffffffffffffffffffffffff\n  and\n  0x80\n  dup2\n  0xffffffffffffffffffffffffffffffffffffffff\n  and\n  dup2\n  mstore\n  pop\n  pop\n    /* \"aave-v3-core/contracts/flashloan/base/FlashLoanSimpleReceiverBase.sol\":718:726  provider */\n  dup1\n    /* \"aave-v3-core/contracts/flashloan/base/FlashLoanSimpleReceiverBase.sol\":718:734  provider.getPool */\n  0xffffffffffffffffffffffffffffffffffffffff\n  and\n  0x026b1d5f\n    /* \"aave-v3-core/contracts/flashloan/base/FlashLoanSimpleReceiverBase.sol\":718:736  provider.getPool() */\n  mload(0x40)\n  dup2\n  0xffffffff\n  and\n  0xe0\n  shl\n  dup2\n  mstore\n  0x04\n  add\n  0x20\n  mload(0x40)\n  dup1\n  dup4\n  sub\n  dup2\n  dup7\n  gas\n  staticcall\n  iszero\n  dup1\n  iszero\n  tag_8\n  jumpi\n  returndatasize\n  0x00\n  dup1\n  returndatacopy\n  revert(0x00, returndatasize)\ntag_8:\n  pop\n  pop\n  pop\n  pop\n  mload(0x40)\n  returndatasize\n  not(0x1f)\n  0x1f\n  dup3\n  add\n  and\n  dup3\n  add\n  dup1\n  0x40\n  mstore\n  pop\n  dup2\n  add\n  swap1\n  tag_9\n  swap2\n  swap1\n  tag_10\n  jump\t// in\ntag_9:\n    /* \"aave-v3-core/contracts/flashloan/base/FlashLoanSimpleReceiverBase.sol\":705:737  POOL = IPool(provider.getPool()) */\n  0xffffffffffffffffffffffffffffffffffffffff\n  and\n  0xa0\n  dup2\n  0xffffffffffffffffffffffffffffffffffffffff\n  and\n  dup2\n  mstore\n  pop\n  pop\n    /* \"aave-v3-core/contracts/flashloan/base/FlashLoanSimpleReceiverBase.sol\":617:743  constructor(IPoolAddressesProvider provider) {... */\n  pop\n    /* \"AaveFlashswap.sol\":1436:1530  constructor(IPoolAddressesProvider _provider) FlashLoanSimpleReceiverBase(_provider) public {} */\n  pop\n    /* \"AaveFlashswap.sol\":637:3791  contract AaveFlashswap is FlashLoanSimpleReceiverBase {... */\n  jump(tag_12)\n    /* \"#utility.yul\":88:205   */\ntag_14:\n    /* \"#utility.yul\":197:198   */\n  0x00\n    /* \"#utility.yul\":194:195   */\n  dup1\n    /* \"#utility.yul\":187:199   */\n  revert\n    /* \"#utility.yul\":334:460   */\ntag_16:\n    /* \"#utility.yul\":371:378   */\n  0x00\n    /* \"#utility.yul\":411:453   */\n  0xffffffffffffffffffffffffffffffffffffffff\n    /* \"#utility.yul\":404:409   */\n  dup3\n    /* \"#utility.yul\":400:454   */\n  and\n    /* \"#utility.yul\":389:454   */\n  swap1\n  pop\n    /* \"#utility.yul\":334:460   */\n  swap2\n  swap1\n  pop\n  jump\t// out\n    /* \"#utility.yul\":466:562   */\ntag_17:\n    /* \"#utility.yul\":503:510   */\n  0x00\n    /* \"#utility.yul\":532:556   */\n  tag_29\n    /* \"#utility.yul\":550:555   */\n  dup3\n    /* \"#utility.yul\":532:556   */\n  tag_16\n  jump\t// in\ntag_29:\n    /* \"#utility.yul\":521:556   */\n  swap1\n  pop\n    /* \"#utility.yul\":466:562   */\n  swap2\n  swap1\n  pop\n  jump\t// out\n    /* \"#utility.yul\":568:695   */\ntag_18:\n    /* \"#utility.yul\":636:643   */\n  0x00\n    /* \"#utility.yul\":665:689   */\n  tag_31\n    /* \"#utility.yul\":683:688   */\n  dup3\n    /* \"#utility.yul\":665:689   */\n  tag_17\n  jump\t// in\ntag_31:\n    /* \"#utility.yul\":654:689   */\n  swap1\n  pop\n    /* \"#utility.yul\":568:695   */\n  swap2\n  swap1\n  pop\n  jump\t// out\n    /* \"#utility.yul\":701:885   */\ntag_19:\n    /* \"#utility.yul\":805:860   */\n  tag_33\n    /* \"#utility.yul\":854:859   */\n  dup2\n    /* \"#utility.yul\":805:860   */\n  tag_18\n  jump\t// in\ntag_33:\n    /* \"#utility.yul\":798:803   */\n  dup2\n    /* \"#utility.yul\":795:861   */\n  eq\n    /* \"#utility.yul\":785:879   */\n  tag_34\n  jumpi\n    /* \"#utility.yul\":875:876   */\n  0x00\n    /* \"#utility.yul\":872:873   */\n  dup1\n    /* \"#utility.yul\":865:877   */\n  revert\n    /* \"#utility.yul\":785:879   */\ntag_34:\n    /* \"#utility.yul\":701:885   */\n  pop\n  jump\t// out\n    /* \"#utility.yul\":891:1096   */\ntag_20:\n    /* \"#utility.yul\":979:984   */\n  0x00\n    /* \"#utility.yul\":1010:1016   */\n  dup2\n    /* \"#utility.yul\":1004:1017   */\n  mload\n    /* \"#utility.yul\":995:1017   */\n  swap1\n  pop\n    /* \"#utility.yul\":1026:1090   */\n  tag_36\n    /* \"#utility.yul\":1084:1089   */\n  dup2\n    /* \"#utility.yul\":1026:1090   */\n  tag_19\n  jump\t// in\ntag_36:\n    /* \"#utility.yul\":891:1096   */\n  swap3\n  swap2\n  pop\n  pop\n  jump\t// out\n    /* \"#utility.yul\":1102:1515   */\ntag_3:\n    /* \"#utility.yul\":1203:1209   */\n  0x00\n    /* \"#utility.yul\":1252:1254   */\n  0x20\n    /* \"#utility.yul\":1240:1249   */\n  dup3\n    /* \"#utility.yul\":1231:1238   */\n  dup5\n    /* \"#utility.yul\":1227:1250   */\n  sub\n    /* \"#utility.yul\":1223:1255   */\n  slt\n    /* \"#utility.yul\":1220:1339   */\n  iszero\n  tag_38\n  jumpi\n    /* \"#utility.yul\":1258:1337   */\n  tag_39\n  tag_14\n  jump\t// in\ntag_39:\n    /* \"#utility.yul\":1220:1339   */\ntag_38:\n    /* \"#utility.yul\":1378:1379   */\n  0x00\n    /* \"#utility.yul\":1403:1498   */\n  tag_40\n    /* \"#utility.yul\":1490:1497   */\n  dup5\n    /* \"#utility.yul\":1481:1487   */\n  dup3\n    /* \"#utility.yul\":1470:1479   */\n  dup6\n    /* \"#utility.yul\":1466:1488   */\n  add\n    /* \"#utility.yul\":1403:1498   */\n  tag_20\n  jump\t// in\ntag_40:\n    /* \"#utility.yul\":1393:1498   */\n  swap2\n  pop\n    /* \"#utility.yul\":1349:1508   */\n  pop\n    /* \"#utility.yul\":1102:1515   */\n  swap3\n  swap2\n  pop\n  pop\n  jump\t// out\n    /* \"#utility.yul\":1521:1643   */\ntag_21:\n    /* \"#utility.yul\":1594:1618   */\n  tag_42\n    /* \"#utility.yul\":1612:1617   */\n  dup2\n    /* \"#utility.yul\":1594:1618   */\n  tag_17\n  jump\t// in\ntag_42:\n    /* \"#utility.yul\":1587:1592   */\n  dup2\n    /* \"#utility.yul\":1584:1619   */\n  eq\n    /* \"#utility.yul\":1574:1637   */\n  tag_43\n  jumpi\n    /* \"#utility.yul\":1633:1634   */\n  0x00\n    /* \"#utility.yul\":1630:1631   */\n  dup1\n    /* \"#utility.yul\":1623:1635   */\n  revert\n    /* \"#utility.yul\":1574:1637   */\ntag_43:\n    /* \"#utility.yul\":1521:1643   */\n  pop\n  jump\t// out\n    /* \"#utility.yul\":1649:1792   */\ntag_22:\n    /* \"#utility.yul\":1706:1711   */\n  0x00\n    /* \"#utility.yul\":1737:1743   */\n  dup2\n    /* \"#utility.yul\":1731:1744   */\n  mload\n    /* \"#utility.yul\":1722:1744   */\n  swap1\n  pop\n    /* \"#utility.yul\":1753:1786   */\n  tag_45\n    /* \"#utility.yul\":1780:1785   */\n  dup2\n    /* \"#utility.yul\":1753:1786   */\n  tag_21\n  jump\t// in\ntag_45:\n    /* \"#utility.yul\":1649:1792   */\n  swap3\n  swap2\n  pop\n  pop\n  jump\t// out\n    /* \"#utility.yul\":1798:2149   */\ntag_10:\n    /* \"#utility.yul\":1868:1874   */\n  0x00\n    /* \"#utility.yul\":1917:1919   */\n  0x20\n    /* \"#utility.yul\":1905:1914   */\n  dup3\n    /* \"#utility.yul\":1896:1903   */\n  dup5\n    /* \"#utility.yul\":1892:1915   */\n  sub\n    /* \"#utility.yul\":1888:1920   */\n  slt\n    /* \"#utility.yul\":1885:2004   */\n  iszero\n  tag_47\n  jumpi\n    /* \"#utility.yul\":1923:2002   */\n  tag_48\n  tag_14\n  jump\t// in\ntag_48:\n    /* \"#utility.yul\":1885:2004   */\ntag_47:\n    /* \"#utility.yul\":2043:2044   */\n  0x00\n    /* \"#utility.yul\":2068:2132   */\n  tag_49\n    /* \"#utility.yul\":2124:2131   */\n  dup5\n    /* \"#utility.yul\":2115:2121   */\n  dup3\n    /* \"#utility.yul\":2104:2113   */\n  dup6\n    /* \"#utility.yul\":2100:2122   */\n  add\n    /* \"#utility.yul\":2068:2132   */\n  tag_22\n  jump\t// in\ntag_49:\n    /* \"#utility.yul\":2058:2132   */\n  swap2\n  pop\n    /* \"#utility.yul\":2014:2142   */\n  pop\n    /* \"#utility.yul\":1798:2149   */\n  swap3\n  swap2\n  pop\n  pop\n  jump\t// out\n    /* \"AaveFlashswap.sol\":637:3791  contract AaveFlashswap is FlashLoanSimpleReceiverBase {... */\ntag_12:\n  mload(0x80)\n  mload(0xa0)\n  codecopy(0x00, dataOffset(sub_0), dataSize(sub_0))\n  0x00\n  assignImmutable(\"0x6b5b33fd3ded2cf263edb232310f182d666aca7afaa45921be3c8956e7742d13\")\n  0x00\n  assignImmutable(\"0xc3e7a0f00dec549e28e164b0a86acf4e2ca38757a351368e18554e74f2a07bf0\")\n  return(0x00, dataSize(sub_0))\nstop\n\nsub_0: assembly {\n        /* \"AaveFlashswap.sol\":637:3791  contract AaveFlashswap is FlashLoanSimpleReceiverBase {... */\n      mstore(0x40, 0x80)\n      callvalue\n      dup1\n      iszero\n      tag_1\n      jumpi\n      0x00\n      dup1\n      revert\n    tag_1:\n      pop\n      jumpi(tag_2, lt(calldatasize, 0x04))\n      shr(0xe0, calldataload(0x00))\n      dup1\n      0x0542975c\n      eq\n      tag_3\n      jumpi\n      dup1\n      0x1b11d0ff\n      eq\n      tag_4\n      jumpi\n      dup1\n      0x7535d246\n      eq\n      tag_5\n      jumpi\n      dup1\n      0xf4a3c8c4\n      eq\n      tag_6\n      jumpi\n    tag_2:\n      0x00\n      dup1\n      revert\n        /* \"aave-v3-core/contracts/flashloan/base/FlashLoanSimpleReceiverBase.sol\":502:569  IPoolAddressesProvider public immutable override ADDRESSES_PROVIDER */\n    tag_3:\n      tag_7\n      tag_8\n      jump\t// in\n    tag_7:\n      mload(0x40)\n      tag_9\n      swap2\n      swap1\n      tag_10\n      jump\t// in\n    tag_9:\n      mload(0x40)\n      dup1\n      swap2\n      sub\n      swap1\n      return\n        /* \"AaveFlashswap.sol\":2257:3786  function executeOperation(... */\n    tag_4:\n      tag_11\n      0x04\n      dup1\n      calldatasize\n      sub\n      dup2\n      add\n      swap1\n      tag_12\n      swap2\n      swap1\n      tag_13\n      jump\t// in\n    tag_12:\n      tag_14\n      jump\t// in\n    tag_11:\n      mload(0x40)\n      tag_15\n      swap2\n      swap1\n      tag_16\n      jump\t// in\n    tag_15:\n      mload(0x40)\n      dup1\n      swap2\n      sub\n      swap1\n      return\n        /* \"aave-v3-core/contracts/flashloan/base/FlashLoanSimpleReceiverBase.sol\":574:610  IPool public immutable override POOL */\n    tag_5:\n      tag_17\n      tag_18\n      jump\t// in\n    tag_17:\n      mload(0x40)\n      tag_19\n      swap2\n      swap1\n      tag_20\n      jump\t// in\n    tag_19:\n      mload(0x40)\n      dup1\n      swap2\n      sub\n      swap1\n      return\n        /* \"AaveFlashswap.sol\":1572:2214  function flashSwapCall(address _asset, uint _amount) public {... */\n    tag_6:\n      tag_21\n      0x04\n      dup1\n      calldatasize\n      sub\n      dup2\n      add\n      swap1\n      tag_22\n      swap2\n      swap1\n      tag_23\n      jump\t// in\n    tag_22:\n      tag_24\n      jump\t// in\n    tag_21:\n      stop\n        /* \"aave-v3-core/contracts/flashloan/base/FlashLoanSimpleReceiverBase.sol\":502:569  IPoolAddressesProvider public immutable override ADDRESSES_PROVIDER */\n    tag_8:\n      immutable(\"0xc3e7a0f00dec549e28e164b0a86acf4e2ca38757a351368e18554e74f2a07bf0\")\n      dup2\n      jump\t// out\n        /* \"AaveFlashswap.sol\":2257:3786  function executeOperation(... */\n    tag_14:\n        /* \"AaveFlashswap.sol\":2446:2450  bool */\n      0x00\n        /* \"AaveFlashswap.sol\":2464:2485  address[] memory path */\n      dup1\n        /* \"AaveFlashswap.sol\":2502:2503  2 */\n      0x02\n        /* \"AaveFlashswap.sol\":2488:2504  new address[](2) */\n      0xffffffffffffffff\n      dup2\n      gt\n      iszero\n      tag_26\n      jumpi\n      tag_27\n      tag_28\n      jump\t// in\n    tag_27:\n    tag_26:\n      mload(0x40)\n      swap1\n      dup1\n      dup3\n      mstore\n      dup1\n      0x20\n      mul\n      0x20\n      add\n      dup3\n      add\n      0x40\n      mstore\n      dup1\n      iszero\n      tag_29\n      jumpi\n      dup2\n      0x20\n      add\n      0x20\n      dup3\n      mul\n      dup1\n      calldatasize\n      dup4\n      calldatacopy\n      dup1\n      dup3\n      add\n      swap2\n      pop\n      pop\n      swap1\n      pop\n    tag_29:\n      pop\n        /* \"AaveFlashswap.sol\":2464:2504  address[] memory path = new address[](2) */\n      swap1\n      pop\n        /* \"AaveFlashswap.sol\":757:799  0xc778417E063141139Fce010982780140Aa0cD5Ab */\n      0xc778417e063141139fce010982780140aa0cd5ab\n        /* \"AaveFlashswap.sol\":2515:2519  path */\n      dup2\n        /* \"AaveFlashswap.sol\":2520:2521  0 */\n      0x00\n        /* \"AaveFlashswap.sol\":2515:2522  path[0] */\n      dup2\n      mload\n      dup2\n      lt\n      tag_30\n      jumpi\n      tag_31\n      tag_32\n      jump\t// in\n    tag_31:\n    tag_30:\n      0x20\n      mul\n      0x20\n      add\n      add\n        /* \"AaveFlashswap.sol\":2515:2529  path[0] = WETH */\n      swap1\n      0xffffffffffffffffffffffffffffffffffffffff\n      and\n      swap1\n      dup2\n      0xffffffffffffffffffffffffffffffffffffffff\n      and\n      dup2\n      mstore\n      pop\n      pop\n        /* \"AaveFlashswap.sol\":839:881  0x784c47Ba17A32e9C636cf917c9034c0aD1E87d41 */\n      0x784c47ba17a32e9c636cf917c9034c0ad1e87d41\n        /* \"AaveFlashswap.sol\":2540:2544  path */\n      dup2\n        /* \"AaveFlashswap.sol\":2545:2546  1 */\n      0x01\n        /* \"AaveFlashswap.sol\":2540:2547  path[1] */\n      dup2\n      mload\n      dup2\n      lt\n      tag_33\n      jumpi\n      tag_34\n      tag_32\n      jump\t// in\n    tag_34:\n    tag_33:\n      0x20\n      mul\n      0x20\n      add\n      add\n        /* \"AaveFlashswap.sol\":2540:2556  path[1] = ATOKEN */\n      swap1\n      0xffffffffffffffffffffffffffffffffffffffff\n      and\n      swap1\n      dup2\n      0xffffffffffffffffffffffffffffffffffffffff\n      and\n      dup2\n      mstore\n      pop\n      pop\n        /* \"AaveFlashswap.sol\":932:974  0x7a250d5630B4cF539739dF2C5dAcb4c659F2488D */\n      0x7a250d5630b4cf539739df2c5dacb4c659f2488d\n        /* \"AaveFlashswap.sol\":2610:2669  IUniswapV2Router02(UNISWAP_V2_ROUTER).swapExactETHForTokens */\n      0xffffffffffffffffffffffffffffffffffffffff\n      and\n      0x7ff36ab5\n        /* \"AaveFlashswap.sol\":2684:2685  0 */\n      0x00\n        /* \"AaveFlashswap.sol\":2700:2704  path */\n      dup4\n        /* \"AaveFlashswap.sol\":2727:2731  this */\n      address\n        /* \"AaveFlashswap.sol\":2747:2762  block.timestamp */\n      timestamp\n        /* \"AaveFlashswap.sol\":2610:2773  IUniswapV2Router02(UNISWAP_V2_ROUTER).swapExactETHForTokens(... */\n      mload(0x40)\n      dup6\n      0xffffffff\n      and\n      0xe0\n      shl\n      dup2\n      mstore\n      0x04\n      add\n      tag_35\n      swap5\n      swap4\n      swap3\n      swap2\n      swap1\n      tag_36\n      jump\t// in\n    tag_35:\n      0x00\n      mload(0x40)\n      dup1\n      dup4\n      sub\n      dup2\n      0x00\n      dup8\n      gas\n      call\n      iszero\n      dup1\n      iszero\n      tag_38\n      jumpi\n      returndatasize\n      0x00\n      dup1\n      returndatacopy\n      revert(0x00, returndatasize)\n    tag_38:\n      pop\n      pop\n      pop\n      pop\n      mload(0x40)\n      returndatasize\n      0x00\n      dup3\n      returndatacopy\n      returndatasize\n      not(0x1f)\n      0x1f\n      dup3\n      add\n      and\n      dup3\n      add\n      dup1\n      0x40\n      mstore\n      pop\n      dup2\n      add\n      swap1\n      tag_39\n      swap2\n      swap1\n      tag_40\n      jump\t// in\n    tag_39:\n      pop\n        /* \"AaveFlashswap.sol\":2814:2833  uint256 amountToken */\n      0x00\n        /* \"AaveFlashswap.sol\":839:881  0x784c47Ba17A32e9C636cf917c9034c0aD1E87d41 */\n      0x784c47ba17a32e9c636cf917c9034c0ad1e87d41\n        /* \"AaveFlashswap.sol\":2836:2860  IERC20(ATOKEN).balanceOf */\n      0xffffffffffffffffffffffffffffffffffffffff\n      and\n      0x70a08231\n        /* \"AaveFlashswap.sol\":2869:2873  this */\n      address\n        /* \"AaveFlashswap.sol\":2836:2875  IERC20(ATOKEN).balanceOf(address(this)) */\n      mload(0x40)\n      dup3\n      0xffffffff\n      and\n      0xe0\n      shl\n      dup2\n      mstore\n      0x04\n      add\n      tag_41\n      swap2\n      swap1\n      tag_42\n      jump\t// in\n    tag_41:\n      0x20\n      mload(0x40)\n      dup1\n      dup4\n      sub\n      dup2\n      dup7\n      gas\n      staticcall\n      iszero\n      dup1\n      iszero\n      tag_44\n      jumpi\n      returndatasize\n      0x00\n      dup1\n      returndatacopy\n      revert(0x00, returndatasize)\n    tag_44:\n      pop\n      pop\n      pop\n      pop\n      mload(0x40)\n      returndatasize\n      not(0x1f)\n      0x1f\n      dup3\n      add\n      and\n      dup3\n      add\n      dup1\n      0x40\n      mstore\n      pop\n      dup2\n      add\n      swap1\n      tag_45\n      swap2\n      swap1\n      tag_46\n      jump\t// in\n    tag_45:\n        /* \"AaveFlashswap.sol\":2814:2875  uint256 amountToken = IERC20(ATOKEN).balanceOf(address(this)) */\n      swap1\n      pop\n        /* \"AaveFlashswap.sol\":839:881  0x784c47Ba17A32e9C636cf917c9034c0aD1E87d41 */\n      0x784c47ba17a32e9c636cf917c9034c0ad1e87d41\n        /* \"AaveFlashswap.sol\":2921:2943  IERC20(ATOKEN).approve */\n      0xffffffffffffffffffffffffffffffffffffffff\n      and\n      0x095ea7b3\n        /* \"AaveFlashswap.sol\":1018:1060  0xE592427A0AEce92De3Edee1F18E0157C05861564 */\n      0xe592427a0aece92de3edee1f18e0157c05861564\n        /* \"AaveFlashswap.sol\":2965:2976  amountToken */\n      dup4\n        /* \"AaveFlashswap.sol\":2921:2977  IERC20(ATOKEN).approve(address(SWAPROUTER), amountToken) */\n      mload(0x40)\n      dup4\n      0xffffffff\n      and\n      0xe0\n      shl\n      dup2\n      mstore\n      0x04\n      add\n      tag_47\n      swap3\n      swap2\n      swap1\n      tag_48\n      jump\t// in\n    tag_47:\n      0x20\n      mload(0x40)\n      dup1\n      dup4\n      sub\n      dup2\n      0x00\n      dup8\n      gas\n      call\n      iszero\n      dup1\n      iszero\n      tag_50\n      jumpi\n      returndatasize\n      0x00\n      dup1\n      returndatacopy\n      revert(0x00, returndatasize)\n    tag_50:\n      pop\n      pop\n      pop\n      pop\n      mload(0x40)\n      returndatasize\n      not(0x1f)\n      0x1f\n      dup3\n      add\n      and\n      dup3\n      add\n      dup1\n      0x40\n      mstore\n      pop\n      dup2\n      add\n      swap1\n      tag_51\n      swap2\n      swap1\n      tag_52\n      jump\t// in\n    tag_51:\n      pop\n        /* \"AaveFlashswap.sol\":2988:3036  ISwapRouter.ExactInputSingleParams memory params */\n      0x00\n        /* \"AaveFlashswap.sol\":3039:3406  ISwapRouter... */\n      mload(0x40)\n      dup1\n      0x0100\n      add\n      0x40\n      mstore\n      dup1\n        /* \"AaveFlashswap.sol\":839:881  0x784c47Ba17A32e9C636cf917c9034c0aD1E87d41 */\n      0x784c47ba17a32e9c636cf917c9034c0ad1e87d41\n        /* \"AaveFlashswap.sol\":3039:3406  ISwapRouter... */\n      0xffffffffffffffffffffffffffffffffffffffff\n      and\n      dup2\n      mstore\n      0x20\n      add\n        /* \"AaveFlashswap.sol\":757:799  0xc778417E063141139Fce010982780140Aa0cD5Ab */\n      0xc778417e063141139fce010982780140aa0cd5ab\n        /* \"AaveFlashswap.sol\":3039:3406  ISwapRouter... */\n      0xffffffffffffffffffffffffffffffffffffffff\n      and\n      dup2\n      mstore\n      0x20\n      add\n        /* \"AaveFlashswap.sol\":1118:1122  3000 */\n      0x0bb8\n        /* \"AaveFlashswap.sol\":3039:3406  ISwapRouter... */\n      0xffffff\n      and\n      dup2\n      mstore\n      0x20\n      add\n        /* \"AaveFlashswap.sol\":3224:3228  this */\n      address\n        /* \"AaveFlashswap.sol\":3039:3406  ISwapRouter... */\n      0xffffffffffffffffffffffffffffffffffffffff\n      and\n      dup2\n      mstore\n      0x20\n      add\n        /* \"AaveFlashswap.sol\":3258:3273  block.timestamp */\n      timestamp\n        /* \"AaveFlashswap.sol\":3039:3406  ISwapRouter... */\n      dup2\n      mstore\n      0x20\n      add\n        /* \"AaveFlashswap.sol\":3302:3313  amountToken */\n      dup4\n        /* \"AaveFlashswap.sol\":3039:3406  ISwapRouter... */\n      dup2\n      mstore\n      0x20\n      add\n        /* \"AaveFlashswap.sol\":3350:3351  0 */\n      0x00\n        /* \"AaveFlashswap.sol\":3039:3406  ISwapRouter... */\n      dup2\n      mstore\n      0x20\n      add\n        /* \"AaveFlashswap.sol\":3389:3390  0 */\n      0x00\n        /* \"AaveFlashswap.sol\":3039:3406  ISwapRouter... */\n      0xffffffffffffffffffffffffffffffffffffffff\n      and\n      dup2\n      mstore\n      pop\n        /* \"AaveFlashswap.sol\":2988:3406  ISwapRouter.ExactInputSingleParams memory params = ISwapRouter... */\n      swap1\n      pop\n        /* \"AaveFlashswap.sol\":3445:3462  uint256 amountOut */\n      0x00\n        /* \"AaveFlashswap.sol\":1018:1060  0xE592427A0AEce92De3Edee1F18E0157C05861564 */\n      0xe592427a0aece92de3edee1f18e0157c05861564\n        /* \"AaveFlashswap.sol\":3465:3505  ISwapRouter(SWAPROUTER).exactInputSingle */\n      0xffffffffffffffffffffffffffffffffffffffff\n      and\n      0x414bf389\n        /* \"AaveFlashswap.sol\":3506:3512  params */\n      dup4\n        /* \"AaveFlashswap.sol\":3465:3513  ISwapRouter(SWAPROUTER).exactInputSingle(params) */\n      mload(0x40)\n      dup3\n      0xffffffff\n      and\n      0xe0\n      shl\n      dup2\n      mstore\n      0x04\n      add\n      tag_53\n      swap2\n      swap1\n      tag_54\n      jump\t// in\n    tag_53:\n      0x20\n      mload(0x40)\n      dup1\n      dup4\n      sub\n      dup2\n      0x00\n      dup8\n      gas\n      call\n      iszero\n      dup1\n      iszero\n      tag_56\n      jumpi\n      returndatasize\n      0x00\n      dup1\n      returndatacopy\n      revert(0x00, returndatasize)\n    tag_56:\n      pop\n      pop\n      pop\n      pop\n      mload(0x40)\n      returndatasize\n      not(0x1f)\n      0x1f\n      dup3\n      add\n      and\n      dup3\n      add\n      dup1\n      0x40\n      mstore\n      pop\n      dup2\n      add\n      swap1\n      tag_57\n      swap2\n      swap1\n      tag_46\n      jump\t// in\n    tag_57:\n        /* \"AaveFlashswap.sol\":3445:3513  uint256 amountOut = ISwapRouter(SWAPROUTER).exactInputSingle(params) */\n      swap1\n      pop\n        /* \"AaveFlashswap.sol\":3549:3571  uint256 amountRequired */\n      0x00\n        /* \"AaveFlashswap.sol\":3584:3589  _fees */\n      dup9\n        /* \"AaveFlashswap.sol\":3574:3581  _amount */\n      dup11\n        /* \"AaveFlashswap.sol\":3574:3589  _amount + _fees */\n      tag_58\n      swap2\n      swap1\n      tag_59\n      jump\t// in\n    tag_58:\n        /* \"AaveFlashswap.sol\":3549:3589  uint256 amountRequired = _amount + _fees */\n      swap1\n      pop\n        /* \"AaveFlashswap.sol\":3607:3613  _asset */\n      dup11\n        /* \"AaveFlashswap.sol\":3600:3622  IERC20(_asset).approve */\n      0xffffffffffffffffffffffffffffffffffffffff\n      and\n      0x095ea7b3\n        /* \"AaveFlashswap.sol\":3631:3635  POOL */\n      immutable(\"0x6b5b33fd3ded2cf263edb232310f182d666aca7afaa45921be3c8956e7742d13\")\n        /* \"AaveFlashswap.sol\":3638:3652  amountRequired */\n      dup4\n        /* \"AaveFlashswap.sol\":3600:3653  IERC20(_asset).approve(address(POOL), amountRequired) */\n      mload(0x40)\n      dup4\n      0xffffffff\n      and\n      0xe0\n      shl\n      dup2\n      mstore\n      0x04\n      add\n      tag_60\n      swap3\n      swap2\n      swap1\n      tag_48\n      jump\t// in\n    tag_60:\n      0x20\n      mload(0x40)\n      dup1\n      dup4\n      sub\n      dup2\n      0x00\n      dup8\n      gas\n      call\n      iszero\n      dup1\n      iszero\n      tag_62\n      jumpi\n      returndatasize\n      0x00\n      dup1\n      returndatacopy\n      revert(0x00, returndatasize)\n    tag_62:\n      pop\n      pop\n      pop\n      pop\n      mload(0x40)\n      returndatasize\n      not(0x1f)\n      0x1f\n      dup3\n      add\n      and\n      dup3\n      add\n      dup1\n      0x40\n      mstore\n      pop\n      dup2\n      add\n      swap1\n      tag_63\n      swap2\n      swap1\n      tag_52\n      jump\t// in\n    tag_63:\n      pop\n        /* \"AaveFlashswap.sol\":3664:3730  TransferHelper.safeTransfer(_asset, address(POOL), amountRequired) */\n      tag_64\n        /* \"AaveFlashswap.sol\":3692:3698  _asset */\n      dup12\n        /* \"AaveFlashswap.sol\":3708:3712  POOL */\n      immutable(\"0x6b5b33fd3ded2cf263edb232310f182d666aca7afaa45921be3c8956e7742d13\")\n        /* \"AaveFlashswap.sol\":3715:3729  amountRequired */\n      dup4\n        /* \"AaveFlashswap.sol\":3664:3691  TransferHelper.safeTransfer */\n      tag_65\n        /* \"AaveFlashswap.sol\":3664:3730  TransferHelper.safeTransfer(_asset, address(POOL), amountRequired) */\n      jump\t// in\n    tag_64:\n        /* \"AaveFlashswap.sol\":3774:3778  true */\n      0x01\n        /* \"AaveFlashswap.sol\":3767:3778  return true */\n      swap6\n      pop\n      pop\n      pop\n      pop\n      pop\n      pop\n        /* \"AaveFlashswap.sol\":2257:3786  function executeOperation(... */\n      swap6\n      swap5\n      pop\n      pop\n      pop\n      pop\n      pop\n      jump\t// out\n        /* \"aave-v3-core/contracts/flashloan/base/FlashLoanSimpleReceiverBase.sol\":574:610  IPool public immutable override POOL */\n    tag_18:\n      immutable(\"0x6b5b33fd3ded2cf263edb232310f182d666aca7afaa45921be3c8956e7742d13\")\n      dup2\n      jump\t// out\n        /* \"AaveFlashswap.sol\":1572:2214  function flashSwapCall(address _asset, uint _amount) public {... */\n    tag_24:\n        /* \"AaveFlashswap.sol\":1643:1662  bytes memory params */\n      0x00\n        /* \"AaveFlashswap.sol\":1643:1667  bytes memory params = \"\" */\n      mload(0x40)\n      dup1\n      0x20\n      add\n      0x40\n      mstore\n      dup1\n      0x00\n      dup2\n      mstore\n      pop\n      swap1\n      pop\n        /* \"AaveFlashswap.sol\":1678:1697  uint16 referralCode */\n      0x00\n        /* \"AaveFlashswap.sol\":1764:1768  POOL */\n      immutable(\"0x6b5b33fd3ded2cf263edb232310f182d666aca7afaa45921be3c8956e7742d13\")\n        /* \"AaveFlashswap.sol\":1764:1784  POOL.flashLoanSimple */\n      0xffffffffffffffffffffffffffffffffffffffff\n      and\n      0x42b0b77c\n        /* \"AaveFlashswap.sol\":1825:1829  this */\n      address\n        /* \"AaveFlashswap.sol\":1852:1858  _asset */\n      dup7\n        /* \"AaveFlashswap.sol\":1881:1888  _amount */\n      dup7\n        /* \"AaveFlashswap.sol\":1911:1917  params */\n      dup7\n        /* \"AaveFlashswap.sol\":1946:1958  referralCode */\n      dup7\n        /* \"AaveFlashswap.sol\":1764:1970  POOL.flashLoanSimple({... */\n      mload(0x40)\n      dup7\n      0xffffffff\n      and\n      0xe0\n      shl\n      dup2\n      mstore\n      0x04\n      add\n      tag_67\n      swap6\n      swap5\n      swap4\n      swap3\n      swap2\n      swap1\n      tag_68\n      jump\t// in\n    tag_67:\n      0x00\n      mload(0x40)\n      dup1\n      dup4\n      sub\n      dup2\n      0x00\n      dup8\n      dup1\n      extcodesize\n      iszero\n      dup1\n      iszero\n      tag_69\n      jumpi\n      0x00\n      dup1\n      revert\n    tag_69:\n      pop\n      gas\n      call\n      swap3\n      pop\n      pop\n      pop\n      dup1\n      iszero\n      tag_70\n      jumpi\n      pop\n      0x01\n    tag_70:\n        /* \"AaveFlashswap.sol\":1760:2207  try POOL.flashLoanSimple({... */\n      tag_71\n      jumpi\n      tag_75\n      tag_76\n      jump\t// in\n    tag_75:\n      dup1\n      0x08c379a0\n      eq\n      iszero\n      tag_74\n      jumpi\n      pop\n      tag_77\n      tag_78\n      jump\t// in\n    tag_77:\n      dup1\n      tag_79\n      jumpi\n      pop\n      jump(tag_73)\n    tag_79:\n        /* \"AaveFlashswap.sol\":2109:2115  reason */\n      dup1\n        /* \"AaveFlashswap.sol\":2092:2116  CatchStringError(reason) */\n      mload(0x40)\n      tag_80\n      swap2\n      swap1\n      tag_81\n      jump\t// in\n    tag_80:\n      mload(0x40)\n      dup1\n      swap2\n      sub\n      swap1\n      keccak256\n      0x073349d5257fdae5f77288ccef5f4d7a387ea408f759a587dbc490699fefcf9b\n      mload(0x40)\n      mload(0x40)\n      dup1\n      swap2\n      sub\n      swap1\n      log2\n        /* \"AaveFlashswap.sol\":2038:2128  catch Error(string memory reason) {... */\n      pop\n        /* \"AaveFlashswap.sol\":1760:2207  try POOL.flashLoanSimple({... */\n      jump(tag_72)\n    tag_74:\n      pop\n    tag_73:\n      returndatasize\n      dup1\n      0x00\n      dup2\n      eq\n      tag_83\n      jumpi\n      mload(0x40)\n      swap2\n      pop\n      and(add(returndatasize, 0x3f), not(0x1f))\n      dup3\n      add\n      0x40\n      mstore\n      returndatasize\n      dup3\n      mstore\n      returndatasize\n      0x00\n      0x20\n      dup5\n      add\n      returndatacopy\n      jump(tag_82)\n    tag_83:\n      0x60\n      swap2\n      pop\n    tag_82:\n      pop\n        /* \"AaveFlashswap.sol\":2190:2194  data */\n      dup1\n        /* \"AaveFlashswap.sol\":2175:2195  CatchDataError(data) */\n      mload(0x40)\n      tag_84\n      swap2\n      swap1\n      tag_85\n      jump\t// in\n    tag_84:\n      mload(0x40)\n      dup1\n      swap2\n      sub\n      swap1\n      keccak256\n      0x6afeeaee5ac8e50b08d01417db273da895a7277b55c79ae313070d772704139d\n      mload(0x40)\n      mload(0x40)\n      dup1\n      swap2\n      sub\n      swap1\n      log2\n        /* \"AaveFlashswap.sol\":2129:2207  catch (bytes memory data) {... */\n      pop\n        /* \"AaveFlashswap.sol\":1760:2207  try POOL.flashLoanSimple({... */\n    tag_72:\n      jump(tag_86)\n    tag_71:\n        /* \"AaveFlashswap.sol\":1991:2025  SuccessEvent(\"FlashSwap Success!\") */\n      mload(0x40)\n      tag_87\n      swap1\n      tag_88\n      jump\t// in\n    tag_87:\n      mload(0x40)\n      dup1\n      swap2\n      sub\n      swap1\n      keccak256\n      0x2e3cad6bb4331c7402e8374a7cbe05bde1a8f8201cb8d485d113c684bd65466e\n      mload(0x40)\n      mload(0x40)\n      dup1\n      swap2\n      sub\n      swap1\n      log2\n        /* \"AaveFlashswap.sol\":1760:2207  try POOL.flashLoanSimple({... */\n    tag_86:\n        /* \"AaveFlashswap.sol\":1632:2214  {... */\n      pop\n      pop\n        /* \"AaveFlashswap.sol\":1572:2214  function flashSwapCall(address _asset, uint _amount) public {... */\n      pop\n      pop\n      jump\t// out\n        /* \"uniswap-v3-core/libraries/TransferHelper.sol\":615:951  function safeTransfer(... */\n    tag_65:\n        /* \"uniswap-v3-core/libraries/TransferHelper.sol\":734:746  bool success */\n      0x00\n        /* \"uniswap-v3-core/libraries/TransferHelper.sol\":748:765  bytes memory data */\n      dup1\n        /* \"uniswap-v3-core/libraries/TransferHelper.sol\":782:787  token */\n      dup5\n        /* \"uniswap-v3-core/libraries/TransferHelper.sol\":782:792  token.call */\n      0xffffffffffffffffffffffffffffffffffffffff\n      and\n        /* \"uniswap-v3-core/libraries/TransferHelper.sol\":816:847  IERC20Minimal.transfer.selector */\n      shl(0xe0, 0xa9059cbb)\n        /* \"uniswap-v3-core/libraries/TransferHelper.sol\":849:851  to */\n      dup6\n        /* \"uniswap-v3-core/libraries/TransferHelper.sol\":853:858  value */\n      dup6\n        /* \"uniswap-v3-core/libraries/TransferHelper.sol\":793:859  abi.encodeWithSelector(IERC20Minimal.transfer.selector, to, value) */\n      add(0x24, mload(0x40))\n      tag_90\n      swap3\n      swap2\n      swap1\n      tag_48\n      jump\t// in\n    tag_90:\n      mload(0x40)\n      0x20\n      dup2\n      dup4\n      sub\n      sub\n      dup2\n      mstore\n      swap1\n      0x40\n      mstore\n      swap1\n      not(0xffffffffffffffffffffffffffffffffffffffffffffffffffffffff)\n      and\n      0x20\n      dup3\n      add\n      dup1\n      mload\n      0xffffffffffffffffffffffffffffffffffffffffffffffffffffffff\n      dup4\n      dup2\n      dup4\n      and\n      or\n      dup4\n      mstore\n      pop\n      pop\n      pop\n      pop\n        /* \"uniswap-v3-core/libraries/TransferHelper.sol\":782:860  token.call(abi.encodeWithSelector(IERC20Minimal.transfer.selector, to, value)) */\n      mload(0x40)\n      tag_91\n      swap2\n      swap1\n      tag_85\n      jump\t// in\n    tag_91:\n      0x00\n      mload(0x40)\n      dup1\n      dup4\n      sub\n      dup2\n      0x00\n      dup7\n      gas\n      call\n      swap2\n      pop\n      pop\n      returndatasize\n      dup1\n      0x00\n      dup2\n      eq\n      tag_94\n      jumpi\n      mload(0x40)\n      swap2\n      pop\n      and(add(returndatasize, 0x3f), not(0x1f))\n      dup3\n      add\n      0x40\n      mstore\n      returndatasize\n      dup3\n      mstore\n      returndatasize\n      0x00\n      0x20\n      dup5\n      add\n      returndatacopy\n      jump(tag_93)\n    tag_94:\n      0x60\n      swap2\n      pop\n    tag_93:\n      pop\n        /* \"uniswap-v3-core/libraries/TransferHelper.sol\":733:860  (bool success, bytes memory data) =... */\n      swap2\n      pop\n      swap2\n      pop\n        /* \"uniswap-v3-core/libraries/TransferHelper.sol\":879:886  success */\n      dup2\n        /* \"uniswap-v3-core/libraries/TransferHelper.sol\":879:936  success && (data.length == 0 || abi.decode(data, (bool))) */\n      dup1\n      iszero\n      tag_95\n      jumpi\n      pop\n        /* \"uniswap-v3-core/libraries/TransferHelper.sol\":906:907  0 */\n      0x00\n        /* \"uniswap-v3-core/libraries/TransferHelper.sol\":891:895  data */\n      dup2\n        /* \"uniswap-v3-core/libraries/TransferHelper.sol\":891:902  data.length */\n      mload\n        /* \"uniswap-v3-core/libraries/TransferHelper.sol\":891:907  data.length == 0 */\n      eq\n        /* \"uniswap-v3-core/libraries/TransferHelper.sol\":891:935  data.length == 0 || abi.decode(data, (bool)) */\n      dup1\n      tag_96\n      jumpi\n      pop\n        /* \"uniswap-v3-core/libraries/TransferHelper.sol\":922:926  data */\n      dup1\n        /* \"uniswap-v3-core/libraries/TransferHelper.sol\":911:935  abi.decode(data, (bool)) */\n      dup1\n      0x20\n      add\n      swap1\n      mload\n      dup2\n      add\n      swap1\n      tag_97\n      swap2\n      swap1\n      tag_52\n      jump\t// in\n    tag_97:\n        /* \"uniswap-v3-core/libraries/TransferHelper.sol\":891:935  data.length == 0 || abi.decode(data, (bool)) */\n    tag_96:\n        /* \"uniswap-v3-core/libraries/TransferHelper.sol\":879:936  success && (data.length == 0 || abi.decode(data, (bool))) */\n    tag_95:\n        /* \"uniswap-v3-core/libraries/TransferHelper.sol\":871:943  require(success && (data.length == 0 || abi.decode(data, (bool))), 'TF') */\n      tag_98\n      jumpi\n      mload(0x40)\n      0x08c379a000000000000000000000000000000000000000000000000000000000\n      dup2\n      mstore\n      0x04\n      add\n      tag_99\n      swap1\n      tag_100\n      jump\t// in\n    tag_99:\n      mload(0x40)\n      dup1\n      swap2\n      sub\n      swap1\n      revert\n    tag_98:\n        /* \"uniswap-v3-core/libraries/TransferHelper.sol\":722:951  {... */\n      pop\n      pop\n        /* \"uniswap-v3-core/libraries/TransferHelper.sol\":615:951  function safeTransfer(... */\n      pop\n      pop\n      pop\n      jump\t// out\n        /* \"#utility.yul\":7:133   */\n    tag_101:\n        /* \"#utility.yul\":44:51   */\n      0x00\n        /* \"#utility.yul\":84:126   */\n      0xffffffffffffffffffffffffffffffffffffffff\n        /* \"#utility.yul\":77:82   */\n      dup3\n        /* \"#utility.yul\":73:127   */\n      and\n        /* \"#utility.yul\":62:127   */\n      swap1\n      pop\n        /* \"#utility.yul\":7:133   */\n      swap2\n      swap1\n      pop\n      jump\t// out\n        /* \"#utility.yul\":139:199   */\n    tag_102:\n        /* \"#utility.yul\":167:170   */\n      0x00\n        /* \"#utility.yul\":188:193   */\n      dup2\n        /* \"#utility.yul\":181:193   */\n      swap1\n      pop\n        /* \"#utility.yul\":139:199   */\n      swap2\n      swap1\n      pop\n      jump\t// out\n        /* \"#utility.yul\":205:347   */\n    tag_103:\n        /* \"#utility.yul\":255:264   */\n      0x00\n        /* \"#utility.yul\":288:341   */\n      tag_175\n        /* \"#utility.yul\":306:340   */\n      tag_176\n        /* \"#utility.yul\":315:339   */\n      tag_177\n        /* \"#utility.yul\":333:338   */\n      dup5\n        /* \"#utility.yul\":315:339   */\n      tag_101\n      jump\t// in\n    tag_177:\n        /* \"#utility.yul\":306:340   */\n      tag_102\n      jump\t// in\n    tag_176:\n        /* \"#utility.yul\":288:341   */\n      tag_101\n      jump\t// in\n    tag_175:\n        /* \"#utility.yul\":275:341   */\n      swap1\n      pop\n        /* \"#utility.yul\":205:347   */\n      swap2\n      swap1\n      pop\n      jump\t// out\n        /* \"#utility.yul\":353:479   */\n    tag_104:\n        /* \"#utility.yul\":403:412   */\n      0x00\n        /* \"#utility.yul\":436:473   */\n      tag_179\n        /* \"#utility.yul\":467:472   */\n      dup3\n        /* \"#utility.yul\":436:473   */\n      tag_103\n      jump\t// in\n    tag_179:\n        /* \"#utility.yul\":423:473   */\n      swap1\n      pop\n        /* \"#utility.yul\":353:479   */\n      swap2\n      swap1\n      pop\n      jump\t// out\n        /* \"#utility.yul\":485:642   */\n    tag_105:\n        /* \"#utility.yul\":566:575   */\n      0x00\n        /* \"#utility.yul\":599:636   */\n      tag_181\n        /* \"#utility.yul\":630:635   */\n      dup3\n        /* \"#utility.yul\":599:636   */\n      tag_104\n      jump\t// in\n    tag_181:\n        /* \"#utility.yul\":586:636   */\n      swap1\n      pop\n        /* \"#utility.yul\":485:642   */\n      swap2\n      swap1\n      pop\n      jump\t// out\n        /* \"#utility.yul\":648:841   */\n    tag_106:\n        /* \"#utility.yul\":766:834   */\n      tag_183\n        /* \"#utility.yul\":828:833   */\n      dup2\n        /* \"#utility.yul\":766:834   */\n      tag_105\n      jump\t// in\n    tag_183:\n        /* \"#utility.yul\":761:764   */\n      dup3\n        /* \"#utility.yul\":754:835   */\n      mstore\n        /* \"#utility.yul\":648:841   */\n      pop\n      pop\n      jump\t// out\n        /* \"#utility.yul\":847:1131   */\n    tag_10:\n        /* \"#utility.yul\":971:975   */\n      0x00\n        /* \"#utility.yul\":1009:1011   */\n      0x20\n        /* \"#utility.yul\":998:1007   */\n      dup3\n        /* \"#utility.yul\":994:1012   */\n      add\n        /* \"#utility.yul\":986:1012   */\n      swap1\n      pop\n        /* \"#utility.yul\":1022:1124   */\n      tag_185\n        /* \"#utility.yul\":1121:1122   */\n      0x00\n        /* \"#utility.yul\":1110:1119   */\n      dup4\n        /* \"#utility.yul\":1106:1123   */\n      add\n        /* \"#utility.yul\":1097:1103   */\n      dup5\n        /* \"#utility.yul\":1022:1124   */\n      tag_106\n      jump\t// in\n    tag_185:\n        /* \"#utility.yul\":847:1131   */\n      swap3\n      swap2\n      pop\n      pop\n      jump\t// out\n        /* \"#utility.yul\":1137:1212   */\n    tag_107:\n        /* \"#utility.yul\":1170:1176   */\n      0x00\n        /* \"#utility.yul\":1203:1205   */\n      0x40\n        /* \"#utility.yul\":1197:1206   */\n      mload\n        /* \"#utility.yul\":1187:1206   */\n      swap1\n      pop\n        /* \"#utility.yul\":1137:1212   */\n      swap1\n      jump\t// out\n        /* \"#utility.yul\":1218:1335   */\n    tag_108:\n        /* \"#utility.yul\":1327:1328   */\n      0x00\n        /* \"#utility.yul\":1324:1325   */\n      dup1\n        /* \"#utility.yul\":1317:1329   */\n      revert\n        /* \"#utility.yul\":1341:1458   */\n    tag_109:\n        /* \"#utility.yul\":1450:1451   */\n      0x00\n        /* \"#utility.yul\":1447:1448   */\n      dup1\n        /* \"#utility.yul\":1440:1452   */\n      revert\n        /* \"#utility.yul\":1464:1560   */\n    tag_110:\n        /* \"#utility.yul\":1501:1508   */\n      0x00\n        /* \"#utility.yul\":1530:1554   */\n      tag_190\n        /* \"#utility.yul\":1548:1553   */\n      dup3\n        /* \"#utility.yul\":1530:1554   */\n      tag_101\n      jump\t// in\n    tag_190:\n        /* \"#utility.yul\":1519:1554   */\n      swap1\n      pop\n        /* \"#utility.yul\":1464:1560   */\n      swap2\n      swap1\n      pop\n      jump\t// out\n        /* \"#utility.yul\":1566:1688   */\n    tag_111:\n        /* \"#utility.yul\":1639:1663   */\n      tag_192\n        /* \"#utility.yul\":1657:1662   */\n      dup2\n        /* \"#utility.yul\":1639:1663   */\n      tag_110\n      jump\t// in\n    tag_192:\n        /* \"#utility.yul\":1632:1637   */\n      dup2\n        /* \"#utility.yul\":1629:1664   */\n      eq\n        /* \"#utility.yul\":1619:1682   */\n      tag_193\n      jumpi\n        /* \"#utility.yul\":1678:1679   */\n      0x00\n        /* \"#utility.yul\":1675:1676   */\n      dup1\n        /* \"#utility.yul\":1668:1680   */\n      revert\n        /* \"#utility.yul\":1619:1682   */\n    tag_193:\n        /* \"#utility.yul\":1566:1688   */\n      pop\n      jump\t// out\n        /* \"#utility.yul\":1694:1833   */\n    tag_112:\n        /* \"#utility.yul\":1740:1745   */\n      0x00\n        /* \"#utility.yul\":1778:1784   */\n      dup2\n        /* \"#utility.yul\":1765:1785   */\n      calldataload\n        /* \"#utility.yul\":1756:1785   */\n      swap1\n      pop\n        /* \"#utility.yul\":1794:1827   */\n      tag_195\n        /* \"#utility.yul\":1821:1826   */\n      dup2\n        /* \"#utility.yul\":1794:1827   */\n      tag_111\n      jump\t// in\n    tag_195:\n        /* \"#utility.yul\":1694:1833   */\n      swap3\n      swap2\n      pop\n      pop\n      jump\t// out\n        /* \"#utility.yul\":1839:1916   */\n    tag_113:\n        /* \"#utility.yul\":1876:1883   */\n      0x00\n        /* \"#utility.yul\":1905:1910   */\n      dup2\n        /* \"#utility.yul\":1894:1910   */\n      swap1\n      pop\n        /* \"#utility.yul\":1839:1916   */\n      swap2\n      swap1\n      pop\n      jump\t// out\n        /* \"#utility.yul\":1922:2044   */\n    tag_114:\n        /* \"#utility.yul\":1995:2019   */\n      tag_198\n        /* \"#utility.yul\":2013:2018   */\n      dup2\n        /* \"#utility.yul\":1995:2019   */\n      tag_113\n      jump\t// in\n    tag_198:\n        /* \"#utility.yul\":1988:1993   */\n      dup2\n        /* \"#utility.yul\":1985:2020   */\n      eq\n        /* \"#utility.yul\":1975:2038   */\n      tag_199\n      jumpi\n        /* \"#utility.yul\":2034:2035   */\n      0x00\n        /* \"#utility.yul\":2031:2032   */\n      dup1\n        /* \"#utility.yul\":2024:2036   */\n      revert\n        /* \"#utility.yul\":1975:2038   */\n    tag_199:\n        /* \"#utility.yul\":1922:2044   */\n      pop\n      jump\t// out\n        /* \"#utility.yul\":2050:2189   */\n    tag_115:\n        /* \"#utility.yul\":2096:2101   */\n      0x00\n        /* \"#utility.yul\":2134:2140   */\n      dup2\n        /* \"#utility.yul\":2121:2141   */\n      calldataload\n        /* \"#utility.yul\":2112:2141   */\n      swap1\n      pop\n        /* \"#utility.yul\":2150:2183   */\n      tag_201\n        /* \"#utility.yul\":2177:2182   */\n      dup2\n        /* \"#utility.yul\":2150:2183   */\n      tag_114\n      jump\t// in\n    tag_201:\n        /* \"#utility.yul\":2050:2189   */\n      swap3\n      swap2\n      pop\n      pop\n      jump\t// out\n        /* \"#utility.yul\":2195:2312   */\n    tag_116:\n        /* \"#utility.yul\":2304:2305   */\n      0x00\n        /* \"#utility.yul\":2301:2302   */\n      dup1\n        /* \"#utility.yul\":2294:2306   */\n      revert\n        /* \"#utility.yul\":2318:2435   */\n    tag_117:\n        /* \"#utility.yul\":2427:2428   */\n      0x00\n        /* \"#utility.yul\":2424:2425   */\n      dup1\n        /* \"#utility.yul\":2417:2429   */\n      revert\n        /* \"#utility.yul\":2441:2543   */\n    tag_118:\n        /* \"#utility.yul\":2482:2488   */\n      0x00\n        /* \"#utility.yul\":2533:2535   */\n      0x1f\n        /* \"#utility.yul\":2529:2536   */\n      not\n        /* \"#utility.yul\":2524:2526   */\n      0x1f\n        /* \"#utility.yul\":2517:2522   */\n      dup4\n        /* \"#utility.yul\":2513:2527   */\n      add\n        /* \"#utility.yul\":2509:2537   */\n      and\n        /* \"#utility.yul\":2499:2537   */\n      swap1\n      pop\n        /* \"#utility.yul\":2441:2543   */\n      swap2\n      swap1\n      pop\n      jump\t// out\n        /* \"#utility.yul\":2549:2729   */\n    tag_28:\n        /* \"#utility.yul\":2597:2674   */\n      0x4e487b7100000000000000000000000000000000000000000000000000000000\n        /* \"#utility.yul\":2594:2595   */\n      0x00\n        /* \"#utility.yul\":2587:2675   */\n      mstore\n        /* \"#utility.yul\":2694:2698   */\n      0x41\n        /* \"#utility.yul\":2691:2692   */\n      0x04\n        /* \"#utility.yul\":2684:2699   */\n      mstore\n        /* \"#utility.yul\":2718:2722   */\n      0x24\n        /* \"#utility.yul\":2715:2716   */\n      0x00\n        /* \"#utility.yul\":2708:2723   */\n      revert\n        /* \"#utility.yul\":2735:3016   */\n    tag_119:\n        /* \"#utility.yul\":2818:2845   */\n      tag_207\n        /* \"#utility.yul\":2840:2844   */\n      dup3\n        /* \"#utility.yul\":2818:2845   */\n      tag_118\n      jump\t// in\n    tag_207:\n        /* \"#utility.yul\":2810:2816   */\n      dup2\n        /* \"#utility.yul\":2806:2846   */\n      add\n        /* \"#utility.yul\":2948:2954   */\n      dup2\n        /* \"#utility.yul\":2936:2946   */\n      dup2\n        /* \"#utility.yul\":2933:2955   */\n      lt\n        /* \"#utility.yul\":2912:2930   */\n      0xffffffffffffffff\n        /* \"#utility.yul\":2900:2910   */\n      dup3\n        /* \"#utility.yul\":2897:2931   */\n      gt\n        /* \"#utility.yul\":2894:2956   */\n      or\n        /* \"#utility.yul\":2891:2979   */\n      iszero\n      tag_208\n      jumpi\n        /* \"#utility.yul\":2959:2977   */\n      tag_209\n      tag_28\n      jump\t// in\n    tag_209:\n        /* \"#utility.yul\":2891:2979   */\n    tag_208:\n        /* \"#utility.yul\":2999:3009   */\n      dup1\n        /* \"#utility.yul\":2995:2997   */\n      0x40\n        /* \"#utility.yul\":2988:3010   */\n      mstore\n        /* \"#utility.yul\":2778:3016   */\n      pop\n        /* \"#utility.yul\":2735:3016   */\n      pop\n      pop\n      jump\t// out\n        /* \"#utility.yul\":3022:3151   */\n    tag_120:\n        /* \"#utility.yul\":3056:3062   */\n      0x00\n        /* \"#utility.yul\":3083:3103   */\n      tag_211\n      tag_107\n      jump\t// in\n    tag_211:\n        /* \"#utility.yul\":3073:3103   */\n      swap1\n      pop\n        /* \"#utility.yul\":3112:3145   */\n      tag_212\n        /* \"#utility.yul\":3140:3144   */\n      dup3\n        /* \"#utility.yul\":3132:3138   */\n      dup3\n        /* \"#utility.yul\":3112:3145   */\n      tag_119\n      jump\t// in\n    tag_212:\n        /* \"#utility.yul\":3022:3151   */\n      swap2\n      swap1\n      pop\n      jump\t// out\n        /* \"#utility.yul\":3157:3464   */\n    tag_121:\n        /* \"#utility.yul\":3218:3222   */\n      0x00\n        /* \"#utility.yul\":3308:3326   */\n      0xffffffffffffffff\n        /* \"#utility.yul\":3300:3306   */\n      dup3\n        /* \"#utility.yul\":3297:3327   */\n      gt\n        /* \"#utility.yul\":3294:3350   */\n      iszero\n      tag_214\n      jumpi\n        /* \"#utility.yul\":3330:3348   */\n      tag_215\n      tag_28\n      jump\t// in\n    tag_215:\n        /* \"#utility.yul\":3294:3350   */\n    tag_214:\n        /* \"#utility.yul\":3368:3397   */\n      tag_216\n        /* \"#utility.yul\":3390:3396   */\n      dup3\n        /* \"#utility.yul\":3368:3397   */\n      tag_118\n      jump\t// in\n    tag_216:\n        /* \"#utility.yul\":3360:3397   */\n      swap1\n      pop\n        /* \"#utility.yul\":3452:3456   */\n      0x20\n        /* \"#utility.yul\":3446:3450   */\n      dup2\n        /* \"#utility.yul\":3442:3457   */\n      add\n        /* \"#utility.yul\":3434:3457   */\n      swap1\n      pop\n        /* \"#utility.yul\":3157:3464   */\n      swap2\n      swap1\n      pop\n      jump\t// out\n        /* \"#utility.yul\":3470:3624   */\n    tag_122:\n        /* \"#utility.yul\":3554:3560   */\n      dup3\n        /* \"#utility.yul\":3549:3552   */\n      dup2\n        /* \"#utility.yul\":3544:3547   */\n      dup4\n        /* \"#utility.yul\":3531:3561   */\n      calldatacopy\n        /* \"#utility.yul\":3616:3617   */\n      0x00\n        /* \"#utility.yul\":3607:3613   */\n      dup4\n        /* \"#utility.yul\":3602:3605   */\n      dup4\n        /* \"#utility.yul\":3598:3614   */\n      add\n        /* \"#utility.yul\":3591:3618   */\n      mstore\n        /* \"#utility.yul\":3470:3624   */\n      pop\n      pop\n      pop\n      jump\t// out\n        /* \"#utility.yul\":3630:4040   */\n    tag_123:\n        /* \"#utility.yul\":3707:3712   */\n      0x00\n        /* \"#utility.yul\":3732:3797   */\n      tag_219\n        /* \"#utility.yul\":3748:3796   */\n      tag_220\n        /* \"#utility.yul\":3789:3795   */\n      dup5\n        /* \"#utility.yul\":3748:3796   */\n      tag_121\n      jump\t// in\n    tag_220:\n        /* \"#utility.yul\":3732:3797   */\n      tag_120\n      jump\t// in\n    tag_219:\n        /* \"#utility.yul\":3723:3797   */\n      swap1\n      pop\n        /* \"#utility.yul\":3820:3826   */\n      dup3\n        /* \"#utility.yul\":3813:3818   */\n      dup2\n        /* \"#utility.yul\":3806:3827   */\n      mstore\n        /* \"#utility.yul\":3858:3862   */\n      0x20\n        /* \"#utility.yul\":3851:3856   */\n      dup2\n        /* \"#utility.yul\":3847:3863   */\n      add\n        /* \"#utility.yul\":3896:3899   */\n      dup5\n        /* \"#utility.yul\":3887:3893   */\n      dup5\n        /* \"#utility.yul\":3882:3885   */\n      dup5\n        /* \"#utility.yul\":3878:3894   */\n      add\n        /* \"#utility.yul\":3875:3900   */\n      gt\n        /* \"#utility.yul\":3872:3984   */\n      iszero\n      tag_221\n      jumpi\n        /* \"#utility.yul\":3903:3982   */\n      tag_222\n      tag_117\n      jump\t// in\n    tag_222:\n        /* \"#utility.yul\":3872:3984   */\n    tag_221:\n        /* \"#utility.yul\":3993:4034   */\n      tag_223\n        /* \"#utility.yul\":4027:4033   */\n      dup5\n        /* \"#utility.yul\":4022:4025   */\n      dup3\n        /* \"#utility.yul\":4017:4020   */\n      dup6\n        /* \"#utility.yul\":3993:4034   */\n      tag_122\n      jump\t// in\n    tag_223:\n        /* \"#utility.yul\":3713:4040   */\n      pop\n        /* \"#utility.yul\":3630:4040   */\n      swap4\n      swap3\n      pop\n      pop\n      pop\n      jump\t// out\n        /* \"#utility.yul\":4059:4397   */\n    tag_124:\n        /* \"#utility.yul\":4114:4119   */\n      0x00\n        /* \"#utility.yul\":4163:4166   */\n      dup3\n        /* \"#utility.yul\":4156:4160   */\n      0x1f\n        /* \"#utility.yul\":4148:4154   */\n      dup4\n        /* \"#utility.yul\":4144:4161   */\n      add\n        /* \"#utility.yul\":4140:4167   */\n      slt\n        /* \"#utility.yul\":4130:4252   */\n      tag_225\n      jumpi\n        /* \"#utility.yul\":4171:4250   */\n      tag_226\n      tag_116\n      jump\t// in\n    tag_226:\n        /* \"#utility.yul\":4130:4252   */\n    tag_225:\n        /* \"#utility.yul\":4288:4294   */\n      dup2\n        /* \"#utility.yul\":4275:4295   */\n      calldataload\n        /* \"#utility.yul\":4313:4391   */\n      tag_227\n        /* \"#utility.yul\":4387:4390   */\n      dup5\n        /* \"#utility.yul\":4379:4385   */\n      dup3\n        /* \"#utility.yul\":4372:4376   */\n      0x20\n        /* \"#utility.yul\":4364:4370   */\n      dup7\n        /* \"#utility.yul\":4360:4377   */\n      add\n        /* \"#utility.yul\":4313:4391   */\n      tag_123\n      jump\t// in\n    tag_227:\n        /* \"#utility.yul\":4304:4391   */\n      swap2\n      pop\n        /* \"#utility.yul\":4120:4397   */\n      pop\n        /* \"#utility.yul\":4059:4397   */\n      swap3\n      swap2\n      pop\n      pop\n      jump\t// out\n        /* \"#utility.yul\":4403:5492   */\n    tag_13:\n        /* \"#utility.yul\":4507:4513   */\n      0x00\n        /* \"#utility.yul\":4515:4521   */\n      dup1\n        /* \"#utility.yul\":4523:4529   */\n      0x00\n        /* \"#utility.yul\":4531:4537   */\n      dup1\n        /* \"#utility.yul\":4539:4545   */\n      0x00\n        /* \"#utility.yul\":4588:4591   */\n      0xa0\n        /* \"#utility.yul\":4576:4585   */\n      dup7\n        /* \"#utility.yul\":4567:4574   */\n      dup9\n        /* \"#utility.yul\":4563:4586   */\n      sub\n        /* \"#utility.yul\":4559:4592   */\n      slt\n        /* \"#utility.yul\":4556:4676   */\n      iszero\n      tag_229\n      jumpi\n        /* \"#utility.yul\":4595:4674   */\n      tag_230\n      tag_108\n      jump\t// in\n    tag_230:\n        /* \"#utility.yul\":4556:4676   */\n    tag_229:\n        /* \"#utility.yul\":4715:4716   */\n      0x00\n        /* \"#utility.yul\":4740:4793   */\n      tag_231\n        /* \"#utility.yul\":4785:4792   */\n      dup9\n        /* \"#utility.yul\":4776:4782   */\n      dup3\n        /* \"#utility.yul\":4765:4774   */\n      dup10\n        /* \"#utility.yul\":4761:4783   */\n      add\n        /* \"#utility.yul\":4740:4793   */\n      tag_112\n      jump\t// in\n    tag_231:\n        /* \"#utility.yul\":4730:4793   */\n      swap6\n      pop\n        /* \"#utility.yul\":4686:4803   */\n      pop\n        /* \"#utility.yul\":4842:4844   */\n      0x20\n        /* \"#utility.yul\":4868:4921   */\n      tag_232\n        /* \"#utility.yul\":4913:4920   */\n      dup9\n        /* \"#utility.yul\":4904:4910   */\n      dup3\n        /* \"#utility.yul\":4893:4902   */\n      dup10\n        /* \"#utility.yul\":4889:4911   */\n      add\n        /* \"#utility.yul\":4868:4921   */\n      tag_115\n      jump\t// in\n    tag_232:\n        /* \"#utility.yul\":4858:4921   */\n      swap5\n      pop\n        /* \"#utility.yul\":4813:4931   */\n      pop\n        /* \"#utility.yul\":4970:4972   */\n      0x40\n        /* \"#utility.yul\":4996:5049   */\n      tag_233\n        /* \"#utility.yul\":5041:5048   */\n      dup9\n        /* \"#utility.yul\":5032:5038   */\n      dup3\n        /* \"#utility.yul\":5021:5030   */\n      dup10\n        /* \"#utility.yul\":5017:5039   */\n      add\n        /* \"#utility.yul\":4996:5049   */\n      tag_115\n      jump\t// in\n    tag_233:\n        /* \"#utility.yul\":4986:5049   */\n      swap4\n      pop\n        /* \"#utility.yul\":4941:5059   */\n      pop\n        /* \"#utility.yul\":5098:5100   */\n      0x60\n        /* \"#utility.yul\":5124:5177   */\n      tag_234\n        /* \"#utility.yul\":5169:5176   */\n      dup9\n        /* \"#utility.yul\":5160:5166   */\n      dup3\n        /* \"#utility.yul\":5149:5158   */\n      dup10\n        /* \"#utility.yul\":5145:5167   */\n      add\n        /* \"#utility.yul\":5124:5177   */\n      tag_112\n      jump\t// in\n    tag_234:\n        /* \"#utility.yul\":5114:5177   */\n      swap3\n      pop\n        /* \"#utility.yul\":5069:5187   */\n      pop\n        /* \"#utility.yul\":5254:5257   */\n      0x80\n        /* \"#utility.yul\":5243:5252   */\n      dup7\n        /* \"#utility.yul\":5239:5258   */\n      add\n        /* \"#utility.yul\":5226:5259   */\n      calldataload\n        /* \"#utility.yul\":5286:5304   */\n      0xffffffffffffffff\n        /* \"#utility.yul\":5278:5284   */\n      dup2\n        /* \"#utility.yul\":5275:5305   */\n      gt\n        /* \"#utility.yul\":5272:5389   */\n      iszero\n      tag_235\n      jumpi\n        /* \"#utility.yul\":5308:5387   */\n      tag_236\n      tag_109\n      jump\t// in\n    tag_236:\n        /* \"#utility.yul\":5272:5389   */\n    tag_235:\n        /* \"#utility.yul\":5413:5475   */\n      tag_237\n        /* \"#utility.yul\":5467:5474   */\n      dup9\n        /* \"#utility.yul\":5458:5464   */\n      dup3\n        /* \"#utility.yul\":5447:5456   */\n      dup10\n        /* \"#utility.yul\":5443:5465   */\n      add\n        /* \"#utility.yul\":5413:5475   */\n      tag_124\n      jump\t// in\n    tag_237:\n        /* \"#utility.yul\":5403:5475   */\n      swap2\n      pop\n        /* \"#utility.yul\":5197:5485   */\n      pop\n        /* \"#utility.yul\":4403:5492   */\n      swap3\n      swap6\n      pop\n      swap3\n      swap6\n      swap1\n      swap4\n      pop\n      jump\t// out\n        /* \"#utility.yul\":5498:5588   */\n    tag_125:\n        /* \"#utility.yul\":5532:5539   */\n      0x00\n        /* \"#utility.yul\":5575:5580   */\n      dup2\n        /* \"#utility.yul\":5568:5581   */\n      iszero\n        /* \"#utility.yul\":5561:5582   */\n      iszero\n        /* \"#utility.yul\":5550:5582   */\n      swap1\n      pop\n        /* \"#utility.yul\":5498:5588   */\n      swap2\n      swap1\n      pop\n      jump\t// out\n        /* \"#utility.yul\":5594:5703   */\n    tag_126:\n        /* \"#utility.yul\":5675:5696   */\n      tag_240\n        /* \"#utility.yul\":5690:5695   */\n      dup2\n        /* \"#utility.yul\":5675:5696   */\n      tag_125\n      jump\t// in\n    tag_240:\n        /* \"#utility.yul\":5670:5673   */\n      dup3\n        /* \"#utility.yul\":5663:5697   */\n      mstore\n        /* \"#utility.yul\":5594:5703   */\n      pop\n      pop\n      jump\t// out\n        /* \"#utility.yul\":5709:5919   */\n    tag_16:\n        /* \"#utility.yul\":5796:5800   */\n      0x00\n        /* \"#utility.yul\":5834:5836   */\n      0x20\n        /* \"#utility.yul\":5823:5832   */\n      dup3\n        /* \"#utility.yul\":5819:5837   */\n      add\n        /* \"#utility.yul\":5811:5837   */\n      swap1\n      pop\n        /* \"#utility.yul\":5847:5912   */\n      tag_242\n        /* \"#utility.yul\":5909:5910   */\n      0x00\n        /* \"#utility.yul\":5898:5907   */\n      dup4\n        /* \"#utility.yul\":5894:5911   */\n      add\n        /* \"#utility.yul\":5885:5891   */\n      dup5\n        /* \"#utility.yul\":5847:5912   */\n      tag_126\n      jump\t// in\n    tag_242:\n        /* \"#utility.yul\":5709:5919   */\n      swap3\n      swap2\n      pop\n      pop\n      jump\t// out\n        /* \"#utility.yul\":5925:6065   */\n    tag_127:\n        /* \"#utility.yul\":5989:5998   */\n      0x00\n        /* \"#utility.yul\":6022:6059   */\n      tag_244\n        /* \"#utility.yul\":6053:6058   */\n      dup3\n        /* \"#utility.yul\":6022:6059   */\n      tag_104\n      jump\t// in\n    tag_244:\n        /* \"#utility.yul\":6009:6059   */\n      swap1\n      pop\n        /* \"#utility.yul\":5925:6065   */\n      swap2\n      swap1\n      pop\n      jump\t// out\n        /* \"#utility.yul\":6071:6230   */\n    tag_128:\n        /* \"#utility.yul\":6172:6223   */\n      tag_246\n        /* \"#utility.yul\":6217:6222   */\n      dup2\n        /* \"#utility.yul\":6172:6223   */\n      tag_127\n      jump\t// in\n    tag_246:\n        /* \"#utility.yul\":6167:6170   */\n      dup3\n        /* \"#utility.yul\":6160:6224   */\n      mstore\n        /* \"#utility.yul\":6071:6230   */\n      pop\n      pop\n      jump\t// out\n        /* \"#utility.yul\":6236:6486   */\n    tag_20:\n        /* \"#utility.yul\":6343:6347   */\n      0x00\n        /* \"#utility.yul\":6381:6383   */\n      0x20\n        /* \"#utility.yul\":6370:6379   */\n      dup3\n        /* \"#utility.yul\":6366:6384   */\n      add\n        /* \"#utility.yul\":6358:6384   */\n      swap1\n      pop\n        /* \"#utility.yul\":6394:6479   */\n      tag_248\n        /* \"#utility.yul\":6476:6477   */\n      0x00\n        /* \"#utility.yul\":6465:6474   */\n      dup4\n        /* \"#utility.yul\":6461:6478   */\n      add\n        /* \"#utility.yul\":6452:6458   */\n      dup5\n        /* \"#utility.yul\":6394:6479   */\n      tag_128\n      jump\t// in\n    tag_248:\n        /* \"#utility.yul\":6236:6486   */\n      swap3\n      swap2\n      pop\n      pop\n      jump\t// out\n        /* \"#utility.yul\":6492:6966   */\n    tag_23:\n        /* \"#utility.yul\":6560:6566   */\n      0x00\n        /* \"#utility.yul\":6568:6574   */\n      dup1\n        /* \"#utility.yul\":6617:6619   */\n      0x40\n        /* \"#utility.yul\":6605:6614   */\n      dup4\n        /* \"#utility.yul\":6596:6603   */\n      dup6\n        /* \"#utility.yul\":6592:6615   */\n      sub\n        /* \"#utility.yul\":6588:6620   */\n      slt\n        /* \"#utility.yul\":6585:6704   */\n      iszero\n      tag_250\n      jumpi\n        /* \"#utility.yul\":6623:6702   */\n      tag_251\n      tag_108\n      jump\t// in\n    tag_251:\n        /* \"#utility.yul\":6585:6704   */\n    tag_250:\n        /* \"#utility.yul\":6743:6744   */\n      0x00\n        /* \"#utility.yul\":6768:6821   */\n      tag_252\n        /* \"#utility.yul\":6813:6820   */\n      dup6\n        /* \"#utility.yul\":6804:6810   */\n      dup3\n        /* \"#utility.yul\":6793:6802   */\n      dup7\n        /* \"#utility.yul\":6789:6811   */\n      add\n        /* \"#utility.yul\":6768:6821   */\n      tag_112\n      jump\t// in\n    tag_252:\n        /* \"#utility.yul\":6758:6821   */\n      swap3\n      pop\n        /* \"#utility.yul\":6714:6831   */\n      pop\n        /* \"#utility.yul\":6870:6872   */\n      0x20\n        /* \"#utility.yul\":6896:6949   */\n      tag_253\n        /* \"#utility.yul\":6941:6948   */\n      dup6\n        /* \"#utility.yul\":6932:6938   */\n      dup3\n        /* \"#utility.yul\":6921:6930   */\n      dup7\n        /* \"#utility.yul\":6917:6939   */\n      add\n        /* \"#utility.yul\":6896:6949   */\n      tag_115\n      jump\t// in\n    tag_253:\n        /* \"#utility.yul\":6886:6949   */\n      swap2\n      pop\n        /* \"#utility.yul\":6841:6959   */\n      pop\n        /* \"#utility.yul\":6492:6966   */\n      swap3\n      pop\n      swap3\n      swap1\n      pop\n      jump\t// out\n        /* \"#utility.yul\":6972:7152   */\n    tag_32:\n        /* \"#utility.yul\":7020:7097   */\n      0x4e487b7100000000000000000000000000000000000000000000000000000000\n        /* \"#utility.yul\":7017:7018   */\n      0x00\n        /* \"#utility.yul\":7010:7098   */\n      mstore\n        /* \"#utility.yul\":7117:7121   */\n      0x32\n        /* \"#utility.yul\":7114:7115   */\n      0x04\n        /* \"#utility.yul\":7107:7122   */\n      mstore\n        /* \"#utility.yul\":7141:7145   */\n      0x24\n        /* \"#utility.yul\":7138:7139   */\n      0x00\n        /* \"#utility.yul\":7131:7146   */\n      revert\n        /* \"#utility.yul\":7158:7243   */\n    tag_129:\n        /* \"#utility.yul\":7203:7210   */\n      0x00\n        /* \"#utility.yul\":7232:7237   */\n      dup2\n        /* \"#utility.yul\":7221:7237   */\n      swap1\n      pop\n        /* \"#utility.yul\":7158:7243   */\n      swap2\n      swap1\n      pop\n      jump\t// out\n        /* \"#utility.yul\":7249:7407   */\n    tag_130:\n        /* \"#utility.yul\":7307:7316   */\n      0x00\n        /* \"#utility.yul\":7340:7401   */\n      tag_257\n        /* \"#utility.yul\":7358:7400   */\n      tag_258\n        /* \"#utility.yul\":7367:7399   */\n      tag_259\n        /* \"#utility.yul\":7393:7398   */\n      dup5\n        /* \"#utility.yul\":7367:7399   */\n      tag_129\n      jump\t// in\n    tag_259:\n        /* \"#utility.yul\":7358:7400   */\n      tag_102\n      jump\t// in\n    tag_258:\n        /* \"#utility.yul\":7340:7401   */\n      tag_113\n      jump\t// in\n    tag_257:\n        /* \"#utility.yul\":7327:7401   */\n      swap1\n      pop\n        /* \"#utility.yul\":7249:7407   */\n      swap2\n      swap1\n      pop\n      jump\t// out\n        /* \"#utility.yul\":7413:7560   */\n    tag_131:\n        /* \"#utility.yul\":7508:7553   */\n      tag_261\n        /* \"#utility.yul\":7547:7552   */\n      dup2\n        /* \"#utility.yul\":7508:7553   */\n      tag_130\n      jump\t// in\n    tag_261:\n        /* \"#utility.yul\":7503:7506   */\n      dup3\n        /* \"#utility.yul\":7496:7554   */\n      mstore\n        /* \"#utility.yul\":7413:7560   */\n      pop\n      pop\n      jump\t// out\n        /* \"#utility.yul\":7566:7680   */\n    tag_132:\n        /* \"#utility.yul\":7633:7639   */\n      0x00\n        /* \"#utility.yul\":7667:7672   */\n      dup2\n        /* \"#utility.yul\":7661:7673   */\n      mload\n        /* \"#utility.yul\":7651:7673   */\n      swap1\n      pop\n        /* \"#utility.yul\":7566:7680   */\n      swap2\n      swap1\n      pop\n      jump\t// out\n        /* \"#utility.yul\":7686:7870   */\n    tag_133:\n        /* \"#utility.yul\":7785:7796   */\n      0x00\n        /* \"#utility.yul\":7819:7825   */\n      dup3\n        /* \"#utility.yul\":7814:7817   */\n      dup3\n        /* \"#utility.yul\":7807:7826   */\n      mstore\n        /* \"#utility.yul\":7859:7863   */\n      0x20\n        /* \"#utility.yul\":7854:7857   */\n      dup3\n        /* \"#utility.yul\":7850:7864   */\n      add\n        /* \"#utility.yul\":7835:7864   */\n      swap1\n      pop\n        /* \"#utility.yul\":7686:7870   */\n      swap3\n      swap2\n      pop\n      pop\n      jump\t// out\n        /* \"#utility.yul\":7876:8008   */\n    tag_134:\n        /* \"#utility.yul\":7943:7947   */\n      0x00\n        /* \"#utility.yul\":7966:7969   */\n      dup2\n        /* \"#utility.yul\":7958:7969   */\n      swap1\n      pop\n        /* \"#utility.yul\":7996:8000   */\n      0x20\n        /* \"#utility.yul\":7991:7994   */\n      dup3\n        /* \"#utility.yul\":7987:8001   */\n      add\n        /* \"#utility.yul\":7979:8001   */\n      swap1\n      pop\n        /* \"#utility.yul\":7876:8008   */\n      swap2\n      swap1\n      pop\n      jump\t// out\n        /* \"#utility.yul\":8014:8122   */\n    tag_135:\n        /* \"#utility.yul\":8091:8115   */\n      tag_266\n        /* \"#utility.yul\":8109:8114   */\n      dup2\n        /* \"#utility.yul\":8091:8115   */\n      tag_110\n      jump\t// in\n    tag_266:\n        /* \"#utility.yul\":8086:8089   */\n      dup3\n        /* \"#utility.yul\":8079:8116   */\n      mstore\n        /* \"#utility.yul\":8014:8122   */\n      pop\n      pop\n      jump\t// out\n        /* \"#utility.yul\":8128:8307   */\n    tag_136:\n        /* \"#utility.yul\":8197:8207   */\n      0x00\n        /* \"#utility.yul\":8218:8264   */\n      tag_268\n        /* \"#utility.yul\":8260:8263   */\n      dup4\n        /* \"#utility.yul\":8252:8258   */\n      dup4\n        /* \"#utility.yul\":8218:8264   */\n      tag_135\n      jump\t// in\n    tag_268:\n        /* \"#utility.yul\":8296:8300   */\n      0x20\n        /* \"#utility.yul\":8291:8294   */\n      dup4\n        /* \"#utility.yul\":8287:8301   */\n      add\n        /* \"#utility.yul\":8273:8301   */\n      swap1\n      pop\n        /* \"#utility.yul\":8128:8307   */\n      swap3\n      swap2\n      pop\n      pop\n      jump\t// out\n        /* \"#utility.yul\":8313:8426   */\n    tag_137:\n        /* \"#utility.yul\":8383:8387   */\n      0x00\n        /* \"#utility.yul\":8415:8419   */\n      0x20\n        /* \"#utility.yul\":8410:8413   */\n      dup3\n        /* \"#utility.yul\":8406:8420   */\n      add\n        /* \"#utility.yul\":8398:8420   */\n      swap1\n      pop\n        /* \"#utility.yul\":8313:8426   */\n      swap2\n      swap1\n      pop\n      jump\t// out\n        /* \"#utility.yul\":8462:9194   */\n    tag_138:\n        /* \"#utility.yul\":8581:8584   */\n      0x00\n        /* \"#utility.yul\":8610:8664   */\n      tag_271\n        /* \"#utility.yul\":8658:8663   */\n      dup3\n        /* \"#utility.yul\":8610:8664   */\n      tag_132\n      jump\t// in\n    tag_271:\n        /* \"#utility.yul\":8680:8766   */\n      tag_272\n        /* \"#utility.yul\":8759:8765   */\n      dup2\n        /* \"#utility.yul\":8754:8757   */\n      dup6\n        /* \"#utility.yul\":8680:8766   */\n      tag_133\n      jump\t// in\n    tag_272:\n        /* \"#utility.yul\":8673:8766   */\n      swap4\n      pop\n        /* \"#utility.yul\":8790:8846   */\n      tag_273\n        /* \"#utility.yul\":8840:8845   */\n      dup4\n        /* \"#utility.yul\":8790:8846   */\n      tag_134\n      jump\t// in\n    tag_273:\n        /* \"#utility.yul\":8869:8876   */\n      dup1\n        /* \"#utility.yul\":8900:8901   */\n      0x00\n        /* \"#utility.yul\":8885:9169   */\n    tag_274:\n        /* \"#utility.yul\":8910:8916   */\n      dup4\n        /* \"#utility.yul\":8907:8908   */\n      dup2\n        /* \"#utility.yul\":8904:8917   */\n      lt\n        /* \"#utility.yul\":8885:9169   */\n      iszero\n      tag_276\n      jumpi\n        /* \"#utility.yul\":8986:8992   */\n      dup2\n        /* \"#utility.yul\":8980:8993   */\n      mload\n        /* \"#utility.yul\":9013:9076   */\n      tag_277\n        /* \"#utility.yul\":9072:9075   */\n      dup9\n        /* \"#utility.yul\":9057:9070   */\n      dup3\n        /* \"#utility.yul\":9013:9076   */\n      tag_136\n      jump\t// in\n    tag_277:\n        /* \"#utility.yul\":9006:9076   */\n      swap8\n      pop\n        /* \"#utility.yul\":9099:9159   */\n      tag_278\n        /* \"#utility.yul\":9152:9158   */\n      dup4\n        /* \"#utility.yul\":9099:9159   */\n      tag_137\n      jump\t// in\n    tag_278:\n        /* \"#utility.yul\":9089:9159   */\n      swap3\n      pop\n        /* \"#utility.yul\":8945:9169   */\n      pop\n        /* \"#utility.yul\":8932:8933   */\n      0x01\n        /* \"#utility.yul\":8929:8930   */\n      dup2\n        /* \"#utility.yul\":8925:8934   */\n      add\n        /* \"#utility.yul\":8920:8934   */\n      swap1\n      pop\n        /* \"#utility.yul\":8885:9169   */\n      jump(tag_274)\n    tag_276:\n        /* \"#utility.yul\":8889:8903   */\n      pop\n        /* \"#utility.yul\":9185:9188   */\n      dup6\n        /* \"#utility.yul\":9178:9188   */\n      swap4\n      pop\n        /* \"#utility.yul\":8586:9194   */\n      pop\n      pop\n      pop\n        /* \"#utility.yul\":8462:9194   */\n      swap3\n      swap2\n      pop\n      pop\n      jump\t// out\n        /* \"#utility.yul\":9200:9318   */\n    tag_139:\n        /* \"#utility.yul\":9287:9311   */\n      tag_280\n        /* \"#utility.yul\":9305:9310   */\n      dup2\n        /* \"#utility.yul\":9287:9311   */\n      tag_110\n      jump\t// in\n    tag_280:\n        /* \"#utility.yul\":9282:9285   */\n      dup3\n        /* \"#utility.yul\":9275:9312   */\n      mstore\n        /* \"#utility.yul\":9200:9318   */\n      pop\n      pop\n      jump\t// out\n        /* \"#utility.yul\":9324:9442   */\n    tag_140:\n        /* \"#utility.yul\":9411:9435   */\n      tag_282\n        /* \"#utility.yul\":9429:9434   */\n      dup2\n        /* \"#utility.yul\":9411:9435   */\n      tag_113\n      jump\t// in\n    tag_282:\n        /* \"#utility.yul\":9406:9409   */\n      dup3\n        /* \"#utility.yul\":9399:9436   */\n      mstore\n        /* \"#utility.yul\":9324:9442   */\n      pop\n      pop\n      jump\t// out\n        /* \"#utility.yul\":9448:10168   */\n    tag_36:\n        /* \"#utility.yul\":9683:9687   */\n      0x00\n        /* \"#utility.yul\":9721:9724   */\n      0x80\n        /* \"#utility.yul\":9710:9719   */\n      dup3\n        /* \"#utility.yul\":9706:9725   */\n      add\n        /* \"#utility.yul\":9698:9725   */\n      swap1\n      pop\n        /* \"#utility.yul\":9735:9814   */\n      tag_284\n        /* \"#utility.yul\":9811:9812   */\n      0x00\n        /* \"#utility.yul\":9800:9809   */\n      dup4\n        /* \"#utility.yul\":9796:9813   */\n      add\n        /* \"#utility.yul\":9787:9793   */\n      dup8\n        /* \"#utility.yul\":9735:9814   */\n      tag_131\n      jump\t// in\n    tag_284:\n        /* \"#utility.yul\":9861:9870   */\n      dup2\n        /* \"#utility.yul\":9855:9859   */\n      dup2\n        /* \"#utility.yul\":9851:9871   */\n      sub\n        /* \"#utility.yul\":9846:9848   */\n      0x20\n        /* \"#utility.yul\":9835:9844   */\n      dup4\n        /* \"#utility.yul\":9831:9849   */\n      add\n        /* \"#utility.yul\":9824:9872   */\n      mstore\n        /* \"#utility.yul\":9889:9997   */\n      tag_285\n        /* \"#utility.yul\":9992:9996   */\n      dup2\n        /* \"#utility.yul\":9983:9989   */\n      dup7\n        /* \"#utility.yul\":9889:9997   */\n      tag_138\n      jump\t// in\n    tag_285:\n        /* \"#utility.yul\":9881:9997   */\n      swap1\n      pop\n        /* \"#utility.yul\":10007:10079   */\n      tag_286\n        /* \"#utility.yul\":10075:10077   */\n      0x40\n        /* \"#utility.yul\":10064:10073   */\n      dup4\n        /* \"#utility.yul\":10060:10078   */\n      add\n        /* \"#utility.yul\":10051:10057   */\n      dup6\n        /* \"#utility.yul\":10007:10079   */\n      tag_139\n      jump\t// in\n    tag_286:\n        /* \"#utility.yul\":10089:10161   */\n      tag_287\n        /* \"#utility.yul\":10157:10159   */\n      0x60\n        /* \"#utility.yul\":10146:10155   */\n      dup4\n        /* \"#utility.yul\":10142:10160   */\n      add\n        /* \"#utility.yul\":10133:10139   */\n      dup5\n        /* \"#utility.yul\":10089:10161   */\n      tag_140\n      jump\t// in\n    tag_287:\n        /* \"#utility.yul\":9448:10168   */\n      swap6\n      swap5\n      pop\n      pop\n      pop\n      pop\n      pop\n      jump\t// out\n        /* \"#utility.yul\":10174:10485   */\n    tag_141:\n        /* \"#utility.yul\":10251:10255   */\n      0x00\n        /* \"#utility.yul\":10341:10359   */\n      0xffffffffffffffff\n        /* \"#utility.yul\":10333:10339   */\n      dup3\n        /* \"#utility.yul\":10330:10360   */\n      gt\n        /* \"#utility.yul\":10327:10383   */\n      iszero\n      tag_289\n      jumpi\n        /* \"#utility.yul\":10363:10381   */\n      tag_290\n      tag_28\n      jump\t// in\n    tag_290:\n        /* \"#utility.yul\":10327:10383   */\n    tag_289:\n        /* \"#utility.yul\":10413:10417   */\n      0x20\n        /* \"#utility.yul\":10405:10411   */\n      dup3\n        /* \"#utility.yul\":10401:10418   */\n      mul\n        /* \"#utility.yul\":10393:10418   */\n      swap1\n      pop\n        /* \"#utility.yul\":10473:10477   */\n      0x20\n        /* \"#utility.yul\":10467:10471   */\n      dup2\n        /* \"#utility.yul\":10463:10478   */\n      add\n        /* \"#utility.yul\":10455:10478   */\n      swap1\n      pop\n        /* \"#utility.yul\":10174:10485   */\n      swap2\n      swap1\n      pop\n      jump\t// out\n        /* \"#utility.yul\":10491:10608   */\n    tag_142:\n        /* \"#utility.yul\":10600:10601   */\n      0x00\n        /* \"#utility.yul\":10597:10598   */\n      dup1\n        /* \"#utility.yul\":10590:10602   */\n      revert\n        /* \"#utility.yul\":10614:10757   */\n    tag_143:\n        /* \"#utility.yul\":10671:10676   */\n      0x00\n        /* \"#utility.yul\":10702:10708   */\n      dup2\n        /* \"#utility.yul\":10696:10709   */\n      mload\n        /* \"#utility.yul\":10687:10709   */\n      swap1\n      pop\n        /* \"#utility.yul\":10718:10751   */\n      tag_293\n        /* \"#utility.yul\":10745:10750   */\n      dup2\n        /* \"#utility.yul\":10718:10751   */\n      tag_114\n      jump\t// in\n    tag_293:\n        /* \"#utility.yul\":10614:10757   */\n      swap3\n      swap2\n      pop\n      pop\n      jump\t// out\n        /* \"#utility.yul\":10780:11512   */\n    tag_144:\n        /* \"#utility.yul\":10887:10892   */\n      0x00\n        /* \"#utility.yul\":10912:10993   */\n      tag_295\n        /* \"#utility.yul\":10928:10992   */\n      tag_296\n        /* \"#utility.yul\":10985:10991   */\n      dup5\n        /* \"#utility.yul\":10928:10992   */\n      tag_141\n      jump\t// in\n    tag_296:\n        /* \"#utility.yul\":10912:10993   */\n      tag_120\n      jump\t// in\n    tag_295:\n        /* \"#utility.yul\":10903:10993   */\n      swap1\n      pop\n        /* \"#utility.yul\":11013:11018   */\n      dup1\n        /* \"#utility.yul\":11042:11048   */\n      dup4\n        /* \"#utility.yul\":11035:11040   */\n      dup3\n        /* \"#utility.yul\":11028:11049   */\n      mstore\n        /* \"#utility.yul\":11076:11080   */\n      0x20\n        /* \"#utility.yul\":11069:11074   */\n      dup3\n        /* \"#utility.yul\":11065:11081   */\n      add\n        /* \"#utility.yul\":11058:11081   */\n      swap1\n      pop\n        /* \"#utility.yul\":11129:11133   */\n      0x20\n        /* \"#utility.yul\":11121:11127   */\n      dup5\n        /* \"#utility.yul\":11117:11134   */\n      mul\n        /* \"#utility.yul\":11109:11115   */\n      dup4\n        /* \"#utility.yul\":11105:11135   */\n      add\n        /* \"#utility.yul\":11158:11161   */\n      dup6\n        /* \"#utility.yul\":11150:11156   */\n      dup2\n        /* \"#utility.yul\":11147:11162   */\n      gt\n        /* \"#utility.yul\":11144:11266   */\n      iszero\n      tag_297\n      jumpi\n        /* \"#utility.yul\":11177:11256   */\n      tag_298\n      tag_142\n      jump\t// in\n    tag_298:\n        /* \"#utility.yul\":11144:11266   */\n    tag_297:\n        /* \"#utility.yul\":11292:11298   */\n      dup4\n        /* \"#utility.yul\":11275:11506   */\n    tag_299:\n        /* \"#utility.yul\":11309:11315   */\n      dup2\n        /* \"#utility.yul\":11304:11307   */\n      dup2\n        /* \"#utility.yul\":11301:11316   */\n      lt\n        /* \"#utility.yul\":11275:11506   */\n      iszero\n      tag_301\n      jumpi\n        /* \"#utility.yul\":11384:11387   */\n      dup1\n        /* \"#utility.yul\":11413:11461   */\n      tag_302\n        /* \"#utility.yul\":11457:11460   */\n      dup9\n        /* \"#utility.yul\":11445:11455   */\n      dup3\n        /* \"#utility.yul\":11413:11461   */\n      tag_143\n      jump\t// in\n    tag_302:\n        /* \"#utility.yul\":11408:11411   */\n      dup5\n        /* \"#utility.yul\":11401:11462   */\n      mstore\n        /* \"#utility.yul\":11491:11495   */\n      0x20\n        /* \"#utility.yul\":11486:11489   */\n      dup5\n        /* \"#utility.yul\":11482:11496   */\n      add\n        /* \"#utility.yul\":11475:11496   */\n      swap4\n      pop\n        /* \"#utility.yul\":11351:11506   */\n      pop\n        /* \"#utility.yul\":11335:11339   */\n      0x20\n        /* \"#utility.yul\":11330:11333   */\n      dup2\n        /* \"#utility.yul\":11326:11340   */\n      add\n        /* \"#utility.yul\":11319:11340   */\n      swap1\n      pop\n        /* \"#utility.yul\":11275:11506   */\n      jump(tag_299)\n    tag_301:\n        /* \"#utility.yul\":11279:11300   */\n      pop\n        /* \"#utility.yul\":10893:11512   */\n      pop\n      pop\n        /* \"#utility.yul\":10780:11512   */\n      swap4\n      swap3\n      pop\n      pop\n      pop\n      jump\t// out\n        /* \"#utility.yul\":11535:11920   */\n    tag_145:\n        /* \"#utility.yul\":11617:11622   */\n      0x00\n        /* \"#utility.yul\":11666:11669   */\n      dup3\n        /* \"#utility.yul\":11659:11663   */\n      0x1f\n        /* \"#utility.yul\":11651:11657   */\n      dup4\n        /* \"#utility.yul\":11647:11664   */\n      add\n        /* \"#utility.yul\":11643:11670   */\n      slt\n        /* \"#utility.yul\":11633:11755   */\n      tag_304\n      jumpi\n        /* \"#utility.yul\":11674:11753   */\n      tag_305\n      tag_116\n      jump\t// in\n    tag_305:\n        /* \"#utility.yul\":11633:11755   */\n    tag_304:\n        /* \"#utility.yul\":11784:11790   */\n      dup2\n        /* \"#utility.yul\":11778:11791   */\n      mload\n        /* \"#utility.yul\":11809:11914   */\n      tag_306\n        /* \"#utility.yul\":11910:11913   */\n      dup5\n        /* \"#utility.yul\":11902:11908   */\n      dup3\n        /* \"#utility.yul\":11895:11899   */\n      0x20\n        /* \"#utility.yul\":11887:11893   */\n      dup7\n        /* \"#utility.yul\":11883:11900   */\n      add\n        /* \"#utility.yul\":11809:11914   */\n      tag_144\n      jump\t// in\n    tag_306:\n        /* \"#utility.yul\":11800:11914   */\n      swap2\n      pop\n        /* \"#utility.yul\":11623:11920   */\n      pop\n        /* \"#utility.yul\":11535:11920   */\n      swap3\n      swap2\n      pop\n      pop\n      jump\t// out\n        /* \"#utility.yul\":11926:12480   */\n    tag_40:\n        /* \"#utility.yul\":12021:12027   */\n      0x00\n        /* \"#utility.yul\":12070:12072   */\n      0x20\n        /* \"#utility.yul\":12058:12067   */\n      dup3\n        /* \"#utility.yul\":12049:12056   */\n      dup5\n        /* \"#utility.yul\":12045:12068   */\n      sub\n        /* \"#utility.yul\":12041:12073   */\n      slt\n        /* \"#utility.yul\":12038:12157   */\n      iszero\n      tag_308\n      jumpi\n        /* \"#utility.yul\":12076:12155   */\n      tag_309\n      tag_108\n      jump\t// in\n    tag_309:\n        /* \"#utility.yul\":12038:12157   */\n    tag_308:\n        /* \"#utility.yul\":12217:12218   */\n      0x00\n        /* \"#utility.yul\":12206:12215   */\n      dup3\n        /* \"#utility.yul\":12202:12219   */\n      add\n        /* \"#utility.yul\":12196:12220   */\n      mload\n        /* \"#utility.yul\":12247:12265   */\n      0xffffffffffffffff\n        /* \"#utility.yul\":12239:12245   */\n      dup2\n        /* \"#utility.yul\":12236:12266   */\n      gt\n        /* \"#utility.yul\":12233:12350   */\n      iszero\n      tag_310\n      jumpi\n        /* \"#utility.yul\":12269:12348   */\n      tag_311\n      tag_109\n      jump\t// in\n    tag_311:\n        /* \"#utility.yul\":12233:12350   */\n    tag_310:\n        /* \"#utility.yul\":12374:12463   */\n      tag_312\n        /* \"#utility.yul\":12455:12462   */\n      dup5\n        /* \"#utility.yul\":12446:12452   */\n      dup3\n        /* \"#utility.yul\":12435:12444   */\n      dup6\n        /* \"#utility.yul\":12431:12453   */\n      add\n        /* \"#utility.yul\":12374:12463   */\n      tag_145\n      jump\t// in\n    tag_312:\n        /* \"#utility.yul\":12364:12463   */\n      swap2\n      pop\n        /* \"#utility.yul\":12167:12473   */\n      pop\n        /* \"#utility.yul\":11926:12480   */\n      swap3\n      swap2\n      pop\n      pop\n      jump\t// out\n        /* \"#utility.yul\":12486:12708   */\n    tag_42:\n        /* \"#utility.yul\":12579:12583   */\n      0x00\n        /* \"#utility.yul\":12617:12619   */\n      0x20\n        /* \"#utility.yul\":12606:12615   */\n      dup3\n        /* \"#utility.yul\":12602:12620   */\n      add\n        /* \"#utility.yul\":12594:12620   */\n      swap1\n      pop\n        /* \"#utility.yul\":12630:12701   */\n      tag_314\n        /* \"#utility.yul\":12698:12699   */\n      0x00\n        /* \"#utility.yul\":12687:12696   */\n      dup4\n        /* \"#utility.yul\":12683:12700   */\n      add\n        /* \"#utility.yul\":12674:12680   */\n      dup5\n        /* \"#utility.yul\":12630:12701   */\n      tag_139\n      jump\t// in\n    tag_314:\n        /* \"#utility.yul\":12486:12708   */\n      swap3\n      swap2\n      pop\n      pop\n      jump\t// out\n        /* \"#utility.yul\":12714:13065   */\n    tag_46:\n        /* \"#utility.yul\":12784:12790   */\n      0x00\n        /* \"#utility.yul\":12833:12835   */\n      0x20\n        /* \"#utility.yul\":12821:12830   */\n      dup3\n        /* \"#utility.yul\":12812:12819   */\n      dup5\n        /* \"#utility.yul\":12808:12831   */\n      sub\n        /* \"#utility.yul\":12804:12836   */\n      slt\n        /* \"#utility.yul\":12801:12920   */\n      iszero\n      tag_316\n      jumpi\n        /* \"#utility.yul\":12839:12918   */\n      tag_317\n      tag_108\n      jump\t// in\n    tag_317:\n        /* \"#utility.yul\":12801:12920   */\n    tag_316:\n        /* \"#utility.yul\":12959:12960   */\n      0x00\n        /* \"#utility.yul\":12984:13048   */\n      tag_318\n        /* \"#utility.yul\":13040:13047   */\n      dup5\n        /* \"#utility.yul\":13031:13037   */\n      dup3\n        /* \"#utility.yul\":13020:13029   */\n      dup6\n        /* \"#utility.yul\":13016:13038   */\n      add\n        /* \"#utility.yul\":12984:13048   */\n      tag_143\n      jump\t// in\n    tag_318:\n        /* \"#utility.yul\":12974:13048   */\n      swap2\n      pop\n        /* \"#utility.yul\":12930:13058   */\n      pop\n        /* \"#utility.yul\":12714:13065   */\n      swap3\n      swap2\n      pop\n      pop\n      jump\t// out\n        /* \"#utility.yul\":13071:13403   */\n    tag_48:\n        /* \"#utility.yul\":13192:13196   */\n      0x00\n        /* \"#utility.yul\":13230:13232   */\n      0x40\n        /* \"#utility.yul\":13219:13228   */\n      dup3\n        /* \"#utility.yul\":13215:13233   */\n      add\n        /* \"#utility.yul\":13207:13233   */\n      swap1\n      pop\n        /* \"#utility.yul\":13243:13314   */\n      tag_320\n        /* \"#utility.yul\":13311:13312   */\n      0x00\n        /* \"#utility.yul\":13300:13309   */\n      dup4\n        /* \"#utility.yul\":13296:13313   */\n      add\n        /* \"#utility.yul\":13287:13293   */\n      dup6\n        /* \"#utility.yul\":13243:13314   */\n      tag_139\n      jump\t// in\n    tag_320:\n        /* \"#utility.yul\":13324:13396   */\n      tag_321\n        /* \"#utility.yul\":13392:13394   */\n      0x20\n        /* \"#utility.yul\":13381:13390   */\n      dup4\n        /* \"#utility.yul\":13377:13395   */\n      add\n        /* \"#utility.yul\":13368:13374   */\n      dup5\n        /* \"#utility.yul\":13324:13396   */\n      tag_140\n      jump\t// in\n    tag_321:\n        /* \"#utility.yul\":13071:13403   */\n      swap4\n      swap3\n      pop\n      pop\n      pop\n      jump\t// out\n        /* \"#utility.yul\":13409:13525   */\n    tag_146:\n        /* \"#utility.yul\":13479:13500   */\n      tag_323\n        /* \"#utility.yul\":13494:13499   */\n      dup2\n        /* \"#utility.yul\":13479:13500   */\n      tag_125\n      jump\t// in\n    tag_323:\n        /* \"#utility.yul\":13472:13477   */\n      dup2\n        /* \"#utility.yul\":13469:13501   */\n      eq\n        /* \"#utility.yul\":13459:13519   */\n      tag_324\n      jumpi\n        /* \"#utility.yul\":13515:13516   */\n      0x00\n        /* \"#utility.yul\":13512:13513   */\n      dup1\n        /* \"#utility.yul\":13505:13517   */\n      revert\n        /* \"#utility.yul\":13459:13519   */\n    tag_324:\n        /* \"#utility.yul\":13409:13525   */\n      pop\n      jump\t// out\n        /* \"#utility.yul\":13531:13668   */\n    tag_147:\n        /* \"#utility.yul\":13585:13590   */\n      0x00\n        /* \"#utility.yul\":13616:13622   */\n      dup2\n        /* \"#utility.yul\":13610:13623   */\n      mload\n        /* \"#utility.yul\":13601:13623   */\n      swap1\n      pop\n        /* \"#utility.yul\":13632:13662   */\n      tag_326\n        /* \"#utility.yul\":13656:13661   */\n      dup2\n        /* \"#utility.yul\":13632:13662   */\n      tag_146\n      jump\t// in\n    tag_326:\n        /* \"#utility.yul\":13531:13668   */\n      swap3\n      swap2\n      pop\n      pop\n      jump\t// out\n        /* \"#utility.yul\":13674:14019   */\n    tag_52:\n        /* \"#utility.yul\":13741:13747   */\n      0x00\n        /* \"#utility.yul\":13790:13792   */\n      0x20\n        /* \"#utility.yul\":13778:13787   */\n      dup3\n        /* \"#utility.yul\":13769:13776   */\n      dup5\n        /* \"#utility.yul\":13765:13788   */\n      sub\n        /* \"#utility.yul\":13761:13793   */\n      slt\n        /* \"#utility.yul\":13758:13877   */\n      iszero\n      tag_328\n      jumpi\n        /* \"#utility.yul\":13796:13875   */\n      tag_329\n      tag_108\n      jump\t// in\n    tag_329:\n        /* \"#utility.yul\":13758:13877   */\n    tag_328:\n        /* \"#utility.yul\":13916:13917   */\n      0x00\n        /* \"#utility.yul\":13941:14002   */\n      tag_330\n        /* \"#utility.yul\":13994:14001   */\n      dup5\n        /* \"#utility.yul\":13985:13991   */\n      dup3\n        /* \"#utility.yul\":13974:13983   */\n      dup6\n        /* \"#utility.yul\":13970:13992   */\n      add\n        /* \"#utility.yul\":13941:14002   */\n      tag_147\n      jump\t// in\n    tag_330:\n        /* \"#utility.yul\":13931:14002   */\n      swap2\n      pop\n        /* \"#utility.yul\":13887:14012   */\n      pop\n        /* \"#utility.yul\":13674:14019   */\n      swap3\n      swap2\n      pop\n      pop\n      jump\t// out\n        /* \"#utility.yul\":14025:14116   */\n    tag_148:\n        /* \"#utility.yul\":14061:14068   */\n      0x00\n        /* \"#utility.yul\":14101:14109   */\n      0xffffff\n        /* \"#utility.yul\":14094:14099   */\n      dup3\n        /* \"#utility.yul\":14090:14110   */\n      and\n        /* \"#utility.yul\":14079:14110   */\n      swap1\n      pop\n        /* \"#utility.yul\":14025:14116   */\n      swap2\n      swap1\n      pop\n      jump\t// out\n        /* \"#utility.yul\":14122:14227   */\n    tag_149:\n        /* \"#utility.yul\":14197:14220   */\n      tag_333\n        /* \"#utility.yul\":14214:14219   */\n      dup2\n        /* \"#utility.yul\":14197:14220   */\n      tag_148\n      jump\t// in\n    tag_333:\n        /* \"#utility.yul\":14192:14195   */\n      dup3\n        /* \"#utility.yul\":14185:14221   */\n      mstore\n        /* \"#utility.yul\":14122:14227   */\n      pop\n      pop\n      jump\t// out\n        /* \"#utility.yul\":14233:14341   */\n    tag_150:\n        /* \"#utility.yul\":14310:14334   */\n      tag_335\n        /* \"#utility.yul\":14328:14333   */\n      dup2\n        /* \"#utility.yul\":14310:14334   */\n      tag_113\n      jump\t// in\n    tag_335:\n        /* \"#utility.yul\":14305:14308   */\n      dup3\n        /* \"#utility.yul\":14298:14335   */\n      mstore\n        /* \"#utility.yul\":14233:14341   */\n      pop\n      pop\n      jump\t// out\n        /* \"#utility.yul\":14347:14455   */\n    tag_151:\n        /* \"#utility.yul\":14424:14448   */\n      tag_337\n        /* \"#utility.yul\":14442:14447   */\n      dup2\n        /* \"#utility.yul\":14424:14448   */\n      tag_101\n      jump\t// in\n    tag_337:\n        /* \"#utility.yul\":14419:14422   */\n      dup3\n        /* \"#utility.yul\":14412:14449   */\n      mstore\n        /* \"#utility.yul\":14347:14455   */\n      pop\n      pop\n      jump\t// out\n        /* \"#utility.yul\":14555:16180   */\n    tag_152:\n        /* \"#utility.yul\":14732:14738   */\n      0x0100\n        /* \"#utility.yul\":14727:14730   */\n      dup3\n        /* \"#utility.yul\":14723:14739   */\n      add\n        /* \"#utility.yul\":14824:14828   */\n      0x00\n        /* \"#utility.yul\":14817:14822   */\n      dup3\n        /* \"#utility.yul\":14813:14829   */\n      add\n        /* \"#utility.yul\":14807:14830   */\n      mload\n        /* \"#utility.yul\":14843:14906   */\n      tag_339\n        /* \"#utility.yul\":14900:14904   */\n      0x00\n        /* \"#utility.yul\":14895:14898   */\n      dup6\n        /* \"#utility.yul\":14891:14905   */\n      add\n        /* \"#utility.yul\":14877:14889   */\n      dup3\n        /* \"#utility.yul\":14843:14906   */\n      tag_135\n      jump\t// in\n    tag_339:\n        /* \"#utility.yul\":14749:14916   */\n      pop\n        /* \"#utility.yul\":15002:15006   */\n      0x20\n        /* \"#utility.yul\":14995:15000   */\n      dup3\n        /* \"#utility.yul\":14991:15007   */\n      add\n        /* \"#utility.yul\":14985:15008   */\n      mload\n        /* \"#utility.yul\":15021:15084   */\n      tag_340\n        /* \"#utility.yul\":15078:15082   */\n      0x20\n        /* \"#utility.yul\":15073:15076   */\n      dup6\n        /* \"#utility.yul\":15069:15083   */\n      add\n        /* \"#utility.yul\":15055:15067   */\n      dup3\n        /* \"#utility.yul\":15021:15084   */\n      tag_135\n      jump\t// in\n    tag_340:\n        /* \"#utility.yul\":14926:15094   */\n      pop\n        /* \"#utility.yul\":15175:15179   */\n      0x40\n        /* \"#utility.yul\":15168:15173   */\n      dup3\n        /* \"#utility.yul\":15164:15180   */\n      add\n        /* \"#utility.yul\":15158:15181   */\n      mload\n        /* \"#utility.yul\":15194:15255   */\n      tag_341\n        /* \"#utility.yul\":15249:15253   */\n      0x40\n        /* \"#utility.yul\":15244:15247   */\n      dup6\n        /* \"#utility.yul\":15240:15254   */\n      add\n        /* \"#utility.yul\":15226:15238   */\n      dup3\n        /* \"#utility.yul\":15194:15255   */\n      tag_149\n      jump\t// in\n    tag_341:\n        /* \"#utility.yul\":15104:15265   */\n      pop\n        /* \"#utility.yul\":15352:15356   */\n      0x60\n        /* \"#utility.yul\":15345:15350   */\n      dup3\n        /* \"#utility.yul\":15341:15357   */\n      add\n        /* \"#utility.yul\":15335:15358   */\n      mload\n        /* \"#utility.yul\":15371:15434   */\n      tag_342\n        /* \"#utility.yul\":15428:15432   */\n      0x60\n        /* \"#utility.yul\":15423:15426   */\n      dup6\n        /* \"#utility.yul\":15419:15433   */\n      add\n        /* \"#utility.yul\":15405:15417   */\n      dup3\n        /* \"#utility.yul\":15371:15434   */\n      tag_135\n      jump\t// in\n    tag_342:\n        /* \"#utility.yul\":15275:15444   */\n      pop\n        /* \"#utility.yul\":15530:15534   */\n      0x80\n        /* \"#utility.yul\":15523:15528   */\n      dup3\n        /* \"#utility.yul\":15519:15535   */\n      add\n        /* \"#utility.yul\":15513:15536   */\n      mload\n        /* \"#utility.yul\":15549:15612   */\n      tag_343\n        /* \"#utility.yul\":15606:15610   */\n      0x80\n        /* \"#utility.yul\":15601:15604   */\n      dup6\n        /* \"#utility.yul\":15597:15611   */\n      add\n        /* \"#utility.yul\":15583:15595   */\n      dup3\n        /* \"#utility.yul\":15549:15612   */\n      tag_150\n      jump\t// in\n    tag_343:\n        /* \"#utility.yul\":15454:15622   */\n      pop\n        /* \"#utility.yul\":15708:15712   */\n      0xa0\n        /* \"#utility.yul\":15701:15706   */\n      dup3\n        /* \"#utility.yul\":15697:15713   */\n      add\n        /* \"#utility.yul\":15691:15714   */\n      mload\n        /* \"#utility.yul\":15727:15790   */\n      tag_344\n        /* \"#utility.yul\":15784:15788   */\n      0xa0\n        /* \"#utility.yul\":15779:15782   */\n      dup6\n        /* \"#utility.yul\":15775:15789   */\n      add\n        /* \"#utility.yul\":15761:15773   */\n      dup3\n        /* \"#utility.yul\":15727:15790   */\n      tag_150\n      jump\t// in\n    tag_344:\n        /* \"#utility.yul\":15632:15800   */\n      pop\n        /* \"#utility.yul\":15894:15898   */\n      0xc0\n        /* \"#utility.yul\":15887:15892   */\n      dup3\n        /* \"#utility.yul\":15883:15899   */\n      add\n        /* \"#utility.yul\":15877:15900   */\n      mload\n        /* \"#utility.yul\":15913:15976   */\n      tag_345\n        /* \"#utility.yul\":15970:15974   */\n      0xc0\n        /* \"#utility.yul\":15965:15968   */\n      dup6\n        /* \"#utility.yul\":15961:15975   */\n      add\n        /* \"#utility.yul\":15947:15959   */\n      dup3\n        /* \"#utility.yul\":15913:15976   */\n      tag_150\n      jump\t// in\n    tag_345:\n        /* \"#utility.yul\":15810:15986   */\n      pop\n        /* \"#utility.yul\":16081:16085   */\n      0xe0\n        /* \"#utility.yul\":16074:16079   */\n      dup3\n        /* \"#utility.yul\":16070:16086   */\n      add\n        /* \"#utility.yul\":16064:16087   */\n      mload\n        /* \"#utility.yul\":16100:16163   */\n      tag_346\n        /* \"#utility.yul\":16157:16161   */\n      0xe0\n        /* \"#utility.yul\":16152:16155   */\n      dup6\n        /* \"#utility.yul\":16148:16162   */\n      add\n        /* \"#utility.yul\":16134:16146   */\n      dup3\n        /* \"#utility.yul\":16100:16163   */\n      tag_151\n      jump\t// in\n    tag_346:\n        /* \"#utility.yul\":15996:16173   */\n      pop\n        /* \"#utility.yul\":14701:16180   */\n      pop\n        /* \"#utility.yul\":14555:16180   */\n      pop\n      pop\n      jump\t// out\n        /* \"#utility.yul\":16186:16569   */\n    tag_54:\n        /* \"#utility.yul\":16359:16363   */\n      0x00\n        /* \"#utility.yul\":16397:16400   */\n      0x0100\n        /* \"#utility.yul\":16386:16395   */\n      dup3\n        /* \"#utility.yul\":16382:16401   */\n      add\n        /* \"#utility.yul\":16374:16401   */\n      swap1\n      pop\n        /* \"#utility.yul\":16411:16562   */\n      tag_348\n        /* \"#utility.yul\":16559:16560   */\n      0x00\n        /* \"#utility.yul\":16548:16557   */\n      dup4\n        /* \"#utility.yul\":16544:16561   */\n      add\n        /* \"#utility.yul\":16535:16541   */\n      dup5\n        /* \"#utility.yul\":16411:16562   */\n      tag_152\n      jump\t// in\n    tag_348:\n        /* \"#utility.yul\":16186:16569   */\n      swap3\n      swap2\n      pop\n      pop\n      jump\t// out\n        /* \"#utility.yul\":16575:16755   */\n    tag_153:\n        /* \"#utility.yul\":16623:16700   */\n      0x4e487b7100000000000000000000000000000000000000000000000000000000\n        /* \"#utility.yul\":16620:16621   */\n      0x00\n        /* \"#utility.yul\":16613:16701   */\n      mstore\n        /* \"#utility.yul\":16720:16724   */\n      0x11\n        /* \"#utility.yul\":16717:16718   */\n      0x04\n        /* \"#utility.yul\":16710:16725   */\n      mstore\n        /* \"#utility.yul\":16744:16748   */\n      0x24\n        /* \"#utility.yul\":16741:16742   */\n      0x00\n        /* \"#utility.yul\":16734:16749   */\n      revert\n        /* \"#utility.yul\":16761:17066   */\n    tag_59:\n        /* \"#utility.yul\":16801:16804   */\n      0x00\n        /* \"#utility.yul\":16820:16840   */\n      tag_351\n        /* \"#utility.yul\":16838:16839   */\n      dup3\n        /* \"#utility.yul\":16820:16840   */\n      tag_113\n      jump\t// in\n    tag_351:\n        /* \"#utility.yul\":16815:16840   */\n      swap2\n      pop\n        /* \"#utility.yul\":16854:16874   */\n      tag_352\n        /* \"#utility.yul\":16872:16873   */\n      dup4\n        /* \"#utility.yul\":16854:16874   */\n      tag_113\n      jump\t// in\n    tag_352:\n        /* \"#utility.yul\":16849:16874   */\n      swap3\n      pop\n        /* \"#utility.yul\":17008:17009   */\n      dup3\n        /* \"#utility.yul\":16940:17006   */\n      0xffffffffffffffffffffffffffffffffffffffffffffffffffffffffffffffff\n        /* \"#utility.yul\":16936:17010   */\n      sub\n        /* \"#utility.yul\":16933:16934   */\n      dup3\n        /* \"#utility.yul\":16930:17011   */\n      gt\n        /* \"#utility.yul\":16927:17034   */\n      iszero\n      tag_353\n      jumpi\n        /* \"#utility.yul\":17014:17032   */\n      tag_354\n      tag_153\n      jump\t// in\n    tag_354:\n        /* \"#utility.yul\":16927:17034   */\n    tag_353:\n        /* \"#utility.yul\":17058:17059   */\n      dup3\n        /* \"#utility.yul\":17055:17056   */\n      dup3\n        /* \"#utility.yul\":17051:17060   */\n      add\n        /* \"#utility.yul\":17044:17060   */\n      swap1\n      pop\n        /* \"#utility.yul\":16761:17066   */\n      swap3\n      swap2\n      pop\n      pop\n      jump\t// out\n        /* \"#utility.yul\":17072:17170   */\n    tag_154:\n        /* \"#utility.yul\":17123:17129   */\n      0x00\n        /* \"#utility.yul\":17157:17162   */\n      dup2\n        /* \"#utility.yul\":17151:17163   */\n      mload\n        /* \"#utility.yul\":17141:17163   */\n      swap1\n      pop\n        /* \"#utility.yul\":17072:17170   */\n      swap2\n      swap1\n      pop\n      jump\t// out\n        /* \"#utility.yul\":17176:17344   */\n    tag_155:\n        /* \"#utility.yul\":17259:17270   */\n      0x00\n        /* \"#utility.yul\":17293:17299   */\n      dup3\n        /* \"#utility.yul\":17288:17291   */\n      dup3\n        /* \"#utility.yul\":17281:17300   */\n      mstore\n        /* \"#utility.yul\":17333:17337   */\n      0x20\n        /* \"#utility.yul\":17328:17331   */\n      dup3\n        /* \"#utility.yul\":17324:17338   */\n      add\n        /* \"#utility.yul\":17309:17338   */\n      swap1\n      pop\n        /* \"#utility.yul\":17176:17344   */\n      swap3\n      swap2\n      pop\n      pop\n      jump\t// out\n        /* \"#utility.yul\":17350:17657   */\n    tag_156:\n        /* \"#utility.yul\":17418:17419   */\n      0x00\n        /* \"#utility.yul\":17428:17541   */\n    tag_358:\n        /* \"#utility.yul\":17442:17448   */\n      dup4\n        /* \"#utility.yul\":17439:17440   */\n      dup2\n        /* \"#utility.yul\":17436:17449   */\n      lt\n        /* \"#utility.yul\":17428:17541   */\n      iszero\n      tag_360\n      jumpi\n        /* \"#utility.yul\":17527:17528   */\n      dup1\n        /* \"#utility.yul\":17522:17525   */\n      dup3\n        /* \"#utility.yul\":17518:17529   */\n      add\n        /* \"#utility.yul\":17512:17530   */\n      mload\n        /* \"#utility.yul\":17508:17509   */\n      dup2\n        /* \"#utility.yul\":17503:17506   */\n      dup5\n        /* \"#utility.yul\":17499:17510   */\n      add\n        /* \"#utility.yul\":17492:17531   */\n      mstore\n        /* \"#utility.yul\":17464:17466   */\n      0x20\n        /* \"#utility.yul\":17461:17462   */\n      dup2\n        /* \"#utility.yul\":17457:17467   */\n      add\n        /* \"#utility.yul\":17452:17467   */\n      swap1\n      pop\n        /* \"#utility.yul\":17428:17541   */\n      jump(tag_358)\n    tag_360:\n        /* \"#utility.yul\":17559:17565   */\n      dup4\n        /* \"#utility.yul\":17556:17557   */\n      dup2\n        /* \"#utility.yul\":17553:17566   */\n      gt\n        /* \"#utility.yul\":17550:17651   */\n      iszero\n      tag_361\n      jumpi\n        /* \"#utility.yul\":17639:17640   */\n      0x00\n        /* \"#utility.yul\":17630:17636   */\n      dup5\n        /* \"#utility.yul\":17625:17628   */\n      dup5\n        /* \"#utility.yul\":17621:17637   */\n      add\n        /* \"#utility.yul\":17614:17641   */\n      mstore\n        /* \"#utility.yul\":17550:17651   */\n    tag_361:\n        /* \"#utility.yul\":17399:17657   */\n      pop\n        /* \"#utility.yul\":17350:17657   */\n      pop\n      pop\n      pop\n      jump\t// out\n        /* \"#utility.yul\":17663:18023   */\n    tag_157:\n        /* \"#utility.yul\":17749:17752   */\n      0x00\n        /* \"#utility.yul\":17777:17815   */\n      tag_363\n        /* \"#utility.yul\":17809:17814   */\n      dup3\n        /* \"#utility.yul\":17777:17815   */\n      tag_154\n      jump\t// in\n    tag_363:\n        /* \"#utility.yul\":17831:17901   */\n      tag_364\n        /* \"#utility.yul\":17894:17900   */\n      dup2\n        /* \"#utility.yul\":17889:17892   */\n      dup6\n        /* \"#utility.yul\":17831:17901   */\n      tag_155\n      jump\t// in\n    tag_364:\n        /* \"#utility.yul\":17824:17901   */\n      swap4\n      pop\n        /* \"#utility.yul\":17910:17962   */\n      tag_365\n        /* \"#utility.yul\":17955:17961   */\n      dup2\n        /* \"#utility.yul\":17950:17953   */\n      dup6\n        /* \"#utility.yul\":17943:17947   */\n      0x20\n        /* \"#utility.yul\":17936:17941   */\n      dup7\n        /* \"#utility.yul\":17932:17948   */\n      add\n        /* \"#utility.yul\":17910:17962   */\n      tag_156\n      jump\t// in\n    tag_365:\n        /* \"#utility.yul\":17987:18016   */\n      tag_366\n        /* \"#utility.yul\":18009:18015   */\n      dup2\n        /* \"#utility.yul\":17987:18016   */\n      tag_118\n      jump\t// in\n    tag_366:\n        /* \"#utility.yul\":17982:17985   */\n      dup5\n        /* \"#utility.yul\":17978:18017   */\n      add\n        /* \"#utility.yul\":17971:18017   */\n      swap2\n      pop\n        /* \"#utility.yul\":17753:18023   */\n      pop\n        /* \"#utility.yul\":17663:18023   */\n      swap3\n      swap2\n      pop\n      pop\n      jump\t// out\n        /* \"#utility.yul\":18029:18118   */\n    tag_158:\n        /* \"#utility.yul\":18065:18072   */\n      0x00\n        /* \"#utility.yul\":18105:18111   */\n      0xffff\n        /* \"#utility.yul\":18098:18103   */\n      dup3\n        /* \"#utility.yul\":18094:18112   */\n      and\n        /* \"#utility.yul\":18083:18112   */\n      swap1\n      pop\n        /* \"#utility.yul\":18029:18118   */\n      swap2\n      swap1\n      pop\n      jump\t// out\n        /* \"#utility.yul\":18124:18239   */\n    tag_159:\n        /* \"#utility.yul\":18209:18232   */\n      tag_369\n        /* \"#utility.yul\":18226:18231   */\n      dup2\n        /* \"#utility.yul\":18209:18232   */\n      tag_158\n      jump\t// in\n    tag_369:\n        /* \"#utility.yul\":18204:18207   */\n      dup3\n        /* \"#utility.yul\":18197:18233   */\n      mstore\n        /* \"#utility.yul\":18124:18239   */\n      pop\n      pop\n      jump\t// out\n        /* \"#utility.yul\":18245:18992   */\n    tag_68:\n        /* \"#utility.yul\":18466:18470   */\n      0x00\n        /* \"#utility.yul\":18504:18507   */\n      0xa0\n        /* \"#utility.yul\":18493:18502   */\n      dup3\n        /* \"#utility.yul\":18489:18508   */\n      add\n        /* \"#utility.yul\":18481:18508   */\n      swap1\n      pop\n        /* \"#utility.yul\":18518:18589   */\n      tag_371\n        /* \"#utility.yul\":18586:18587   */\n      0x00\n        /* \"#utility.yul\":18575:18584   */\n      dup4\n        /* \"#utility.yul\":18571:18588   */\n      add\n        /* \"#utility.yul\":18562:18568   */\n      dup9\n        /* \"#utility.yul\":18518:18589   */\n      tag_139\n      jump\t// in\n    tag_371:\n        /* \"#utility.yul\":18599:18671   */\n      tag_372\n        /* \"#utility.yul\":18667:18669   */\n      0x20\n        /* \"#utility.yul\":18656:18665   */\n      dup4\n        /* \"#utility.yul\":18652:18670   */\n      add\n        /* \"#utility.yul\":18643:18649   */\n      dup8\n        /* \"#utility.yul\":18599:18671   */\n      tag_139\n      jump\t// in\n    tag_372:\n        /* \"#utility.yul\":18681:18753   */\n      tag_373\n        /* \"#utility.yul\":18749:18751   */\n      0x40\n        /* \"#utility.yul\":18738:18747   */\n      dup4\n        /* \"#utility.yul\":18734:18752   */\n      add\n        /* \"#utility.yul\":18725:18731   */\n      dup7\n        /* \"#utility.yul\":18681:18753   */\n      tag_140\n      jump\t// in\n    tag_373:\n        /* \"#utility.yul\":18800:18809   */\n      dup2\n        /* \"#utility.yul\":18794:18798   */\n      dup2\n        /* \"#utility.yul\":18790:18810   */\n      sub\n        /* \"#utility.yul\":18785:18787   */\n      0x60\n        /* \"#utility.yul\":18774:18783   */\n      dup4\n        /* \"#utility.yul\":18770:18788   */\n      add\n        /* \"#utility.yul\":18763:18811   */\n      mstore\n        /* \"#utility.yul\":18828:18904   */\n      tag_374\n        /* \"#utility.yul\":18899:18903   */\n      dup2\n        /* \"#utility.yul\":18890:18896   */\n      dup6\n        /* \"#utility.yul\":18828:18904   */\n      tag_157\n      jump\t// in\n    tag_374:\n        /* \"#utility.yul\":18820:18904   */\n      swap1\n      pop\n        /* \"#utility.yul\":18914:18985   */\n      tag_375\n        /* \"#utility.yul\":18980:18983   */\n      0x80\n        /* \"#utility.yul\":18969:18978   */\n      dup4\n        /* \"#utility.yul\":18965:18984   */\n      add\n        /* \"#utility.yul\":18956:18962   */\n      dup5\n        /* \"#utility.yul\":18914:18985   */\n      tag_159\n      jump\t// in\n    tag_375:\n        /* \"#utility.yul\":18245:18992   */\n      swap7\n      swap6\n      pop\n      pop\n      pop\n      pop\n      pop\n      pop\n      jump\t// out\n        /* \"#utility.yul\":18998:19104   */\n    tag_160:\n        /* \"#utility.yul\":19042:19050   */\n      0x00\n        /* \"#utility.yul\":19091:19096   */\n      dup2\n        /* \"#utility.yul\":19086:19089   */\n      0xe0\n        /* \"#utility.yul\":19082:19097   */\n      shr\n        /* \"#utility.yul\":19061:19097   */\n      swap1\n      pop\n        /* \"#utility.yul\":18998:19104   */\n      swap2\n      swap1\n      pop\n      jump\t// out\n        /* \"#utility.yul\":19110:19293   */\n    tag_76:\n        /* \"#utility.yul\":19145:19148   */\n      0x00\n        /* \"#utility.yul\":19183:19184   */\n      0x03\n        /* \"#utility.yul\":19165:19181   */\n      returndatasize\n        /* \"#utility.yul\":19162:19185   */\n      gt\n        /* \"#utility.yul\":19159:19287   */\n      iszero\n      tag_378\n      jumpi\n        /* \"#utility.yul\":19221:19222   */\n      0x04\n        /* \"#utility.yul\":19218:19219   */\n      0x00\n        /* \"#utility.yul\":19215:19216   */\n      dup1\n        /* \"#utility.yul\":19200:19223   */\n      returndatacopy\n        /* \"#utility.yul\":19243:19277   */\n      tag_379\n        /* \"#utility.yul\":19274:19275   */\n      0x00\n        /* \"#utility.yul\":19268:19276   */\n      mload\n        /* \"#utility.yul\":19243:19277   */\n      tag_160\n      jump\t// in\n    tag_379:\n        /* \"#utility.yul\":19236:19277   */\n      swap1\n      pop\n        /* \"#utility.yul\":19159:19287   */\n    tag_378:\n        /* \"#utility.yul\":19110:19293   */\n      swap1\n      jump\t// out\n        /* \"#utility.yul\":19299:20010   */\n    tag_78:\n        /* \"#utility.yul\":19338:19341   */\n      0x00\n        /* \"#utility.yul\":19376:19380   */\n      0x44\n        /* \"#utility.yul\":19358:19374   */\n      returndatasize\n        /* \"#utility.yul\":19355:19381   */\n      lt\n        /* \"#utility.yul\":19352:19391   */\n      iszero\n      tag_381\n      jumpi\n        /* \"#utility.yul\":19384:19389   */\n      jump(tag_380)\n        /* \"#utility.yul\":19352:19391   */\n    tag_381:\n        /* \"#utility.yul\":19413:19433   */\n      tag_382\n      tag_107\n      jump\t// in\n    tag_382:\n        /* \"#utility.yul\":19488:19489   */\n      0x04\n        /* \"#utility.yul\":19470:19486   */\n      returndatasize\n        /* \"#utility.yul\":19466:19490   */\n      sub\n        /* \"#utility.yul\":19463:19464   */\n      0x04\n        /* \"#utility.yul\":19457:19461   */\n      dup3\n        /* \"#utility.yul\":19442:19491   */\n      returndatacopy\n        /* \"#utility.yul\":19521:19525   */\n      dup1\n        /* \"#utility.yul\":19515:19526   */\n      mload\n        /* \"#utility.yul\":19620:19636   */\n      returndatasize\n        /* \"#utility.yul\":19613:19617   */\n      0x24\n        /* \"#utility.yul\":19605:19611   */\n      dup3\n        /* \"#utility.yul\":19601:19618   */\n      add\n        /* \"#utility.yul\":19598:19637   */\n      gt\n        /* \"#utility.yul\":19565:19583   */\n      0xffffffffffffffff\n        /* \"#utility.yul\":19557:19563   */\n      dup3\n        /* \"#utility.yul\":19554:19584   */\n      gt\n        /* \"#utility.yul\":19538:19651   */\n      or\n        /* \"#utility.yul\":19535:19681   */\n      iszero\n      tag_383\n      jumpi\n        /* \"#utility.yul\":19666:19671   */\n      pop\n      pop\n      jump(tag_380)\n        /* \"#utility.yul\":19535:19681   */\n    tag_383:\n        /* \"#utility.yul\":19712:19718   */\n      dup1\n        /* \"#utility.yul\":19706:19710   */\n      dup3\n        /* \"#utility.yul\":19702:19719   */\n      add\n        /* \"#utility.yul\":19748:19751   */\n      dup1\n        /* \"#utility.yul\":19742:19752   */\n      mload\n        /* \"#utility.yul\":19775:19793   */\n      0xffffffffffffffff\n        /* \"#utility.yul\":19767:19773   */\n      dup2\n        /* \"#utility.yul\":19764:19794   */\n      gt\n        /* \"#utility.yul\":19761:19804   */\n      iszero\n      tag_384\n      jumpi\n        /* \"#utility.yul\":19797:19802   */\n      pop\n      pop\n      pop\n      pop\n      jump(tag_380)\n        /* \"#utility.yul\":19761:19804   */\n    tag_384:\n        /* \"#utility.yul\":19845:19851   */\n      dup1\n        /* \"#utility.yul\":19838:19842   */\n      0x20\n        /* \"#utility.yul\":19833:19836   */\n      dup4\n        /* \"#utility.yul\":19829:19843   */\n      add\n        /* \"#utility.yul\":19825:19852   */\n      add\n        /* \"#utility.yul\":19904:19905   */\n      0x04\n        /* \"#utility.yul\":19886:19902   */\n      returndatasize\n        /* \"#utility.yul\":19882:19906   */\n      sub\n        /* \"#utility.yul\":19876:19880   */\n      dup6\n        /* \"#utility.yul\":19872:19907   */\n      add\n        /* \"#utility.yul\":19867:19870   */\n      dup2\n        /* \"#utility.yul\":19864:19908   */\n      gt\n        /* \"#utility.yul\":19861:19918   */\n      iszero\n      tag_385\n      jumpi\n        /* \"#utility.yul\":19911:19916   */\n      pop\n      pop\n      pop\n      pop\n      pop\n      jump(tag_380)\n        /* \"#utility.yul\":19861:19918   */\n    tag_385:\n        /* \"#utility.yul\":19928:19985   */\n      tag_386\n        /* \"#utility.yul\":19976:19982   */\n      dup3\n        /* \"#utility.yul\":19970:19974   */\n      0x20\n        /* \"#utility.yul\":19966:19983   */\n      add\n        /* \"#utility.yul\":19958:19964   */\n      dup6\n        /* \"#utility.yul\":19954:19984   */\n      add\n        /* \"#utility.yul\":19948:19952   */\n      dup7\n        /* \"#utility.yul\":19928:19985   */\n      tag_119\n      jump\t// in\n    tag_386:\n        /* \"#utility.yul\":20001:20004   */\n      dup3\n        /* \"#utility.yul\":19994:20004   */\n      swap6\n      pop\n        /* \"#utility.yul\":19342:20010   */\n      pop\n      pop\n      pop\n      pop\n      pop\n        /* \"#utility.yul\":19299:20010   */\n    tag_380:\n      swap1\n      jump\t// out\n        /* \"#utility.yul\":20016:20115   */\n    tag_161:\n        /* \"#utility.yul\":20068:20074   */\n      0x00\n        /* \"#utility.yul\":20102:20107   */\n      dup2\n        /* \"#utility.yul\":20096:20108   */\n      mload\n        /* \"#utility.yul\":20086:20108   */\n      swap1\n      pop\n        /* \"#utility.yul\":20016:20115   */\n      swap2\n      swap1\n      pop\n      jump\t// out\n        /* \"#utility.yul\":20121:20269   */\n    tag_162:\n        /* \"#utility.yul\":20223:20234   */\n      0x00\n        /* \"#utility.yul\":20260:20263   */\n      dup2\n        /* \"#utility.yul\":20245:20263   */\n      swap1\n      pop\n        /* \"#utility.yul\":20121:20269   */\n      swap3\n      swap2\n      pop\n      pop\n      jump\t// out\n        /* \"#utility.yul\":20275:20652   */\n    tag_163:\n        /* \"#utility.yul\":20381:20384   */\n      0x00\n        /* \"#utility.yul\":20409:20448   */\n      tag_390\n        /* \"#utility.yul\":20442:20447   */\n      dup3\n        /* \"#utility.yul\":20409:20448   */\n      tag_161\n      jump\t// in\n    tag_390:\n        /* \"#utility.yul\":20464:20553   */\n      tag_391\n        /* \"#utility.yul\":20546:20552   */\n      dup2\n        /* \"#utility.yul\":20541:20544   */\n      dup6\n        /* \"#utility.yul\":20464:20553   */\n      tag_162\n      jump\t// in\n    tag_391:\n        /* \"#utility.yul\":20457:20553   */\n      swap4\n      pop\n        /* \"#utility.yul\":20562:20614   */\n      tag_392\n        /* \"#utility.yul\":20607:20613   */\n      dup2\n        /* \"#utility.yul\":20602:20605   */\n      dup6\n        /* \"#utility.yul\":20595:20599   */\n      0x20\n        /* \"#utility.yul\":20588:20593   */\n      dup7\n        /* \"#utility.yul\":20584:20600   */\n      add\n        /* \"#utility.yul\":20562:20614   */\n      tag_156\n      jump\t// in\n    tag_392:\n        /* \"#utility.yul\":20639:20645   */\n      dup1\n        /* \"#utility.yul\":20634:20637   */\n      dup5\n        /* \"#utility.yul\":20630:20646   */\n      add\n        /* \"#utility.yul\":20623:20646   */\n      swap2\n      pop\n        /* \"#utility.yul\":20385:20652   */\n      pop\n        /* \"#utility.yul\":20275:20652   */\n      swap3\n      swap2\n      pop\n      pop\n      jump\t// out\n        /* \"#utility.yul\":20658:20933   */\n    tag_81:\n        /* \"#utility.yul\":20790:20793   */\n      0x00\n        /* \"#utility.yul\":20812:20907   */\n      tag_394\n        /* \"#utility.yul\":20903:20906   */\n      dup3\n        /* \"#utility.yul\":20894:20900   */\n      dup5\n        /* \"#utility.yul\":20812:20907   */\n      tag_163\n      jump\t// in\n    tag_394:\n        /* \"#utility.yul\":20805:20907   */\n      swap2\n      pop\n        /* \"#utility.yul\":20924:20927   */\n      dup2\n        /* \"#utility.yul\":20917:20927   */\n      swap1\n      pop\n        /* \"#utility.yul\":20658:20933   */\n      swap3\n      swap2\n      pop\n      pop\n      jump\t// out\n        /* \"#utility.yul\":20939:21086   */\n    tag_164:\n        /* \"#utility.yul\":21040:21051   */\n      0x00\n        /* \"#utility.yul\":21077:21080   */\n      dup2\n        /* \"#utility.yul\":21062:21080   */\n      swap1\n      pop\n        /* \"#utility.yul\":20939:21086   */\n      swap3\n      swap2\n      pop\n      pop\n      jump\t// out\n        /* \"#utility.yul\":21092:21465   */\n    tag_165:\n        /* \"#utility.yul\":21196:21199   */\n      0x00\n        /* \"#utility.yul\":21224:21262   */\n      tag_397\n        /* \"#utility.yul\":21256:21261   */\n      dup3\n        /* \"#utility.yul\":21224:21262   */\n      tag_154\n      jump\t// in\n    tag_397:\n        /* \"#utility.yul\":21278:21366   */\n      tag_398\n        /* \"#utility.yul\":21359:21365   */\n      dup2\n        /* \"#utility.yul\":21354:21357   */\n      dup6\n        /* \"#utility.yul\":21278:21366   */\n      tag_164\n      jump\t// in\n    tag_398:\n        /* \"#utility.yul\":21271:21366   */\n      swap4\n      pop\n        /* \"#utility.yul\":21375:21427   */\n      tag_399\n        /* \"#utility.yul\":21420:21426   */\n      dup2\n        /* \"#utility.yul\":21415:21418   */\n      dup6\n        /* \"#utility.yul\":21408:21412   */\n      0x20\n        /* \"#utility.yul\":21401:21406   */\n      dup7\n        /* \"#utility.yul\":21397:21413   */\n      add\n        /* \"#utility.yul\":21375:21427   */\n      tag_156\n      jump\t// in\n    tag_399:\n        /* \"#utility.yul\":21452:21458   */\n      dup1\n        /* \"#utility.yul\":21447:21450   */\n      dup5\n        /* \"#utility.yul\":21443:21459   */\n      add\n        /* \"#utility.yul\":21436:21459   */\n      swap2\n      pop\n        /* \"#utility.yul\":21200:21465   */\n      pop\n        /* \"#utility.yul\":21092:21465   */\n      swap3\n      swap2\n      pop\n      pop\n      jump\t// out\n        /* \"#utility.yul\":21471:21742   */\n    tag_85:\n        /* \"#utility.yul\":21601:21604   */\n      0x00\n        /* \"#utility.yul\":21623:21716   */\n      tag_401\n        /* \"#utility.yul\":21712:21715   */\n      dup3\n        /* \"#utility.yul\":21703:21709   */\n      dup5\n        /* \"#utility.yul\":21623:21716   */\n      tag_165\n      jump\t// in\n    tag_401:\n        /* \"#utility.yul\":21616:21716   */\n      swap2\n      pop\n        /* \"#utility.yul\":21733:21736   */\n      dup2\n        /* \"#utility.yul\":21726:21736   */\n      swap1\n      pop\n        /* \"#utility.yul\":21471:21742   */\n      swap3\n      swap2\n      pop\n      pop\n      jump\t// out\n        /* \"#utility.yul\":21748:21916   */\n    tag_166:\n        /* \"#utility.yul\":21888:21908   */\n      0x466c617368537761702053756363657373210000000000000000000000000000\n        /* \"#utility.yul\":21884:21885   */\n      0x00\n        /* \"#utility.yul\":21876:21882   */\n      dup3\n        /* \"#utility.yul\":21872:21886   */\n      add\n        /* \"#utility.yul\":21865:21909   */\n      mstore\n        /* \"#utility.yul\":21748:21916   */\n      pop\n      jump\t// out\n        /* \"#utility.yul\":21922:22324   */\n    tag_167:\n        /* \"#utility.yul\":22082:22085   */\n      0x00\n        /* \"#utility.yul\":22103:22188   */\n      tag_404\n        /* \"#utility.yul\":22185:22187   */\n      0x12\n        /* \"#utility.yul\":22180:22183   */\n      dup4\n        /* \"#utility.yul\":22103:22188   */\n      tag_162\n      jump\t// in\n    tag_404:\n        /* \"#utility.yul\":22096:22188   */\n      swap2\n      pop\n        /* \"#utility.yul\":22197:22290   */\n      tag_405\n        /* \"#utility.yul\":22286:22289   */\n      dup3\n        /* \"#utility.yul\":22197:22290   */\n      tag_166\n      jump\t// in\n    tag_405:\n        /* \"#utility.yul\":22315:22317   */\n      0x12\n        /* \"#utility.yul\":22310:22313   */\n      dup3\n        /* \"#utility.yul\":22306:22318   */\n      add\n        /* \"#utility.yul\":22299:22318   */\n      swap1\n      pop\n        /* \"#utility.yul\":21922:22324   */\n      swap2\n      swap1\n      pop\n      jump\t// out\n        /* \"#utility.yul\":22330:22711   */\n    tag_88:\n        /* \"#utility.yul\":22515:22518   */\n      0x00\n        /* \"#utility.yul\":22537:22685   */\n      tag_407\n        /* \"#utility.yul\":22681:22684   */\n      dup3\n        /* \"#utility.yul\":22537:22685   */\n      tag_167\n      jump\t// in\n    tag_407:\n        /* \"#utility.yul\":22530:22685   */\n      swap2\n      pop\n        /* \"#utility.yul\":22702:22705   */\n      dup2\n        /* \"#utility.yul\":22695:22705   */\n      swap1\n      pop\n        /* \"#utility.yul\":22330:22711   */\n      swap2\n      swap1\n      pop\n      jump\t// out\n        /* \"#utility.yul\":22717:22886   */\n    tag_168:\n        /* \"#utility.yul\":22801:22812   */\n      0x00\n        /* \"#utility.yul\":22835:22841   */\n      dup3\n        /* \"#utility.yul\":22830:22833   */\n      dup3\n        /* \"#utility.yul\":22823:22842   */\n      mstore\n        /* \"#utility.yul\":22875:22879   */\n      0x20\n        /* \"#utility.yul\":22870:22873   */\n      dup3\n        /* \"#utility.yul\":22866:22880   */\n      add\n        /* \"#utility.yul\":22851:22880   */\n      swap1\n      pop\n        /* \"#utility.yul\":22717:22886   */\n      swap3\n      swap2\n      pop\n      pop\n      jump\t// out\n        /* \"#utility.yul\":22892:23044   */\n    tag_169:\n        /* \"#utility.yul\":23032:23036   */\n      0x5446000000000000000000000000000000000000000000000000000000000000\n        /* \"#utility.yul\":23028:23029   */\n      0x00\n        /* \"#utility.yul\":23020:23026   */\n      dup3\n        /* \"#utility.yul\":23016:23030   */\n      add\n        /* \"#utility.yul\":23009:23037   */\n      mstore\n        /* \"#utility.yul\":22892:23044   */\n      pop\n      jump\t// out\n        /* \"#utility.yul\":23050:23415   */\n    tag_170:\n        /* \"#utility.yul\":23192:23195   */\n      0x00\n        /* \"#utility.yul\":23213:23279   */\n      tag_411\n        /* \"#utility.yul\":23277:23278   */\n      0x02\n        /* \"#utility.yul\":23272:23275   */\n      dup4\n        /* \"#utility.yul\":23213:23279   */\n      tag_168\n      jump\t// in\n    tag_411:\n        /* \"#utility.yul\":23206:23279   */\n      swap2\n      pop\n        /* \"#utility.yul\":23288:23381   */\n      tag_412\n        /* \"#utility.yul\":23377:23380   */\n      dup3\n        /* \"#utility.yul\":23288:23381   */\n      tag_169\n      jump\t// in\n    tag_412:\n        /* \"#utility.yul\":23406:23408   */\n      0x20\n        /* \"#utility.yul\":23401:23404   */\n      dup3\n        /* \"#utility.yul\":23397:23409   */\n      add\n        /* \"#utility.yul\":23390:23409   */\n      swap1\n      pop\n        /* \"#utility.yul\":23050:23415   */\n      swap2\n      swap1\n      pop\n      jump\t// out\n        /* \"#utility.yul\":23421:23840   */\n    tag_100:\n        /* \"#utility.yul\":23587:23591   */\n      0x00\n        /* \"#utility.yul\":23625:23627   */\n      0x20\n        /* \"#utility.yul\":23614:23623   */\n      dup3\n        /* \"#utility.yul\":23610:23628   */\n      add\n        /* \"#utility.yul\":23602:23628   */\n      swap1\n      pop\n        /* \"#utility.yul\":23674:23683   */\n      dup2\n        /* \"#utility.yul\":23668:23672   */\n      dup2\n        /* \"#utility.yul\":23664:23684   */\n      sub\n        /* \"#utility.yul\":23660:23661   */\n      0x00\n        /* \"#utility.yul\":23649:23658   */\n      dup4\n        /* \"#utility.yul\":23645:23662   */\n      add\n        /* \"#utility.yul\":23638:23685   */\n      mstore\n        /* \"#utility.yul\":23702:23833   */\n      tag_414\n        /* \"#utility.yul\":23828:23832   */\n      dup2\n        /* \"#utility.yul\":23702:23833   */\n      tag_170\n      jump\t// in\n    tag_414:\n        /* \"#utility.yul\":23694:23833   */\n      swap1\n      pop\n        /* \"#utility.yul\":23421:23840   */\n      swap2\n      swap1\n      pop\n      jump\t// out\n\n    auxdata: 0xa26469706673582212208dcaf41e276a170866141540509b479cf3e75fabd83f0e3527af3a8b863e71e064736f6c634300080a0033\n}\n",
				"bytecode": {
					"linkReferences": {},
					"object": "60c06040523480156200001157600080fd5b506040516200182338038062001823833981810160405281019062000037919062000197565b808073ffffffffffffffffffffffffffffffffffffffff1660808173ffffffffffffffffffffffffffffffffffffffff16815250508073ffffffffffffffffffffffffffffffffffffffff1663026b1d5f6040518163ffffffff1660e01b8152600401602060405180830381865afa158015620000b8573d6000803e3d6000fd5b505050506040513d601f19601f82011682018060405250810190620000de9190620001fa565b73ffffffffffffffffffffffffffffffffffffffff1660a08173ffffffffffffffffffffffffffffffffffffffff168152505050506200022c565b600080fd5b600073ffffffffffffffffffffffffffffffffffffffff82169050919050565b60006200014b826200011e565b9050919050565b60006200015f826200013e565b9050919050565b620001718162000152565b81146200017d57600080fd5b50565b600081519050620001918162000166565b92915050565b600060208284031215620001b057620001af62000119565b5b6000620001c08482850162000180565b91505092915050565b620001d4816200013e565b8114620001e057600080fd5b50565b600081519050620001f481620001c9565b92915050565b60006020828403121562000213576200021262000119565b5b60006200022384828501620001e3565b91505092915050565b60805160a0516115bd6200026660003960008181610571015281816105f801528181610631015261066b0152600060db01526115bd6000f3fe608060405234801561001057600080fd5b506004361061004c5760003560e01c80630542975c146100515780631b11d0ff1461006f5780637535d2461461009f578063f4a3c8c4146100bd575b600080fd5b6100596100d9565b6040516100669190610a01565b60405180910390f35b61008960048036038101906100849190610bea565b6100fd565b6040516100969190610c9c565b60405180910390f35b6100a761062f565b6040516100b49190610cd8565b60405180910390f35b6100d760048036038101906100d29190610cf3565b610653565b005b7f000000000000000000000000000000000000000000000000000000000000000081565b600080600267ffffffffffffffff81111561011b5761011a610abf565b5b6040519080825280602002602001820160405280156101495781602001602082028036833780820191505090505b50905073c778417e063141139fce010982780140aa0cd5ab8160008151811061017557610174610d33565b5b602002602001019073ffffffffffffffffffffffffffffffffffffffff16908173ffffffffffffffffffffffffffffffffffffffff168152505073784c47ba17a32e9c636cf917c9034c0ad1e87d41816001815181106101d8576101d7610d33565b5b602002602001019073ffffffffffffffffffffffffffffffffffffffff16908173ffffffffffffffffffffffffffffffffffffffff1681525050737a250d5630b4cf539739df2c5dacb4c659f2488d73ffffffffffffffffffffffffffffffffffffffff16637ff36ab560008330426040518563ffffffff1660e01b81526004016102669493929190610e79565b6000604051808303816000875af1158015610285573d6000803e3d6000fd5b505050506040513d6000823e3d601f19601f820116820180604052508101906102ae9190610fa2565b50600073784c47ba17a32e9c636cf917c9034c0ad1e87d4173ffffffffffffffffffffffffffffffffffffffff166370a08231306040518263ffffffff1660e01b81526004016102fe9190610feb565b602060405180830381865afa15801561031b573d6000803e3d6000fd5b505050506040513d601f19601f8201168201806040525081019061033f9190611006565b905073784c47ba17a32e9c636cf917c9034c0ad1e87d4173ffffffffffffffffffffffffffffffffffffffff1663095ea7b373e592427a0aece92de3edee1f18e0157c05861564836040518363ffffffff1660e01b81526004016103a4929190611033565b6020604051808303816000875af11580156103c3573d6000803e3d6000fd5b505050506040513d601f19601f820116820180604052508101906103e79190611088565b50600060405180610100016040528073784c47ba17a32e9c636cf917c9034c0ad1e87d4173ffffffffffffffffffffffffffffffffffffffff16815260200173c778417e063141139fce010982780140aa0cd5ab73ffffffffffffffffffffffffffffffffffffffff168152602001610bb862ffffff1681526020013073ffffffffffffffffffffffffffffffffffffffff16815260200142815260200183815260200160008152602001600073ffffffffffffffffffffffffffffffffffffffff168152509050600073e592427a0aece92de3edee1f18e0157c0586156473ffffffffffffffffffffffffffffffffffffffff1663414bf389836040518263ffffffff1660e01b81526004016104fe9190611193565b6020604051808303816000875af115801561051d573d6000803e3d6000fd5b505050506040513d601f19601f820116820180604052508101906105419190611006565b90506000888a61055191906111de565b90508a73ffffffffffffffffffffffffffffffffffffffff1663095ea7b37f0000000000000000000000000000000000000000000000000000000000000000836040518363ffffffff1660e01b81526004016105ae929190611033565b6020604051808303816000875af11580156105cd573d6000803e3d6000fd5b505050506040513d601f19601f820116820180604052508101906105f19190611088565b5061061d8b7f00000000000000000000000000000000000000000000000000000000000000008361082d565b60019550505050505095945050505050565b7f000000000000000000000000000000000000000000000000000000000000000081565b600060405180602001604052806000815250905060007f000000000000000000000000000000000000000000000000000000000000000073ffffffffffffffffffffffffffffffffffffffff166342b0b77c30868686866040518663ffffffff1660e01b81526004016106ca9594939291906112d9565b600060405180830381600087803b1580156106e457600080fd5b505af19250505080156106f5575060015b6107e657610701611340565b806308c379a014156107695750610716611362565b80610721575061076b565b8060405161072f919061143f565b60405180910390207f073349d5257fdae5f77288ccef5f4d7a387ea408f759a587dbc490699fefcf9b60405160405180910390a2506107e1565b505b3d8060008114610797576040519150601f19603f3d011682016040523d82523d6000602084013e61079c565b606091505b50806040516107ab9190611492565b60405180910390207f6afeeaee5ac8e50b08d01417db273da895a7277b55c79ae313070d772704139d60405160405180910390a2505b610827565b6040516107f2906114f5565b60405180910390207f2e3cad6bb4331c7402e8374a7cbe05bde1a8f8201cb8d485d113c684bd65466e60405160405180910390a25b50505050565b6000808473ffffffffffffffffffffffffffffffffffffffff1663a9059cbb60e01b8585604051602401610862929190611033565b604051602081830303815290604052907bffffffffffffffffffffffffffffffffffffffffffffffffffffffff19166020820180517bffffffffffffffffffffffffffffffffffffffffffffffffffffffff83818316178352505050506040516108cc9190611492565b6000604051808303816000865af19150503d8060008114610909576040519150601f19603f3d011682016040523d82523d6000602084013e61090e565b606091505b509150915081801561093c575060008151148061093b57508080602001905181019061093a9190611088565b5b5b61097b576040517f08c379a000000000000000000000000000000000000000000000000000000000815260040161097290611567565b60405180910390fd5b5050505050565b600073ffffffffffffffffffffffffffffffffffffffff82169050919050565b6000819050919050565b60006109c76109c26109bd84610982565b6109a2565b610982565b9050919050565b60006109d9826109ac565b9050919050565b60006109eb826109ce565b9050919050565b6109fb816109e0565b82525050565b6000602082019050610a1660008301846109f2565b92915050565b6000604051905090565b600080fd5b600080fd5b6000610a3b82610982565b9050919050565b610a4b81610a30565b8114610a5657600080fd5b50565b600081359050610a6881610a42565b92915050565b6000819050919050565b610a8181610a6e565b8114610a8c57600080fd5b50565b600081359050610a9e81610a78565b92915050565b600080fd5b600080fd5b6000601f19601f8301169050919050565b7f4e487b7100000000000000000000000000000000000000000000000000000000600052604160045260246000fd5b610af782610aae565b810181811067ffffffffffffffff82111715610b1657610b15610abf565b5b80604052505050565b6000610b29610a1c565b9050610b358282610aee565b919050565b600067ffffffffffffffff821115610b5557610b54610abf565b5b610b5e82610aae565b9050602081019050919050565b82818337600083830152505050565b6000610b8d610b8884610b3a565b610b1f565b905082815260208101848484011115610ba957610ba8610aa9565b5b610bb4848285610b6b565b509392505050565b600082601f830112610bd157610bd0610aa4565b5b8135610be1848260208601610b7a565b91505092915050565b600080600080600060a08688031215610c0657610c05610a26565b5b6000610c1488828901610a59565b9550506020610c2588828901610a8f565b9450506040610c3688828901610a8f565b9350506060610c4788828901610a59565b925050608086013567ffffffffffffffff811115610c6857610c67610a2b565b5b610c7488828901610bbc565b9150509295509295909350565b60008115159050919050565b610c9681610c81565b82525050565b6000602082019050610cb16000830184610c8d565b92915050565b6000610cc2826109ce565b9050919050565b610cd281610cb7565b82525050565b6000602082019050610ced6000830184610cc9565b92915050565b60008060408385031215610d0a57610d09610a26565b5b6000610d1885828601610a59565b9250506020610d2985828601610a8f565b9150509250929050565b7f4e487b7100000000000000000000000000000000000000000000000000000000600052603260045260246000fd5b6000819050919050565b6000610d87610d82610d7d84610d62565b6109a2565b610a6e565b9050919050565b610d9781610d6c565b82525050565b600081519050919050565b600082825260208201905092915050565b6000819050602082019050919050565b610dd281610a30565b82525050565b6000610de48383610dc9565b60208301905092915050565b6000602082019050919050565b6000610e0882610d9d565b610e128185610da8565b9350610e1d83610db9565b8060005b83811015610e4e578151610e358882610dd8565b9750610e4083610df0565b925050600181019050610e21565b5085935050505092915050565b610e6481610a30565b82525050565b610e7381610a6e565b82525050565b6000608082019050610e8e6000830187610d8e565b8181036020830152610ea08186610dfd565b9050610eaf6040830185610e5b565b610ebc6060830184610e6a565b95945050505050565b600067ffffffffffffffff821115610ee057610edf610abf565b5b602082029050602081019050919050565b600080fd5b600081519050610f0581610a78565b92915050565b6000610f1e610f1984610ec5565b610b1f565b90508083825260208201905060208402830185811115610f4157610f40610ef1565b5b835b81811015610f6a5780610f568882610ef6565b845260208401935050602081019050610f43565b5050509392505050565b600082601f830112610f8957610f88610aa4565b5b8151610f99848260208601610f0b565b91505092915050565b600060208284031215610fb857610fb7610a26565b5b600082015167ffffffffffffffff811115610fd657610fd5610a2b565b5b610fe284828501610f74565b91505092915050565b60006020820190506110006000830184610e5b565b92915050565b60006020828403121561101c5761101b610a26565b5b600061102a84828501610ef6565b91505092915050565b60006040820190506110486000830185610e5b565b6110556020830184610e6a565b9392505050565b61106581610c81565b811461107057600080fd5b50565b6000815190506110828161105c565b92915050565b60006020828403121561109e5761109d610a26565b5b60006110ac84828501611073565b91505092915050565b600062ffffff82169050919050565b6110cd816110b5565b82525050565b6110dc81610a6e565b82525050565b6110eb81610982565b82525050565b610100820160008201516111086000850182610dc9565b50602082015161111b6020850182610dc9565b50604082015161112e60408501826110c4565b5060608201516111416060850182610dc9565b50608082015161115460808501826110d3565b5060a082015161116760a08501826110d3565b5060c082015161117a60c08501826110d3565b5060e082015161118d60e08501826110e2565b50505050565b6000610100820190506111a960008301846110f1565b92915050565b7f4e487b7100000000000000000000000000000000000000000000000000000000600052601160045260246000fd5b60006111e982610a6e565b91506111f483610a6e565b9250827fffffffffffffffffffffffffffffffffffffffffffffffffffffffffffffffff03821115611229576112286111af565b5b828201905092915050565b600081519050919050565b600082825260208201905092915050565b60005b8381101561126e578082015181840152602081019050611253565b8381111561127d576000848401525b50505050565b600061128e82611234565b611298818561123f565b93506112a8818560208601611250565b6112b181610aae565b840191505092915050565b600061ffff82169050919050565b6112d3816112bc565b82525050565b600060a0820190506112ee6000830188610e5b565b6112fb6020830187610e5b565b6113086040830186610e6a565b818103606083015261131a8185611283565b905061132960808301846112ca565b9695505050505050565b60008160e01c9050919050565b600060033d111561135f5760046000803e61135c600051611333565b90505b90565b600060443d1015611372576113f5565b61137a610a1c565b60043d036004823e80513d602482011167ffffffffffffffff821117156113a25750506113f5565b808201805167ffffffffffffffff8111156113c057505050506113f5565b80602083010160043d0385018111156113dd5750505050506113f5565b6113ec82602001850186610aee565b82955050505050505b90565b600081519050919050565b600081905092915050565b6000611419826113f8565b6114238185611403565b9350611433818560208601611250565b80840191505092915050565b600061144b828461140e565b915081905092915050565b600081905092915050565b600061146c82611234565b6114768185611456565b9350611486818560208601611250565b80840191505092915050565b600061149e8284611461565b915081905092915050565b7f466c617368537761702053756363657373210000000000000000000000000000600082015250565b60006114df601283611403565b91506114ea826114a9565b601282019050919050565b6000611500826114d2565b9150819050919050565b600082825260208201905092915050565b7f5446000000000000000000000000000000000000000000000000000000000000600082015250565b600061155160028361150a565b915061155c8261151b565b602082019050919050565b6000602082019050818103600083015261158081611544565b905091905056fea26469706673582212208dcaf41e276a170866141540509b479cf3e75fabd83f0e3527af3a8b863e71e064736f6c634300080a0033",
					"opcodes": "PUSH1 0xC0 PUSH1 0x40 MSTORE CALLVALUE DUP1 ISZERO PUSH3 0x11 JUMPI PUSH1 0x0 DUP1 REVERT JUMPDEST POP PUSH1 0x40 MLOAD PUSH3 0x1823 CODESIZE SUB DUP1 PUSH3 0x1823 DUP4 CODECOPY DUP2 DUP2 ADD PUSH1 0x40 MSTORE DUP2 ADD SWAP1 PUSH3 0x37 SWAP2 SWAP1 PUSH3 0x197 JUMP JUMPDEST DUP1 DUP1 PUSH20 0xFFFFFFFFFFFFFFFFFFFFFFFFFFFFFFFFFFFFFFFF AND PUSH1 0x80 DUP2 PUSH20 0xFFFFFFFFFFFFFFFFFFFFFFFFFFFFFFFFFFFFFFFF AND DUP2 MSTORE POP POP DUP1 PUSH20 0xFFFFFFFFFFFFFFFFFFFFFFFFFFFFFFFFFFFFFFFF AND PUSH4 0x26B1D5F PUSH1 0x40 MLOAD DUP2 PUSH4 0xFFFFFFFF AND PUSH1 0xE0 SHL DUP2 MSTORE PUSH1 0x4 ADD PUSH1 0x20 PUSH1 0x40 MLOAD DUP1 DUP4 SUB DUP2 DUP7 GAS STATICCALL ISZERO DUP1 ISZERO PUSH3 0xB8 JUMPI RETURNDATASIZE PUSH1 0x0 DUP1 RETURNDATACOPY RETURNDATASIZE PUSH1 0x0 REVERT JUMPDEST POP POP POP POP PUSH1 0x40 MLOAD RETURNDATASIZE PUSH1 0x1F NOT PUSH1 0x1F DUP3 ADD AND DUP3 ADD DUP1 PUSH1 0x40 MSTORE POP DUP2 ADD SWAP1 PUSH3 0xDE SWAP2 SWAP1 PUSH3 0x1FA JUMP JUMPDEST PUSH20 0xFFFFFFFFFFFFFFFFFFFFFFFFFFFFFFFFFFFFFFFF AND PUSH1 0xA0 DUP2 PUSH20 0xFFFFFFFFFFFFFFFFFFFFFFFFFFFFFFFFFFFFFFFF AND DUP2 MSTORE POP POP POP POP PUSH3 0x22C JUMP JUMPDEST PUSH1 0x0 DUP1 REVERT JUMPDEST PUSH1 0x0 PUSH20 0xFFFFFFFFFFFFFFFFFFFFFFFFFFFFFFFFFFFFFFFF DUP3 AND SWAP1 POP SWAP2 SWAP1 POP JUMP JUMPDEST PUSH1 0x0 PUSH3 0x14B DUP3 PUSH3 0x11E JUMP JUMPDEST SWAP1 POP SWAP2 SWAP1 POP JUMP JUMPDEST PUSH1 0x0 PUSH3 0x15F DUP3 PUSH3 0x13E JUMP JUMPDEST SWAP1 POP SWAP2 SWAP1 POP JUMP JUMPDEST PUSH3 0x171 DUP2 PUSH3 0x152 JUMP JUMPDEST DUP2 EQ PUSH3 0x17D JUMPI PUSH1 0x0 DUP1 REVERT JUMPDEST POP JUMP JUMPDEST PUSH1 0x0 DUP2 MLOAD SWAP1 POP PUSH3 0x191 DUP2 PUSH3 0x166 JUMP JUMPDEST SWAP3 SWAP2 POP POP JUMP JUMPDEST PUSH1 0x0 PUSH1 0x20 DUP3 DUP5 SUB SLT ISZERO PUSH3 0x1B0 JUMPI PUSH3 0x1AF PUSH3 0x119 JUMP JUMPDEST JUMPDEST PUSH1 0x0 PUSH3 0x1C0 DUP5 DUP3 DUP6 ADD PUSH3 0x180 JUMP JUMPDEST SWAP2 POP POP SWAP3 SWAP2 POP POP JUMP JUMPDEST PUSH3 0x1D4 DUP2 PUSH3 0x13E JUMP JUMPDEST DUP2 EQ PUSH3 0x1E0 JUMPI PUSH1 0x0 DUP1 REVERT JUMPDEST POP JUMP JUMPDEST PUSH1 0x0 DUP2 MLOAD SWAP1 POP PUSH3 0x1F4 DUP2 PUSH3 0x1C9 JUMP JUMPDEST SWAP3 SWAP2 POP POP JUMP JUMPDEST PUSH1 0x0 PUSH1 0x20 DUP3 DUP5 SUB SLT ISZERO PUSH3 0x213 JUMPI PUSH3 0x212 PUSH3 0x119 JUMP JUMPDEST JUMPDEST PUSH1 0x0 PUSH3 0x223 DUP5 DUP3 DUP6 ADD PUSH3 0x1E3 JUMP JUMPDEST SWAP2 POP POP SWAP3 SWAP2 POP POP JUMP JUMPDEST PUSH1 0x80 MLOAD PUSH1 0xA0 MLOAD PUSH2 0x15BD PUSH3 0x266 PUSH1 0x0 CODECOPY PUSH1 0x0 DUP2 DUP2 PUSH2 0x571 ADD MSTORE DUP2 DUP2 PUSH2 0x5F8 ADD MSTORE DUP2 DUP2 PUSH2 0x631 ADD MSTORE PUSH2 0x66B ADD MSTORE PUSH1 0x0 PUSH1 0xDB ADD MSTORE PUSH2 0x15BD PUSH1 0x0 RETURN INVALID PUSH1 0x80 PUSH1 0x40 MSTORE CALLVALUE DUP1 ISZERO PUSH2 0x10 JUMPI PUSH1 0x0 DUP1 REVERT JUMPDEST POP PUSH1 0x4 CALLDATASIZE LT PUSH2 0x4C JUMPI PUSH1 0x0 CALLDATALOAD PUSH1 0xE0 SHR DUP1 PUSH4 0x542975C EQ PUSH2 0x51 JUMPI DUP1 PUSH4 0x1B11D0FF EQ PUSH2 0x6F JUMPI DUP1 PUSH4 0x7535D246 EQ PUSH2 0x9F JUMPI DUP1 PUSH4 0xF4A3C8C4 EQ PUSH2 0xBD JUMPI JUMPDEST PUSH1 0x0 DUP1 REVERT JUMPDEST PUSH2 0x59 PUSH2 0xD9 JUMP JUMPDEST PUSH1 0x40 MLOAD PUSH2 0x66 SWAP2 SWAP1 PUSH2 0xA01 JUMP JUMPDEST PUSH1 0x40 MLOAD DUP1 SWAP2 SUB SWAP1 RETURN JUMPDEST PUSH2 0x89 PUSH1 0x4 DUP1 CALLDATASIZE SUB DUP2 ADD SWAP1 PUSH2 0x84 SWAP2 SWAP1 PUSH2 0xBEA JUMP JUMPDEST PUSH2 0xFD JUMP JUMPDEST PUSH1 0x40 MLOAD PUSH2 0x96 SWAP2 SWAP1 PUSH2 0xC9C JUMP JUMPDEST PUSH1 0x40 MLOAD DUP1 SWAP2 SUB SWAP1 RETURN JUMPDEST PUSH2 0xA7 PUSH2 0x62F JUMP JUMPDEST PUSH1 0x40 MLOAD PUSH2 0xB4 SWAP2 SWAP1 PUSH2 0xCD8 JUMP JUMPDEST PUSH1 0x40 MLOAD DUP1 SWAP2 SUB SWAP1 RETURN JUMPDEST PUSH2 0xD7 PUSH1 0x4 DUP1 CALLDATASIZE SUB DUP2 ADD SWAP1 PUSH2 0xD2 SWAP2 SWAP1 PUSH2 0xCF3 JUMP JUMPDEST PUSH2 0x653 JUMP JUMPDEST STOP JUMPDEST PUSH32 0x0 DUP2 JUMP JUMPDEST PUSH1 0x0 DUP1 PUSH1 0x2 PUSH8 0xFFFFFFFFFFFFFFFF DUP2 GT ISZERO PUSH2 0x11B JUMPI PUSH2 0x11A PUSH2 0xABF JUMP JUMPDEST JUMPDEST PUSH1 0x40 MLOAD SWAP1 DUP1 DUP3 MSTORE DUP1 PUSH1 0x20 MUL PUSH1 0x20 ADD DUP3 ADD PUSH1 0x40 MSTORE DUP1 ISZERO PUSH2 0x149 JUMPI DUP2 PUSH1 0x20 ADD PUSH1 0x20 DUP3 MUL DUP1 CALLDATASIZE DUP4 CALLDATACOPY DUP1 DUP3 ADD SWAP2 POP POP SWAP1 POP JUMPDEST POP SWAP1 POP PUSH20 0xC778417E063141139FCE010982780140AA0CD5AB DUP2 PUSH1 0x0 DUP2 MLOAD DUP2 LT PUSH2 0x175 JUMPI PUSH2 0x174 PUSH2 0xD33 JUMP JUMPDEST JUMPDEST PUSH1 0x20 MUL PUSH1 0x20 ADD ADD SWAP1 PUSH20 0xFFFFFFFFFFFFFFFFFFFFFFFFFFFFFFFFFFFFFFFF AND SWAP1 DUP2 PUSH20 0xFFFFFFFFFFFFFFFFFFFFFFFFFFFFFFFFFFFFFFFF AND DUP2 MSTORE POP POP PUSH20 0x784C47BA17A32E9C636CF917C9034C0AD1E87D41 DUP2 PUSH1 0x1 DUP2 MLOAD DUP2 LT PUSH2 0x1D8 JUMPI PUSH2 0x1D7 PUSH2 0xD33 JUMP JUMPDEST JUMPDEST PUSH1 0x20 MUL PUSH1 0x20 ADD ADD SWAP1 PUSH20 0xFFFFFFFFFFFFFFFFFFFFFFFFFFFFFFFFFFFFFFFF AND SWAP1 DUP2 PUSH20 0xFFFFFFFFFFFFFFFFFFFFFFFFFFFFFFFFFFFFFFFF AND DUP2 MSTORE POP POP PUSH20 0x7A250D5630B4CF539739DF2C5DACB4C659F2488D PUSH20 0xFFFFFFFFFFFFFFFFFFFFFFFFFFFFFFFFFFFFFFFF AND PUSH4 0x7FF36AB5 PUSH1 0x0 DUP4 ADDRESS TIMESTAMP PUSH1 0x40 MLOAD DUP6 PUSH4 0xFFFFFFFF AND PUSH1 0xE0 SHL DUP2 MSTORE PUSH1 0x4 ADD PUSH2 0x266 SWAP5 SWAP4 SWAP3 SWAP2 SWAP1 PUSH2 0xE79 JUMP JUMPDEST PUSH1 0x0 PUSH1 0x40 MLOAD DUP1 DUP4 SUB DUP2 PUSH1 0x0 DUP8 GAS CALL ISZERO DUP1 ISZERO PUSH2 0x285 JUMPI RETURNDATASIZE PUSH1 0x0 DUP1 RETURNDATACOPY RETURNDATASIZE PUSH1 0x0 REVERT JUMPDEST POP POP POP POP PUSH1 0x40 MLOAD RETURNDATASIZE PUSH1 0x0 DUP3 RETURNDATACOPY RETURNDATASIZE PUSH1 0x1F NOT PUSH1 0x1F DUP3 ADD AND DUP3 ADD DUP1 PUSH1 0x40 MSTORE POP DUP2 ADD SWAP1 PUSH2 0x2AE SWAP2 SWAP1 PUSH2 0xFA2 JUMP JUMPDEST POP PUSH1 0x0 PUSH20 0x784C47BA17A32E9C636CF917C9034C0AD1E87D41 PUSH20 0xFFFFFFFFFFFFFFFFFFFFFFFFFFFFFFFFFFFFFFFF AND PUSH4 0x70A08231 ADDRESS PUSH1 0x40 MLOAD DUP3 PUSH4 0xFFFFFFFF AND PUSH1 0xE0 SHL DUP2 MSTORE PUSH1 0x4 ADD PUSH2 0x2FE SWAP2 SWAP1 PUSH2 0xFEB JUMP JUMPDEST PUSH1 0x20 PUSH1 0x40 MLOAD DUP1 DUP4 SUB DUP2 DUP7 GAS STATICCALL ISZERO DUP1 ISZERO PUSH2 0x31B JUMPI RETURNDATASIZE PUSH1 0x0 DUP1 RETURNDATACOPY RETURNDATASIZE PUSH1 0x0 REVERT JUMPDEST POP POP POP POP PUSH1 0x40 MLOAD RETURNDATASIZE PUSH1 0x1F NOT PUSH1 0x1F DUP3 ADD AND DUP3 ADD DUP1 PUSH1 0x40 MSTORE POP DUP2 ADD SWAP1 PUSH2 0x33F SWAP2 SWAP1 PUSH2 0x1006 JUMP JUMPDEST SWAP1 POP PUSH20 0x784C47BA17A32E9C636CF917C9034C0AD1E87D41 PUSH20 0xFFFFFFFFFFFFFFFFFFFFFFFFFFFFFFFFFFFFFFFF AND PUSH4 0x95EA7B3 PUSH20 0xE592427A0AECE92DE3EDEE1F18E0157C05861564 DUP4 PUSH1 0x40 MLOAD DUP4 PUSH4 0xFFFFFFFF AND PUSH1 0xE0 SHL DUP2 MSTORE PUSH1 0x4 ADD PUSH2 0x3A4 SWAP3 SWAP2 SWAP1 PUSH2 0x1033 JUMP JUMPDEST PUSH1 0x20 PUSH1 0x40 MLOAD DUP1 DUP4 SUB DUP2 PUSH1 0x0 DUP8 GAS CALL ISZERO DUP1 ISZERO PUSH2 0x3C3 JUMPI RETURNDATASIZE PUSH1 0x0 DUP1 RETURNDATACOPY RETURNDATASIZE PUSH1 0x0 REVERT JUMPDEST POP POP POP POP PUSH1 0x40 MLOAD RETURNDATASIZE PUSH1 0x1F NOT PUSH1 0x1F DUP3 ADD AND DUP3 ADD DUP1 PUSH1 0x40 MSTORE POP DUP2 ADD SWAP1 PUSH2 0x3E7 SWAP2 SWAP1 PUSH2 0x1088 JUMP JUMPDEST POP PUSH1 0x0 PUSH1 0x40 MLOAD DUP1 PUSH2 0x100 ADD PUSH1 0x40 MSTORE DUP1 PUSH20 0x784C47BA17A32E9C636CF917C9034C0AD1E87D41 PUSH20 0xFFFFFFFFFFFFFFFFFFFFFFFFFFFFFFFFFFFFFFFF AND DUP2 MSTORE PUSH1 0x20 ADD PUSH20 0xC778417E063141139FCE010982780140AA0CD5AB PUSH20 0xFFFFFFFFFFFFFFFFFFFFFFFFFFFFFFFFFFFFFFFF AND DUP2 MSTORE PUSH1 0x20 ADD PUSH2 0xBB8 PUSH3 0xFFFFFF AND DUP2 MSTORE PUSH1 0x20 ADD ADDRESS PUSH20 0xFFFFFFFFFFFFFFFFFFFFFFFFFFFFFFFFFFFFFFFF AND DUP2 MSTORE PUSH1 0x20 ADD TIMESTAMP DUP2 MSTORE PUSH1 0x20 ADD DUP4 DUP2 MSTORE PUSH1 0x20 ADD PUSH1 0x0 DUP2 MSTORE PUSH1 0x20 ADD PUSH1 0x0 PUSH20 0xFFFFFFFFFFFFFFFFFFFFFFFFFFFFFFFFFFFFFFFF AND DUP2 MSTORE POP SWAP1 POP PUSH1 0x0 PUSH20 0xE592427A0AECE92DE3EDEE1F18E0157C05861564 PUSH20 0xFFFFFFFFFFFFFFFFFFFFFFFFFFFFFFFFFFFFFFFF AND PUSH4 0x414BF389 DUP4 PUSH1 0x40 MLOAD DUP3 PUSH4 0xFFFFFFFF AND PUSH1 0xE0 SHL DUP2 MSTORE PUSH1 0x4 ADD PUSH2 0x4FE SWAP2 SWAP1 PUSH2 0x1193 JUMP JUMPDEST PUSH1 0x20 PUSH1 0x40 MLOAD DUP1 DUP4 SUB DUP2 PUSH1 0x0 DUP8 GAS CALL ISZERO DUP1 ISZERO PUSH2 0x51D JUMPI RETURNDATASIZE PUSH1 0x0 DUP1 RETURNDATACOPY RETURNDATASIZE PUSH1 0x0 REVERT JUMPDEST POP POP POP POP PUSH1 0x40 MLOAD RETURNDATASIZE PUSH1 0x1F NOT PUSH1 0x1F DUP3 ADD AND DUP3 ADD DUP1 PUSH1 0x40 MSTORE POP DUP2 ADD SWAP1 PUSH2 0x541 SWAP2 SWAP1 PUSH2 0x1006 JUMP JUMPDEST SWAP1 POP PUSH1 0x0 DUP9 DUP11 PUSH2 0x551 SWAP2 SWAP1 PUSH2 0x11DE JUMP JUMPDEST SWAP1 POP DUP11 PUSH20 0xFFFFFFFFFFFFFFFFFFFFFFFFFFFFFFFFFFFFFFFF AND PUSH4 0x95EA7B3 PUSH32 0x0 DUP4 PUSH1 0x40 MLOAD DUP4 PUSH4 0xFFFFFFFF AND PUSH1 0xE0 SHL DUP2 MSTORE PUSH1 0x4 ADD PUSH2 0x5AE SWAP3 SWAP2 SWAP1 PUSH2 0x1033 JUMP JUMPDEST PUSH1 0x20 PUSH1 0x40 MLOAD DUP1 DUP4 SUB DUP2 PUSH1 0x0 DUP8 GAS CALL ISZERO DUP1 ISZERO PUSH2 0x5CD JUMPI RETURNDATASIZE PUSH1 0x0 DUP1 RETURNDATACOPY RETURNDATASIZE PUSH1 0x0 REVERT JUMPDEST POP POP POP POP PUSH1 0x40 MLOAD RETURNDATASIZE PUSH1 0x1F NOT PUSH1 0x1F DUP3 ADD AND DUP3 ADD DUP1 PUSH1 0x40 MSTORE POP DUP2 ADD SWAP1 PUSH2 0x5F1 SWAP2 SWAP1 PUSH2 0x1088 JUMP JUMPDEST POP PUSH2 0x61D DUP12 PUSH32 0x0 DUP4 PUSH2 0x82D JUMP JUMPDEST PUSH1 0x1 SWAP6 POP POP POP POP POP POP SWAP6 SWAP5 POP POP POP POP POP JUMP JUMPDEST PUSH32 0x0 DUP2 JUMP JUMPDEST PUSH1 0x0 PUSH1 0x40 MLOAD DUP1 PUSH1 0x20 ADD PUSH1 0x40 MSTORE DUP1 PUSH1 0x0 DUP2 MSTORE POP SWAP1 POP PUSH1 0x0 PUSH32 0x0 PUSH20 0xFFFFFFFFFFFFFFFFFFFFFFFFFFFFFFFFFFFFFFFF AND PUSH4 0x42B0B77C ADDRESS DUP7 DUP7 DUP7 DUP7 PUSH1 0x40 MLOAD DUP7 PUSH4 0xFFFFFFFF AND PUSH1 0xE0 SHL DUP2 MSTORE PUSH1 0x4 ADD PUSH2 0x6CA SWAP6 SWAP5 SWAP4 SWAP3 SWAP2 SWAP1 PUSH2 0x12D9 JUMP JUMPDEST PUSH1 0x0 PUSH1 0x40 MLOAD DUP1 DUP4 SUB DUP2 PUSH1 0x0 DUP8 DUP1 EXTCODESIZE ISZERO DUP1 ISZERO PUSH2 0x6E4 JUMPI PUSH1 0x0 DUP1 REVERT JUMPDEST POP GAS CALL SWAP3 POP POP POP DUP1 ISZERO PUSH2 0x6F5 JUMPI POP PUSH1 0x1 JUMPDEST PUSH2 0x7E6 JUMPI PUSH2 0x701 PUSH2 0x1340 JUMP JUMPDEST DUP1 PUSH4 0x8C379A0 EQ ISZERO PUSH2 0x769 JUMPI POP PUSH2 0x716 PUSH2 0x1362 JUMP JUMPDEST DUP1 PUSH2 0x721 JUMPI POP PUSH2 0x76B JUMP JUMPDEST DUP1 PUSH1 0x40 MLOAD PUSH2 0x72F SWAP2 SWAP1 PUSH2 0x143F JUMP JUMPDEST PUSH1 0x40 MLOAD DUP1 SWAP2 SUB SWAP1 KECCAK256 PUSH32 0x73349D5257FDAE5F77288CCEF5F4D7A387EA408F759A587DBC490699FEFCF9B PUSH1 0x40 MLOAD PUSH1 0x40 MLOAD DUP1 SWAP2 SUB SWAP1 LOG2 POP PUSH2 0x7E1 JUMP JUMPDEST POP JUMPDEST RETURNDATASIZE DUP1 PUSH1 0x0 DUP2 EQ PUSH2 0x797 JUMPI PUSH1 0x40 MLOAD SWAP2 POP PUSH1 0x1F NOT PUSH1 0x3F RETURNDATASIZE ADD AND DUP3 ADD PUSH1 0x40 MSTORE RETURNDATASIZE DUP3 MSTORE RETURNDATASIZE PUSH1 0x0 PUSH1 0x20 DUP5 ADD RETURNDATACOPY PUSH2 0x79C JUMP JUMPDEST PUSH1 0x60 SWAP2 POP JUMPDEST POP DUP1 PUSH1 0x40 MLOAD PUSH2 0x7AB SWAP2 SWAP1 PUSH2 0x1492 JUMP JUMPDEST PUSH1 0x40 MLOAD DUP1 SWAP2 SUB SWAP1 KECCAK256 PUSH32 0x6AFEEAEE5AC8E50B08D01417DB273DA895A7277B55C79AE313070D772704139D PUSH1 0x40 MLOAD PUSH1 0x40 MLOAD DUP1 SWAP2 SUB SWAP1 LOG2 POP JUMPDEST PUSH2 0x827 JUMP JUMPDEST PUSH1 0x40 MLOAD PUSH2 0x7F2 SWAP1 PUSH2 0x14F5 JUMP JUMPDEST PUSH1 0x40 MLOAD DUP1 SWAP2 SUB SWAP1 KECCAK256 PUSH32 0x2E3CAD6BB4331C7402E8374A7CBE05BDE1A8F8201CB8D485D113C684BD65466E PUSH1 0x40 MLOAD PUSH1 0x40 MLOAD DUP1 SWAP2 SUB SWAP1 LOG2 JUMPDEST POP POP POP POP JUMP JUMPDEST PUSH1 0x0 DUP1 DUP5 PUSH20 0xFFFFFFFFFFFFFFFFFFFFFFFFFFFFFFFFFFFFFFFF AND PUSH4 0xA9059CBB PUSH1 0xE0 SHL DUP6 DUP6 PUSH1 0x40 MLOAD PUSH1 0x24 ADD PUSH2 0x862 SWAP3 SWAP2 SWAP1 PUSH2 0x1033 JUMP JUMPDEST PUSH1 0x40 MLOAD PUSH1 0x20 DUP2 DUP4 SUB SUB DUP2 MSTORE SWAP1 PUSH1 0x40 MSTORE SWAP1 PUSH28 0xFFFFFFFFFFFFFFFFFFFFFFFFFFFFFFFFFFFFFFFFFFFFFFFFFFFFFFFF NOT AND PUSH1 0x20 DUP3 ADD DUP1 MLOAD PUSH28 0xFFFFFFFFFFFFFFFFFFFFFFFFFFFFFFFFFFFFFFFFFFFFFFFFFFFFFFFF DUP4 DUP2 DUP4 AND OR DUP4 MSTORE POP POP POP POP PUSH1 0x40 MLOAD PUSH2 0x8CC SWAP2 SWAP1 PUSH2 0x1492 JUMP JUMPDEST PUSH1 0x0 PUSH1 0x40 MLOAD DUP1 DUP4 SUB DUP2 PUSH1 0x0 DUP7 GAS CALL SWAP2 POP POP RETURNDATASIZE DUP1 PUSH1 0x0 DUP2 EQ PUSH2 0x909 JUMPI PUSH1 0x40 MLOAD SWAP2 POP PUSH1 0x1F NOT PUSH1 0x3F RETURNDATASIZE ADD AND DUP3 ADD PUSH1 0x40 MSTORE RETURNDATASIZE DUP3 MSTORE RETURNDATASIZE PUSH1 0x0 PUSH1 0x20 DUP5 ADD RETURNDATACOPY PUSH2 0x90E JUMP JUMPDEST PUSH1 0x60 SWAP2 POP JUMPDEST POP SWAP2 POP SWAP2 POP DUP2 DUP1 ISZERO PUSH2 0x93C JUMPI POP PUSH1 0x0 DUP2 MLOAD EQ DUP1 PUSH2 0x93B JUMPI POP DUP1 DUP1 PUSH1 0x20 ADD SWAP1 MLOAD DUP2 ADD SWAP1 PUSH2 0x93A SWAP2 SWAP1 PUSH2 0x1088 JUMP JUMPDEST JUMPDEST JUMPDEST PUSH2 0x97B JUMPI PUSH1 0x40 MLOAD PUSH32 0x8C379A000000000000000000000000000000000000000000000000000000000 DUP2 MSTORE PUSH1 0x4 ADD PUSH2 0x972 SWAP1 PUSH2 0x1567 JUMP JUMPDEST PUSH1 0x40 MLOAD DUP1 SWAP2 SUB SWAP1 REVERT JUMPDEST POP POP POP POP POP JUMP JUMPDEST PUSH1 0x0 PUSH20 0xFFFFFFFFFFFFFFFFFFFFFFFFFFFFFFFFFFFFFFFF DUP3 AND SWAP1 POP SWAP2 SWAP1 POP JUMP JUMPDEST PUSH1 0x0 DUP2 SWAP1 POP SWAP2 SWAP1 POP JUMP JUMPDEST PUSH1 0x0 PUSH2 0x9C7 PUSH2 0x9C2 PUSH2 0x9BD DUP5 PUSH2 0x982 JUMP JUMPDEST PUSH2 0x9A2 JUMP JUMPDEST PUSH2 0x982 JUMP JUMPDEST SWAP1 POP SWAP2 SWAP1 POP JUMP JUMPDEST PUSH1 0x0 PUSH2 0x9D9 DUP3 PUSH2 0x9AC JUMP JUMPDEST SWAP1 POP SWAP2 SWAP1 POP JUMP JUMPDEST PUSH1 0x0 PUSH2 0x9EB DUP3 PUSH2 0x9CE JUMP JUMPDEST SWAP1 POP SWAP2 SWAP1 POP JUMP JUMPDEST PUSH2 0x9FB DUP2 PUSH2 0x9E0 JUMP JUMPDEST DUP3 MSTORE POP POP JUMP JUMPDEST PUSH1 0x0 PUSH1 0x20 DUP3 ADD SWAP1 POP PUSH2 0xA16 PUSH1 0x0 DUP4 ADD DUP5 PUSH2 0x9F2 JUMP JUMPDEST SWAP3 SWAP2 POP POP JUMP JUMPDEST PUSH1 0x0 PUSH1 0x40 MLOAD SWAP1 POP SWAP1 JUMP JUMPDEST PUSH1 0x0 DUP1 REVERT JUMPDEST PUSH1 0x0 DUP1 REVERT JUMPDEST PUSH1 0x0 PUSH2 0xA3B DUP3 PUSH2 0x982 JUMP JUMPDEST SWAP1 POP SWAP2 SWAP1 POP JUMP JUMPDEST PUSH2 0xA4B DUP2 PUSH2 0xA30 JUMP JUMPDEST DUP2 EQ PUSH2 0xA56 JUMPI PUSH1 0x0 DUP1 REVERT JUMPDEST POP JUMP JUMPDEST PUSH1 0x0 DUP2 CALLDATALOAD SWAP1 POP PUSH2 0xA68 DUP2 PUSH2 0xA42 JUMP JUMPDEST SWAP3 SWAP2 POP POP JUMP JUMPDEST PUSH1 0x0 DUP2 SWAP1 POP SWAP2 SWAP1 POP JUMP JUMPDEST PUSH2 0xA81 DUP2 PUSH2 0xA6E JUMP JUMPDEST DUP2 EQ PUSH2 0xA8C JUMPI PUSH1 0x0 DUP1 REVERT JUMPDEST POP JUMP JUMPDEST PUSH1 0x0 DUP2 CALLDATALOAD SWAP1 POP PUSH2 0xA9E DUP2 PUSH2 0xA78 JUMP JUMPDEST SWAP3 SWAP2 POP POP JUMP JUMPDEST PUSH1 0x0 DUP1 REVERT JUMPDEST PUSH1 0x0 DUP1 REVERT JUMPDEST PUSH1 0x0 PUSH1 0x1F NOT PUSH1 0x1F DUP4 ADD AND SWAP1 POP SWAP2 SWAP1 POP JUMP JUMPDEST PUSH32 0x4E487B7100000000000000000000000000000000000000000000000000000000 PUSH1 0x0 MSTORE PUSH1 0x41 PUSH1 0x4 MSTORE PUSH1 0x24 PUSH1 0x0 REVERT JUMPDEST PUSH2 0xAF7 DUP3 PUSH2 0xAAE JUMP JUMPDEST DUP2 ADD DUP2 DUP2 LT PUSH8 0xFFFFFFFFFFFFFFFF DUP3 GT OR ISZERO PUSH2 0xB16 JUMPI PUSH2 0xB15 PUSH2 0xABF JUMP JUMPDEST JUMPDEST DUP1 PUSH1 0x40 MSTORE POP POP POP JUMP JUMPDEST PUSH1 0x0 PUSH2 0xB29 PUSH2 0xA1C JUMP JUMPDEST SWAP1 POP PUSH2 0xB35 DUP3 DUP3 PUSH2 0xAEE JUMP JUMPDEST SWAP2 SWAP1 POP JUMP JUMPDEST PUSH1 0x0 PUSH8 0xFFFFFFFFFFFFFFFF DUP3 GT ISZERO PUSH2 0xB55 JUMPI PUSH2 0xB54 PUSH2 0xABF JUMP JUMPDEST JUMPDEST PUSH2 0xB5E DUP3 PUSH2 0xAAE JUMP JUMPDEST SWAP1 POP PUSH1 0x20 DUP2 ADD SWAP1 POP SWAP2 SWAP1 POP JUMP JUMPDEST DUP3 DUP2 DUP4 CALLDATACOPY PUSH1 0x0 DUP4 DUP4 ADD MSTORE POP POP POP JUMP JUMPDEST PUSH1 0x0 PUSH2 0xB8D PUSH2 0xB88 DUP5 PUSH2 0xB3A JUMP JUMPDEST PUSH2 0xB1F JUMP JUMPDEST SWAP1 POP DUP3 DUP2 MSTORE PUSH1 0x20 DUP2 ADD DUP5 DUP5 DUP5 ADD GT ISZERO PUSH2 0xBA9 JUMPI PUSH2 0xBA8 PUSH2 0xAA9 JUMP JUMPDEST JUMPDEST PUSH2 0xBB4 DUP5 DUP3 DUP6 PUSH2 0xB6B JUMP JUMPDEST POP SWAP4 SWAP3 POP POP POP JUMP JUMPDEST PUSH1 0x0 DUP3 PUSH1 0x1F DUP4 ADD SLT PUSH2 0xBD1 JUMPI PUSH2 0xBD0 PUSH2 0xAA4 JUMP JUMPDEST JUMPDEST DUP2 CALLDATALOAD PUSH2 0xBE1 DUP5 DUP3 PUSH1 0x20 DUP7 ADD PUSH2 0xB7A JUMP JUMPDEST SWAP2 POP POP SWAP3 SWAP2 POP POP JUMP JUMPDEST PUSH1 0x0 DUP1 PUSH1 0x0 DUP1 PUSH1 0x0 PUSH1 0xA0 DUP7 DUP9 SUB SLT ISZERO PUSH2 0xC06 JUMPI PUSH2 0xC05 PUSH2 0xA26 JUMP JUMPDEST JUMPDEST PUSH1 0x0 PUSH2 0xC14 DUP9 DUP3 DUP10 ADD PUSH2 0xA59 JUMP JUMPDEST SWAP6 POP POP PUSH1 0x20 PUSH2 0xC25 DUP9 DUP3 DUP10 ADD PUSH2 0xA8F JUMP JUMPDEST SWAP5 POP POP PUSH1 0x40 PUSH2 0xC36 DUP9 DUP3 DUP10 ADD PUSH2 0xA8F JUMP JUMPDEST SWAP4 POP POP PUSH1 0x60 PUSH2 0xC47 DUP9 DUP3 DUP10 ADD PUSH2 0xA59 JUMP JUMPDEST SWAP3 POP POP PUSH1 0x80 DUP7 ADD CALLDATALOAD PUSH8 0xFFFFFFFFFFFFFFFF DUP2 GT ISZERO PUSH2 0xC68 JUMPI PUSH2 0xC67 PUSH2 0xA2B JUMP JUMPDEST JUMPDEST PUSH2 0xC74 DUP9 DUP3 DUP10 ADD PUSH2 0xBBC JUMP JUMPDEST SWAP2 POP POP SWAP3 SWAP6 POP SWAP3 SWAP6 SWAP1 SWAP4 POP JUMP JUMPDEST PUSH1 0x0 DUP2 ISZERO ISZERO SWAP1 POP SWAP2 SWAP1 POP JUMP JUMPDEST PUSH2 0xC96 DUP2 PUSH2 0xC81 JUMP JUMPDEST DUP3 MSTORE POP POP JUMP JUMPDEST PUSH1 0x0 PUSH1 0x20 DUP3 ADD SWAP1 POP PUSH2 0xCB1 PUSH1 0x0 DUP4 ADD DUP5 PUSH2 0xC8D JUMP JUMPDEST SWAP3 SWAP2 POP POP JUMP JUMPDEST PUSH1 0x0 PUSH2 0xCC2 DUP3 PUSH2 0x9CE JUMP JUMPDEST SWAP1 POP SWAP2 SWAP1 POP JUMP JUMPDEST PUSH2 0xCD2 DUP2 PUSH2 0xCB7 JUMP JUMPDEST DUP3 MSTORE POP POP JUMP JUMPDEST PUSH1 0x0 PUSH1 0x20 DUP3 ADD SWAP1 POP PUSH2 0xCED PUSH1 0x0 DUP4 ADD DUP5 PUSH2 0xCC9 JUMP JUMPDEST SWAP3 SWAP2 POP POP JUMP JUMPDEST PUSH1 0x0 DUP1 PUSH1 0x40 DUP4 DUP6 SUB SLT ISZERO PUSH2 0xD0A JUMPI PUSH2 0xD09 PUSH2 0xA26 JUMP JUMPDEST JUMPDEST PUSH1 0x0 PUSH2 0xD18 DUP6 DUP3 DUP7 ADD PUSH2 0xA59 JUMP JUMPDEST SWAP3 POP POP PUSH1 0x20 PUSH2 0xD29 DUP6 DUP3 DUP7 ADD PUSH2 0xA8F JUMP JUMPDEST SWAP2 POP POP SWAP3 POP SWAP3 SWAP1 POP JUMP JUMPDEST PUSH32 0x4E487B7100000000000000000000000000000000000000000000000000000000 PUSH1 0x0 MSTORE PUSH1 0x32 PUSH1 0x4 MSTORE PUSH1 0x24 PUSH1 0x0 REVERT JUMPDEST PUSH1 0x0 DUP2 SWAP1 POP SWAP2 SWAP1 POP JUMP JUMPDEST PUSH1 0x0 PUSH2 0xD87 PUSH2 0xD82 PUSH2 0xD7D DUP5 PUSH2 0xD62 JUMP JUMPDEST PUSH2 0x9A2 JUMP JUMPDEST PUSH2 0xA6E JUMP JUMPDEST SWAP1 POP SWAP2 SWAP1 POP JUMP JUMPDEST PUSH2 0xD97 DUP2 PUSH2 0xD6C JUMP JUMPDEST DUP3 MSTORE POP POP JUMP JUMPDEST PUSH1 0x0 DUP2 MLOAD SWAP1 POP SWAP2 SWAP1 POP JUMP JUMPDEST PUSH1 0x0 DUP3 DUP3 MSTORE PUSH1 0x20 DUP3 ADD SWAP1 POP SWAP3 SWAP2 POP POP JUMP JUMPDEST PUSH1 0x0 DUP2 SWAP1 POP PUSH1 0x20 DUP3 ADD SWAP1 POP SWAP2 SWAP1 POP JUMP JUMPDEST PUSH2 0xDD2 DUP2 PUSH2 0xA30 JUMP JUMPDEST DUP3 MSTORE POP POP JUMP JUMPDEST PUSH1 0x0 PUSH2 0xDE4 DUP4 DUP4 PUSH2 0xDC9 JUMP JUMPDEST PUSH1 0x20 DUP4 ADD SWAP1 POP SWAP3 SWAP2 POP POP JUMP JUMPDEST PUSH1 0x0 PUSH1 0x20 DUP3 ADD SWAP1 POP SWAP2 SWAP1 POP JUMP JUMPDEST PUSH1 0x0 PUSH2 0xE08 DUP3 PUSH2 0xD9D JUMP JUMPDEST PUSH2 0xE12 DUP2 DUP6 PUSH2 0xDA8 JUMP JUMPDEST SWAP4 POP PUSH2 0xE1D DUP4 PUSH2 0xDB9 JUMP JUMPDEST DUP1 PUSH1 0x0 JUMPDEST DUP4 DUP2 LT ISZERO PUSH2 0xE4E JUMPI DUP2 MLOAD PUSH2 0xE35 DUP9 DUP3 PUSH2 0xDD8 JUMP JUMPDEST SWAP8 POP PUSH2 0xE40 DUP4 PUSH2 0xDF0 JUMP JUMPDEST SWAP3 POP POP PUSH1 0x1 DUP2 ADD SWAP1 POP PUSH2 0xE21 JUMP JUMPDEST POP DUP6 SWAP4 POP POP POP POP SWAP3 SWAP2 POP POP JUMP JUMPDEST PUSH2 0xE64 DUP2 PUSH2 0xA30 JUMP JUMPDEST DUP3 MSTORE POP POP JUMP JUMPDEST PUSH2 0xE73 DUP2 PUSH2 0xA6E JUMP JUMPDEST DUP3 MSTORE POP POP JUMP JUMPDEST PUSH1 0x0 PUSH1 0x80 DUP3 ADD SWAP1 POP PUSH2 0xE8E PUSH1 0x0 DUP4 ADD DUP8 PUSH2 0xD8E JUMP JUMPDEST DUP2 DUP2 SUB PUSH1 0x20 DUP4 ADD MSTORE PUSH2 0xEA0 DUP2 DUP7 PUSH2 0xDFD JUMP JUMPDEST SWAP1 POP PUSH2 0xEAF PUSH1 0x40 DUP4 ADD DUP6 PUSH2 0xE5B JUMP JUMPDEST PUSH2 0xEBC PUSH1 0x60 DUP4 ADD DUP5 PUSH2 0xE6A JUMP JUMPDEST SWAP6 SWAP5 POP POP POP POP POP JUMP JUMPDEST PUSH1 0x0 PUSH8 0xFFFFFFFFFFFFFFFF DUP3 GT ISZERO PUSH2 0xEE0 JUMPI PUSH2 0xEDF PUSH2 0xABF JUMP JUMPDEST JUMPDEST PUSH1 0x20 DUP3 MUL SWAP1 POP PUSH1 0x20 DUP2 ADD SWAP1 POP SWAP2 SWAP1 POP JUMP JUMPDEST PUSH1 0x0 DUP1 REVERT JUMPDEST PUSH1 0x0 DUP2 MLOAD SWAP1 POP PUSH2 0xF05 DUP2 PUSH2 0xA78 JUMP JUMPDEST SWAP3 SWAP2 POP POP JUMP JUMPDEST PUSH1 0x0 PUSH2 0xF1E PUSH2 0xF19 DUP5 PUSH2 0xEC5 JUMP JUMPDEST PUSH2 0xB1F JUMP JUMPDEST SWAP1 POP DUP1 DUP4 DUP3 MSTORE PUSH1 0x20 DUP3 ADD SWAP1 POP PUSH1 0x20 DUP5 MUL DUP4 ADD DUP6 DUP2 GT ISZERO PUSH2 0xF41 JUMPI PUSH2 0xF40 PUSH2 0xEF1 JUMP JUMPDEST JUMPDEST DUP4 JUMPDEST DUP2 DUP2 LT ISZERO PUSH2 0xF6A JUMPI DUP1 PUSH2 0xF56 DUP9 DUP3 PUSH2 0xEF6 JUMP JUMPDEST DUP5 MSTORE PUSH1 0x20 DUP5 ADD SWAP4 POP POP PUSH1 0x20 DUP2 ADD SWAP1 POP PUSH2 0xF43 JUMP JUMPDEST POP POP POP SWAP4 SWAP3 POP POP POP JUMP JUMPDEST PUSH1 0x0 DUP3 PUSH1 0x1F DUP4 ADD SLT PUSH2 0xF89 JUMPI PUSH2 0xF88 PUSH2 0xAA4 JUMP JUMPDEST JUMPDEST DUP2 MLOAD PUSH2 0xF99 DUP5 DUP3 PUSH1 0x20 DUP7 ADD PUSH2 0xF0B JUMP JUMPDEST SWAP2 POP POP SWAP3 SWAP2 POP POP JUMP JUMPDEST PUSH1 0x0 PUSH1 0x20 DUP3 DUP5 SUB SLT ISZERO PUSH2 0xFB8 JUMPI PUSH2 0xFB7 PUSH2 0xA26 JUMP JUMPDEST JUMPDEST PUSH1 0x0 DUP3 ADD MLOAD PUSH8 0xFFFFFFFFFFFFFFFF DUP2 GT ISZERO PUSH2 0xFD6 JUMPI PUSH2 0xFD5 PUSH2 0xA2B JUMP JUMPDEST JUMPDEST PUSH2 0xFE2 DUP5 DUP3 DUP6 ADD PUSH2 0xF74 JUMP JUMPDEST SWAP2 POP POP SWAP3 SWAP2 POP POP JUMP JUMPDEST PUSH1 0x0 PUSH1 0x20 DUP3 ADD SWAP1 POP PUSH2 0x1000 PUSH1 0x0 DUP4 ADD DUP5 PUSH2 0xE5B JUMP JUMPDEST SWAP3 SWAP2 POP POP JUMP JUMPDEST PUSH1 0x0 PUSH1 0x20 DUP3 DUP5 SUB SLT ISZERO PUSH2 0x101C JUMPI PUSH2 0x101B PUSH2 0xA26 JUMP JUMPDEST JUMPDEST PUSH1 0x0 PUSH2 0x102A DUP5 DUP3 DUP6 ADD PUSH2 0xEF6 JUMP JUMPDEST SWAP2 POP POP SWAP3 SWAP2 POP POP JUMP JUMPDEST PUSH1 0x0 PUSH1 0x40 DUP3 ADD SWAP1 POP PUSH2 0x1048 PUSH1 0x0 DUP4 ADD DUP6 PUSH2 0xE5B JUMP JUMPDEST PUSH2 0x1055 PUSH1 0x20 DUP4 ADD DUP5 PUSH2 0xE6A JUMP JUMPDEST SWAP4 SWAP3 POP POP POP JUMP JUMPDEST PUSH2 0x1065 DUP2 PUSH2 0xC81 JUMP JUMPDEST DUP2 EQ PUSH2 0x1070 JUMPI PUSH1 0x0 DUP1 REVERT JUMPDEST POP JUMP JUMPDEST PUSH1 0x0 DUP2 MLOAD SWAP1 POP PUSH2 0x1082 DUP2 PUSH2 0x105C JUMP JUMPDEST SWAP3 SWAP2 POP POP JUMP JUMPDEST PUSH1 0x0 PUSH1 0x20 DUP3 DUP5 SUB SLT ISZERO PUSH2 0x109E JUMPI PUSH2 0x109D PUSH2 0xA26 JUMP JUMPDEST JUMPDEST PUSH1 0x0 PUSH2 0x10AC DUP5 DUP3 DUP6 ADD PUSH2 0x1073 JUMP JUMPDEST SWAP2 POP POP SWAP3 SWAP2 POP POP JUMP JUMPDEST PUSH1 0x0 PUSH3 0xFFFFFF DUP3 AND SWAP1 POP SWAP2 SWAP1 POP JUMP JUMPDEST PUSH2 0x10CD DUP2 PUSH2 0x10B5 JUMP JUMPDEST DUP3 MSTORE POP POP JUMP JUMPDEST PUSH2 0x10DC DUP2 PUSH2 0xA6E JUMP JUMPDEST DUP3 MSTORE POP POP JUMP JUMPDEST PUSH2 0x10EB DUP2 PUSH2 0x982 JUMP JUMPDEST DUP3 MSTORE POP POP JUMP JUMPDEST PUSH2 0x100 DUP3 ADD PUSH1 0x0 DUP3 ADD MLOAD PUSH2 0x1108 PUSH1 0x0 DUP6 ADD DUP3 PUSH2 0xDC9 JUMP JUMPDEST POP PUSH1 0x20 DUP3 ADD MLOAD PUSH2 0x111B PUSH1 0x20 DUP6 ADD DUP3 PUSH2 0xDC9 JUMP JUMPDEST POP PUSH1 0x40 DUP3 ADD MLOAD PUSH2 0x112E PUSH1 0x40 DUP6 ADD DUP3 PUSH2 0x10C4 JUMP JUMPDEST POP PUSH1 0x60 DUP3 ADD MLOAD PUSH2 0x1141 PUSH1 0x60 DUP6 ADD DUP3 PUSH2 0xDC9 JUMP JUMPDEST POP PUSH1 0x80 DUP3 ADD MLOAD PUSH2 0x1154 PUSH1 0x80 DUP6 ADD DUP3 PUSH2 0x10D3 JUMP JUMPDEST POP PUSH1 0xA0 DUP3 ADD MLOAD PUSH2 0x1167 PUSH1 0xA0 DUP6 ADD DUP3 PUSH2 0x10D3 JUMP JUMPDEST POP PUSH1 0xC0 DUP3 ADD MLOAD PUSH2 0x117A PUSH1 0xC0 DUP6 ADD DUP3 PUSH2 0x10D3 JUMP JUMPDEST POP PUSH1 0xE0 DUP3 ADD MLOAD PUSH2 0x118D PUSH1 0xE0 DUP6 ADD DUP3 PUSH2 0x10E2 JUMP JUMPDEST POP POP POP POP JUMP JUMPDEST PUSH1 0x0 PUSH2 0x100 DUP3 ADD SWAP1 POP PUSH2 0x11A9 PUSH1 0x0 DUP4 ADD DUP5 PUSH2 0x10F1 JUMP JUMPDEST SWAP3 SWAP2 POP POP JUMP JUMPDEST PUSH32 0x4E487B7100000000000000000000000000000000000000000000000000000000 PUSH1 0x0 MSTORE PUSH1 0x11 PUSH1 0x4 MSTORE PUSH1 0x24 PUSH1 0x0 REVERT JUMPDEST PUSH1 0x0 PUSH2 0x11E9 DUP3 PUSH2 0xA6E JUMP JUMPDEST SWAP2 POP PUSH2 0x11F4 DUP4 PUSH2 0xA6E JUMP JUMPDEST SWAP3 POP DUP3 PUSH32 0xFFFFFFFFFFFFFFFFFFFFFFFFFFFFFFFFFFFFFFFFFFFFFFFFFFFFFFFFFFFFFFFF SUB DUP3 GT ISZERO PUSH2 0x1229 JUMPI PUSH2 0x1228 PUSH2 0x11AF JUMP JUMPDEST JUMPDEST DUP3 DUP3 ADD SWAP1 POP SWAP3 SWAP2 POP POP JUMP JUMPDEST PUSH1 0x0 DUP2 MLOAD SWAP1 POP SWAP2 SWAP1 POP JUMP JUMPDEST PUSH1 0x0 DUP3 DUP3 MSTORE PUSH1 0x20 DUP3 ADD SWAP1 POP SWAP3 SWAP2 POP POP JUMP JUMPDEST PUSH1 0x0 JUMPDEST DUP4 DUP2 LT ISZERO PUSH2 0x126E JUMPI DUP1 DUP3 ADD MLOAD DUP2 DUP5 ADD MSTORE PUSH1 0x20 DUP2 ADD SWAP1 POP PUSH2 0x1253 JUMP JUMPDEST DUP4 DUP2 GT ISZERO PUSH2 0x127D JUMPI PUSH1 0x0 DUP5 DUP5 ADD MSTORE JUMPDEST POP POP POP POP JUMP JUMPDEST PUSH1 0x0 PUSH2 0x128E DUP3 PUSH2 0x1234 JUMP JUMPDEST PUSH2 0x1298 DUP2 DUP6 PUSH2 0x123F JUMP JUMPDEST SWAP4 POP PUSH2 0x12A8 DUP2 DUP6 PUSH1 0x20 DUP7 ADD PUSH2 0x1250 JUMP JUMPDEST PUSH2 0x12B1 DUP2 PUSH2 0xAAE JUMP JUMPDEST DUP5 ADD SWAP2 POP POP SWAP3 SWAP2 POP POP JUMP JUMPDEST PUSH1 0x0 PUSH2 0xFFFF DUP3 AND SWAP1 POP SWAP2 SWAP1 POP JUMP JUMPDEST PUSH2 0x12D3 DUP2 PUSH2 0x12BC JUMP JUMPDEST DUP3 MSTORE POP POP JUMP JUMPDEST PUSH1 0x0 PUSH1 0xA0 DUP3 ADD SWAP1 POP PUSH2 0x12EE PUSH1 0x0 DUP4 ADD DUP9 PUSH2 0xE5B JUMP JUMPDEST PUSH2 0x12FB PUSH1 0x20 DUP4 ADD DUP8 PUSH2 0xE5B JUMP JUMPDEST PUSH2 0x1308 PUSH1 0x40 DUP4 ADD DUP7 PUSH2 0xE6A JUMP JUMPDEST DUP2 DUP2 SUB PUSH1 0x60 DUP4 ADD MSTORE PUSH2 0x131A DUP2 DUP6 PUSH2 0x1283 JUMP JUMPDEST SWAP1 POP PUSH2 0x1329 PUSH1 0x80 DUP4 ADD DUP5 PUSH2 0x12CA JUMP JUMPDEST SWAP7 SWAP6 POP POP POP POP POP POP JUMP JUMPDEST PUSH1 0x0 DUP2 PUSH1 0xE0 SHR SWAP1 POP SWAP2 SWAP1 POP JUMP JUMPDEST PUSH1 0x0 PUSH1 0x3 RETURNDATASIZE GT ISZERO PUSH2 0x135F JUMPI PUSH1 0x4 PUSH1 0x0 DUP1 RETURNDATACOPY PUSH2 0x135C PUSH1 0x0 MLOAD PUSH2 0x1333 JUMP JUMPDEST SWAP1 POP JUMPDEST SWAP1 JUMP JUMPDEST PUSH1 0x0 PUSH1 0x44 RETURNDATASIZE LT ISZERO PUSH2 0x1372 JUMPI PUSH2 0x13F5 JUMP JUMPDEST PUSH2 0x137A PUSH2 0xA1C JUMP JUMPDEST PUSH1 0x4 RETURNDATASIZE SUB PUSH1 0x4 DUP3 RETURNDATACOPY DUP1 MLOAD RETURNDATASIZE PUSH1 0x24 DUP3 ADD GT PUSH8 0xFFFFFFFFFFFFFFFF DUP3 GT OR ISZERO PUSH2 0x13A2 JUMPI POP POP PUSH2 0x13F5 JUMP JUMPDEST DUP1 DUP3 ADD DUP1 MLOAD PUSH8 0xFFFFFFFFFFFFFFFF DUP2 GT ISZERO PUSH2 0x13C0 JUMPI POP POP POP POP PUSH2 0x13F5 JUMP JUMPDEST DUP1 PUSH1 0x20 DUP4 ADD ADD PUSH1 0x4 RETURNDATASIZE SUB DUP6 ADD DUP2 GT ISZERO PUSH2 0x13DD JUMPI POP POP POP POP POP PUSH2 0x13F5 JUMP JUMPDEST PUSH2 0x13EC DUP3 PUSH1 0x20 ADD DUP6 ADD DUP7 PUSH2 0xAEE JUMP JUMPDEST DUP3 SWAP6 POP POP POP POP POP POP JUMPDEST SWAP1 JUMP JUMPDEST PUSH1 0x0 DUP2 MLOAD SWAP1 POP SWAP2 SWAP1 POP JUMP JUMPDEST PUSH1 0x0 DUP2 SWAP1 POP SWAP3 SWAP2 POP POP JUMP JUMPDEST PUSH1 0x0 PUSH2 0x1419 DUP3 PUSH2 0x13F8 JUMP JUMPDEST PUSH2 0x1423 DUP2 DUP6 PUSH2 0x1403 JUMP JUMPDEST SWAP4 POP PUSH2 0x1433 DUP2 DUP6 PUSH1 0x20 DUP7 ADD PUSH2 0x1250 JUMP JUMPDEST DUP1 DUP5 ADD SWAP2 POP POP SWAP3 SWAP2 POP POP JUMP JUMPDEST PUSH1 0x0 PUSH2 0x144B DUP3 DUP5 PUSH2 0x140E JUMP JUMPDEST SWAP2 POP DUP2 SWAP1 POP SWAP3 SWAP2 POP POP JUMP JUMPDEST PUSH1 0x0 DUP2 SWAP1 POP SWAP3 SWAP2 POP POP JUMP JUMPDEST PUSH1 0x0 PUSH2 0x146C DUP3 PUSH2 0x1234 JUMP JUMPDEST PUSH2 0x1476 DUP2 DUP6 PUSH2 0x1456 JUMP JUMPDEST SWAP4 POP PUSH2 0x1486 DUP2 DUP6 PUSH1 0x20 DUP7 ADD PUSH2 0x1250 JUMP JUMPDEST DUP1 DUP5 ADD SWAP2 POP POP SWAP3 SWAP2 POP POP JUMP JUMPDEST PUSH1 0x0 PUSH2 0x149E DUP3 DUP5 PUSH2 0x1461 JUMP JUMPDEST SWAP2 POP DUP2 SWAP1 POP SWAP3 SWAP2 POP POP JUMP JUMPDEST PUSH32 0x466C617368537761702053756363657373210000000000000000000000000000 PUSH1 0x0 DUP3 ADD MSTORE POP JUMP JUMPDEST PUSH1 0x0 PUSH2 0x14DF PUSH1 0x12 DUP4 PUSH2 0x1403 JUMP JUMPDEST SWAP2 POP PUSH2 0x14EA DUP3 PUSH2 0x14A9 JUMP JUMPDEST PUSH1 0x12 DUP3 ADD SWAP1 POP SWAP2 SWAP1 POP JUMP JUMPDEST PUSH1 0x0 PUSH2 0x1500 DUP3 PUSH2 0x14D2 JUMP JUMPDEST SWAP2 POP DUP2 SWAP1 POP SWAP2 SWAP1 POP JUMP JUMPDEST PUSH1 0x0 DUP3 DUP3 MSTORE PUSH1 0x20 DUP3 ADD SWAP1 POP SWAP3 SWAP2 POP POP JUMP JUMPDEST PUSH32 0x5446000000000000000000000000000000000000000000000000000000000000 PUSH1 0x0 DUP3 ADD MSTORE POP JUMP JUMPDEST PUSH1 0x0 PUSH2 0x1551 PUSH1 0x2 DUP4 PUSH2 0x150A JUMP JUMPDEST SWAP2 POP PUSH2 0x155C DUP3 PUSH2 0x151B JUMP JUMPDEST PUSH1 0x20 DUP3 ADD SWAP1 POP SWAP2 SWAP1 POP JUMP JUMPDEST PUSH1 0x0 PUSH1 0x20 DUP3 ADD SWAP1 POP DUP2 DUP2 SUB PUSH1 0x0 DUP4 ADD MSTORE PUSH2 0x1580 DUP2 PUSH2 0x1544 JUMP JUMPDEST SWAP1 POP SWAP2 SWAP1 POP JUMP INVALID LOG2 PUSH5 0x6970667358 0x22 SLT KECCAK256 DUP14 0xCA DELEGATECALL 0x1E 0x27 PUSH11 0x170866141540509B479CF3 0xE7 0x5F 0xAB 0xD8 EXTCODEHASH 0xE CALLDATALOAD 0x27 0xAF GASPRICE DUP12 DUP7 RETURNDATACOPY PUSH18 0xE064736F6C634300080A0033000000000000 "
				},
				"gasEstimates": {
					"creation": {
						"codeDepositCost": "1113000",
						"executionCost": "infinite",
						"totalCost": "infinite"
					},
					"external": {
						"ADDRESSES_PROVIDER()": "infinite",
						"POOL()": "infinite",
						"executeOperation(address,uint256,uint256,address,bytes)": "infinite",
						"flashSwapCall(address,uint256)": "infinite"
					}
				},
				"methodIdentifiers": {
					"ADDRESSES_PROVIDER()": "0542975c",
					"POOL()": "7535d246",
					"executeOperation(address,uint256,uint256,address,bytes)": "1b11d0ff",
					"flashSwapCall(address,uint256)": "f4a3c8c4"
				}
			},
			"userdoc": {
				"kind": "user",
				"methods": {},
				"version": 1
			}
		}
	}
}