{
	"EasySandBox/Attack.sol": {
		"EasySandbox": {
			"abi": [
				{
					"inputs": [],
					"payable": true,
					"stateMutability": "payable",
					"type": "constructor"
				},
				{
					"constant": false,
					"inputs": [
						{
							"internalType": "address",
							"name": "_addr",
							"type": "address"
						}
					],
					"name": "easy_sandbox",
					"outputs": [],
					"payable": true,
					"stateMutability": "payable",
					"type": "function"
				},
				{
					"constant": false,
					"inputs": [
						{
							"internalType": "uint256",
							"name": "_what",
							"type": "uint256"
						},
						{
							"internalType": "uint256",
							"name": "_where",
							"type": "uint256"
						}
					],
					"name": "given_gift",
					"outputs": [],
					"payable": false,
					"stateMutability": "nonpayable",
					"type": "function"
				},
				{
					"constant": true,
					"inputs": [],
					"name": "isSolved",
					"outputs": [
						{
							"internalType": "bool",
							"name": "",
							"type": "bool"
						}
					],
					"payable": false,
					"stateMutability": "view",
					"type": "function"
				},
				{
					"constant": true,
					"inputs": [],
					"name": "owner",
					"outputs": [
						{
							"internalType": "address",
							"name": "",
							"type": "address"
						}
					],
					"payable": false,
					"stateMutability": "view",
					"type": "function"
				},
				{
					"constant": true,
					"inputs": [
						{
							"internalType": "address",
							"name": "",
							"type": "address"
						},
						{
							"internalType": "uint256",
							"name": "",
							"type": "uint256"
						}
					],
					"name": "sons",
					"outputs": [
						{
							"internalType": "address",
							"name": "",
							"type": "address"
						}
					],
					"payable": false,
					"stateMutability": "view",
					"type": "function"
				},
				{
					"constant": true,
					"inputs": [
						{
							"internalType": "uint256",
							"name": "",
							"type": "uint256"
						}
					],
					"name": "writes",
					"outputs": [
						{
							"internalType": "uint256",
							"name": "",
							"type": "uint256"
						}
					],
					"payable": false,
					"stateMutability": "view",
					"type": "function"
				}
			],
			"devdoc": {
				"methods": {}
			},
			"evm": {
				"assembly": "    /* \"EasySandBox/Attack.sol\":58:2404  contract EasySandbox {... */\n  mstore(0x40, 0x80)\n    /* \"EasySandBox/Attack.sol\":207:208  0 */\n  0x00\n    /* \"EasySandBox/Attack.sol\":187:208  uint randomNumber = 0 */\n  0x03\n  sstore\n    /* \"EasySandBox/Attack.sol\":262:272  msg.sender */\n  caller\n    /* \"EasySandBox/Attack.sol\":254:259  owner */\n  0x02\n  0x00\n    /* \"EasySandBox/Attack.sol\":254:272  owner = msg.sender */\n  0x0100\n  exp\n  dup2\n  sload\n  dup2\n  0xffffffffffffffffffffffffffffffffffffffff\n  mul\n  not\n  and\n  swap1\n  dup4\n  0xffffffffffffffffffffffffffffffffffffffff\n  and\n  mul\n  or\n  swap1\n  sstore\n  pop\n    /* \"EasySandBox/Attack.sol\":282:286  sons */\n  0x01\n    /* \"EasySandBox/Attack.sol\":282:298  sons[msg.sender] */\n  0x00\n    /* \"EasySandBox/Attack.sol\":287:297  msg.sender */\n  caller\n    /* \"EasySandBox/Attack.sol\":282:298  sons[msg.sender] */\n  0xffffffffffffffffffffffffffffffffffffffff\n  and\n  0xffffffffffffffffffffffffffffffffffffffff\n  and\n  dup2\n  mstore\n  0x20\n  add\n  swap1\n  dup2\n  mstore\n  0x20\n  add\n  0x00\n  keccak256\n    /* \"EasySandBox/Attack.sol\":304:314  msg.sender */\n  caller\n    /* \"EasySandBox/Attack.sol\":282:315  sons[msg.sender].push(msg.sender) */\n  swap1\n  dup1\n    /* \"--CODEGEN--\":39:40   */\n  0x01\n    /* \"--CODEGEN--\":33:36   */\n  dup2\n    /* \"--CODEGEN--\":27:37   */\n  sload\n    /* \"--CODEGEN--\":23:41   */\n  add\n    /* \"--CODEGEN--\":57:67   */\n  dup1\n    /* \"--CODEGEN--\":52:55   */\n  dup3\n    /* \"--CODEGEN--\":45:68   */\n  sstore\n    /* \"--CODEGEN--\":79:89   */\n  dup1\n    /* \"--CODEGEN--\":72:89   */\n  swap2\n  pop\n    /* \"--CODEGEN--\":0:93   */\n  pop\n    /* \"EasySandBox/Attack.sol\":282:315  sons[msg.sender].push(msg.sender) */\n  swap1\n  0x01\n  dup3\n  sub\n  swap1\n  0x00\n  mstore\n  keccak256(0x00, 0x20)\n  add\n  0x00\n  swap1\n  swap2\n  swap3\n  swap1\n  swap2\n  swap1\n  swap2\n  0x0100\n  exp\n  dup2\n  sload\n  dup2\n  0xffffffffffffffffffffffffffffffffffffffff\n  mul\n  not\n  and\n  swap1\n  dup4\n  0xffffffffffffffffffffffffffffffffffffffff\n  and\n  mul\n  or\n  swap1\n  sstore\n  pop\n  pop\n    /* \"EasySandBox/Attack.sol\":342:343  1 */\n  0x01\n    /* \"EasySandBox/Attack.sol\":325:331  writes */\n  0x00\n    /* \"EasySandBox/Attack.sol\":325:343  writes.length -= 1 */\n  dup2\n  dup2\n  dup1\n  sload\n  swap1\n  pop\n  sub\n  swap2\n  pop\n  dup2\n  tag_4\n  swap2\n  swap1\n  tag_5\n  jump\t// in\ntag_4:\n  pop\n    /* \"EasySandBox/Attack.sol\":58:2404  contract EasySandbox {... */\n  jump(tag_6)\ntag_5:\n  dup2\n  sload\n  dup2\n  dup4\n  sstore\n  dup2\n  dup2\n  gt\n  iszero\n  tag_7\n  jumpi\n  dup2\n  dup4\n  0x00\n  mstore\n  keccak256(0x00, 0x20)\n  swap2\n  dup3\n  add\n  swap2\n  add\n  tag_8\n  swap2\n  swap1\n  tag_9\n  jump\t// in\ntag_8:\ntag_7:\n  pop\n  pop\n  pop\n  jump\t// out\ntag_9:\n  tag_10\n  swap2\n  swap1\ntag_11:\n  dup1\n  dup3\n  gt\n  iszero\n  tag_12\n  jumpi\n  0x00\n  dup2\n  0x00\n  swap1\n  sstore\n  pop\n  0x01\n  add\n  jump(tag_11)\ntag_12:\n  pop\n  swap1\n  jump\ntag_10:\n  swap1\n  jump\t// out\ntag_6:\n  dataSize(sub_0)\n  dup1\n  dataOffset(sub_0)\n  0x00\n  codecopy\n  0x00\n  return\nstop\n\nsub_0: assembly {\n        /* \"EasySandBox/Attack.sol\":58:2404  contract EasySandbox {... */\n      mstore(0x40, 0x80)\n      jumpi(tag_1, lt(calldatasize, 0x04))\n      shr(0xe0, calldataload(0x00))\n      dup1\n      0x281d0619\n      eq\n      tag_2\n      jumpi\n      dup1\n      0x5e08b9d5\n      eq\n      tag_3\n      jumpi\n      dup1\n      0x64d98f6e\n      eq\n      tag_4\n      jumpi\n      dup1\n      0x74e3fb3e\n      eq\n      tag_5\n      jumpi\n      dup1\n      0x8da5cb5b\n      eq\n      tag_6\n      jumpi\n      dup1\n      0xc94103b1\n      eq\n      tag_7\n      jumpi\n    tag_1:\n      0x00\n      dup1\n      revert\n        /* \"EasySandBox/Attack.sol\":114:155  mapping(address => address[]) public sons */\n    tag_2:\n      callvalue\n        /* \"--CODEGEN--\":8:17   */\n      dup1\n        /* \"--CODEGEN--\":5:7   */\n      iszero\n      tag_8\n      jumpi\n        /* \"--CODEGEN--\":30:31   */\n      0x00\n        /* \"--CODEGEN--\":27:28   */\n      dup1\n        /* \"--CODEGEN--\":20:32   */\n      revert\n        /* \"--CODEGEN--\":5:7   */\n    tag_8:\n        /* \"EasySandBox/Attack.sol\":114:155  mapping(address => address[]) public sons */\n      pop\n      tag_9\n      0x04\n      dup1\n      calldatasize\n      sub\n        /* \"--CODEGEN--\":13:15   */\n      0x40\n        /* \"--CODEGEN--\":8:11   */\n      dup2\n        /* \"--CODEGEN--\":5:16   */\n      lt\n        /* \"--CODEGEN--\":2:4   */\n      iszero\n      tag_10\n      jumpi\n        /* \"--CODEGEN--\":29:30   */\n      0x00\n        /* \"--CODEGEN--\":26:27   */\n      dup1\n        /* \"--CODEGEN--\":19:31   */\n      revert\n        /* \"--CODEGEN--\":2:4   */\n    tag_10:\n        /* \"EasySandBox/Attack.sol\":114:155  mapping(address => address[]) public sons */\n      dup2\n      add\n      swap1\n      dup1\n      dup1\n      calldataload\n      0xffffffffffffffffffffffffffffffffffffffff\n      and\n      swap1\n      0x20\n      add\n      swap1\n      swap3\n      swap2\n      swap1\n      dup1\n      calldataload\n      swap1\n      0x20\n      add\n      swap1\n      swap3\n      swap2\n      swap1\n      pop\n      pop\n      pop\n      tag_11\n      jump\t// in\n    tag_9:\n      mload(0x40)\n      dup1\n      dup3\n      0xffffffffffffffffffffffffffffffffffffffff\n      and\n      0xffffffffffffffffffffffffffffffffffffffff\n      and\n      dup2\n      mstore\n      0x20\n      add\n      swap2\n      pop\n      pop\n      mload(0x40)\n      dup1\n      swap2\n      sub\n      swap1\n      return\n        /* \"EasySandBox/Attack.sol\":452:654  function given_gift(uint256 _what, uint256 _where) public {... */\n    tag_3:\n      callvalue\n        /* \"--CODEGEN--\":8:17   */\n      dup1\n        /* \"--CODEGEN--\":5:7   */\n      iszero\n      tag_12\n      jumpi\n        /* \"--CODEGEN--\":30:31   */\n      0x00\n        /* \"--CODEGEN--\":27:28   */\n      dup1\n        /* \"--CODEGEN--\":20:32   */\n      revert\n        /* \"--CODEGEN--\":5:7   */\n    tag_12:\n        /* \"EasySandBox/Attack.sol\":452:654  function given_gift(uint256 _what, uint256 _where) public {... */\n      pop\n      tag_13\n      0x04\n      dup1\n      calldatasize\n      sub\n        /* \"--CODEGEN--\":13:15   */\n      0x40\n        /* \"--CODEGEN--\":8:11   */\n      dup2\n        /* \"--CODEGEN--\":5:16   */\n      lt\n        /* \"--CODEGEN--\":2:4   */\n      iszero\n      tag_14\n      jumpi\n        /* \"--CODEGEN--\":29:30   */\n      0x00\n        /* \"--CODEGEN--\":26:27   */\n      dup1\n        /* \"--CODEGEN--\":19:31   */\n      revert\n        /* \"--CODEGEN--\":2:4   */\n    tag_14:\n        /* \"EasySandBox/Attack.sol\":452:654  function given_gift(uint256 _what, uint256 _where) public {... */\n      dup2\n      add\n      swap1\n      dup1\n      dup1\n      calldataload\n      swap1\n      0x20\n      add\n      swap1\n      swap3\n      swap2\n      swap1\n      dup1\n      calldataload\n      swap1\n      0x20\n      add\n      swap1\n      swap3\n      swap2\n      swap1\n      pop\n      pop\n      pop\n      tag_15\n      jump\t// in\n    tag_13:\n      stop\n        /* \"EasySandBox/Attack.sol\":2305:2402  function isSolved() public view returns (bool) {... */\n    tag_4:\n      callvalue\n        /* \"--CODEGEN--\":8:17   */\n      dup1\n        /* \"--CODEGEN--\":5:7   */\n      iszero\n      tag_16\n      jumpi\n        /* \"--CODEGEN--\":30:31   */\n      0x00\n        /* \"--CODEGEN--\":27:28   */\n      dup1\n        /* \"--CODEGEN--\":20:32   */\n      revert\n        /* \"--CODEGEN--\":5:7   */\n    tag_16:\n        /* \"EasySandBox/Attack.sol\":2305:2402  function isSolved() public view returns (bool) {... */\n      pop\n      tag_17\n      tag_18\n      jump\t// in\n    tag_17:\n      mload(0x40)\n      dup1\n      dup3\n      iszero\n      iszero\n      iszero\n      iszero\n      dup2\n      mstore\n      0x20\n      add\n      swap2\n      pop\n      pop\n      mload(0x40)\n      dup1\n      swap2\n      sub\n      swap1\n      return\n        /* \"EasySandBox/Attack.sol\":85:108  uint256[] public writes */\n    tag_5:\n      callvalue\n        /* \"--CODEGEN--\":8:17   */\n      dup1\n        /* \"--CODEGEN--\":5:7   */\n      iszero\n      tag_19\n      jumpi\n        /* \"--CODEGEN--\":30:31   */\n      0x00\n        /* \"--CODEGEN--\":27:28   */\n      dup1\n        /* \"--CODEGEN--\":20:32   */\n      revert\n        /* \"--CODEGEN--\":5:7   */\n    tag_19:\n        /* \"EasySandBox/Attack.sol\":85:108  uint256[] public writes */\n      pop\n      tag_20\n      0x04\n      dup1\n      calldatasize\n      sub\n        /* \"--CODEGEN--\":13:15   */\n      0x20\n        /* \"--CODEGEN--\":8:11   */\n      dup2\n        /* \"--CODEGEN--\":5:16   */\n      lt\n        /* \"--CODEGEN--\":2:4   */\n      iszero\n      tag_21\n      jumpi\n        /* \"--CODEGEN--\":29:30   */\n      0x00\n        /* \"--CODEGEN--\":26:27   */\n      dup1\n        /* \"--CODEGEN--\":19:31   */\n      revert\n        /* \"--CODEGEN--\":2:4   */\n    tag_21:\n        /* \"EasySandBox/Attack.sol\":85:108  uint256[] public writes */\n      dup2\n      add\n      swap1\n      dup1\n      dup1\n      calldataload\n      swap1\n      0x20\n      add\n      swap1\n      swap3\n      swap2\n      swap1\n      pop\n      pop\n      pop\n      tag_22\n      jump\t// in\n    tag_20:\n      mload(0x40)\n      dup1\n      dup3\n      dup2\n      mstore\n      0x20\n      add\n      swap2\n      pop\n      pop\n      mload(0x40)\n      dup1\n      swap2\n      sub\n      swap1\n      return\n        /* \"EasySandBox/Attack.sol\":161:181  address public owner */\n    tag_6:\n      callvalue\n        /* \"--CODEGEN--\":8:17   */\n      dup1\n        /* \"--CODEGEN--\":5:7   */\n      iszero\n      tag_23\n      jumpi\n        /* \"--CODEGEN--\":30:31   */\n      0x00\n        /* \"--CODEGEN--\":27:28   */\n      dup1\n        /* \"--CODEGEN--\":20:32   */\n      revert\n        /* \"--CODEGEN--\":5:7   */\n    tag_23:\n        /* \"EasySandBox/Attack.sol\":161:181  address public owner */\n      pop\n      tag_24\n      tag_25\n      jump\t// in\n    tag_24:\n      mload(0x40)\n      dup1\n      dup3\n      0xffffffffffffffffffffffffffffffffffffffff\n      and\n      0xffffffffffffffffffffffffffffffffffffffff\n      and\n      dup2\n      mstore\n      0x20\n      add\n      swap2\n      pop\n      pop\n      mload(0x40)\n      dup1\n      swap2\n      sub\n      swap1\n      return\n        /* \"EasySandBox/Attack.sol\":660:2294  function easy_sandbox(address _addr) public payable {... */\n    tag_7:\n      tag_26\n      0x04\n      dup1\n      calldatasize\n      sub\n        /* \"--CODEGEN--\":13:15   */\n      0x20\n        /* \"--CODEGEN--\":8:11   */\n      dup2\n        /* \"--CODEGEN--\":5:16   */\n      lt\n        /* \"--CODEGEN--\":2:4   */\n      iszero\n      tag_27\n      jumpi\n        /* \"--CODEGEN--\":29:30   */\n      0x00\n        /* \"--CODEGEN--\":26:27   */\n      dup1\n        /* \"--CODEGEN--\":19:31   */\n      revert\n        /* \"--CODEGEN--\":2:4   */\n    tag_27:\n        /* \"EasySandBox/Attack.sol\":660:2294  function easy_sandbox(address _addr) public payable {... */\n      dup2\n      add\n      swap1\n      dup1\n      dup1\n      calldataload\n      0xffffffffffffffffffffffffffffffffffffffff\n      and\n      swap1\n      0x20\n      add\n      swap1\n      swap3\n      swap2\n      swap1\n      pop\n      pop\n      pop\n      tag_28\n      jump\t// in\n    tag_26:\n      stop\n        /* \"EasySandBox/Attack.sol\":114:155  mapping(address => address[]) public sons */\n    tag_11:\n      mstore(0x20, 0x01)\n      dup2\n      0x00\n      mstore\n      keccak256(0x00, 0x40)\n      dup2\n      dup2\n      sload\n      dup2\n      lt\n      tag_29\n      jumpi\n      invalid\n    tag_29:\n      swap1\n      0x00\n      mstore\n      keccak256(0x00, 0x20)\n      add\n      0x00\n      swap2\n      pop\n      swap2\n      pop\n      swap1\n      sload\n      swap1\n      0x0100\n      exp\n      swap1\n      div\n      0xffffffffffffffffffffffffffffffffffffffff\n      and\n      dup2\n      jump\t// out\n        /* \"EasySandBox/Attack.sol\":452:654  function given_gift(uint256 _what, uint256 _where) public {... */\n    tag_15:\n        /* \"EasySandBox/Attack.sol\":533:599  0xd6f21326ab749d5729fcba5677c79037b459436ab7bff709c9d06ce9f10c1a9f */\n      0xd6f21326ab749d5729fcba5677c79037b459436ab7bff709c9d06ce9f10c1a9f\n        /* \"EasySandBox/Attack.sol\":523:529  _where */\n      dup2\n        /* \"EasySandBox/Attack.sol\":523:599  _where != 0xd6f21326ab749d5729fcba5677c79037b459436ab7bff709c9d06ce9f10c1a9f */\n      eq\n        /* \"EasySandBox/Attack.sol\":520:648  if(_where != 0xd6f21326ab749d5729fcba5677c79037b459436ab7bff709c9d06ce9f10c1a9f) {... */\n      tag_32\n      jumpi\n        /* \"EasySandBox/Attack.sol\":632:637  _what */\n      dup2\n        /* \"EasySandBox/Attack.sol\":615:621  writes */\n      0x00\n        /* \"EasySandBox/Attack.sol\":622:628  _where */\n      dup3\n        /* \"EasySandBox/Attack.sol\":615:629  writes[_where] */\n      dup2\n      sload\n      dup2\n      lt\n      tag_33\n      jumpi\n      invalid\n    tag_33:\n      swap1\n      0x00\n      mstore\n      keccak256(0x00, 0x20)\n      add\n        /* \"EasySandBox/Attack.sol\":615:637  writes[_where] = _what */\n      dup2\n      swap1\n      sstore\n      pop\n        /* \"EasySandBox/Attack.sol\":520:648  if(_where != 0xd6f21326ab749d5729fcba5677c79037b459436ab7bff709c9d06ce9f10c1a9f) {... */\n    tag_32:\n        /* \"EasySandBox/Attack.sol\":452:654  function given_gift(uint256 _what, uint256 _where) public {... */\n      pop\n      pop\n      jump\t// out\n        /* \"EasySandBox/Attack.sol\":2305:2402  function isSolved() public view returns (bool) {... */\n    tag_18:\n        /* \"EasySandBox/Attack.sol\":2346:2350  bool */\n      0x00\n        /* \"EasySandBox/Attack.sol\":2394:2395  0 */\n      dup1\n        /* \"EasySandBox/Attack.sol\":2369:2390  address(this).balance */\n      selfbalance\n        /* \"EasySandBox/Attack.sol\":2369:2395  address(this).balance == 0 */\n      eq\n        /* \"EasySandBox/Attack.sol\":2362:2395  return address(this).balance == 0 */\n      swap1\n      pop\n        /* \"EasySandBox/Attack.sol\":2305:2402  function isSolved() public view returns (bool) {... */\n      swap1\n      jump\t// out\n        /* \"EasySandBox/Attack.sol\":85:108  uint256[] public writes */\n    tag_22:\n      0x00\n      dup2\n      dup2\n      sload\n      dup2\n      lt\n      tag_36\n      jumpi\n      invalid\n    tag_36:\n      swap1\n      0x00\n      mstore\n      keccak256(0x00, 0x20)\n      add\n      0x00\n      swap2\n      pop\n      swap1\n      pop\n      sload\n      dup2\n      jump\t// out\n        /* \"EasySandBox/Attack.sol\":161:181  address public owner */\n    tag_25:\n      0x02\n      0x00\n      swap1\n      sload\n      swap1\n      0x0100\n      exp\n      swap1\n      div\n      0xffffffffffffffffffffffffffffffffffffffff\n      and\n      dup2\n      jump\t// out\n        /* \"EasySandBox/Attack.sol\":660:2294  function easy_sandbox(address _addr) public payable {... */\n    tag_28:\n        /* \"EasySandBox/Attack.sol\":772:777  owner */\n      0x02\n      0x00\n      swap1\n      sload\n      swap1\n      0x0100\n      exp\n      swap1\n      div\n      0xffffffffffffffffffffffffffffffffffffffff\n      and\n        /* \"EasySandBox/Attack.sol\":754:777  sons[owner][0] == owner */\n      0xffffffffffffffffffffffffffffffffffffffff\n      and\n        /* \"EasySandBox/Attack.sol\":754:758  sons */\n      0x01\n        /* \"EasySandBox/Attack.sol\":754:765  sons[owner] */\n      0x00\n        /* \"EasySandBox/Attack.sol\":759:764  owner */\n      0x02\n      0x00\n      swap1\n      sload\n      swap1\n      0x0100\n      exp\n      swap1\n      div\n      0xffffffffffffffffffffffffffffffffffffffff\n      and\n        /* \"EasySandBox/Attack.sol\":754:765  sons[owner] */\n      0xffffffffffffffffffffffffffffffffffffffff\n      and\n      0xffffffffffffffffffffffffffffffffffffffff\n      and\n      dup2\n      mstore\n      0x20\n      add\n      swap1\n      dup2\n      mstore\n      0x20\n      add\n      0x00\n      keccak256\n        /* \"EasySandBox/Attack.sol\":766:767  0 */\n      0x00\n        /* \"EasySandBox/Attack.sol\":754:768  sons[owner][0] */\n      dup2\n      sload\n      dup2\n      lt\n      tag_39\n      jumpi\n      invalid\n    tag_39:\n      swap1\n      0x00\n      mstore\n      keccak256(0x00, 0x20)\n      add\n      0x00\n      swap1\n      sload\n      swap1\n      0x0100\n      exp\n      swap1\n      div\n      0xffffffffffffffffffffffffffffffffffffffff\n      and\n        /* \"EasySandBox/Attack.sol\":754:777  sons[owner][0] == owner */\n      0xffffffffffffffffffffffffffffffffffffffff\n      and\n      eq\n        /* \"EasySandBox/Attack.sol\":746:778  require(sons[owner][0] == owner) */\n      tag_41\n      jumpi\n      0x00\n      dup1\n      revert\n    tag_41:\n        /* \"EasySandBox/Attack.sol\":813:814  0 */\n      0x00\n        /* \"EasySandBox/Attack.sol\":796:802  writes */\n      dup1\n        /* \"EasySandBox/Attack.sol\":796:809  writes.length */\n      dup1\n      sload\n      swap1\n      pop\n        /* \"EasySandBox/Attack.sol\":796:814  writes.length != 0 */\n      eq\n      iszero\n        /* \"EasySandBox/Attack.sol\":788:815  require(writes.length != 0) */\n      tag_42\n      jumpi\n      0x00\n      dup1\n      revert\n    tag_42:\n        /* \"EasySandBox/Attack.sol\":825:834  bool mark */\n      0x00\n        /* \"EasySandBox/Attack.sol\":837:842  false */\n      dup1\n        /* \"EasySandBox/Attack.sol\":825:842  bool mark = false */\n      swap1\n      pop\n        /* \"EasySandBox/Attack.sol\":945:954  uint256 i */\n      0x00\n        /* \"EasySandBox/Attack.sol\":957:958  0 */\n      dup1\n        /* \"EasySandBox/Attack.sol\":945:958  uint256 i = 0 */\n      swap1\n      pop\n        /* \"EasySandBox/Attack.sol\":941:1090  for(uint256 i = 0; i < sons[owner].length; i++) {... */\n    tag_43:\n        /* \"EasySandBox/Attack.sol\":964:968  sons */\n      0x01\n        /* \"EasySandBox/Attack.sol\":964:975  sons[owner] */\n      0x00\n        /* \"EasySandBox/Attack.sol\":969:974  owner */\n      0x02\n      0x00\n      swap1\n      sload\n      swap1\n      0x0100\n      exp\n      swap1\n      div\n      0xffffffffffffffffffffffffffffffffffffffff\n      and\n        /* \"EasySandBox/Attack.sol\":964:975  sons[owner] */\n      0xffffffffffffffffffffffffffffffffffffffff\n      and\n      0xffffffffffffffffffffffffffffffffffffffff\n      and\n      dup2\n      mstore\n      0x20\n      add\n      swap1\n      dup2\n      mstore\n      0x20\n      add\n      0x00\n      keccak256\n        /* \"EasySandBox/Attack.sol\":964:982  sons[owner].length */\n      dup1\n      sload\n      swap1\n      pop\n        /* \"EasySandBox/Attack.sol\":960:961  i */\n      dup2\n        /* \"EasySandBox/Attack.sol\":960:982  i < sons[owner].length */\n      lt\n        /* \"EasySandBox/Attack.sol\":941:1090  for(uint256 i = 0; i < sons[owner].length; i++) {... */\n      iszero\n      tag_44\n      jumpi\n        /* \"EasySandBox/Attack.sol\":1020:1024  sons */\n      0x01\n        /* \"EasySandBox/Attack.sol\":1020:1031  sons[owner] */\n      0x00\n        /* \"EasySandBox/Attack.sol\":1025:1030  owner */\n      0x02\n      0x00\n      swap1\n      sload\n      swap1\n      0x0100\n      exp\n      swap1\n      div\n      0xffffffffffffffffffffffffffffffffffffffff\n      and\n        /* \"EasySandBox/Attack.sol\":1020:1031  sons[owner] */\n      0xffffffffffffffffffffffffffffffffffffffff\n      and\n      0xffffffffffffffffffffffffffffffffffffffff\n      and\n      dup2\n      mstore\n      0x20\n      add\n      swap1\n      dup2\n      mstore\n      0x20\n      add\n      0x00\n      keccak256\n        /* \"EasySandBox/Attack.sol\":1032:1033  i */\n      dup2\n        /* \"EasySandBox/Attack.sol\":1020:1034  sons[owner][i] */\n      dup2\n      sload\n      dup2\n      lt\n      tag_46\n      jumpi\n      invalid\n    tag_46:\n      swap1\n      0x00\n      mstore\n      keccak256(0x00, 0x20)\n      add\n      0x00\n      swap1\n      sload\n      swap1\n      0x0100\n      exp\n      swap1\n      div\n      0xffffffffffffffffffffffffffffffffffffffff\n      and\n        /* \"EasySandBox/Attack.sol\":1006:1034  msg.sender == sons[owner][i] */\n      0xffffffffffffffffffffffffffffffffffffffff\n      and\n        /* \"EasySandBox/Attack.sol\":1006:1016  msg.sender */\n      caller\n        /* \"EasySandBox/Attack.sol\":1006:1034  msg.sender == sons[owner][i] */\n      0xffffffffffffffffffffffffffffffffffffffff\n      and\n      eq\n        /* \"EasySandBox/Attack.sol\":1003:1080  if(msg.sender == sons[owner][i]) {... */\n      iszero\n      tag_48\n      jumpi\n        /* \"EasySandBox/Attack.sol\":1061:1065  true */\n      0x01\n        /* \"EasySandBox/Attack.sol\":1054:1065  mark = true */\n      swap2\n      pop\n        /* \"EasySandBox/Attack.sol\":1003:1080  if(msg.sender == sons[owner][i]) {... */\n    tag_48:\n        /* \"EasySandBox/Attack.sol\":984:987  i++ */\n      dup1\n      dup1\n      0x01\n      add\n      swap2\n      pop\n      pop\n        /* \"EasySandBox/Attack.sol\":941:1090  for(uint256 i = 0; i < sons[owner].length; i++) {... */\n      jump(tag_43)\n    tag_44:\n      pop\n        /* \"EasySandBox/Attack.sol\":1107:1111  mark */\n      dup1\n        /* \"EasySandBox/Attack.sol\":1099:1112  require(mark) */\n      tag_49\n      jumpi\n      0x00\n      dup1\n      revert\n    tag_49:\n        /* \"EasySandBox/Attack.sol\":1123:1135  uint256 size */\n      0x00\n        /* \"EasySandBox/Attack.sol\":1145:1162  bytes memory code */\n      0x60\n        /* \"EasySandBox/Attack.sol\":1216:1221  _addr */\n      dup4\n        /* \"EasySandBox/Attack.sol\":1204:1222  extcodesize(_addr) */\n      extcodesize\n        /* \"EasySandBox/Attack.sol\":1196:1222  size := extcodesize(_addr) */\n      swap2\n      pop\n        /* \"EasySandBox/Attack.sol\":1249:1253  0x40 */\n      0x40\n        /* \"EasySandBox/Attack.sol\":1243:1254  mload(0x40) */\n      mload\n        /* \"EasySandBox/Attack.sol\":1235:1254  code := mload(0x40) */\n      swap1\n      pop\n        /* \"EasySandBox/Attack.sol\":1326:1330  0x1f */\n      0x1f\n        /* \"EasySandBox/Attack.sol\":1322:1331  not(0x1f) */\n      not\n        /* \"EasySandBox/Attack.sol\":1315:1319  0x1f */\n      0x1f\n        /* \"EasySandBox/Attack.sol\":1308:1312  0x20 */\n      0x20\n        /* \"EasySandBox/Attack.sol\":1302:1306  size */\n      dup5\n        /* \"EasySandBox/Attack.sol\":1298:1313  add(size, 0x20) */\n      add\n        /* \"EasySandBox/Attack.sol\":1294:1320  add(add(size, 0x20), 0x1f) */\n      add\n        /* \"EasySandBox/Attack.sol\":1290:1332  and(add(add(size, 0x20), 0x1f), not(0x1f)) */\n      and\n        /* \"EasySandBox/Attack.sol\":1284:1288  code */\n      dup2\n        /* \"EasySandBox/Attack.sol\":1280:1333  add(code, and(add(add(size, 0x20), 0x1f), not(0x1f))) */\n      add\n        /* \"EasySandBox/Attack.sol\":1274:1278  0x40 */\n      0x40\n        /* \"EasySandBox/Attack.sol\":1267:1334  mstore(0x40, add(code, and(add(add(size, 0x20), 0x1f), not(0x1f)))) */\n      mstore\n        /* \"EasySandBox/Attack.sol\":1360:1364  size */\n      dup2\n        /* \"EasySandBox/Attack.sol\":1354:1358  code */\n      dup2\n        /* \"EasySandBox/Attack.sol\":1347:1365  mstore(code, size) */\n      mstore\n        /* \"EasySandBox/Attack.sol\":1417:1421  size */\n      dup2\n        /* \"EasySandBox/Attack.sol\":1414:1415  0 */\n      0x00\n        /* \"EasySandBox/Attack.sol\":1407:1411  0x20 */\n      0x20\n        /* \"EasySandBox/Attack.sol\":1401:1405  code */\n      dup4\n        /* \"EasySandBox/Attack.sol\":1397:1412  add(code, 0x20) */\n      add\n        /* \"EasySandBox/Attack.sol\":1390:1395  _addr */\n      dup7\n        /* \"EasySandBox/Attack.sol\":1378:1422  extcodecopy(_addr, add(code, 0x20), 0, size) */\n      extcodecopy\n        /* \"EasySandBox/Attack.sol\":1480:1489  uint256 i */\n      0x00\n        /* \"EasySandBox/Attack.sol\":1492:1493  0 */\n      dup1\n        /* \"EasySandBox/Attack.sol\":1480:1493  uint256 i = 0 */\n      swap1\n      pop\n        /* \"EasySandBox/Attack.sol\":1476:1832  for(uint256 i = 0; i < code.length; i++) {... */\n    tag_50:\n        /* \"EasySandBox/Attack.sol\":1499:1503  code */\n      dup2\n        /* \"EasySandBox/Attack.sol\":1499:1510  code.length */\n      mload\n        /* \"EasySandBox/Attack.sol\":1495:1496  i */\n      dup2\n        /* \"EasySandBox/Attack.sol\":1495:1510  i < code.length */\n      lt\n        /* \"EasySandBox/Attack.sol\":1476:1832  for(uint256 i = 0; i < code.length; i++) {... */\n      iszero\n      tag_51\n      jumpi\n        /* \"EasySandBox/Attack.sol\":1550:1554  0xf0 */\n      0xf0\n        /* \"EasySandBox/Attack.sol\":1539:1554  code[i] != 0xf0 */\n      0xf8\n      shl\n        /* \"EasySandBox/Attack.sol\":1539:1543  code */\n      dup3\n        /* \"EasySandBox/Attack.sol\":1544:1545  i */\n      dup3\n        /* \"EasySandBox/Attack.sol\":1539:1546  code[i] */\n      dup2\n      mload\n      dup2\n      lt\n      tag_53\n      jumpi\n      invalid\n    tag_53:\n      0x20\n      add\n      add\n      mload\n      0xf8\n      shr\n      0xf8\n      shl\n        /* \"EasySandBox/Attack.sol\":1539:1554  code[i] != 0xf0 */\n      not(0xffffffffffffffffffffffffffffffffffffffffffffffffffffffffffffff)\n      and\n      eq\n      iszero\n        /* \"EasySandBox/Attack.sol\":1531:1555  require(code[i] != 0xf0) */\n      tag_54\n      jumpi\n      0x00\n      dup1\n      revert\n    tag_54:\n        /* \"EasySandBox/Attack.sol\":1598:1602  0xf1 */\n      0xf1\n        /* \"EasySandBox/Attack.sol\":1587:1602  code[i] != 0xf1 */\n      0xf8\n      shl\n        /* \"EasySandBox/Attack.sol\":1587:1591  code */\n      dup3\n        /* \"EasySandBox/Attack.sol\":1592:1593  i */\n      dup3\n        /* \"EasySandBox/Attack.sol\":1587:1594  code[i] */\n      dup2\n      mload\n      dup2\n      lt\n      tag_55\n      jumpi\n      invalid\n    tag_55:\n      0x20\n      add\n      add\n      mload\n      0xf8\n      shr\n      0xf8\n      shl\n        /* \"EasySandBox/Attack.sol\":1587:1602  code[i] != 0xf1 */\n      not(0xffffffffffffffffffffffffffffffffffffffffffffffffffffffffffffff)\n      and\n      eq\n      iszero\n        /* \"EasySandBox/Attack.sol\":1579:1603  require(code[i] != 0xf1) */\n      tag_56\n      jumpi\n      0x00\n      dup1\n      revert\n    tag_56:\n        /* \"EasySandBox/Attack.sol\":1644:1648  0xf2 */\n      0xf2\n        /* \"EasySandBox/Attack.sol\":1633:1648  code[i] != 0xf2 */\n      0xf8\n      shl\n        /* \"EasySandBox/Attack.sol\":1633:1637  code */\n      dup3\n        /* \"EasySandBox/Attack.sol\":1638:1639  i */\n      dup3\n        /* \"EasySandBox/Attack.sol\":1633:1640  code[i] */\n      dup2\n      mload\n      dup2\n      lt\n      tag_57\n      jumpi\n      invalid\n    tag_57:\n      0x20\n      add\n      add\n      mload\n      0xf8\n      shr\n      0xf8\n      shl\n        /* \"EasySandBox/Attack.sol\":1633:1648  code[i] != 0xf2 */\n      not(0xffffffffffffffffffffffffffffffffffffffffffffffffffffffffffffff)\n      and\n      eq\n      iszero\n        /* \"EasySandBox/Attack.sol\":1625:1649  require(code[i] != 0xf2) */\n      tag_58\n      jumpi\n      0x00\n      dup1\n      revert\n    tag_58:\n        /* \"EasySandBox/Attack.sol\":1694:1698  0xf4 */\n      0xf4\n        /* \"EasySandBox/Attack.sol\":1683:1698  code[i] != 0xf4 */\n      0xf8\n      shl\n        /* \"EasySandBox/Attack.sol\":1683:1687  code */\n      dup3\n        /* \"EasySandBox/Attack.sol\":1688:1689  i */\n      dup3\n        /* \"EasySandBox/Attack.sol\":1683:1690  code[i] */\n      dup2\n      mload\n      dup2\n      lt\n      tag_59\n      jumpi\n      invalid\n    tag_59:\n      0x20\n      add\n      add\n      mload\n      0xf8\n      shr\n      0xf8\n      shl\n        /* \"EasySandBox/Attack.sol\":1683:1698  code[i] != 0xf4 */\n      not(0xffffffffffffffffffffffffffffffffffffffffffffffffffffffffffffff)\n      and\n      eq\n      iszero\n        /* \"EasySandBox/Attack.sol\":1675:1699  require(code[i] != 0xf4) */\n      tag_60\n      jumpi\n      0x00\n      dup1\n      revert\n    tag_60:\n        /* \"EasySandBox/Attack.sol\":1748:1752  0xfa */\n      0xfa\n        /* \"EasySandBox/Attack.sol\":1737:1752  code[i] != 0xfa */\n      0xf8\n      shl\n        /* \"EasySandBox/Attack.sol\":1737:1741  code */\n      dup3\n        /* \"EasySandBox/Attack.sol\":1742:1743  i */\n      dup3\n        /* \"EasySandBox/Attack.sol\":1737:1744  code[i] */\n      dup2\n      mload\n      dup2\n      lt\n      tag_61\n      jumpi\n      invalid\n    tag_61:\n      0x20\n      add\n      add\n      mload\n      0xf8\n      shr\n      0xf8\n      shl\n        /* \"EasySandBox/Attack.sol\":1737:1752  code[i] != 0xfa */\n      not(0xffffffffffffffffffffffffffffffffffffffffffffffffffffffffffffff)\n      and\n      eq\n      iszero\n        /* \"EasySandBox/Attack.sol\":1729:1753  require(code[i] != 0xfa) */\n      tag_62\n      jumpi\n      0x00\n      dup1\n      revert\n    tag_62:\n        /* \"EasySandBox/Attack.sol\":1800:1804  0xff */\n      0xff\n        /* \"EasySandBox/Attack.sol\":1789:1804  code[i] != 0xff */\n      0xf8\n      shl\n        /* \"EasySandBox/Attack.sol\":1789:1793  code */\n      dup3\n        /* \"EasySandBox/Attack.sol\":1794:1795  i */\n      dup3\n        /* \"EasySandBox/Attack.sol\":1789:1796  code[i] */\n      dup2\n      mload\n      dup2\n      lt\n      tag_63\n      jumpi\n      invalid\n    tag_63:\n      0x20\n      add\n      add\n      mload\n      0xf8\n      shr\n      0xf8\n      shl\n        /* \"EasySandBox/Attack.sol\":1789:1804  code[i] != 0xff */\n      not(0xffffffffffffffffffffffffffffffffffffffffffffffffffffffffffffff)\n      and\n      eq\n      iszero\n        /* \"EasySandBox/Attack.sol\":1781:1805  require(code[i] != 0xff) */\n      tag_64\n      jumpi\n      0x00\n      dup1\n      revert\n    tag_64:\n        /* \"EasySandBox/Attack.sol\":1512:1515  i++ */\n      dup1\n      dup1\n      0x01\n      add\n      swap2\n      pop\n      pop\n        /* \"EasySandBox/Attack.sol\":1476:1832  for(uint256 i = 0; i < code.length; i++) {... */\n      jump(tag_50)\n    tag_51:\n      pop\n        /* \"EasySandBox/Attack.sol\":1842:1854  bool success */\n      0x00\n        /* \"EasySandBox/Attack.sol\":1864:1878  bytes memory _ */\n      0x60\n        /* \"EasySandBox/Attack.sol\":2041:2046  _addr */\n      dup6\n        /* \"EasySandBox/Attack.sol\":2041:2059  _addr.delegatecall */\n      0xffffffffffffffffffffffffffffffffffffffff\n      and\n        /* \"EasySandBox/Attack.sol\":2041:2063  _addr.delegatecall(\"\") */\n      mload(0x40)\n      dup1\n      0x00\n      add\n      swap1\n      pop\n      0x00\n      mload(0x40)\n      dup1\n      dup4\n      sub\n      dup2\n      dup6\n      gas\n      delegatecall\n      swap2\n      pop\n      pop\n      returndatasize\n        /* \"--CODEGEN--\":14:15   */\n      dup1\n        /* \"--CODEGEN--\":21:22   */\n      0x00\n        /* \"--CODEGEN--\":16:47   */\n      dup2\n      eq\n      tag_66\n      jumpi\n        /* \"--CODEGEN--\":75:79   */\n      0x40\n        /* \"--CODEGEN--\":69:80   */\n      mload\n        /* \"--CODEGEN--\":64:80   */\n      swap2\n      pop\n        /* \"--CODEGEN--\":144:148   */\n      0x1f\n        /* \"--CODEGEN--\":140:149   */\n      not\n        /* \"--CODEGEN--\":133:137   */\n      0x3f\n        /* \"--CODEGEN--\":115:131   */\n      returndatasize\n        /* \"--CODEGEN--\":111:138   */\n      add\n        /* \"--CODEGEN--\":107:150   */\n      and\n        /* \"--CODEGEN--\":104:105   */\n      dup3\n        /* \"--CODEGEN--\":100:151   */\n      add\n        /* \"--CODEGEN--\":94:98   */\n      0x40\n        /* \"--CODEGEN--\":87:152   */\n      mstore\n        /* \"--CODEGEN--\":169:185   */\n      returndatasize\n        /* \"--CODEGEN--\":166:167   */\n      dup3\n        /* \"--CODEGEN--\":159:186   */\n      mstore\n        /* \"--CODEGEN--\":225:241   */\n      returndatasize\n        /* \"--CODEGEN--\":222:223   */\n      0x00\n        /* \"--CODEGEN--\":215:219   */\n      0x20\n        /* \"--CODEGEN--\":212:213   */\n      dup5\n        /* \"--CODEGEN--\":208:220   */\n      add\n        /* \"--CODEGEN--\":193:242   */\n      returndatacopy\n        /* \"--CODEGEN--\":7:249   */\n      jump(tag_65)\n        /* \"--CODEGEN--\":16:47   */\n    tag_66:\n        /* \"--CODEGEN--\":36:40   */\n      0x60\n        /* \"--CODEGEN--\":31:40   */\n      swap2\n      pop\n        /* \"--CODEGEN--\":7:249   */\n    tag_65:\n      pop\n        /* \"EasySandBox/Attack.sol\":2026:2063  (success, _) = _addr.delegatecall(\"\") */\n      dup1\n      swap3\n      pop\n      dup2\n      swap4\n      pop\n      pop\n      pop\n        /* \"EasySandBox/Attack.sol\":2081:2088  success */\n      dup2\n        /* \"EasySandBox/Attack.sol\":2073:2089  require(success) */\n      tag_67\n      jumpi\n      0x00\n      dup1\n      revert\n    tag_67:\n        /* \"EasySandBox/Attack.sol\":2150:2151  0 */\n      0x00\n        /* \"EasySandBox/Attack.sol\":2133:2139  writes */\n      dup1\n        /* \"EasySandBox/Attack.sol\":2133:2146  writes.length */\n      dup1\n      sload\n      swap1\n      pop\n        /* \"EasySandBox/Attack.sol\":2133:2151  writes.length == 0 */\n      eq\n        /* \"EasySandBox/Attack.sol\":2125:2152  require(writes.length == 0) */\n      tag_68\n      jumpi\n      0x00\n      dup1\n      revert\n    tag_68:\n        /* \"EasySandBox/Attack.sol\":2254:2255  1 */\n      0x01\n        /* \"EasySandBox/Attack.sol\":2232:2236  sons */\n      dup1\n        /* \"EasySandBox/Attack.sol\":2232:2243  sons[owner] */\n      0x00\n        /* \"EasySandBox/Attack.sol\":2237:2242  owner */\n      0x02\n      0x00\n      swap1\n      sload\n      swap1\n      0x0100\n      exp\n      swap1\n      div\n      0xffffffffffffffffffffffffffffffffffffffff\n      and\n        /* \"EasySandBox/Attack.sol\":2232:2243  sons[owner] */\n      0xffffffffffffffffffffffffffffffffffffffff\n      and\n      0xffffffffffffffffffffffffffffffffffffffff\n      and\n      dup2\n      mstore\n      0x20\n      add\n      swap1\n      dup2\n      mstore\n      0x20\n      add\n      0x00\n      keccak256\n        /* \"EasySandBox/Attack.sol\":2232:2250  sons[owner].length */\n      dup1\n      sload\n      swap1\n      pop\n        /* \"EasySandBox/Attack.sol\":2232:2255  sons[owner].length == 1 */\n      eq\n        /* \"EasySandBox/Attack.sol\":2232:2286  sons[owner].length == 1 && sons[owner][0] == tx.origin */\n      dup1\n      iszero\n      tag_69\n      jumpi\n      pop\n        /* \"EasySandBox/Attack.sol\":2277:2286  tx.origin */\n      origin\n        /* \"EasySandBox/Attack.sol\":2259:2286  sons[owner][0] == tx.origin */\n      0xffffffffffffffffffffffffffffffffffffffff\n      and\n        /* \"EasySandBox/Attack.sol\":2259:2263  sons */\n      0x01\n        /* \"EasySandBox/Attack.sol\":2259:2270  sons[owner] */\n      0x00\n        /* \"EasySandBox/Attack.sol\":2264:2269  owner */\n      0x02\n      0x00\n      swap1\n      sload\n      swap1\n      0x0100\n      exp\n      swap1\n      div\n      0xffffffffffffffffffffffffffffffffffffffff\n      and\n        /* \"EasySandBox/Attack.sol\":2259:2270  sons[owner] */\n      0xffffffffffffffffffffffffffffffffffffffff\n      and\n      0xffffffffffffffffffffffffffffffffffffffff\n      and\n      dup2\n      mstore\n      0x20\n      add\n      swap1\n      dup2\n      mstore\n      0x20\n      add\n      0x00\n      keccak256\n        /* \"EasySandBox/Attack.sol\":2271:2272  0 */\n      0x00\n        /* \"EasySandBox/Attack.sol\":2259:2273  sons[owner][0] */\n      dup2\n      sload\n      dup2\n      lt\n      tag_70\n      jumpi\n      invalid\n    tag_70:\n      swap1\n      0x00\n      mstore\n      keccak256(0x00, 0x20)\n      add\n      0x00\n      swap1\n      sload\n      swap1\n      0x0100\n      exp\n      swap1\n      div\n      0xffffffffffffffffffffffffffffffffffffffff\n      and\n        /* \"EasySandBox/Attack.sol\":2259:2286  sons[owner][0] == tx.origin */\n      0xffffffffffffffffffffffffffffffffffffffff\n      and\n      eq\n        /* \"EasySandBox/Attack.sol\":2232:2286  sons[owner].length == 1 && sons[owner][0] == tx.origin */\n    tag_69:\n        /* \"EasySandBox/Attack.sol\":2224:2287  require(sons[owner].length == 1 && sons[owner][0] == tx.origin) */\n      tag_72\n      jumpi\n      0x00\n      dup1\n      revert\n    tag_72:\n        /* \"EasySandBox/Attack.sol\":660:2294  function easy_sandbox(address _addr) public payable {... */\n      pop\n      pop\n      pop\n      pop\n      pop\n      pop\n      jump\t// out\n\n    auxdata: 0xa265627a7a723158203c5d829f879ff4ec1b8247f9e9af43cc488486aa58303d6dab8ed0aaceb42d9e64736f6c63430005110032\n}\n",
				"bytecode": {
					"linkReferences": {},
					"object": "6080604052600060035533600260006101000a81548173ffffffffffffffffffffffffffffffffffffffff021916908373ffffffffffffffffffffffffffffffffffffffff160217905550600160003373ffffffffffffffffffffffffffffffffffffffff1673ffffffffffffffffffffffffffffffffffffffff1681526020019081526020016000203390806001815401808255809150509060018203906000526020600020016000909192909190916101000a81548173ffffffffffffffffffffffffffffffffffffffff021916908373ffffffffffffffffffffffffffffffffffffffff160217905550506001600081818054905003915081610105919061010b565b5061015c565b815481835581811115610132578183600052602060002091820191016101319190610137565b5b505050565b61015991905b8082111561015557600081600090555060010161013d565b5090565b90565b6109978061016b6000396000f3fe6080604052600436106100555760003560e01c8063281d06191461005a5780635e08b9d5146100f557806364d98f6e1461013a57806374e3fb3e146101695780638da5cb5b146101b8578063c94103b11461020f575b600080fd5b34801561006657600080fd5b506100b36004803603604081101561007d57600080fd5b81019080803573ffffffffffffffffffffffffffffffffffffffff16906020019092919080359060200190929190505050610253565b604051808273ffffffffffffffffffffffffffffffffffffffff1673ffffffffffffffffffffffffffffffffffffffff16815260200191505060405180910390f35b34801561010157600080fd5b506101386004803603604081101561011857600080fd5b81019080803590602001909291908035906020019092919050505061029e565b005b34801561014657600080fd5b5061014f6102e6565b604051808215151515815260200191505060405180910390f35b34801561017557600080fd5b506101a26004803603602081101561018c57600080fd5b81019080803590602001909291905050506102f0565b6040518082815260200191505060405180910390f35b3480156101c457600080fd5b506101cd610311565b604051808273ffffffffffffffffffffffffffffffffffffffff1673ffffffffffffffffffffffffffffffffffffffff16815260200191505060405180910390f35b6102516004803603602081101561022557600080fd5b81019080803573ffffffffffffffffffffffffffffffffffffffff169060200190929190505050610337565b005b6001602052816000526040600020818154811061026c57fe5b906000526020600020016000915091509054906101000a900473ffffffffffffffffffffffffffffffffffffffff1681565b7fd6f21326ab749d5729fcba5677c79037b459436ab7bff709c9d06ce9f10c1a9f81146102e25781600082815481106102d357fe5b90600052602060002001819055505b5050565b6000804714905090565b600081815481106102fd57fe5b906000526020600020016000915090505481565b600260009054906101000a900473ffffffffffffffffffffffffffffffffffffffff1681565b600260009054906101000a900473ffffffffffffffffffffffffffffffffffffffff1673ffffffffffffffffffffffffffffffffffffffff1660016000600260009054906101000a900473ffffffffffffffffffffffffffffffffffffffff1673ffffffffffffffffffffffffffffffffffffffff1673ffffffffffffffffffffffffffffffffffffffff1681526020019081526020016000206000815481106103dd57fe5b9060005260206000200160009054906101000a900473ffffffffffffffffffffffffffffffffffffffff1673ffffffffffffffffffffffffffffffffffffffff161461042857600080fd5b60008080549050141561043a57600080fd5b600080905060008090505b60016000600260009054906101000a900473ffffffffffffffffffffffffffffffffffffffff1673ffffffffffffffffffffffffffffffffffffffff1673ffffffffffffffffffffffffffffffffffffffff1681526020019081526020016000208054905081101561058d5760016000600260009054906101000a900473ffffffffffffffffffffffffffffffffffffffff1673ffffffffffffffffffffffffffffffffffffffff1673ffffffffffffffffffffffffffffffffffffffff168152602001908152602001600020818154811061051d57fe5b9060005260206000200160009054906101000a900473ffffffffffffffffffffffffffffffffffffffff1673ffffffffffffffffffffffffffffffffffffffff163373ffffffffffffffffffffffffffffffffffffffff16141561058057600191505b8080600101915050610445565b508061059857600080fd5b60006060833b91506040519050601f19601f602084010116810160405281815281600060208301863c60008090505b81518110156107935760f060f81b8282815181106105e157fe5b602001015160f81c60f81b7effffffffffffffffffffffffffffffffffffffffffffffffffffffffffffff1916141561061957600080fd5b60f160f81b82828151811061062a57fe5b602001015160f81c60f81b7effffffffffffffffffffffffffffffffffffffffffffffffffffffffffffff1916141561066257600080fd5b60f260f81b82828151811061067357fe5b602001015160f81c60f81b7effffffffffffffffffffffffffffffffffffffffffffffffffffffffffffff191614156106ab57600080fd5b60f460f81b8282815181106106bc57fe5b602001015160f81c60f81b7effffffffffffffffffffffffffffffffffffffffffffffffffffffffffffff191614156106f457600080fd5b60fa60f81b82828151811061070557fe5b602001015160f81c60f81b7effffffffffffffffffffffffffffffffffffffffffffffffffffffffffffff1916141561073d57600080fd5b60ff60f81b82828151811061074e57fe5b602001015160f81c60f81b7effffffffffffffffffffffffffffffffffffffffffffffffffffffffffffff1916141561078657600080fd5b80806001019150506105c7565b50600060608573ffffffffffffffffffffffffffffffffffffffff16604051806000019050600060405180830381855af49150503d80600081146107f3576040519150601f19603f3d011682016040523d82523d6000602084013e6107f8565b606091505b5080925081935050508161080b57600080fd5b600080805490501461081c57600080fd5b6001806000600260009054906101000a900473ffffffffffffffffffffffffffffffffffffffff1673ffffffffffffffffffffffffffffffffffffffff1673ffffffffffffffffffffffffffffffffffffffff1681526020019081526020016000208054905014801561095157503273ffffffffffffffffffffffffffffffffffffffff1660016000600260009054906101000a900473ffffffffffffffffffffffffffffffffffffffff1673ffffffffffffffffffffffffffffffffffffffff1673ffffffffffffffffffffffffffffffffffffffff16815260200190815260200160002060008154811061090e57fe5b9060005260206000200160009054906101000a900473ffffffffffffffffffffffffffffffffffffffff1673ffffffffffffffffffffffffffffffffffffffff16145b61095a57600080fd5b50505050505056fea265627a7a723158203c5d829f879ff4ec1b8247f9e9af43cc488486aa58303d6dab8ed0aaceb42d9e64736f6c63430005110032",
					"opcodes": "PUSH1 0x80 PUSH1 0x40 MSTORE PUSH1 0x0 PUSH1 0x3 SSTORE CALLER PUSH1 0x2 PUSH1 0x0 PUSH2 0x100 EXP DUP2 SLOAD DUP2 PUSH20 0xFFFFFFFFFFFFFFFFFFFFFFFFFFFFFFFFFFFFFFFF MUL NOT AND SWAP1 DUP4 PUSH20 0xFFFFFFFFFFFFFFFFFFFFFFFFFFFFFFFFFFFFFFFF AND MUL OR SWAP1 SSTORE POP PUSH1 0x1 PUSH1 0x0 CALLER PUSH20 0xFFFFFFFFFFFFFFFFFFFFFFFFFFFFFFFFFFFFFFFF AND PUSH20 0xFFFFFFFFFFFFFFFFFFFFFFFFFFFFFFFFFFFFFFFF AND DUP2 MSTORE PUSH1 0x20 ADD SWAP1 DUP2 MSTORE PUSH1 0x20 ADD PUSH1 0x0 KECCAK256 CALLER SWAP1 DUP1 PUSH1 0x1 DUP2 SLOAD ADD DUP1 DUP3 SSTORE DUP1 SWAP2 POP POP SWAP1 PUSH1 0x1 DUP3 SUB SWAP1 PUSH1 0x0 MSTORE PUSH1 0x20 PUSH1 0x0 KECCAK256 ADD PUSH1 0x0 SWAP1 SWAP2 SWAP3 SWAP1 SWAP2 SWAP1 SWAP2 PUSH2 0x100 EXP DUP2 SLOAD DUP2 PUSH20 0xFFFFFFFFFFFFFFFFFFFFFFFFFFFFFFFFFFFFFFFF MUL NOT AND SWAP1 DUP4 PUSH20 0xFFFFFFFFFFFFFFFFFFFFFFFFFFFFFFFFFFFFFFFF AND MUL OR SWAP1 SSTORE POP POP PUSH1 0x1 PUSH1 0x0 DUP2 DUP2 DUP1 SLOAD SWAP1 POP SUB SWAP2 POP DUP2 PUSH2 0x105 SWAP2 SWAP1 PUSH2 0x10B JUMP JUMPDEST POP PUSH2 0x15C JUMP JUMPDEST DUP2 SLOAD DUP2 DUP4 SSTORE DUP2 DUP2 GT ISZERO PUSH2 0x132 JUMPI DUP2 DUP4 PUSH1 0x0 MSTORE PUSH1 0x20 PUSH1 0x0 KECCAK256 SWAP2 DUP3 ADD SWAP2 ADD PUSH2 0x131 SWAP2 SWAP1 PUSH2 0x137 JUMP JUMPDEST JUMPDEST POP POP POP JUMP JUMPDEST PUSH2 0x159 SWAP2 SWAP1 JUMPDEST DUP1 DUP3 GT ISZERO PUSH2 0x155 JUMPI PUSH1 0x0 DUP2 PUSH1 0x0 SWAP1 SSTORE POP PUSH1 0x1 ADD PUSH2 0x13D JUMP JUMPDEST POP SWAP1 JUMP JUMPDEST SWAP1 JUMP JUMPDEST PUSH2 0x997 DUP1 PUSH2 0x16B PUSH1 0x0 CODECOPY PUSH1 0x0 RETURN INVALID PUSH1 0x80 PUSH1 0x40 MSTORE PUSH1 0x4 CALLDATASIZE LT PUSH2 0x55 JUMPI PUSH1 0x0 CALLDATALOAD PUSH1 0xE0 SHR DUP1 PUSH4 0x281D0619 EQ PUSH2 0x5A JUMPI DUP1 PUSH4 0x5E08B9D5 EQ PUSH2 0xF5 JUMPI DUP1 PUSH4 0x64D98F6E EQ PUSH2 0x13A JUMPI DUP1 PUSH4 0x74E3FB3E EQ PUSH2 0x169 JUMPI DUP1 PUSH4 0x8DA5CB5B EQ PUSH2 0x1B8 JUMPI DUP1 PUSH4 0xC94103B1 EQ PUSH2 0x20F JUMPI JUMPDEST PUSH1 0x0 DUP1 REVERT JUMPDEST CALLVALUE DUP1 ISZERO PUSH2 0x66 JUMPI PUSH1 0x0 DUP1 REVERT JUMPDEST POP PUSH2 0xB3 PUSH1 0x4 DUP1 CALLDATASIZE SUB PUSH1 0x40 DUP2 LT ISZERO PUSH2 0x7D JUMPI PUSH1 0x0 DUP1 REVERT JUMPDEST DUP2 ADD SWAP1 DUP1 DUP1 CALLDATALOAD PUSH20 0xFFFFFFFFFFFFFFFFFFFFFFFFFFFFFFFFFFFFFFFF AND SWAP1 PUSH1 0x20 ADD SWAP1 SWAP3 SWAP2 SWAP1 DUP1 CALLDATALOAD SWAP1 PUSH1 0x20 ADD SWAP1 SWAP3 SWAP2 SWAP1 POP POP POP PUSH2 0x253 JUMP JUMPDEST PUSH1 0x40 MLOAD DUP1 DUP3 PUSH20 0xFFFFFFFFFFFFFFFFFFFFFFFFFFFFFFFFFFFFFFFF AND PUSH20 0xFFFFFFFFFFFFFFFFFFFFFFFFFFFFFFFFFFFFFFFF AND DUP2 MSTORE PUSH1 0x20 ADD SWAP2 POP POP PUSH1 0x40 MLOAD DUP1 SWAP2 SUB SWAP1 RETURN JUMPDEST CALLVALUE DUP1 ISZERO PUSH2 0x101 JUMPI PUSH1 0x0 DUP1 REVERT JUMPDEST POP PUSH2 0x138 PUSH1 0x4 DUP1 CALLDATASIZE SUB PUSH1 0x40 DUP2 LT ISZERO PUSH2 0x118 JUMPI PUSH1 0x0 DUP1 REVERT JUMPDEST DUP2 ADD SWAP1 DUP1 DUP1 CALLDATALOAD SWAP1 PUSH1 0x20 ADD SWAP1 SWAP3 SWAP2 SWAP1 DUP1 CALLDATALOAD SWAP1 PUSH1 0x20 ADD SWAP1 SWAP3 SWAP2 SWAP1 POP POP POP PUSH2 0x29E JUMP JUMPDEST STOP JUMPDEST CALLVALUE DUP1 ISZERO PUSH2 0x146 JUMPI PUSH1 0x0 DUP1 REVERT JUMPDEST POP PUSH2 0x14F PUSH2 0x2E6 JUMP JUMPDEST PUSH1 0x40 MLOAD DUP1 DUP3 ISZERO ISZERO ISZERO ISZERO DUP2 MSTORE PUSH1 0x20 ADD SWAP2 POP POP PUSH1 0x40 MLOAD DUP1 SWAP2 SUB SWAP1 RETURN JUMPDEST CALLVALUE DUP1 ISZERO PUSH2 0x175 JUMPI PUSH1 0x0 DUP1 REVERT JUMPDEST POP PUSH2 0x1A2 PUSH1 0x4 DUP1 CALLDATASIZE SUB PUSH1 0x20 DUP2 LT ISZERO PUSH2 0x18C JUMPI PUSH1 0x0 DUP1 REVERT JUMPDEST DUP2 ADD SWAP1 DUP1 DUP1 CALLDATALOAD SWAP1 PUSH1 0x20 ADD SWAP1 SWAP3 SWAP2 SWAP1 POP POP POP PUSH2 0x2F0 JUMP JUMPDEST PUSH1 0x40 MLOAD DUP1 DUP3 DUP2 MSTORE PUSH1 0x20 ADD SWAP2 POP POP PUSH1 0x40 MLOAD DUP1 SWAP2 SUB SWAP1 RETURN JUMPDEST CALLVALUE DUP1 ISZERO PUSH2 0x1C4 JUMPI PUSH1 0x0 DUP1 REVERT JUMPDEST POP PUSH2 0x1CD PUSH2 0x311 JUMP JUMPDEST PUSH1 0x40 MLOAD DUP1 DUP3 PUSH20 0xFFFFFFFFFFFFFFFFFFFFFFFFFFFFFFFFFFFFFFFF AND PUSH20 0xFFFFFFFFFFFFFFFFFFFFFFFFFFFFFFFFFFFFFFFF AND DUP2 MSTORE PUSH1 0x20 ADD SWAP2 POP POP PUSH1 0x40 MLOAD DUP1 SWAP2 SUB SWAP1 RETURN JUMPDEST PUSH2 0x251 PUSH1 0x4 DUP1 CALLDATASIZE SUB PUSH1 0x20 DUP2 LT ISZERO PUSH2 0x225 JUMPI PUSH1 0x0 DUP1 REVERT JUMPDEST DUP2 ADD SWAP1 DUP1 DUP1 CALLDATALOAD PUSH20 0xFFFFFFFFFFFFFFFFFFFFFFFFFFFFFFFFFFFFFFFF AND SWAP1 PUSH1 0x20 ADD SWAP1 SWAP3 SWAP2 SWAP1 POP POP POP PUSH2 0x337 JUMP JUMPDEST STOP JUMPDEST PUSH1 0x1 PUSH1 0x20 MSTORE DUP2 PUSH1 0x0 MSTORE PUSH1 0x40 PUSH1 0x0 KECCAK256 DUP2 DUP2 SLOAD DUP2 LT PUSH2 0x26C JUMPI INVALID JUMPDEST SWAP1 PUSH1 0x0 MSTORE PUSH1 0x20 PUSH1 0x0 KECCAK256 ADD PUSH1 0x0 SWAP2 POP SWAP2 POP SWAP1 SLOAD SWAP1 PUSH2 0x100 EXP SWAP1 DIV PUSH20 0xFFFFFFFFFFFFFFFFFFFFFFFFFFFFFFFFFFFFFFFF AND DUP2 JUMP JUMPDEST PUSH32 0xD6F21326AB749D5729FCBA5677C79037B459436AB7BFF709C9D06CE9F10C1A9F DUP2 EQ PUSH2 0x2E2 JUMPI DUP2 PUSH1 0x0 DUP3 DUP2 SLOAD DUP2 LT PUSH2 0x2D3 JUMPI INVALID JUMPDEST SWAP1 PUSH1 0x0 MSTORE PUSH1 0x20 PUSH1 0x0 KECCAK256 ADD DUP2 SWAP1 SSTORE POP JUMPDEST POP POP JUMP JUMPDEST PUSH1 0x0 DUP1 SELFBALANCE EQ SWAP1 POP SWAP1 JUMP JUMPDEST PUSH1 0x0 DUP2 DUP2 SLOAD DUP2 LT PUSH2 0x2FD JUMPI INVALID JUMPDEST SWAP1 PUSH1 0x0 MSTORE PUSH1 0x20 PUSH1 0x0 KECCAK256 ADD PUSH1 0x0 SWAP2 POP SWAP1 POP SLOAD DUP2 JUMP JUMPDEST PUSH1 0x2 PUSH1 0x0 SWAP1 SLOAD SWAP1 PUSH2 0x100 EXP SWAP1 DIV PUSH20 0xFFFFFFFFFFFFFFFFFFFFFFFFFFFFFFFFFFFFFFFF AND DUP2 JUMP JUMPDEST PUSH1 0x2 PUSH1 0x0 SWAP1 SLOAD SWAP1 PUSH2 0x100 EXP SWAP1 DIV PUSH20 0xFFFFFFFFFFFFFFFFFFFFFFFFFFFFFFFFFFFFFFFF AND PUSH20 0xFFFFFFFFFFFFFFFFFFFFFFFFFFFFFFFFFFFFFFFF AND PUSH1 0x1 PUSH1 0x0 PUSH1 0x2 PUSH1 0x0 SWAP1 SLOAD SWAP1 PUSH2 0x100 EXP SWAP1 DIV PUSH20 0xFFFFFFFFFFFFFFFFFFFFFFFFFFFFFFFFFFFFFFFF AND PUSH20 0xFFFFFFFFFFFFFFFFFFFFFFFFFFFFFFFFFFFFFFFF AND PUSH20 0xFFFFFFFFFFFFFFFFFFFFFFFFFFFFFFFFFFFFFFFF AND DUP2 MSTORE PUSH1 0x20 ADD SWAP1 DUP2 MSTORE PUSH1 0x20 ADD PUSH1 0x0 KECCAK256 PUSH1 0x0 DUP2 SLOAD DUP2 LT PUSH2 0x3DD JUMPI INVALID JUMPDEST SWAP1 PUSH1 0x0 MSTORE PUSH1 0x20 PUSH1 0x0 KECCAK256 ADD PUSH1 0x0 SWAP1 SLOAD SWAP1 PUSH2 0x100 EXP SWAP1 DIV PUSH20 0xFFFFFFFFFFFFFFFFFFFFFFFFFFFFFFFFFFFFFFFF AND PUSH20 0xFFFFFFFFFFFFFFFFFFFFFFFFFFFFFFFFFFFFFFFF AND EQ PUSH2 0x428 JUMPI PUSH1 0x0 DUP1 REVERT JUMPDEST PUSH1 0x0 DUP1 DUP1 SLOAD SWAP1 POP EQ ISZERO PUSH2 0x43A JUMPI PUSH1 0x0 DUP1 REVERT JUMPDEST PUSH1 0x0 DUP1 SWAP1 POP PUSH1 0x0 DUP1 SWAP1 POP JUMPDEST PUSH1 0x1 PUSH1 0x0 PUSH1 0x2 PUSH1 0x0 SWAP1 SLOAD SWAP1 PUSH2 0x100 EXP SWAP1 DIV PUSH20 0xFFFFFFFFFFFFFFFFFFFFFFFFFFFFFFFFFFFFFFFF AND PUSH20 0xFFFFFFFFFFFFFFFFFFFFFFFFFFFFFFFFFFFFFFFF AND PUSH20 0xFFFFFFFFFFFFFFFFFFFFFFFFFFFFFFFFFFFFFFFF AND DUP2 MSTORE PUSH1 0x20 ADD SWAP1 DUP2 MSTORE PUSH1 0x20 ADD PUSH1 0x0 KECCAK256 DUP1 SLOAD SWAP1 POP DUP2 LT ISZERO PUSH2 0x58D JUMPI PUSH1 0x1 PUSH1 0x0 PUSH1 0x2 PUSH1 0x0 SWAP1 SLOAD SWAP1 PUSH2 0x100 EXP SWAP1 DIV PUSH20 0xFFFFFFFFFFFFFFFFFFFFFFFFFFFFFFFFFFFFFFFF AND PUSH20 0xFFFFFFFFFFFFFFFFFFFFFFFFFFFFFFFFFFFFFFFF AND PUSH20 0xFFFFFFFFFFFFFFFFFFFFFFFFFFFFFFFFFFFFFFFF AND DUP2 MSTORE PUSH1 0x20 ADD SWAP1 DUP2 MSTORE PUSH1 0x20 ADD PUSH1 0x0 KECCAK256 DUP2 DUP2 SLOAD DUP2 LT PUSH2 0x51D JUMPI INVALID JUMPDEST SWAP1 PUSH1 0x0 MSTORE PUSH1 0x20 PUSH1 0x0 KECCAK256 ADD PUSH1 0x0 SWAP1 SLOAD SWAP1 PUSH2 0x100 EXP SWAP1 DIV PUSH20 0xFFFFFFFFFFFFFFFFFFFFFFFFFFFFFFFFFFFFFFFF AND PUSH20 0xFFFFFFFFFFFFFFFFFFFFFFFFFFFFFFFFFFFFFFFF AND CALLER PUSH20 0xFFFFFFFFFFFFFFFFFFFFFFFFFFFFFFFFFFFFFFFF AND EQ ISZERO PUSH2 0x580 JUMPI PUSH1 0x1 SWAP2 POP JUMPDEST DUP1 DUP1 PUSH1 0x1 ADD SWAP2 POP POP PUSH2 0x445 JUMP JUMPDEST POP DUP1 PUSH2 0x598 JUMPI PUSH1 0x0 DUP1 REVERT JUMPDEST PUSH1 0x0 PUSH1 0x60 DUP4 EXTCODESIZE SWAP2 POP PUSH1 0x40 MLOAD SWAP1 POP PUSH1 0x1F NOT PUSH1 0x1F PUSH1 0x20 DUP5 ADD ADD AND DUP2 ADD PUSH1 0x40 MSTORE DUP2 DUP2 MSTORE DUP2 PUSH1 0x0 PUSH1 0x20 DUP4 ADD DUP7 EXTCODECOPY PUSH1 0x0 DUP1 SWAP1 POP JUMPDEST DUP2 MLOAD DUP2 LT ISZERO PUSH2 0x793 JUMPI PUSH1 0xF0 PUSH1 0xF8 SHL DUP3 DUP3 DUP2 MLOAD DUP2 LT PUSH2 0x5E1 JUMPI INVALID JUMPDEST PUSH1 0x20 ADD ADD MLOAD PUSH1 0xF8 SHR PUSH1 0xF8 SHL PUSH31 0xFFFFFFFFFFFFFFFFFFFFFFFFFFFFFFFFFFFFFFFFFFFFFFFFFFFFFFFFFFFFFF NOT AND EQ ISZERO PUSH2 0x619 JUMPI PUSH1 0x0 DUP1 REVERT JUMPDEST PUSH1 0xF1 PUSH1 0xF8 SHL DUP3 DUP3 DUP2 MLOAD DUP2 LT PUSH2 0x62A JUMPI INVALID JUMPDEST PUSH1 0x20 ADD ADD MLOAD PUSH1 0xF8 SHR PUSH1 0xF8 SHL PUSH31 0xFFFFFFFFFFFFFFFFFFFFFFFFFFFFFFFFFFFFFFFFFFFFFFFFFFFFFFFFFFFFFF NOT AND EQ ISZERO PUSH2 0x662 JUMPI PUSH1 0x0 DUP1 REVERT JUMPDEST PUSH1 0xF2 PUSH1 0xF8 SHL DUP3 DUP3 DUP2 MLOAD DUP2 LT PUSH2 0x673 JUMPI INVALID JUMPDEST PUSH1 0x20 ADD ADD MLOAD PUSH1 0xF8 SHR PUSH1 0xF8 SHL PUSH31 0xFFFFFFFFFFFFFFFFFFFFFFFFFFFFFFFFFFFFFFFFFFFFFFFFFFFFFFFFFFFFFF NOT AND EQ ISZERO PUSH2 0x6AB JUMPI PUSH1 0x0 DUP1 REVERT JUMPDEST PUSH1 0xF4 PUSH1 0xF8 SHL DUP3 DUP3 DUP2 MLOAD DUP2 LT PUSH2 0x6BC JUMPI INVALID JUMPDEST PUSH1 0x20 ADD ADD MLOAD PUSH1 0xF8 SHR PUSH1 0xF8 SHL PUSH31 0xFFFFFFFFFFFFFFFFFFFFFFFFFFFFFFFFFFFFFFFFFFFFFFFFFFFFFFFFFFFFFF NOT AND EQ ISZERO PUSH2 0x6F4 JUMPI PUSH1 0x0 DUP1 REVERT JUMPDEST PUSH1 0xFA PUSH1 0xF8 SHL DUP3 DUP3 DUP2 MLOAD DUP2 LT PUSH2 0x705 JUMPI INVALID JUMPDEST PUSH1 0x20 ADD ADD MLOAD PUSH1 0xF8 SHR PUSH1 0xF8 SHL PUSH31 0xFFFFFFFFFFFFFFFFFFFFFFFFFFFFFFFFFFFFFFFFFFFFFFFFFFFFFFFFFFFFFF NOT AND EQ ISZERO PUSH2 0x73D JUMPI PUSH1 0x0 DUP1 REVERT JUMPDEST PUSH1 0xFF PUSH1 0xF8 SHL DUP3 DUP3 DUP2 MLOAD DUP2 LT PUSH2 0x74E JUMPI INVALID JUMPDEST PUSH1 0x20 ADD ADD MLOAD PUSH1 0xF8 SHR PUSH1 0xF8 SHL PUSH31 0xFFFFFFFFFFFFFFFFFFFFFFFFFFFFFFFFFFFFFFFFFFFFFFFFFFFFFFFFFFFFFF NOT AND EQ ISZERO PUSH2 0x786 JUMPI PUSH1 0x0 DUP1 REVERT JUMPDEST DUP1 DUP1 PUSH1 0x1 ADD SWAP2 POP POP PUSH2 0x5C7 JUMP JUMPDEST POP PUSH1 0x0 PUSH1 0x60 DUP6 PUSH20 0xFFFFFFFFFFFFFFFFFFFFFFFFFFFFFFFFFFFFFFFF AND PUSH1 0x40 MLOAD DUP1 PUSH1 0x0 ADD SWAP1 POP PUSH1 0x0 PUSH1 0x40 MLOAD DUP1 DUP4 SUB DUP2 DUP6 GAS DELEGATECALL SWAP2 POP POP RETURNDATASIZE DUP1 PUSH1 0x0 DUP2 EQ PUSH2 0x7F3 JUMPI PUSH1 0x40 MLOAD SWAP2 POP PUSH1 0x1F NOT PUSH1 0x3F RETURNDATASIZE ADD AND DUP3 ADD PUSH1 0x40 MSTORE RETURNDATASIZE DUP3 MSTORE RETURNDATASIZE PUSH1 0x0 PUSH1 0x20 DUP5 ADD RETURNDATACOPY PUSH2 0x7F8 JUMP JUMPDEST PUSH1 0x60 SWAP2 POP JUMPDEST POP DUP1 SWAP3 POP DUP2 SWAP4 POP POP POP DUP2 PUSH2 0x80B JUMPI PUSH1 0x0 DUP1 REVERT JUMPDEST PUSH1 0x0 DUP1 DUP1 SLOAD SWAP1 POP EQ PUSH2 0x81C JUMPI PUSH1 0x0 DUP1 REVERT JUMPDEST PUSH1 0x1 DUP1 PUSH1 0x0 PUSH1 0x2 PUSH1 0x0 SWAP1 SLOAD SWAP1 PUSH2 0x100 EXP SWAP1 DIV PUSH20 0xFFFFFFFFFFFFFFFFFFFFFFFFFFFFFFFFFFFFFFFF AND PUSH20 0xFFFFFFFFFFFFFFFFFFFFFFFFFFFFFFFFFFFFFFFF AND PUSH20 0xFFFFFFFFFFFFFFFFFFFFFFFFFFFFFFFFFFFFFFFF AND DUP2 MSTORE PUSH1 0x20 ADD SWAP1 DUP2 MSTORE PUSH1 0x20 ADD PUSH1 0x0 KECCAK256 DUP1 SLOAD SWAP1 POP EQ DUP1 ISZERO PUSH2 0x951 JUMPI POP ORIGIN PUSH20 0xFFFFFFFFFFFFFFFFFFFFFFFFFFFFFFFFFFFFFFFF AND PUSH1 0x1 PUSH1 0x0 PUSH1 0x2 PUSH1 0x0 SWAP1 SLOAD SWAP1 PUSH2 0x100 EXP SWAP1 DIV PUSH20 0xFFFFFFFFFFFFFFFFFFFFFFFFFFFFFFFFFFFFFFFF AND PUSH20 0xFFFFFFFFFFFFFFFFFFFFFFFFFFFFFFFFFFFFFFFF AND PUSH20 0xFFFFFFFFFFFFFFFFFFFFFFFFFFFFFFFFFFFFFFFF AND DUP2 MSTORE PUSH1 0x20 ADD SWAP1 DUP2 MSTORE PUSH1 0x20 ADD PUSH1 0x0 KECCAK256 PUSH1 0x0 DUP2 SLOAD DUP2 LT PUSH2 0x90E JUMPI INVALID JUMPDEST SWAP1 PUSH1 0x0 MSTORE PUSH1 0x20 PUSH1 0x0 KECCAK256 ADD PUSH1 0x0 SWAP1 SLOAD SWAP1 PUSH2 0x100 EXP SWAP1 DIV PUSH20 0xFFFFFFFFFFFFFFFFFFFFFFFFFFFFFFFFFFFFFFFF AND PUSH20 0xFFFFFFFFFFFFFFFFFFFFFFFFFFFFFFFFFFFFFFFF AND EQ JUMPDEST PUSH2 0x95A JUMPI PUSH1 0x0 DUP1 REVERT JUMPDEST POP POP POP POP POP POP JUMP INVALID LOG2 PUSH6 0x627A7A723158 KECCAK256 EXTCODECOPY 0x5D DUP3 SWAP16 DUP8 SWAP16 DELEGATECALL 0xEC SHL DUP3 SELFBALANCE 0xF9 0xE9 0xAF NUMBER 0xCC 0x48 DUP5 DUP7 0xAA PC ADDRESS RETURNDATASIZE PUSH14 0xAB8ED0AACEB42D9E64736F6C6343 STOP SDIV GT STOP ORIGIN "
				},
				"gasEstimates": {
					"creation": {
						"codeDepositCost": "491000",
						"executionCost": "infinite",
						"totalCost": "infinite"
					},
					"external": {
						"easy_sandbox(address)": "infinite",
						"given_gift(uint256,uint256)": "21174",
						"isSolved()": "255",
						"owner()": "1119",
						"sons(address,uint256)": "2099",
						"writes(uint256)": "2024"
					}
				},
				"methodIdentifiers": {
					"easy_sandbox(address)": "c94103b1",
					"given_gift(uint256,uint256)": "5e08b9d5",
					"isSolved()": "64d98f6e",
					"owner()": "8da5cb5b",
					"sons(address,uint256)": "281d0619",
					"writes(uint256)": "74e3fb3e"
				}
			},
			"storageLayout": {
				"storage": [
					{
						"astId": 4,
						"contract": "EasySandBox/Attack.sol:EasySandbox",
						"label": "writes",
						"offset": 0,
						"slot": "0",
						"type": "t_array(t_uint256)dyn_storage"
					},
					{
						"astId": 9,
						"contract": "EasySandBox/Attack.sol:EasySandbox",
						"label": "sons",
						"offset": 0,
						"slot": "1",
						"type": "t_mapping(t_address,t_array(t_address)dyn_storage)"
					},
					{
						"astId": 11,
						"contract": "EasySandBox/Attack.sol:EasySandbox",
						"label": "owner",
						"offset": 0,
						"slot": "2",
						"type": "t_address"
					},
					{
						"astId": 14,
						"contract": "EasySandBox/Attack.sol:EasySandbox",
						"label": "randomNumber",
						"offset": 0,
						"slot": "3",
						"type": "t_uint256"
					}
				],
				"types": {
					"t_address": {
						"encoding": "inplace",
						"label": "address",
						"numberOfBytes": "20"
					},
					"t_array(t_address)dyn_storage": {
						"base": "t_address",
						"encoding": "dynamic_array",
						"label": "address[]",
						"numberOfBytes": "32"
					},
					"t_array(t_uint256)dyn_storage": {
						"base": "t_uint256",
						"encoding": "dynamic_array",
						"label": "uint256[]",
						"numberOfBytes": "32"
					},
					"t_mapping(t_address,t_array(t_address)dyn_storage)": {
						"encoding": "mapping",
						"key": "t_address",
						"label": "mapping(address => address[])",
						"numberOfBytes": "32",
						"value": "t_array(t_address)dyn_storage"
					},
					"t_uint256": {
						"encoding": "inplace",
						"label": "uint256",
						"numberOfBytes": "32"
					}
				}
			},
			"userdoc": {
				"methods": {}
			}
		}
	}
}