{
	"BoxGame/Attack.sol": {
		"RealBoxGame": {
			"abi": [
				{
					"anonymous": false,
					"inputs": [
						{
							"indexed": false,
							"internalType": "address",
							"name": "addr",
							"type": "address"
						}
					],
					"name": "ForFlag",
					"type": "event"
				},
				{
					"inputs": [
						{
							"internalType": "address payable",
							"name": "_addr",
							"type": "address"
						}
					],
					"name": "payforflag",
					"outputs": [],
					"stateMutability": "nonpayable",
					"type": "function"
				},
				{
					"inputs": [],
					"name": "sendFlag",
					"outputs": [],
					"stateMutability": "payable",
					"type": "function"
				},
				{
					"inputs": [],
					"name": "target",
					"outputs": [
						{
							"internalType": "address",
							"name": "",
							"type": "address"
						}
					],
					"stateMutability": "view",
					"type": "function"
				}
			],
			"devdoc": {
				"kind": "dev",
				"methods": {},
				"version": 1
			},
			"evm": {
				"assembly": "    /* \"BoxGame/Attack.sol\":436:2238  contract RealBoxGame {... */\n  mstore(0x40, 0x80)\n  callvalue\n  dup1\n  iszero\n  tag_1\n  jumpi\n  0x00\n  dup1\n  revert\ntag_1:\n  pop\n  dataSize(sub_0)\n  dup1\n  dataOffset(sub_0)\n  0x00\n  codecopy\n  0x00\n  return\nstop\n\nsub_0: assembly {\n        /* \"BoxGame/Attack.sol\":436:2238  contract RealBoxGame {... */\n      mstore(0x40, 0x80)\n      jumpi(tag_1, lt(calldatasize, 0x04))\n      shr(0xe0, calldataload(0x00))\n      dup1\n      0xc1803191\n      eq\n      tag_2\n      jumpi\n      dup1\n      0xd4b83992\n      eq\n      tag_3\n      jumpi\n      dup1\n      0xec19a84f\n      eq\n      tag_4\n      jumpi\n    tag_1:\n      0x00\n      dup1\n      revert\n        /* \"BoxGame/Attack.sol\":529:2006  function payforflag(address payable _addr) public {... */\n    tag_2:\n      callvalue\n      dup1\n      iszero\n      tag_5\n      jumpi\n      0x00\n      dup1\n      revert\n    tag_5:\n      pop\n      tag_6\n      0x04\n      dup1\n      calldatasize\n      sub\n      dup2\n      add\n      swap1\n      tag_7\n      swap2\n      swap1\n      tag_8\n      jump\t// in\n    tag_7:\n      tag_9\n      jump\t// in\n    tag_6:\n      stop\n        /* \"BoxGame/Attack.sol\":497:518  address public target */\n    tag_3:\n      callvalue\n      dup1\n      iszero\n      tag_10\n      jumpi\n      0x00\n      dup1\n      revert\n    tag_10:\n      pop\n      tag_11\n      tag_12\n      jump\t// in\n    tag_11:\n      mload(0x40)\n      tag_13\n      swap2\n      swap1\n      tag_14\n      jump\t// in\n    tag_13:\n      mload(0x40)\n      dup1\n      swap2\n      sub\n      swap1\n      return\n        /* \"BoxGame/Attack.sol\":2112:2236  function sendFlag() public payable {... */\n    tag_4:\n      tag_15\n      tag_16\n      jump\t// in\n    tag_15:\n      stop\n        /* \"BoxGame/Attack.sol\":529:2006  function payforflag(address payable _addr) public {... */\n    tag_9:\n        /* \"BoxGame/Attack.sol\":623:624  0 */\n      0x00\n        /* \"BoxGame/Attack.sol\":606:625  _addr != address(0) */\n      0xffffffffffffffffffffffffffffffffffffffff\n      and\n        /* \"BoxGame/Attack.sol\":606:611  _addr */\n      dup2\n        /* \"BoxGame/Attack.sol\":606:625  _addr != address(0) */\n      0xffffffffffffffffffffffffffffffffffffffff\n      and\n      sub\n        /* \"BoxGame/Attack.sol\":598:626  require(_addr != address(0)) */\n      tag_18\n      jumpi\n      0x00\n      dup1\n      revert\n    tag_18:\n        /* \"BoxGame/Attack.sol\":645:657  uint256 size */\n      0x00\n        /* \"BoxGame/Attack.sol\":667:684  bytes memory code */\n      0x60\n        /* \"BoxGame/Attack.sol\":777:782  _addr */\n      dup3\n        /* \"BoxGame/Attack.sol\":765:783  extcodesize(_addr) */\n      extcodesize\n        /* \"BoxGame/Attack.sol\":757:783  size := extcodesize(_addr) */\n      swap2\n      pop\n        /* \"BoxGame/Attack.sol\":879:883  0x40 */\n      0x40\n        /* \"BoxGame/Attack.sol\":873:884  mload(0x40) */\n      mload\n        /* \"BoxGame/Attack.sol\":865:884  code := mload(0x40) */\n      swap1\n      pop\n        /* \"BoxGame/Attack.sol\":1062:1066  0x1f */\n      0x1f\n        /* \"BoxGame/Attack.sol\":1058:1067  not(0x1f) */\n      not\n        /* \"BoxGame/Attack.sol\":1051:1055  0x1f */\n      0x1f\n        /* \"BoxGame/Attack.sol\":1044:1048  0x20 */\n      0x20\n        /* \"BoxGame/Attack.sol\":1038:1042  size */\n      dup5\n        /* \"BoxGame/Attack.sol\":1034:1049  add(size, 0x20) */\n      add\n        /* \"BoxGame/Attack.sol\":1030:1056  add(add(size, 0x20), 0x1f) */\n      add\n        /* \"BoxGame/Attack.sol\":1026:1068  and(add(add(size, 0x20), 0x1f), not(0x1f)) */\n      and\n        /* \"BoxGame/Attack.sol\":1020:1024  code */\n      dup2\n        /* \"BoxGame/Attack.sol\":1016:1069  add(code, and(add(add(size, 0x20), 0x1f), not(0x1f))) */\n      add\n        /* \"BoxGame/Attack.sol\":1010:1014  0x40 */\n      0x40\n        /* \"BoxGame/Attack.sol\":1003:1070  mstore(0x40, add(code, and(add(add(size, 0x20), 0x1f), not(0x1f)))) */\n      mstore\n        /* \"BoxGame/Attack.sol\":1139:1143  size */\n      dup2\n        /* \"BoxGame/Attack.sol\":1133:1137  code */\n      dup2\n        /* \"BoxGame/Attack.sol\":1126:1144  mstore(code, size) */\n      mstore\n        /* \"BoxGame/Attack.sol\":1231:1235  size */\n      dup2\n        /* \"BoxGame/Attack.sol\":1228:1229  0 */\n      0x00\n        /* \"BoxGame/Attack.sol\":1221:1225  0x20 */\n      0x20\n        /* \"BoxGame/Attack.sol\":1215:1219  code */\n      dup4\n        /* \"BoxGame/Attack.sol\":1211:1226  add(code, 0x20) */\n      add\n        /* \"BoxGame/Attack.sol\":1204:1209  _addr */\n      dup6\n        /* \"BoxGame/Attack.sol\":1192:1236  extcodecopy(_addr, add(code, 0x20), 0, size) */\n      extcodecopy\n        /* \"BoxGame/Attack.sol\":1497:1506  uint256 i */\n      0x00\n        /* \"BoxGame/Attack.sol\":1493:1849  for(uint256 i = 0; i < code.length; i++) {... */\n    tag_19:\n        /* \"BoxGame/Attack.sol\":1516:1520  code */\n      dup2\n        /* \"BoxGame/Attack.sol\":1516:1527  code.length */\n      mload\n        /* \"BoxGame/Attack.sol\":1512:1513  i */\n      dup2\n        /* \"BoxGame/Attack.sol\":1512:1527  i < code.length */\n      lt\n        /* \"BoxGame/Attack.sol\":1493:1849  for(uint256 i = 0; i < code.length; i++) {... */\n      iszero\n      tag_20\n      jumpi\n        /* \"BoxGame/Attack.sol\":1567:1571  0xf0 */\n      0xf0\n        /* \"BoxGame/Attack.sol\":1556:1571  code[i] != 0xf0 */\n      0xf8\n      shl\n        /* \"BoxGame/Attack.sol\":1556:1560  code */\n      dup3\n        /* \"BoxGame/Attack.sol\":1561:1562  i */\n      dup3\n        /* \"BoxGame/Attack.sol\":1556:1563  code[i] */\n      dup2\n      mload\n      dup2\n      lt\n      tag_22\n      jumpi\n      tag_23\n      tag_24\n      jump\t// in\n    tag_23:\n    tag_22:\n      0x20\n      add\n      add\n      mload\n      0xf8\n      shr\n      0xf8\n      shl\n        /* \"BoxGame/Attack.sol\":1556:1571  code[i] != 0xf0 */\n      not(0xffffffffffffffffffffffffffffffffffffffffffffffffffffffffffffff)\n      and\n      sub\n        /* \"BoxGame/Attack.sol\":1548:1572  require(code[i] != 0xf0) */\n      tag_25\n      jumpi\n      0x00\n      dup1\n      revert\n    tag_25:\n        /* \"BoxGame/Attack.sol\":1615:1619  0xf1 */\n      0xf1\n        /* \"BoxGame/Attack.sol\":1604:1619  code[i] != 0xf1 */\n      0xf8\n      shl\n        /* \"BoxGame/Attack.sol\":1604:1608  code */\n      dup3\n        /* \"BoxGame/Attack.sol\":1609:1610  i */\n      dup3\n        /* \"BoxGame/Attack.sol\":1604:1611  code[i] */\n      dup2\n      mload\n      dup2\n      lt\n      tag_26\n      jumpi\n      tag_27\n      tag_24\n      jump\t// in\n    tag_27:\n    tag_26:\n      0x20\n      add\n      add\n      mload\n      0xf8\n      shr\n      0xf8\n      shl\n        /* \"BoxGame/Attack.sol\":1604:1619  code[i] != 0xf1 */\n      not(0xffffffffffffffffffffffffffffffffffffffffffffffffffffffffffffff)\n      and\n      sub\n        /* \"BoxGame/Attack.sol\":1596:1620  require(code[i] != 0xf1) */\n      tag_28\n      jumpi\n      0x00\n      dup1\n      revert\n    tag_28:\n        /* \"BoxGame/Attack.sol\":1661:1665  0xf2 */\n      0xf2\n        /* \"BoxGame/Attack.sol\":1650:1665  code[i] != 0xf2 */\n      0xf8\n      shl\n        /* \"BoxGame/Attack.sol\":1650:1654  code */\n      dup3\n        /* \"BoxGame/Attack.sol\":1655:1656  i */\n      dup3\n        /* \"BoxGame/Attack.sol\":1650:1657  code[i] */\n      dup2\n      mload\n      dup2\n      lt\n      tag_29\n      jumpi\n      tag_30\n      tag_24\n      jump\t// in\n    tag_30:\n    tag_29:\n      0x20\n      add\n      add\n      mload\n      0xf8\n      shr\n      0xf8\n      shl\n        /* \"BoxGame/Attack.sol\":1650:1665  code[i] != 0xf2 */\n      not(0xffffffffffffffffffffffffffffffffffffffffffffffffffffffffffffff)\n      and\n      sub\n        /* \"BoxGame/Attack.sol\":1642:1666  require(code[i] != 0xf2) */\n      tag_31\n      jumpi\n      0x00\n      dup1\n      revert\n    tag_31:\n        /* \"BoxGame/Attack.sol\":1711:1715  0xf4 */\n      0xf4\n        /* \"BoxGame/Attack.sol\":1700:1715  code[i] != 0xf4 */\n      0xf8\n      shl\n        /* \"BoxGame/Attack.sol\":1700:1704  code */\n      dup3\n        /* \"BoxGame/Attack.sol\":1705:1706  i */\n      dup3\n        /* \"BoxGame/Attack.sol\":1700:1707  code[i] */\n      dup2\n      mload\n      dup2\n      lt\n      tag_32\n      jumpi\n      tag_33\n      tag_24\n      jump\t// in\n    tag_33:\n    tag_32:\n      0x20\n      add\n      add\n      mload\n      0xf8\n      shr\n      0xf8\n      shl\n        /* \"BoxGame/Attack.sol\":1700:1715  code[i] != 0xf4 */\n      not(0xffffffffffffffffffffffffffffffffffffffffffffffffffffffffffffff)\n      and\n      sub\n        /* \"BoxGame/Attack.sol\":1692:1716  require(code[i] != 0xf4) */\n      tag_34\n      jumpi\n      0x00\n      dup1\n      revert\n    tag_34:\n        /* \"BoxGame/Attack.sol\":1765:1769  0xfa */\n      0xfa\n        /* \"BoxGame/Attack.sol\":1754:1769  code[i] != 0xfa */\n      0xf8\n      shl\n        /* \"BoxGame/Attack.sol\":1754:1758  code */\n      dup3\n        /* \"BoxGame/Attack.sol\":1759:1760  i */\n      dup3\n        /* \"BoxGame/Attack.sol\":1754:1761  code[i] */\n      dup2\n      mload\n      dup2\n      lt\n      tag_35\n      jumpi\n      tag_36\n      tag_24\n      jump\t// in\n    tag_36:\n    tag_35:\n      0x20\n      add\n      add\n      mload\n      0xf8\n      shr\n      0xf8\n      shl\n        /* \"BoxGame/Attack.sol\":1754:1769  code[i] != 0xfa */\n      not(0xffffffffffffffffffffffffffffffffffffffffffffffffffffffffffffff)\n      and\n      sub\n        /* \"BoxGame/Attack.sol\":1746:1770  require(code[i] != 0xfa) */\n      tag_37\n      jumpi\n      0x00\n      dup1\n      revert\n    tag_37:\n        /* \"BoxGame/Attack.sol\":1817:1821  0xff */\n      0xff\n        /* \"BoxGame/Attack.sol\":1806:1821  code[i] != 0xff */\n      0xf8\n      shl\n        /* \"BoxGame/Attack.sol\":1806:1810  code */\n      dup3\n        /* \"BoxGame/Attack.sol\":1811:1812  i */\n      dup3\n        /* \"BoxGame/Attack.sol\":1806:1813  code[i] */\n      dup2\n      mload\n      dup2\n      lt\n      tag_38\n      jumpi\n      tag_39\n      tag_24\n      jump\t// in\n    tag_39:\n    tag_38:\n      0x20\n      add\n      add\n      mload\n      0xf8\n      shr\n      0xf8\n      shl\n        /* \"BoxGame/Attack.sol\":1806:1821  code[i] != 0xff */\n      not(0xffffffffffffffffffffffffffffffffffffffffffffffffffffffffffffff)\n      and\n      sub\n        /* \"BoxGame/Attack.sol\":1798:1822  require(code[i] != 0xff) */\n      tag_40\n      jumpi\n      0x00\n      dup1\n      revert\n    tag_40:\n        /* \"BoxGame/Attack.sol\":1529:1532  i++ */\n      dup1\n      dup1\n      tag_41\n      swap1\n      tag_42\n      jump\t// in\n    tag_41:\n      swap2\n      pop\n      pop\n        /* \"BoxGame/Attack.sol\":1493:1849  for(uint256 i = 0; i < code.length; i++) {... */\n      jump(tag_19)\n    tag_20:\n      pop\n        /* \"BoxGame/Attack.sol\":1923:1928  _addr */\n      dup3\n        /* \"BoxGame/Attack.sol\":1923:1941  _addr.delegatecall */\n      0xffffffffffffffffffffffffffffffffffffffff\n      and\n        /* \"BoxGame/Attack.sol\":1942:1969  abi.encodeWithSignature(\"\") */\n      add(0x24, mload(0x40))\n      mload(0x40)\n      0x20\n      dup2\n      dup4\n      sub\n      sub\n      dup2\n      mstore\n      swap1\n      0x40\n      mstore\n      and(not(0xffffffffffffffffffffffffffffffffffffffffffffffffffffffff), 0xc5d2460100000000000000000000000000000000000000000000000000000000)\n      0x20\n      dup3\n      add\n      dup1\n      mload\n      0xffffffffffffffffffffffffffffffffffffffffffffffffffffffff\n      dup4\n      dup2\n      dup4\n      and\n      or\n      dup4\n      mstore\n      pop\n      pop\n      pop\n      pop\n        /* \"BoxGame/Attack.sol\":1923:1970  _addr.delegatecall(abi.encodeWithSignature(\"\")) */\n      mload(0x40)\n      tag_43\n      swap2\n      swap1\n      tag_44\n      jump\t// in\n    tag_43:\n      0x00\n      mload(0x40)\n      dup1\n      dup4\n      sub\n      dup2\n      dup6\n      gas\n      delegatecall\n      swap2\n      pop\n      pop\n      returndatasize\n      dup1\n      0x00\n      dup2\n      eq\n      tag_47\n      jumpi\n      mload(0x40)\n      swap2\n      pop\n      and(add(returndatasize, 0x3f), not(0x1f))\n      dup3\n      add\n      0x40\n      mstore\n      returndatasize\n      dup3\n      mstore\n      returndatasize\n      0x00\n      0x20\n      dup5\n      add\n      returndatacopy\n      jump(tag_46)\n    tag_47:\n      0x60\n      swap2\n      pop\n    tag_46:\n      pop\n      pop\n      pop\n        /* \"BoxGame/Attack.sol\":1993:1998  _addr */\n      dup3\n        /* \"BoxGame/Attack.sol\":1980:1999  selfdestruct(_addr) */\n      0xffffffffffffffffffffffffffffffffffffffff\n      and\n      selfdestruct\n        /* \"BoxGame/Attack.sol\":497:518  address public target */\n    tag_12:\n      0x00\n      dup1\n      sload\n      swap1\n      0x0100\n      exp\n      swap1\n      div\n      0xffffffffffffffffffffffffffffffffffffffff\n      and\n      dup2\n      jump\t// out\n        /* \"BoxGame/Attack.sol\":2112:2236  function sendFlag() public payable {... */\n    tag_16:\n        /* \"BoxGame/Attack.sol\":2178:2194  1000000000 ether */\n      0x033b2e3c9fd0803ce8000000\n        /* \"BoxGame/Attack.sol\":2165:2174  msg.value */\n      callvalue\n        /* \"BoxGame/Attack.sol\":2165:2194  msg.value >= 1000000000 ether */\n      lt\n      iszero\n        /* \"BoxGame/Attack.sol\":2157:2195  require(msg.value >= 1000000000 ether) */\n      tag_49\n      jumpi\n      0x00\n      dup1\n      revert\n    tag_49:\n        /* \"BoxGame/Attack.sol\":2210:2229  ForFlag(msg.sender) */\n      0x89814845d4f005a4059f76ea572f39df73fbe3d1c9b20f12b3b03d09f999b9e2\n        /* \"BoxGame/Attack.sol\":2218:2228  msg.sender */\n      caller\n        /* \"BoxGame/Attack.sol\":2210:2229  ForFlag(msg.sender) */\n      mload(0x40)\n      tag_50\n      swap2\n      swap1\n      tag_14\n      jump\t// in\n    tag_50:\n      mload(0x40)\n      dup1\n      swap2\n      sub\n      swap1\n      log1\n        /* \"BoxGame/Attack.sol\":2112:2236  function sendFlag() public payable {... */\n      jump\t// out\n        /* \"#utility.yul\":88:205   */\n    tag_52:\n        /* \"#utility.yul\":197:198   */\n      0x00\n        /* \"#utility.yul\":194:195   */\n      dup1\n        /* \"#utility.yul\":187:199   */\n      revert\n        /* \"#utility.yul\":334:460   */\n    tag_54:\n        /* \"#utility.yul\":371:378   */\n      0x00\n        /* \"#utility.yul\":411:453   */\n      0xffffffffffffffffffffffffffffffffffffffff\n        /* \"#utility.yul\":404:409   */\n      dup3\n        /* \"#utility.yul\":400:454   */\n      and\n        /* \"#utility.yul\":389:454   */\n      swap1\n      pop\n        /* \"#utility.yul\":334:460   */\n      swap2\n      swap1\n      pop\n      jump\t// out\n        /* \"#utility.yul\":466:570   */\n    tag_55:\n        /* \"#utility.yul\":511:518   */\n      0x00\n        /* \"#utility.yul\":540:564   */\n      tag_72\n        /* \"#utility.yul\":558:563   */\n      dup3\n        /* \"#utility.yul\":540:564   */\n      tag_54\n      jump\t// in\n    tag_72:\n        /* \"#utility.yul\":529:564   */\n      swap1\n      pop\n        /* \"#utility.yul\":466:570   */\n      swap2\n      swap1\n      pop\n      jump\t// out\n        /* \"#utility.yul\":576:714   */\n    tag_56:\n        /* \"#utility.yul\":657:689   */\n      tag_74\n        /* \"#utility.yul\":683:688   */\n      dup2\n        /* \"#utility.yul\":657:689   */\n      tag_55\n      jump\t// in\n    tag_74:\n        /* \"#utility.yul\":650:655   */\n      dup2\n        /* \"#utility.yul\":647:690   */\n      eq\n        /* \"#utility.yul\":637:708   */\n      tag_75\n      jumpi\n        /* \"#utility.yul\":704:705   */\n      0x00\n        /* \"#utility.yul\":701:702   */\n      dup1\n        /* \"#utility.yul\":694:706   */\n      revert\n        /* \"#utility.yul\":637:708   */\n    tag_75:\n        /* \"#utility.yul\":576:714   */\n      pop\n      jump\t// out\n        /* \"#utility.yul\":720:875   */\n    tag_57:\n        /* \"#utility.yul\":774:779   */\n      0x00\n        /* \"#utility.yul\":812:818   */\n      dup2\n        /* \"#utility.yul\":799:819   */\n      calldataload\n        /* \"#utility.yul\":790:819   */\n      swap1\n      pop\n        /* \"#utility.yul\":828:869   */\n      tag_77\n        /* \"#utility.yul\":863:868   */\n      dup2\n        /* \"#utility.yul\":828:869   */\n      tag_56\n      jump\t// in\n    tag_77:\n        /* \"#utility.yul\":720:875   */\n      swap3\n      swap2\n      pop\n      pop\n      jump\t// out\n        /* \"#utility.yul\":881:1226   */\n    tag_8:\n        /* \"#utility.yul\":948:954   */\n      0x00\n        /* \"#utility.yul\":997:999   */\n      0x20\n        /* \"#utility.yul\":985:994   */\n      dup3\n        /* \"#utility.yul\":976:983   */\n      dup5\n        /* \"#utility.yul\":972:995   */\n      sub\n        /* \"#utility.yul\":968:1000   */\n      slt\n        /* \"#utility.yul\":965:1084   */\n      iszero\n      tag_79\n      jumpi\n        /* \"#utility.yul\":1003:1082   */\n      tag_80\n      tag_52\n      jump\t// in\n    tag_80:\n        /* \"#utility.yul\":965:1084   */\n    tag_79:\n        /* \"#utility.yul\":1123:1124   */\n      0x00\n        /* \"#utility.yul\":1148:1209   */\n      tag_81\n        /* \"#utility.yul\":1201:1208   */\n      dup5\n        /* \"#utility.yul\":1192:1198   */\n      dup3\n        /* \"#utility.yul\":1181:1190   */\n      dup6\n        /* \"#utility.yul\":1177:1199   */\n      add\n        /* \"#utility.yul\":1148:1209   */\n      tag_57\n      jump\t// in\n    tag_81:\n        /* \"#utility.yul\":1138:1209   */\n      swap2\n      pop\n        /* \"#utility.yul\":1094:1219   */\n      pop\n        /* \"#utility.yul\":881:1226   */\n      swap3\n      swap2\n      pop\n      pop\n      jump\t// out\n        /* \"#utility.yul\":1232:1328   */\n    tag_58:\n        /* \"#utility.yul\":1269:1276   */\n      0x00\n        /* \"#utility.yul\":1298:1322   */\n      tag_83\n        /* \"#utility.yul\":1316:1321   */\n      dup3\n        /* \"#utility.yul\":1298:1322   */\n      tag_54\n      jump\t// in\n    tag_83:\n        /* \"#utility.yul\":1287:1322   */\n      swap1\n      pop\n        /* \"#utility.yul\":1232:1328   */\n      swap2\n      swap1\n      pop\n      jump\t// out\n        /* \"#utility.yul\":1334:1452   */\n    tag_59:\n        /* \"#utility.yul\":1421:1445   */\n      tag_85\n        /* \"#utility.yul\":1439:1444   */\n      dup2\n        /* \"#utility.yul\":1421:1445   */\n      tag_58\n      jump\t// in\n    tag_85:\n        /* \"#utility.yul\":1416:1419   */\n      dup3\n        /* \"#utility.yul\":1409:1446   */\n      mstore\n        /* \"#utility.yul\":1334:1452   */\n      pop\n      pop\n      jump\t// out\n        /* \"#utility.yul\":1458:1680   */\n    tag_14:\n        /* \"#utility.yul\":1551:1555   */\n      0x00\n        /* \"#utility.yul\":1589:1591   */\n      0x20\n        /* \"#utility.yul\":1578:1587   */\n      dup3\n        /* \"#utility.yul\":1574:1592   */\n      add\n        /* \"#utility.yul\":1566:1592   */\n      swap1\n      pop\n        /* \"#utility.yul\":1602:1673   */\n      tag_87\n        /* \"#utility.yul\":1670:1671   */\n      0x00\n        /* \"#utility.yul\":1659:1668   */\n      dup4\n        /* \"#utility.yul\":1655:1672   */\n      add\n        /* \"#utility.yul\":1646:1652   */\n      dup5\n        /* \"#utility.yul\":1602:1673   */\n      tag_59\n      jump\t// in\n    tag_87:\n        /* \"#utility.yul\":1458:1680   */\n      swap3\n      swap2\n      pop\n      pop\n      jump\t// out\n        /* \"#utility.yul\":1686:1866   */\n    tag_24:\n        /* \"#utility.yul\":1734:1811   */\n      0x4e487b7100000000000000000000000000000000000000000000000000000000\n        /* \"#utility.yul\":1731:1732   */\n      0x00\n        /* \"#utility.yul\":1724:1812   */\n      mstore\n        /* \"#utility.yul\":1831:1835   */\n      0x32\n        /* \"#utility.yul\":1828:1829   */\n      0x04\n        /* \"#utility.yul\":1821:1836   */\n      mstore\n        /* \"#utility.yul\":1855:1859   */\n      0x24\n        /* \"#utility.yul\":1852:1853   */\n      0x00\n        /* \"#utility.yul\":1845:1860   */\n      revert\n        /* \"#utility.yul\":1872:2052   */\n    tag_60:\n        /* \"#utility.yul\":1920:1997   */\n      0x4e487b7100000000000000000000000000000000000000000000000000000000\n        /* \"#utility.yul\":1917:1918   */\n      0x00\n        /* \"#utility.yul\":1910:1998   */\n      mstore\n        /* \"#utility.yul\":2017:2021   */\n      0x11\n        /* \"#utility.yul\":2014:2015   */\n      0x04\n        /* \"#utility.yul\":2007:2022   */\n      mstore\n        /* \"#utility.yul\":2041:2045   */\n      0x24\n        /* \"#utility.yul\":2038:2039   */\n      0x00\n        /* \"#utility.yul\":2031:2046   */\n      revert\n        /* \"#utility.yul\":2058:2135   */\n    tag_61:\n        /* \"#utility.yul\":2095:2102   */\n      0x00\n        /* \"#utility.yul\":2124:2129   */\n      dup2\n        /* \"#utility.yul\":2113:2129   */\n      swap1\n      pop\n        /* \"#utility.yul\":2058:2135   */\n      swap2\n      swap1\n      pop\n      jump\t// out\n        /* \"#utility.yul\":2141:2374   */\n    tag_42:\n        /* \"#utility.yul\":2180:2183   */\n      0x00\n        /* \"#utility.yul\":2203:2227   */\n      tag_92\n        /* \"#utility.yul\":2221:2226   */\n      dup3\n        /* \"#utility.yul\":2203:2227   */\n      tag_61\n      jump\t// in\n    tag_92:\n        /* \"#utility.yul\":2194:2227   */\n      swap2\n      pop\n        /* \"#utility.yul\":2249:2315   */\n      0xffffffffffffffffffffffffffffffffffffffffffffffffffffffffffffffff\n        /* \"#utility.yul\":2242:2247   */\n      dup3\n        /* \"#utility.yul\":2239:2316   */\n      sub\n        /* \"#utility.yul\":2236:2339   */\n      tag_93\n      jumpi\n        /* \"#utility.yul\":2319:2337   */\n      tag_94\n      tag_60\n      jump\t// in\n    tag_94:\n        /* \"#utility.yul\":2236:2339   */\n    tag_93:\n        /* \"#utility.yul\":2366:2367   */\n      0x01\n        /* \"#utility.yul\":2359:2364   */\n      dup3\n        /* \"#utility.yul\":2355:2368   */\n      add\n        /* \"#utility.yul\":2348:2368   */\n      swap1\n      pop\n        /* \"#utility.yul\":2141:2374   */\n      swap2\n      swap1\n      pop\n      jump\t// out\n        /* \"#utility.yul\":2380:2478   */\n    tag_62:\n        /* \"#utility.yul\":2431:2437   */\n      0x00\n        /* \"#utility.yul\":2465:2470   */\n      dup2\n        /* \"#utility.yul\":2459:2471   */\n      mload\n        /* \"#utility.yul\":2449:2471   */\n      swap1\n      pop\n        /* \"#utility.yul\":2380:2478   */\n      swap2\n      swap1\n      pop\n      jump\t// out\n        /* \"#utility.yul\":2484:2631   */\n    tag_63:\n        /* \"#utility.yul\":2585:2596   */\n      0x00\n        /* \"#utility.yul\":2622:2625   */\n      dup2\n        /* \"#utility.yul\":2607:2625   */\n      swap1\n      pop\n        /* \"#utility.yul\":2484:2631   */\n      swap3\n      swap2\n      pop\n      pop\n      jump\t// out\n        /* \"#utility.yul\":2637:2883   */\n    tag_64:\n        /* \"#utility.yul\":2718:2719   */\n      0x00\n        /* \"#utility.yul\":2728:2841   */\n    tag_98:\n        /* \"#utility.yul\":2742:2748   */\n      dup4\n        /* \"#utility.yul\":2739:2740   */\n      dup2\n        /* \"#utility.yul\":2736:2749   */\n      lt\n        /* \"#utility.yul\":2728:2841   */\n      iszero\n      tag_100\n      jumpi\n        /* \"#utility.yul\":2827:2828   */\n      dup1\n        /* \"#utility.yul\":2822:2825   */\n      dup3\n        /* \"#utility.yul\":2818:2829   */\n      add\n        /* \"#utility.yul\":2812:2830   */\n      mload\n        /* \"#utility.yul\":2808:2809   */\n      dup2\n        /* \"#utility.yul\":2803:2806   */\n      dup5\n        /* \"#utility.yul\":2799:2810   */\n      add\n        /* \"#utility.yul\":2792:2831   */\n      mstore\n        /* \"#utility.yul\":2764:2766   */\n      0x20\n        /* \"#utility.yul\":2761:2762   */\n      dup2\n        /* \"#utility.yul\":2757:2767   */\n      add\n        /* \"#utility.yul\":2752:2767   */\n      swap1\n      pop\n        /* \"#utility.yul\":2728:2841   */\n      jump(tag_98)\n    tag_100:\n        /* \"#utility.yul\":2875:2876   */\n      0x00\n        /* \"#utility.yul\":2866:2872   */\n      dup5\n        /* \"#utility.yul\":2861:2864   */\n      dup5\n        /* \"#utility.yul\":2857:2873   */\n      add\n        /* \"#utility.yul\":2850:2877   */\n      mstore\n        /* \"#utility.yul\":2699:2883   */\n      pop\n        /* \"#utility.yul\":2637:2883   */\n      pop\n      pop\n      pop\n      jump\t// out\n        /* \"#utility.yul\":2889:3275   */\n    tag_65:\n        /* \"#utility.yul\":2993:2996   */\n      0x00\n        /* \"#utility.yul\":3021:3059   */\n      tag_102\n        /* \"#utility.yul\":3053:3058   */\n      dup3\n        /* \"#utility.yul\":3021:3059   */\n      tag_62\n      jump\t// in\n    tag_102:\n        /* \"#utility.yul\":3075:3163   */\n      tag_103\n        /* \"#utility.yul\":3156:3162   */\n      dup2\n        /* \"#utility.yul\":3151:3154   */\n      dup6\n        /* \"#utility.yul\":3075:3163   */\n      tag_63\n      jump\t// in\n    tag_103:\n        /* \"#utility.yul\":3068:3163   */\n      swap4\n      pop\n        /* \"#utility.yul\":3172:3237   */\n      tag_104\n        /* \"#utility.yul\":3230:3236   */\n      dup2\n        /* \"#utility.yul\":3225:3228   */\n      dup6\n        /* \"#utility.yul\":3218:3222   */\n      0x20\n        /* \"#utility.yul\":3211:3216   */\n      dup7\n        /* \"#utility.yul\":3207:3223   */\n      add\n        /* \"#utility.yul\":3172:3237   */\n      tag_64\n      jump\t// in\n    tag_104:\n        /* \"#utility.yul\":3262:3268   */\n      dup1\n        /* \"#utility.yul\":3257:3260   */\n      dup5\n        /* \"#utility.yul\":3253:3269   */\n      add\n        /* \"#utility.yul\":3246:3269   */\n      swap2\n      pop\n        /* \"#utility.yul\":2997:3275   */\n      pop\n        /* \"#utility.yul\":2889:3275   */\n      swap3\n      swap2\n      pop\n      pop\n      jump\t// out\n        /* \"#utility.yul\":3281:3552   */\n    tag_44:\n        /* \"#utility.yul\":3411:3414   */\n      0x00\n        /* \"#utility.yul\":3433:3526   */\n      tag_106\n        /* \"#utility.yul\":3522:3525   */\n      dup3\n        /* \"#utility.yul\":3513:3519   */\n      dup5\n        /* \"#utility.yul\":3433:3526   */\n      tag_65\n      jump\t// in\n    tag_106:\n        /* \"#utility.yul\":3426:3526   */\n      swap2\n      pop\n        /* \"#utility.yul\":3543:3546   */\n      dup2\n        /* \"#utility.yul\":3536:3546   */\n      swap1\n      pop\n        /* \"#utility.yul\":3281:3552   */\n      swap3\n      swap2\n      pop\n      pop\n      jump\t// out\n\n    auxdata: 0xa2646970667358221220d8b1c3d29239a8eb50f5859d7e665acc62a48ba186ee4169883c70c8fd8d6ccf64736f6c63430008110033\n}\n",
				"bytecode": {
					"linkReferences": {},
					"object": "608060405234801561001057600080fd5b506106a6806100206000396000f3fe6080604052600436106100345760003560e01c8063c180319114610039578063d4b8399214610062578063ec19a84f1461008d575b600080fd5b34801561004557600080fd5b50610060600480360381019061005b91906104cf565b610097565b005b34801561006e57600080fd5b506100776103f6565b604051610084919061051d565b60405180910390f35b61009561041a565b005b600073ffffffffffffffffffffffffffffffffffffffff168173ffffffffffffffffffffffffffffffffffffffff16036100d057600080fd5b60006060823b91506040519050601f19601f602084010116810160405281815281600060208301853c60005b81518110156102f25760f060f81b82828151811061011d5761011c610538565b5b602001015160f81c60f81b7effffffffffffffffffffffffffffffffffffffffffffffffffffffffffffff19160361015457600080fd5b60f160f81b82828151811061016c5761016b610538565b5b602001015160f81c60f81b7effffffffffffffffffffffffffffffffffffffffffffffffffffffffffffff1916036101a357600080fd5b60f260f81b8282815181106101bb576101ba610538565b5b602001015160f81c60f81b7effffffffffffffffffffffffffffffffffffffffffffffffffffffffffffff1916036101f257600080fd5b60f460f81b82828151811061020a57610209610538565b5b602001015160f81c60f81b7effffffffffffffffffffffffffffffffffffffffffffffffffffffffffffff19160361024157600080fd5b60fa60f81b82828151811061025957610258610538565b5b602001015160f81c60f81b7effffffffffffffffffffffffffffffffffffffffffffffffffffffffffffff19160361029057600080fd5b60ff60f81b8282815181106102a8576102a7610538565b5b602001015160f81c60f81b7effffffffffffffffffffffffffffffffffffffffffffffffffffffffffffff1916036102df57600080fd5b80806102ea906105a0565b9150506100fc565b508273ffffffffffffffffffffffffffffffffffffffff166040516024016040516020818303038152906040527fc5d24601000000000000000000000000000000000000000000000000000000007bffffffffffffffffffffffffffffffffffffffffffffffffffffffff19166020820180517bffffffffffffffffffffffffffffffffffffffffffffffffffffffff838183161783525050505060405161039a9190610659565b600060405180830381855af49150503d80600081146103d5576040519150601f19603f3d011682016040523d82523d6000602084013e6103da565b606091505b5050508273ffffffffffffffffffffffffffffffffffffffff16ff5b60008054906101000a900473ffffffffffffffffffffffffffffffffffffffff1681565b6b033b2e3c9fd0803ce800000034101561043357600080fd5b7f89814845d4f005a4059f76ea572f39df73fbe3d1c9b20f12b3b03d09f999b9e233604051610462919061051d565b60405180910390a1565b600080fd5b600073ffffffffffffffffffffffffffffffffffffffff82169050919050565b600061049c82610471565b9050919050565b6104ac81610491565b81146104b757600080fd5b50565b6000813590506104c9816104a3565b92915050565b6000602082840312156104e5576104e461046c565b5b60006104f3848285016104ba565b91505092915050565b600061050782610471565b9050919050565b610517816104fc565b82525050565b6000602082019050610532600083018461050e565b92915050565b7f4e487b7100000000000000000000000000000000000000000000000000000000600052603260045260246000fd5b7f4e487b7100000000000000000000000000000000000000000000000000000000600052601160045260246000fd5b6000819050919050565b60006105ab82610596565b91507fffffffffffffffffffffffffffffffffffffffffffffffffffffffffffffffff82036105dd576105dc610567565b5b600182019050919050565b600081519050919050565b600081905092915050565b60005b8381101561061c578082015181840152602081019050610601565b60008484015250505050565b6000610633826105e8565b61063d81856105f3565b935061064d8185602086016105fe565b80840191505092915050565b60006106658284610628565b91508190509291505056fea2646970667358221220d8b1c3d29239a8eb50f5859d7e665acc62a48ba186ee4169883c70c8fd8d6ccf64736f6c63430008110033",
					"opcodes": "PUSH1 0x80 PUSH1 0x40 MSTORE CALLVALUE DUP1 ISZERO PUSH2 0x10 JUMPI PUSH1 0x0 DUP1 REVERT JUMPDEST POP PUSH2 0x6A6 DUP1 PUSH2 0x20 PUSH1 0x0 CODECOPY PUSH1 0x0 RETURN INVALID PUSH1 0x80 PUSH1 0x40 MSTORE PUSH1 0x4 CALLDATASIZE LT PUSH2 0x34 JUMPI PUSH1 0x0 CALLDATALOAD PUSH1 0xE0 SHR DUP1 PUSH4 0xC1803191 EQ PUSH2 0x39 JUMPI DUP1 PUSH4 0xD4B83992 EQ PUSH2 0x62 JUMPI DUP1 PUSH4 0xEC19A84F EQ PUSH2 0x8D JUMPI JUMPDEST PUSH1 0x0 DUP1 REVERT JUMPDEST CALLVALUE DUP1 ISZERO PUSH2 0x45 JUMPI PUSH1 0x0 DUP1 REVERT JUMPDEST POP PUSH2 0x60 PUSH1 0x4 DUP1 CALLDATASIZE SUB DUP2 ADD SWAP1 PUSH2 0x5B SWAP2 SWAP1 PUSH2 0x4CF JUMP JUMPDEST PUSH2 0x97 JUMP JUMPDEST STOP JUMPDEST CALLVALUE DUP1 ISZERO PUSH2 0x6E JUMPI PUSH1 0x0 DUP1 REVERT JUMPDEST POP PUSH2 0x77 PUSH2 0x3F6 JUMP JUMPDEST PUSH1 0x40 MLOAD PUSH2 0x84 SWAP2 SWAP1 PUSH2 0x51D JUMP JUMPDEST PUSH1 0x40 MLOAD DUP1 SWAP2 SUB SWAP1 RETURN JUMPDEST PUSH2 0x95 PUSH2 0x41A JUMP JUMPDEST STOP JUMPDEST PUSH1 0x0 PUSH20 0xFFFFFFFFFFFFFFFFFFFFFFFFFFFFFFFFFFFFFFFF AND DUP2 PUSH20 0xFFFFFFFFFFFFFFFFFFFFFFFFFFFFFFFFFFFFFFFF AND SUB PUSH2 0xD0 JUMPI PUSH1 0x0 DUP1 REVERT JUMPDEST PUSH1 0x0 PUSH1 0x60 DUP3 EXTCODESIZE SWAP2 POP PUSH1 0x40 MLOAD SWAP1 POP PUSH1 0x1F NOT PUSH1 0x1F PUSH1 0x20 DUP5 ADD ADD AND DUP2 ADD PUSH1 0x40 MSTORE DUP2 DUP2 MSTORE DUP2 PUSH1 0x0 PUSH1 0x20 DUP4 ADD DUP6 EXTCODECOPY PUSH1 0x0 JUMPDEST DUP2 MLOAD DUP2 LT ISZERO PUSH2 0x2F2 JUMPI PUSH1 0xF0 PUSH1 0xF8 SHL DUP3 DUP3 DUP2 MLOAD DUP2 LT PUSH2 0x11D JUMPI PUSH2 0x11C PUSH2 0x538 JUMP JUMPDEST JUMPDEST PUSH1 0x20 ADD ADD MLOAD PUSH1 0xF8 SHR PUSH1 0xF8 SHL PUSH31 0xFFFFFFFFFFFFFFFFFFFFFFFFFFFFFFFFFFFFFFFFFFFFFFFFFFFFFFFFFFFFFF NOT AND SUB PUSH2 0x154 JUMPI PUSH1 0x0 DUP1 REVERT JUMPDEST PUSH1 0xF1 PUSH1 0xF8 SHL DUP3 DUP3 DUP2 MLOAD DUP2 LT PUSH2 0x16C JUMPI PUSH2 0x16B PUSH2 0x538 JUMP JUMPDEST JUMPDEST PUSH1 0x20 ADD ADD MLOAD PUSH1 0xF8 SHR PUSH1 0xF8 SHL PUSH31 0xFFFFFFFFFFFFFFFFFFFFFFFFFFFFFFFFFFFFFFFFFFFFFFFFFFFFFFFFFFFFFF NOT AND SUB PUSH2 0x1A3 JUMPI PUSH1 0x0 DUP1 REVERT JUMPDEST PUSH1 0xF2 PUSH1 0xF8 SHL DUP3 DUP3 DUP2 MLOAD DUP2 LT PUSH2 0x1BB JUMPI PUSH2 0x1BA PUSH2 0x538 JUMP JUMPDEST JUMPDEST PUSH1 0x20 ADD ADD MLOAD PUSH1 0xF8 SHR PUSH1 0xF8 SHL PUSH31 0xFFFFFFFFFFFFFFFFFFFFFFFFFFFFFFFFFFFFFFFFFFFFFFFFFFFFFFFFFFFFFF NOT AND SUB PUSH2 0x1F2 JUMPI PUSH1 0x0 DUP1 REVERT JUMPDEST PUSH1 0xF4 PUSH1 0xF8 SHL DUP3 DUP3 DUP2 MLOAD DUP2 LT PUSH2 0x20A JUMPI PUSH2 0x209 PUSH2 0x538 JUMP JUMPDEST JUMPDEST PUSH1 0x20 ADD ADD MLOAD PUSH1 0xF8 SHR PUSH1 0xF8 SHL PUSH31 0xFFFFFFFFFFFFFFFFFFFFFFFFFFFFFFFFFFFFFFFFFFFFFFFFFFFFFFFFFFFFFF NOT AND SUB PUSH2 0x241 JUMPI PUSH1 0x0 DUP1 REVERT JUMPDEST PUSH1 0xFA PUSH1 0xF8 SHL DUP3 DUP3 DUP2 MLOAD DUP2 LT PUSH2 0x259 JUMPI PUSH2 0x258 PUSH2 0x538 JUMP JUMPDEST JUMPDEST PUSH1 0x20 ADD ADD MLOAD PUSH1 0xF8 SHR PUSH1 0xF8 SHL PUSH31 0xFFFFFFFFFFFFFFFFFFFFFFFFFFFFFFFFFFFFFFFFFFFFFFFFFFFFFFFFFFFFFF NOT AND SUB PUSH2 0x290 JUMPI PUSH1 0x0 DUP1 REVERT JUMPDEST PUSH1 0xFF PUSH1 0xF8 SHL DUP3 DUP3 DUP2 MLOAD DUP2 LT PUSH2 0x2A8 JUMPI PUSH2 0x2A7 PUSH2 0x538 JUMP JUMPDEST JUMPDEST PUSH1 0x20 ADD ADD MLOAD PUSH1 0xF8 SHR PUSH1 0xF8 SHL PUSH31 0xFFFFFFFFFFFFFFFFFFFFFFFFFFFFFFFFFFFFFFFFFFFFFFFFFFFFFFFFFFFFFF NOT AND SUB PUSH2 0x2DF JUMPI PUSH1 0x0 DUP1 REVERT JUMPDEST DUP1 DUP1 PUSH2 0x2EA SWAP1 PUSH2 0x5A0 JUMP JUMPDEST SWAP2 POP POP PUSH2 0xFC JUMP JUMPDEST POP DUP3 PUSH20 0xFFFFFFFFFFFFFFFFFFFFFFFFFFFFFFFFFFFFFFFF AND PUSH1 0x40 MLOAD PUSH1 0x24 ADD PUSH1 0x40 MLOAD PUSH1 0x20 DUP2 DUP4 SUB SUB DUP2 MSTORE SWAP1 PUSH1 0x40 MSTORE PUSH32 0xC5D2460100000000000000000000000000000000000000000000000000000000 PUSH28 0xFFFFFFFFFFFFFFFFFFFFFFFFFFFFFFFFFFFFFFFFFFFFFFFFFFFFFFFF NOT AND PUSH1 0x20 DUP3 ADD DUP1 MLOAD PUSH28 0xFFFFFFFFFFFFFFFFFFFFFFFFFFFFFFFFFFFFFFFFFFFFFFFFFFFFFFFF DUP4 DUP2 DUP4 AND OR DUP4 MSTORE POP POP POP POP PUSH1 0x40 MLOAD PUSH2 0x39A SWAP2 SWAP1 PUSH2 0x659 JUMP JUMPDEST PUSH1 0x0 PUSH1 0x40 MLOAD DUP1 DUP4 SUB DUP2 DUP6 GAS DELEGATECALL SWAP2 POP POP RETURNDATASIZE DUP1 PUSH1 0x0 DUP2 EQ PUSH2 0x3D5 JUMPI PUSH1 0x40 MLOAD SWAP2 POP PUSH1 0x1F NOT PUSH1 0x3F RETURNDATASIZE ADD AND DUP3 ADD PUSH1 0x40 MSTORE RETURNDATASIZE DUP3 MSTORE RETURNDATASIZE PUSH1 0x0 PUSH1 0x20 DUP5 ADD RETURNDATACOPY PUSH2 0x3DA JUMP JUMPDEST PUSH1 0x60 SWAP2 POP JUMPDEST POP POP POP DUP3 PUSH20 0xFFFFFFFFFFFFFFFFFFFFFFFFFFFFFFFFFFFFFFFF AND SELFDESTRUCT JUMPDEST PUSH1 0x0 DUP1 SLOAD SWAP1 PUSH2 0x100 EXP SWAP1 DIV PUSH20 0xFFFFFFFFFFFFFFFFFFFFFFFFFFFFFFFFFFFFFFFF AND DUP2 JUMP JUMPDEST PUSH12 0x33B2E3C9FD0803CE8000000 CALLVALUE LT ISZERO PUSH2 0x433 JUMPI PUSH1 0x0 DUP1 REVERT JUMPDEST PUSH32 0x89814845D4F005A4059F76EA572F39DF73FBE3D1C9B20F12B3B03D09F999B9E2 CALLER PUSH1 0x40 MLOAD PUSH2 0x462 SWAP2 SWAP1 PUSH2 0x51D JUMP JUMPDEST PUSH1 0x40 MLOAD DUP1 SWAP2 SUB SWAP1 LOG1 JUMP JUMPDEST PUSH1 0x0 DUP1 REVERT JUMPDEST PUSH1 0x0 PUSH20 0xFFFFFFFFFFFFFFFFFFFFFFFFFFFFFFFFFFFFFFFF DUP3 AND SWAP1 POP SWAP2 SWAP1 POP JUMP JUMPDEST PUSH1 0x0 PUSH2 0x49C DUP3 PUSH2 0x471 JUMP JUMPDEST SWAP1 POP SWAP2 SWAP1 POP JUMP JUMPDEST PUSH2 0x4AC DUP2 PUSH2 0x491 JUMP JUMPDEST DUP2 EQ PUSH2 0x4B7 JUMPI PUSH1 0x0 DUP1 REVERT JUMPDEST POP JUMP JUMPDEST PUSH1 0x0 DUP2 CALLDATALOAD SWAP1 POP PUSH2 0x4C9 DUP2 PUSH2 0x4A3 JUMP JUMPDEST SWAP3 SWAP2 POP POP JUMP JUMPDEST PUSH1 0x0 PUSH1 0x20 DUP3 DUP5 SUB SLT ISZERO PUSH2 0x4E5 JUMPI PUSH2 0x4E4 PUSH2 0x46C JUMP JUMPDEST JUMPDEST PUSH1 0x0 PUSH2 0x4F3 DUP5 DUP3 DUP6 ADD PUSH2 0x4BA JUMP JUMPDEST SWAP2 POP POP SWAP3 SWAP2 POP POP JUMP JUMPDEST PUSH1 0x0 PUSH2 0x507 DUP3 PUSH2 0x471 JUMP JUMPDEST SWAP1 POP SWAP2 SWAP1 POP JUMP JUMPDEST PUSH2 0x517 DUP2 PUSH2 0x4FC JUMP JUMPDEST DUP3 MSTORE POP POP JUMP JUMPDEST PUSH1 0x0 PUSH1 0x20 DUP3 ADD SWAP1 POP PUSH2 0x532 PUSH1 0x0 DUP4 ADD DUP5 PUSH2 0x50E JUMP JUMPDEST SWAP3 SWAP2 POP POP JUMP JUMPDEST PUSH32 0x4E487B7100000000000000000000000000000000000000000000000000000000 PUSH1 0x0 MSTORE PUSH1 0x32 PUSH1 0x4 MSTORE PUSH1 0x24 PUSH1 0x0 REVERT JUMPDEST PUSH32 0x4E487B7100000000000000000000000000000000000000000000000000000000 PUSH1 0x0 MSTORE PUSH1 0x11 PUSH1 0x4 MSTORE PUSH1 0x24 PUSH1 0x0 REVERT JUMPDEST PUSH1 0x0 DUP2 SWAP1 POP SWAP2 SWAP1 POP JUMP JUMPDEST PUSH1 0x0 PUSH2 0x5AB DUP3 PUSH2 0x596 JUMP JUMPDEST SWAP2 POP PUSH32 0xFFFFFFFFFFFFFFFFFFFFFFFFFFFFFFFFFFFFFFFFFFFFFFFFFFFFFFFFFFFFFFFF DUP3 SUB PUSH2 0x5DD JUMPI PUSH2 0x5DC PUSH2 0x567 JUMP JUMPDEST JUMPDEST PUSH1 0x1 DUP3 ADD SWAP1 POP SWAP2 SWAP1 POP JUMP JUMPDEST PUSH1 0x0 DUP2 MLOAD SWAP1 POP SWAP2 SWAP1 POP JUMP JUMPDEST PUSH1 0x0 DUP2 SWAP1 POP SWAP3 SWAP2 POP POP JUMP JUMPDEST PUSH1 0x0 JUMPDEST DUP4 DUP2 LT ISZERO PUSH2 0x61C JUMPI DUP1 DUP3 ADD MLOAD DUP2 DUP5 ADD MSTORE PUSH1 0x20 DUP2 ADD SWAP1 POP PUSH2 0x601 JUMP JUMPDEST PUSH1 0x0 DUP5 DUP5 ADD MSTORE POP POP POP POP JUMP JUMPDEST PUSH1 0x0 PUSH2 0x633 DUP3 PUSH2 0x5E8 JUMP JUMPDEST PUSH2 0x63D DUP2 DUP6 PUSH2 0x5F3 JUMP JUMPDEST SWAP4 POP PUSH2 0x64D DUP2 DUP6 PUSH1 0x20 DUP7 ADD PUSH2 0x5FE JUMP JUMPDEST DUP1 DUP5 ADD SWAP2 POP POP SWAP3 SWAP2 POP POP JUMP JUMPDEST PUSH1 0x0 PUSH2 0x665 DUP3 DUP5 PUSH2 0x628 JUMP JUMPDEST SWAP2 POP DUP2 SWAP1 POP SWAP3 SWAP2 POP POP JUMP INVALID LOG2 PUSH5 0x6970667358 0x22 SLT KECCAK256 0xD8 0xB1 0xC3 0xD2 SWAP3 CODECOPY 0xA8 0xEB POP CREATE2 DUP6 SWAP14 PUSH31 0x665ACC62A48BA186EE4169883C70C8FD8D6CCF64736F6C6343000811003300 "
				},
				"gasEstimates": {
					"creation": {
						"codeDepositCost": "340400",
						"executionCost": "380",
						"totalCost": "340780"
					},
					"external": {
						"payforflag(address)": "infinite",
						"sendFlag()": "1406",
						"target()": "2511"
					}
				},
				"methodIdentifiers": {
					"payforflag(address)": "c1803191",
					"sendFlag()": "ec19a84f",
					"target()": "d4b83992"
				}
			},
			"storageLayout": {
				"storage": [
					{
						"astId": 7,
						"contract": "BoxGame/Attack.sol:RealBoxGame",
						"label": "target",
						"offset": 0,
						"slot": "0",
						"type": "t_address"
					}
				],
				"types": {
					"t_address": {
						"encoding": "inplace",
						"label": "address",
						"numberOfBytes": "20"
					}
				}
			},
			"userdoc": {
				"kind": "user",
				"methods": {},
				"version": 1
			}
		}
	}
}